:020000040800F2
:10000000080B0020893B0008FB040008FD040008E1
:1000100001050008050500080905000800000000AA
:100020000000000000000000000000000D050008B6
:100030000F05000800000000110500081305000866
:10004000A33B0008A33B0008A33B0008A33B000818
:10005000A33B0008A33B0008A33B0008A33B000808
:10006000A33B0008A33B0008A33B0008A33B0008F8
:10007000A33B0008A33B0008A33B0008A33B0008E8
:10008000A33B0008A33B0008A33B0008A33B0008D8
:10009000A33B0008A33B0008A33B0008A33B0008C8
:1000A000A33B0008A33B0008A33B0008A33B0008B8
:1000B000A33B00086D040008DB040008A33B000814
:1000C000A33B0008EB040008F3040008A33B00086E
:1000D000A33B0008E3040008A33B0008A33B00087F
:1000E000A33B0008A33B0008A33B000800F002F874
:1000F00000F05AF80AA090E8000C82448344AAF168
:100100000107DA4501D100F04FF8AFF2090EBAE865
:100110000F0013F0010F18BFFB1A43F0010318473B
:1001200000870000208700000A444FF0000C10F800
:10013000013B13F0070408BF10F8014B1D1108BF65
:1001400010F8015B641E05D010F8016B641E01F805
:10015000016BF9D113F0080F1EBF10F8014BAD1C55
:100160000C1B09D16D1E58BF01F801CBFAD505E073
:1001700014F8016B01F8016B6D1EF9D59142D6D3CD
:10018000704700000023002400250026103A28BFF5
:1001900078C1FBD8520728BF30C148BF0B607047F9
:1001A0001FB51FBD10B510BD06F0ACFD1146FFF721
:1001B000F7FF00F043F806F0CAFD03B4FFF7F2FFC3
:1001C00003BC06F0CDFD00001CB502F04EF902F0B4
:1001D00071F903F04DF94FF4E13002F0F3FC4FF404
:1001E000FA7002F0BDFC01F09DFF03200090012396
:1001F0001A467C490190A62006F0D9F903F04EF882
:1002000003F056F92821042003F078FA03F057FA96
:1002100018B175A002F0DEFD02E078A002F0DAFD70
:1002200005F069FE01F0A0FF01F0B9FF01F0E1FF68
:1002300002F072F8012002F0B4FC1CBDFFF7C4FF0D
:10024000CFE0744800780028FAD000207149087087
:1002500071480078401C7049087070480078401C54
:100260006E49087008460078142805D100200870EF
:100270006B496C4800F098FE67480078012804D16B
:1002800069496A4802F005FEABE000206249087047
:100290006749684802F0FDFD6449B1F90010654AFC
:1002A000B2F90020881800EBD071491009B2624AF7
:1002B00011805E49B1F902105E4AB2F90220881835
:1002C00000EBD071491009B25B4A51805749B1F92E
:1002D0000410584AB2F90420881800EBD071491074
:1002E00009B2554A91805049B1F90010504AB2F90B
:1002F0000020881800EBD071491009B24F4A1180D4
:100300004949B1F902104A4AB2F90220881800EBB3
:10031000D071491009B2494A51804349B1F90410DA
:10032000434AB2F90420881800EBD071491009B291
:10033000424A91804249404800F0FAF8414A404917
:100340003E4800F03FF936480378364A3B493D487D
:1003500000F060FC3248007810B102F00DF904E0C2
:100360004FF40041384803F09AFE38480078401CAA
:100370003649087036480078401C354908703548C1
:100380000078401C3349087033480078401C3249DB
:1003900008702E480078052805D100202B490870E8
:1003A00001202E4908702A480078052805D1002030
:1003B0002749087001202A490870264800780A2831
:1003C00005D10020234908700120264908702248E1
:1003D00000780A2805D100201F4908700120224911
:1003E00008702EE7801A06004E524632344C3031E7
:1003F000204953204F4B20210D0A00004E52463217
:10040000344C3031204953204E4F54204F4B202143
:100410000D0A000001000020190000201A00002031
:100420001800002074010020280000201C0000207B
:100430002E000020220000200200002008000020E2
:100440000E00002068010020000801403400002058
:1004500035000020360000203700002090000020EA
:100460008F000020910000209600002010B5294840
:10047000008800F0010078B34FF6FE70254908802F
:1004800025480068401C2449086024480078401C26
:100490002249087022480088401C214908801F48D2
:1004A0000078022807D100201C49087002F03DFEA8
:1004B00001201C4908701A480088B0F5FA6F09D16C
:1004C0000020174908801848006818490860002073
:1004D0001549086001F0B3FD10BD10B503F03AFAFC
:1004E00010BD10B502F0C2FB10BD10B506F0F4F956
:1004F00010BD10B506F0C7FB10BD704700BFFEE78A
:1005000000BFFEE700BFFEE700BFFEE77047704791
:100510007047704710040040D000002040000020C9
:100520004200002001000020380000203C00002094
:10053000F0B502460023002400251688FE4FDFF8A0
:10054000FCC39CF800C027F81C605688FC4FDFF8FD
:10055000ECC39CF800C027F81C609688F94FDFF8C0
:10056000DCC39CF800C027F81C6000200DE0F24EB0
:1005700036F910603344F24E36F910603444F14ECF
:1005800036F910603544461CF0B21428EFDB14260F
:1005900093FBF6F636B20E80142694FBF6F636B2CE
:1005A0004E80142695FBF6F636B28E80E34E3678F2
:1005B000761CE24F3E703E463678142E01D100265E
:1005C0003E70F0BD07B5A8B02998B0F900001190B1
:1005D00007F058FE26902998B0F90200119007F014
:1005E00051FE25902998B0F90400119007F04AFEB9
:1005F00024902898B0F90000119007F043FE239052
:100600002898B0F90200119007F03CFE229028983B
:10061000B0F90400119007F035FE2190CA48016836
:10062000006807F08FFE1990C8480168C648006846
:1006300007F088FE1890C6480168C348006807F0B4
:1006400081FE1790C1480168006807F07BFE169094
:10065000C0480168BD48006807F074FE1590BC48AA
:100660000168006807F06EFE1490BA480168B84847
:10067000006807F067FE1390B6480168006807F04D
:1006800061FE1290DDE9251007F05CFE10902499C0
:1006900007F058FE0021119007F084FD01D12BB026
:1006A00000BDAD49239807F04DFE2390AA4922983A
:1006B00007F048FE2290A849219807F043FE2190B8
:1006C0002499084607F03EFE0C902599084607F04D
:1006D00039FE0A902699084607F034FE09900A99D7
:1006E00007F030FC0B900C9907F02CFC0D9007F0F4
:1006F000FDFBCDE90E0106F0BFFECDE9100106F0CD
:10070000E1FE20902099269807F08AFC26902099F7
:10071000259807F085FC25902099249807F080FC07
:1007200024908E49209807F0D9FE02D200208C49EF
:1007300008701799159807F00DFF4FF08041119040
:1007400007F000FE1F901399189807F0FBFB4FF07D
:100750008041119007F0F6FD1E901699199807F048
:10076000F9FE1090149907F0F5FE1190129907F018
:10077000E9FB1D901E99249807F0E4FD11901D9946
:10078000259807F0DFFD1090119907F0E3FE1C900B
:100790001D99269807F0D6FD11901F99249807F00F
:1007A000D1FD1090119907F0D5FE1B901F99259847
:1007B00007F0C8FD11901E99269807F0C3FD109010
:1007C000119907F0C7FE1A9066491C9807F0BAFD08
:1007D000119065480168119807F0B4FB6249086000
:1007E00060491B9807F0AEFD1190604801681198B0
:1007F00007F0A8FB5D4908605A491A9807F0A2FD66
:1008000011905B480168119807F09CFB58490860FB
:1008100058481C9907F096FD1090239907F092FB19
:10082000119051480168119807F08CFB23905148B2
:100830001B9907F087FD1090229907F083FB119018
:100840004A480168119807F07DFB229049481A999F
:1008500007F078FD1090219907F074FB119044483F
:100860000168119807F06EFB21903A4821990068C1
:1008700007F068FD0F9036482299006807F062FD86
:100880000D903248006880F000400B90239907F0EB
:1008900059FD0C900D9907F05DFE0E900F9907F031
:1008A00059FE3049109007F04DFD1190264801681F
:1008B000119807F047FB24490860264822990068F0
:1008C00007F040FD0F9022482199006807F03AFD9B
:1008D0000D901D482399006807F034FD0C900D9988
:1008E00007F030FB0E900F9907F034FE1D49109071
:1008F00007F028FD119015480168119807F022FBB8
:100900001249086013482399006807F01BFD0F90F7
:100910000E482199006807F015FD0D900A482299AC
:10092000006807F00FFD0C900D9907F013FE0E9074
:100930000F9907F007FB1FE08801002068000020E6
:10094000B0010020D80100204C0000205000002001
:10095000540000205800002089A18B3A00E880460E
:10096000180000206F12833A5C0000206000002015
:1009700064000020CDCCCC3F9C49109007F0E2FCF5
:1009800011909B480168119807F0DCFA98490860BB
:1009900097482399006807F0D5FC0F909548229955
:1009A000006807F0CFFC0D9093482199006807F08C
:1009B000C9FC0C900D9907F0C5FA0E900F9907F03D
:1009C000C9FD8A49109007F0BDFC11908B48016861
:1009D000119807F0B7FA894908600846016800686D
:1009E00007F0B0FC0C9082480168006807F0AAFC90
:1009F0000A9080480168006807F0A4FC08907E48CF
:100A00000168006807F09EFC0790089907F09AFAC1
:100A100009900A9907F096FA0B900C9907F092FA50
:100A20000D9007F063FACDE90E0106F025FDCDE942
:100A3000100106F047FD20906F482099006807F0EC
:100A4000EFFA6D4908606B482099006807F0E8FAF2
:100A50006849086066482099006807F0E1FA64492F
:100A6000086066482099006807F0DAFA6349086070
:100A70002898B0F904000E9007F004FC60490F902C
:100A800007F060FC5F49109007F05CFC11902A9819
:100A9000806801461090119807F054FA2A998860EE
:100AA0005948006807F022FACDE90E015248016862
:100AB0004FF0804007F046FC04904D4801680498D0
:100AC00007F040FC06904B4801684FF0404007F0AB
:100AD00039FC049049480168049807F033FC0590FC
:100AE000069907F02FFA079007F000FACDE9080100
:100AF00006F0BAF94FF06632444BCDE90A0106F030
:100B00001BFFCDE90C01DDE90E2307F005F9CDE966
:100B1000100106F0D7FC2A9908603D48006807F0EC
:100B2000E5F9CDE90E01324801684FF0804007F049
:100B300009FC01902E480168019807F003FC03901E
:100B40002C4801684FF0404007F0FCFB0190294819
:100B50000168019807F0F6FB0290039907F0FAFC90
:100B60004FF07E51049007F0EDF9059007F0BEF9C3
:100B7000CDE90801204801684FF0804007F0E2FB12
:100B800002901C480168029807F0DCFB04901848AA
:100B900001684FF0804007F0D5FB029017480168CC
:100BA000029807F0CFFB0390049907F0CBF905906A
:100BB00007F09CF9CDE90601DDE9082306F09CFB6E
:100BC0004FF06632114BCDE90A0106F0B5FECDE9D2
:100BD0000C01DDE90E2307F09FF8CDE9100106F0C6
:100BE00071FC2A99486000BF59E500006F12833AF2
:100BF00054000020500000204C000020580000202D
:100C0000F1FF793D6F12033B4800002066A64C407F
:100C1000440000202DE9FE4F06460D4614461F46AF
:100C2000B4F90000A0F2DC500C2190FBF1F9484629
:100C300007F028FB8046316807F081FC0090B4F98A
:100C40000200A0F2DC500C2190FBF1F9484607F0BD
:100C500019FB8046716807F075F90190C248009948
:100C6000006807F06FF9C0490860C049BE480068D5
:100C700007F034FC02D2BD48BB490860BC49BA4801
:100C8000006807F02BFB02D2B948B7490860B94A9F
:100C90000099106807F056FBB6494860B5F90200A4
:100CA00007F0F0FA8146B348006980F000484946F1
:100CB000404607F047FBAF4948610A4651699068D2
:100CC00007F040FBAB49C860AB480199006807F0EA
:100CD00039F9A9490860A549A748006807F0FEFB53
:100CE00002D2A248A4490860A149A348006807F0BD
:100CF000F5FA02D29E48A0490860A04A01991068FE
:100D000007F020FB9D494860B5F9000007F0BAFAEA
:100D100080469A480169404607F014FB97494861AC
:100D200088689549096807F00DFB9449C860B4F9D3
:100D30000600B0F5AF6F04DBB4F90600B0F5C86F7C
:100D400007DDA988E088A0F2DC5001EB400000B28A
:100D5000A880B5F9040007F095FA8246884907F0A3
:100D6000F1FA8146874907F0EDFA80468648016826
:100D7000404607F0E7F884490860844982480068E3
:100D800007F0ACFB02D281487F49086080497E4869
:100D9000006807F0A3FA02D27D487B4908607D49CC
:100DA00008687949096807F0CDFA7A494860B5F9C9
:100DB000040007F067FA804676480169404607F06C
:100DC000C1FA74494861B4F90400B0F5966F06DAC7
:100DD000002069490860644908606B4908606548FB
:100DE000406880F000496348C168484607F0B2FB9C
:100DF000804660484169404607F0A4F85D49C861F3
:100E00005E4AD168506807F09DF880465B484169AA
:100E1000404607F097F85949C8615E4AD168506862
:100E200007F090F880465B484169404607F08AF831
:100E30005849C861B4F90400B0F5966F7BDD002F06
:100E400079D0B4F90410A1F57A7007F01BFA834643
:100E50004848C169584607F07DFB82464748C1694A
:100E6000504607F077FB81464A48C169484607F07B
:100E700069F8804607F0CAF900B247490880B4F91A
:100E80000410A1F57A7007F0FDF983463948C1696D
:100E9000584607F057F882463848C169504607F06F
:100EA00059FB81463B48C169484607F053FB8046E1
:100EB00007F0ACF900B239490880B4F90410A1F583
:100EC0007A7007F0DFF983462A48C169584607F06F
:100ED00039F882462948C169504607F033F88146FF
:100EE0002C48C169484607F02DF8804607F08EF976
:100EF00000B22B490880B4F90410A1F57A7007F00C
:100F0000C1F983461B48C169584607F023FB824656
:100F10001A48C169504607F015F881461D48C16955
:100F2000484607F017FB804607F070F900B21D49EC
:100F3000088009E0FFE7002017490880174908806A
:100F400017490880174908801648B0F9003014483E
:100F5000B0F900201148B0F900100F48B0F90000B6
:100F600002F0C8F9BDE8FE8F700000200000FA44CE
:100F70000000FAC4000200207400002020020020BB
:100F80008DC1793D6F12033B780000200000A04125
:100F90000000A0C1400200207C0000207E00002054
:100FA000800000208200002070B504460D46B4F990
:100FB0000400B0F5966F12DAB4F90600B0F5966F3A
:100FC0000DDA30480078401C2E4908700846007839
:100FD0004B281ED1002008700120287019E0B4F9B8
:100FE0000400B0F5966F11DAB4F90600B0F5E16FC0
:100FF0000CDD24480078401C22490870084600781F
:101000004B2806D100200870287002E000201D49FE
:1010100008702878012800D170BDB4F90400B0F53B
:10102000966F12DAB4F90000B0F5966F0DDA164833
:101030000078401C14490870084600784B281FD1DE
:101040000020087001F01DFF1AE0B4F90400B0F5AB
:10105000966F12DAB4F90000B0F5E16F0DDD0A48C1
:101060000078401C08490870084600784B2807D1D2
:101070000020087001F009FF02E00020024908701A
:1010800000BFC9E78C0000208D00002031B5AA20E8
:10109000FE4908704870F02088700320C870BA209C
:1010A00008719DF8010048719DF8000088710024C6
:1010B000002005E0F549095C2144CCB2411CC8B2CE
:1010C0000728F7DBF148C471082102F0D1FA38BDD6
:1010D0002DE9F04104460D460026002004E0215C85
:1010E0003144CEB2411CC8B2691E8142F7DC60199E
:1010F00010F8010CB04201D0BDE8F0812078AA2898
:1011000002D16078AF2800D0F6E7A078012810D18E
:101110002079012801D101F0B4FE2079022801D103
:1011200001F0B3FE2079032803D101F0AAFE01F0FB
:10113000ACFEA07802280ED12079012805D1D4492F
:101140000870D4490870D44908702079022802D167
:101150000120D2490870A078032849D120790002E3
:1011600000B261790843CE498880A079000200B2BC
:10117000E1790843CA49C880207A000200B2617A46
:101180000843C7490880A07A000200B2E17A084308
:10119000C3494880207B000200B2617B0843C049FC
:1011A0000881A07B000200B2E17B0843BC49488172
:1011B000207C000200B2617C0843B9498881A07C90
:1011C000000200B2E17C0843B549C881207D0002DD
:1011D00000B2617D0843B2490882607D000200B21E
:1011E000A17D0843AE494882AE49AD48FFF7DCFE19
:1011F000A07810287ED12179090209B2627941EAEA
:10120000020007F03FF80746A74906F009FFA74983
:101210000860A179090209B2E27941EA020007F007
:1012200031F80746A24906F0FBFEA0498860217A02
:10123000090209B2627A41EA020007F023F8074680
:10124000994906F0EDFE99490861A17A090209B2AF
:10125000E27A41EA020007F015F80746924906F0E3
:10126000DFFE94490860217B090209B2627B41EAF2
:10127000020007F007F807468D4906F0D1FE8D49B8
:101280008860A17B090209B2E27B41EA020006F014
:10129000F9FF0746844906F0C3FE86490861217CB0
:1012A000090209B2627C41EA020006F0EBFF074640
:1012B0007D4906F0B5FE80490860A17C090209B2AB
:1012C000E27C41EA020006F0DDFF0746764906F0BF
:1012D000A7FE79498860217D090209B2627D41EA51
:1012E000020006F0CFFF07466F4906F099FE7249EB
:1012F000086100E002E03046FFF7C8FEA078112840
:101300007ED12179090209B2627941EA020006F030
:10131000B9FF0746644906F083FE68490860A17971
:10132000090209B2E27941EA020006F0ABFF074682
:101330005D4906F075FE61498860217A090209B2AB
:10134000627A41EA020006F09DFF0746564906F020
:1013500067FE5A490861A17A090209B2E27A41EAB4
:10136000020006F08FFF07464F4906F059FE544928
:101370000860217B090209B2627B41EA020006F0A3
:1013800081FF0746484906F04BFE4D498860A17B26
:10139000090209B2E27B41EA020006F073FF074648
:1013A000414906F03DFE46490861217C090209B227
:1013B000627C41EA020006F065FF07463A4906F002
:1013C0002FFE40490860A17C090209B2E27C41EA93
:1013D000020006F057FF0746334906F021FE39495F
:1013E0008860217D090209B2627D41EA020006F0AF
:1013F00049FF07462C4906F013FE3249086100E018
:1014000002E03046FFF742FEA07812282ED1217963
:10141000090209B2627941EA020006F033FF074689
:10142000214906F0FDFD28490860A179090209B2A9
:10143000E27941EA020006F025FF07461A4906F064
:10144000EFFD21498860217A090209B2627A41EAF6
:10145000020006F017FF0746134906F0E1FD1A499E
:1014600008613046FFF712FE00F0D6FEA07816287D
:101470003CD12179090209B2627941EA020006F001
:1014800001FF07460A4906F0CBFD1FE0E0020020FD
:10149000930000209400002095000020920000207E
:1014A00074010020180000200000C8420002002043
:1014B00000007A4420020020400200206002002048
:1014C00080020020A0020020C0020020FE49086027
:1014D000A179090209B2E27941EA020006F0D2FEDE
:1014E0000746FA4906F09CFDF949086000BF03E68B
:1014F00070B5072002F06EF8044604F04000A0B179
:10150000602002F067F80546212D09DA2A46F149E4
:10151000612002F08FF82946EE48FFF7D9FD03E07D
:10152000FF21E22002F042F800BF04F0100030B1C9
:1015300004F0010018B1FF21E12002F037F8214644
:10154000272002F033F870BD10B5172002F042F8E2
:1015500010BD70B50024AA222146641CDE48425406
:101560002146641C425406222146641C4254002237
:101570002146641C4254D94842782146641CD6480E
:101580004254D64802782146641CD3484254D44879
:1015900042782146641CD0484254D1480278204603
:1015A000611CCCB2CC490A54CE4842782046611C1A
:1015B000CCB2C9490A54CB4802782046611CCCB24F
:1015C000C5490A54C84842782046611CCCB2C24979
:1015D0000A54C54802782146601CC4B2BE48425431
:1015E000C24842782046611CCCB2BB490A54BF486D
:1015F00002782046611CCCB2B7490A54BC484278F4
:101600002046611CCCB2B4490A54B948027820463D
:10161000611CCCB2B0490A54B64842782046611CDD
:10162000CCB2AD490A54B34802782046611CCCB212
:10163000A9490A54B04842782046611CCCB2A64958
:101640000A54AD4802782046611CCCB2A2490A5423
:10165000201FC8700025002005E09F49095C29442F
:10166000CDB2411CC8B2A042F7DB2046611CCCB20F
:1016700099490D542146984801F0FAFF70BDF8B51C
:101680000024AA222146641C934842542146641C2B
:10169000425416222146641C425400222146641CF6
:1016A00042548A498848006806F04CFE064606F017
:1016B000ADFD00B200909DF801202146641C8648D3
:1016C00042549DF800202146641C42547F498048C2
:1016D000006806F037FE064606F098FD00B200905E
:1016E0009DF801202146641C7B4842549DF800204F
:1016F0002046611CCCB278490A54201FC8700025CE
:10170000002005E07449095C2944CDB2411CC8B2EF
:10171000A042F7DB2046611CCCB26F490D54214634
:101720006D4801F0A5FFF8BD70B50024AA2221463E
:10173000641C694842542146641C425403222146D9
:10174000641C425400222146641C42546B48427976
:101750002146641C60484254684802792146641C52
:101760005D4842546548C2792146641C5A48425437
:10177000624882792146601CC4B2574842545F488F
:1017800042782046611CCCB253490A545B48027827
:101790002046611CCCB250490A545848C2782046B1
:1017A000611CCCB24C490A54544882782046611CD2
:1017B000CCB249490A545148427A2046611CCCB205
:1017C00045490A544D48027A2146601CC4B2424839
:1017D00042544A48C27A2146601CC4B23E48425430
:1017E0004648827A2046611CCCB23B490A544348A1
:1017F000427B2046611CCCB237490A543F48027BE9
:101800002046611CCCB234490A543C48C27B204675
:10181000611CCCB230490A543848827B2046611C96
:10182000CCB22D490A543548427C2046611CCCB2CA
:1018300029490A543148027C2046611CCCB2264911
:101840000A542E48C27C2046611CCCB222490A545C
:101850002A48827C2046611CCCB21F490A54201FB2
:10186000C8700025002005E01B49095C2944CDB261
:10187000411CC8B2A042F7DB2046611CCCB216491D
:101880000D542146144801F0F3FE70BDF8B5002454
:10189000AA222146641C104842542146641C42542A
:1018A00012222146641C425400222146641C4254E8
:1018B00013490868134906F045FD064606F0A6FCE4
:1018C00000B2009020E000004400002000007A44B4
:1018D0004800002052040020E00200207C0000208C
:1018E0007E00002080000020820000208400002074
:1018F00086000020880000208A000020740100205B
:10190000C00200200000C8429DF801202146641C4E
:10191000FE4842549DF800202146641C4254FC4974
:101920008868FC4906F00EFD064606F06FFC00B222
:1019300000909DF801202146641CF44842549DF813
:1019400000202146601CC4B2F0484254F0490869A6
:10195000F04906F0F7FC064606F058FC00B200908D
:101960009DF801202046611CCCB2E8490A549DF83C
:1019700000202146601CC4B2E4484254201FE349C1
:10198000C8700025002005E0E049095C2944CDB27B
:10199000411CC8B2A042F7DB2046611CCCB2DB4937
:1019A0000D542146D94801F063FEF8BDF8B5002476
:1019B000AA222146641CD54842542146641C425444
:1019C00011222146641C425400222146641C4254C8
:1019D000D1490868CF4906F0B5FC064606F016FC6A
:1019E00000B200909DF801202146641CC748425473
:1019F0009DF800202146641C4254C7498868C549A7
:101A000006F0A0FC064606F001FC00B200909DF82E
:101A100001202146641CBD4842549DF80020204608
:101A2000611CCCB2B9490A54BB490869B94906F0EE
:101A300089FC064606F0EAFB00B200909DF8012002
:101A40002046611CCCB2B1490A549DF800202046C2
:101A5000611CCCB2AD490A54B0490868AD4906F0E2
:101A600071FC064606F0D2FB00B200909DF8012002
:101A70002046611CCCB2A5490A549DF8002021469D
:101A8000601CC4B2A1484254A4498868A14906F028
:101A900059FC064606F0BAFB00B200909DF8012002
:101AA0002046611CCCB299490A549DF8002020467A
:101AB000611CCCB295490A5498490869954906F0C9
:101AC00041FC064606F0A2FB00B200909DF8012002
:101AD0002046611CCCB28D490A549DF80020214655
:101AE000601CC4B2894842548D490868894906F08F
:101AF00029FC064606F08AFB00B200909DF8012002
:101B00002046611CCCB281490A549DF80020204631
:101B1000611CCCB27D490A54814988687D4906F030
:101B200011FC064606F072FB00B200909DF8012001
:101B30002146601CC4B2754842549DF800202046DE
:101B4000611CCCB271490A5475490869714906F0A3
:101B5000F9FB064606F05AFB00B200909DF8012002
:101B60002046611CCCB269490A549DF800202046E9
:101B7000611CCCB265490A54201FC87000250020A2
:101B800005E06249095C2944CDB2411CC8B2A042BB
:101B9000F7DB2046611CCCB25C490D5421465B4802
:101BA00001F066FDF8BDF8B50024AA222146641CA8
:101BB000564842542146641C425410222146641C5B
:101BC000425400222146641C425456490868514937
:101BD00006F0B8FB064606F019FB00B200909DF82F
:101BE00001202146641C494842549DF800202146AA
:101BF000641C42544B4988684B4906F0A3FB0646D7
:101C000006F004FB00B200909DF801202146641C00
:101C10003E4842549DF800202046611CCCB23B490E
:101C20000A54404908693B4906F08CFB064606F019
:101C3000EDFA00B200909DF801202046611CCCB264
:101C400032490A549DF800202046611CCCB22F492D
:101C50000A54364908682F4906F074FB064606F018
:101C6000D5FA00B200909DF801202046611CCCB24C
:101C700026490A549DF800202146601CC4B223481E
:101C800042542A498868284906F05CFB064606F05B
:101C9000BDFA00B200909DF801202046611CCCB234
:101CA0001A490A549DF800202046611CCCB21749FD
:101CB0000A541E490869174906F044FB064606F017
:101CC000A5FA00B200909DF801202046611CCCB21C
:101CD0000E490A549DF800202146601CC4B20B48EE
:101CE0004254134908680B4906F02CFB064606F0DF
:101CF0008DFA00B200909DF801202046611CCCB204
:101D000002490A549DF80020204613E0E00200201A
:101D1000C00200200000C8426002002080020020B3
:101D2000A00200200002002000007A4420020020CF
:101D300040020020611CCCB2EA490A54EA49886892
:101D4000EA4906F0FFFA064606F060FA00B2009093
:101D50009DF801202146601CC4B2E24842549DF81F
:101D600000202046611CCCB2DE490A54DE490869D5
:101D7000DE4906F0E7FA064606F048FA00B200909F
:101D80009DF801202046611CCCB2D6490A549DF82A
:101D900000202046611CCCB2D2490A54201FC870D2
:101DA0000025002005E0CF49095C2944CDB2411C43
:101DB000C8B2A042F7DB2046611CCCB2C9490D5421
:101DC0002146C84801F054FCF8BD70B50024AA2291
:101DD0002146641CC34842542146641C42540222DA
:101DE0002146641C425400222146641C4254C048CF
:101DF00042782146641CBB484254BD4802782146C3
:101E0000641CB8484254BA48C2782146641CB5489C
:101E10004254B74882782046611CCCB2B1490A547A
:101E2000B34842792046611CCCB2AE490A54B0484E
:101E300002792046611CCCB2AA490A54AD484278C6
:101E40002046611CCCB2A7490A54AA480278204611
:101E5000611CCCB2A3490A54A648C2782046611C32
:101E6000CCB2A0490A54A34882782046611CCCB267
:101E70009C490A549F4842792046611CCCB299493A
:101E80000A549C4802792046611CCCB295490A54F8
:101E900000222046611CCCB292490A542146601CA3
:101EA000C4B2904842542046611CCCB28D490A54B9
:101EB0002046611CCCB28B490A542046611CCCB22E
:101EC00088490A542046611CCCB286490A54201F16
:101ED000C8700025002005E08249095C2944CDB284
:101EE000411CC8B2A042F7DB2046611CCCB27D4940
:101EF0000D5421467B4801F0BBFB70BD7CB500242E
:101F0000AA222146641C774842542146641C42544C
:101F100001222146641C425400222146641C425482
:101F200075490868714906F00DFA064606F06EF923
:101F300000B201909DF805202146641C6948425476
:101F40009DF804202146641C42546B494868674947
:101F500006F0F8F9064606F059F900B201909DF82E
:101F600005202146641C5F4842549DF80420204609
:101F7000611CCCB25B490A545F4988685B4906F032
:101F8000E1F9064606F042F900B201909DF80520FD
:101F90002046611CCCB253490A549DF804202046C7
:101FA000611CCCB24F490A545448006800909DF817
:101FB00003202046611CCCB24A490A549DF80220F5
:101FC0002046611CCCB247490A549DF801202046A6
:101FD000611CCCB243490A549DF800202046611C84
:101FE000CCB240490A544648007830B9A022204675
:101FF000611CCCB23B490A5409E0414800780128F1
:1020000005D1A1222046611CCCB236490A54201FBA
:102010003449C8700025002005E03249095C294494
:10202000CDB2411CC8B2A042F7DB2046611CCCB245
:102030002C490D5421462B4801F01AFB7CBD10B5EC
:10204000FFF756FAFFF780FA044604F0100000B9D3
:1020500010BD2C48007828B100202A490870FFF7ED
:102060004DFF3DE02848007828B10020264908703F
:10207000FFF7ABFE34E02548007828B10020234963
:102080000870FFF790FD2BE02148007828B1002070
:102090001F490870FFF78AFC22E01E48007828B12B
:1020A00000201C490870FFF7F1FB19E01A4800787E
:1020B00028B1002018490870FFF736FB10E01748D8
:1020C000007828B1002015490870FFF7D8FA07E01A
:1020D0001348007820B1002011490870FFF739FA41
:1020E00000BFB5E7E0020020400200200000C84227
:1020F00002000020080000206801002014000020D9
:10210000180000208F000020900000209300002085
:1021100094000020950000209100002092000020F3
:102120009600002008B54FF4A06001F03DFE252088
:102130008DF8000005208DF8010001208DF80200C7
:102140008DF80300684601F034FE1D208DF8000074
:1021500002208DF8010001208DF802008DF80300A7
:10216000684601F026FE08BD10B500F05AFC10BD0F
:1021700010B5AE4A128891B2AD4A108800F0D6FC74
:10218000AA4A528891B2AA4A508800F0CFFCA74AC6
:10219000928891B2A64A908800F0C8FC10BD10B594
:1021A000A3490888A14900F01CFBA14948889F4920
:1021B000891C00F016FB9E4988889C49091D00F087
:1021C00010FB10BD10B59B4A128891B2984AD08876
:1021D00000F0ACFC974A528891B2954A108900F001
:1021E000A5FC944A928891B2914A508900F09EFCD5
:1021F00010BD10B58E49C8888E4900F0F2FA8C499E
:1022000008898C49891C00F0ECFA89494889894978
:10221000091D00F0E6FA10BD70B5874908688749C6
:1022200006F090F8054606F00DF884B280498889DA
:10223000214600F07BFC80498868814906F082F8DD
:10224000054605F0FFFF84B27949C889214600F0B0
:102250006DFC79490869794906F074F8054605F07E
:10226000F1FF84B27249088A214600F05FFC75498B
:102270000868724906F066F8054605F0E3FF84B287
:102280006B49488A214600F051FC6E4988686C49C8
:1022900006F058F8054605F0D5FF84B26449888AEF
:1022A000214600F043FC67490869644906F04AF892
:1022B000054605F0C7FF84B25D49C88A214600F093
:1022C00035FC614908685D4906F03CF8054605F0B3
:1022D000B9FF84B25649088B214600F027FC5A49C1
:1022E0008868574906F02EF8054605F0ABFF84B222
:1022F0004F49488B214600F019FC534908694F4962
:1023000006F020F8054605F09DFF84B24849888B09
:10231000214600F00BFC70BD38B5454988896946F7
:1023200000F05FFABDF8000005F0C4FF0446434921
:1023300005F076FE404908603D49C889694600F0CD
:1023400050FABDF8000005F0B5FF04463C4905F021
:1023500067FE394988603649088A694600F041FAC3
:10236000BDF8000005F0A6FF0446344905F058FE0C
:10237000314908612E49488A694600F032FABDF8B1
:10238000000005F097FF04462C4905F049FE2D4951
:1023900008602749888A694600F023FABDF80000E2
:1023A00005F088FF0446264905F03AFE2549886075
:1023B0001F49C88A694600F014FABDF8000005F00C
:1023C00079FF04461D4905F02BFE1E490861184996
:1023D000088B694600F005FABDF8000005F06AFFB9
:1023E0000446164905F01CFE174908601049488B41
:1023F000694600F0F6F9BDF8000005F05BFF044601
:102400000F4905F00DFE104988600949888B69461F
:1024100000F0E7F9BDF8000005F04CFF044607495D
:1024200005F0FEFD0849086138BD0000E20000200B
:1024300098000020DC000020000200200000C842BC
:1024400000007A442002002040020020002109E020
:10245000002201E0531C9AB242F234139A42F9DB93
:102460004B1C99B28142F3DB704708B5012104206F
:1024700003F036F90121084603F032F901217848CA
:1024800001F031FE0121774801F02DFE4FF40040AC
:10249000ADF8000003208DF8020010208DF8030035
:1024A0006946714801F04EFD4FF400416E4801F05D
:1024B000F8FD08BD10B54FF400416B4801F0F1FD87
:1024C0006420FFF7C3FF4FF40041674801F0E7FDC8
:1024D0006420FFF7BBFF4FF40041634801F0E1FDCA
:1024E0006420FFF7B3FF4FF400415F4801F0D7FDD0
:1024F0006420FFF7ABFF4FF400415B4801F0D1FDD2
:102500006420FFF7A3FF4FF40041574801F0C7FDD7
:102510006420FFF79BFF4FF40041534801F0C1FDD9
:102520006420FFF793FF4FF400414F4801F0B7FDDF
:102530006420FFF78BFF4FF400414B4801F0B1FDE1
:102540006420FFF783FF4FF40041474801F0A7FDE7
:102550006420FFF77BFF4FF40041434801F0A1FDE9
:102560006420FFF773FF4FF400413F4801F097FDEF
:102570006420FFF76BFF10BD10B53C480078E8B150
:102580003B48007838B93B4800683B490860012067
:10259000374908702EE03848006896303549096898
:1025A000884227D20020314908704FF400412E485C
:1025B00001F075FD00202E4908701BE02C480078C2
:1025C00038B92C4800682C49086001202849087057
:1025D00010E029480068963026490968884209D2E7
:1025E000012022490870C1031F4801F05AFD002054
:1025F0001F49087010BD21480078B8B12048007804
:1026000038B91C4800681F49086001201C4908703F
:1026100024E01C48006896301649096888421DD29B
:102620000020164908701649087017E01448007811
:1026300038B9104800681349086001201049087033
:102640000CE01048006896300A490968884205D2B3
:1026500001200A49087000200949087070470000ED
:10266000000430000002300000080140B9000020E2
:10267000B8000020D0000020BC000020C1000020D5
:10268000C0000020C4000020034606210622F748AF
:102690000188F7480288ABB1012B1BD13AB94EF63D
:1026A000EE60814201D1002070470120FCE739B97A
:1026B0004EF6EE60824201D10120F5E70020F3E7FB
:1026C000AB20F1E709B90020EEE70AB90120EBE7FA
:1026D000AB20E9E70020E7E770B5042600240120DD
:1026E000FFF7D2FF0446AB2C06D1E04800EB842074
:1026F000E0490860AB2070BDDC4800EB8420DD4978
:102700000860601CD949891E01EB80250CE0D9487E
:1027100000680068401C10B904263046EBE7D54835
:102720000068001DD3490860D2480068A842EED373
:102730008020E0E710B50424CC4803F021FC0446D7
:10274000042C01D0204610BD0021C84803F01BFD19
:102750000446042C01D02046F5E7C54803F010FCE0
:1027600004462046EFE72DE9F04104460F460425D4
:102770000026DFF804830120FFF786FF0646AB2E14
:1027800001D1BDE8F081701CB849891E01EB802899
:1027900021E0B84800680068401CB8B93946B5481F
:1027A000006803F0F0FC0546042D01D02846E8E758
:1027B0002146B0480068801C03F0E5FC0546AD48A2
:1027C0000068001DAB4908602846DAE7A9480068A0
:1027D000001DA8490860A74800684045D9D380205B
:1027E000CFE72DE9F04706460F46002545F255583C
:1027F0004FF001099D4CA2460020FFF745FF05461A
:10280000AB2D01D1BDE8F087984800EB852A9948A7
:102810000068841E0AE0B4F80080B04505D134F8A1
:10282000020C38804FF0000904E0241F0AF1020076
:102830008442F0D800BF4846E4E72DE9F0474FF066
:10284000060A062600250027A8464FF0FF398748CC
:10285000B0F800A086480688BAF1000075D0A0F54F
:102860006E40EE3858B3A0F58850113800286DD16D
:1028700046B97E4803F084FB0446042C1ED0204653
:10288000BDE8F0874EF6EE60864210D1774803F03F
:1028900077FB0446042C01D02046F1E70021744860
:1028A00003F071FC0446042C08D02046E8E7FFF74B
:1028B00041FF0446042C01D02046E1E7AEE07EBB98
:1028C000002522E06948C0886C4931F8151088421B
:1028D00001D10FFA85F94D4515D0684931F8150039
:1028E0006749FFF77EFF8046B8F1010F0BD06349BF
:1028F00031F8150062490988FFF735FF0746042FB4
:1029000001D03846BCE7681C85B20F2DDADB002108
:10291000564803F038FC0446042C02D02046AFE7AA
:1029200007E0534803F02CFB0446042C1FD020463C
:10293000A6E74FF6FF70864212D14D4803F020FB08
:102940000446042C03D020469AE711E05EE0002103
:10295000464803F018FC0446042C08D020468FE7B4
:10296000FFF7E8FE0446042C01D0204688E755E036
:1029700036B9FFF7DFFE0446042C46D020467FE739
:102980004FF6FF70864207D1394803F0F9FA044642
:10299000042C3AD0204673E7002523E03448801DFC
:1029A0000088364931F81510884201D10FFA85F9AF
:1029B0004D4515D0314931F815003149FFF711FF68
:1029C0008046B8F1010F0BD02C4931F815002C4985
:1029D0000988FFF7C8FE0746042F01D038464FE7A5
:1029E000681C85B20F2DD9DB0021214803F0CBFBF9
:1029F0000446042C01D0204642E71C4803F0C0FAEC
:102A00000446042C01D020463AE707E0FFF792FE87
:102A10000446042C01D0204632E700BF00BF04204A
:102A20002EE710B5FFF709FF0446FFF755FE2046D5
:102A300010BD2DE9F84F074689460425DFF830A080
:102A4000AAF1010A094800904FF00008002400266E
:102A50004FF0000B0020FFF717FE8046B8F1010F82
:102A600010D1DFF808A00248009016E0000001082D
:102A700000040108CC000020FF0701089800002096
:102A8000C8000020B8F1000F04D1DFF8C4A031481D
:102A9000009002E0AB20BDE8F88F4EF6EE615046A4
:102AA00003F071FB0546042D01D02846F3E7FFF73C
:102AB00013FE49463846FFF756FE0646042E01D05F
:102AC0003046E8E700241CE0234830F81400B84200
:102AD00015D0214931F814002049FFF782FE8346C2
:102AE000BBF1010F0BD01C4931F814001B490988B8
:102AF000FFF739FE0646042E01D03046CBE7601CB6
:102B000084B20F2CE0DB009803F03AFA0546042D5E
:102B100001D02846BFE70021504603F034FB0546AC
:102B2000042D01D02846B6E72846B4E770B505461F
:102B30000E46002431462846FFF715FE0446802C39
:102B400004D131462846FFF774FF0446204670BD85
:102B5000000401080000010898000020C8000020BF
:102B60003EB504460121022002F0C7FD144801F0E1
:102B700037FBADF804404720ADF800000020ADF869
:102B80000600ADF8020069460D4801F0FDFB012189
:102B90000B4802F01BFA01221146094801F06BFFB5
:102BA0003EBD10B504461CB90021054801F048FFA0
:102BB000012C03D10121024801F042FF10BD0000A9
:102BC0000004004010B588B004460121880302F0DB
:102BD00087FD0121042002F083FD4FF40070ADF861
:102BE000040003208DF8060018208DF8070001A9C5
:102BF000934801F0A7F94FF48060ADF8040003207A
:102C00008DF8060004208DF8070001A98C4801F01A
:102C100099F904940020ADF81400ADF81600ADF851
:102C20001800ADF81C000C20ADF81A000020ADF81B
:102C30000800ADF80A004FF40070ADF80C00002059
:102C4000ADF80E0004A97F4802F01BFA02A97D48E6
:102C500002F08CFA012240F225517A4802F0A9FADA
:102C60000121784802F099FA08B010BD10B508218A
:102C7000744802F06DFB10B1724802F0FFFA71481F
:102C8000008800F08000F0B16E480C30008800F041
:102C90008000C0B16C4801780078401C6A4A10700E
:102CA0006A48405C6749091D0880104600786849F9
:102CB0000978884207D163480C30008820F08000F2
:102CC00060490C3108805F48008800F0200000282F
:102CD0006ED05C48001D0088C4B25E48007838B9E8
:102CE000AA2C05D101205B4908705B4804705EE0A6
:102CF00058480078012807D1AF2C05D1022055494A
:102D000008705548447052E052480078022809D1B2
:102D1000002C07DDF12C05DA03204E4908704E48DF
:102D2000847044E04B48007803280CD1322C0ADA36
:102D30000420484908704848C4704848047000207E
:102D40004749087033E043480078042819D14348C4
:102D50000078002815DD41480078401E3F49087082
:102D60003F4800783E490978491C3D4A1170001DD2
:102D700039490C5439480078C8B9052035490870DC
:102D800015E03448007805280ED10020314908703C
:102D900033480078001D30490C5431480178491DF2
:102DA0002D48FEF795F902E000202A49087000BF7F
:102DB00010BD10B50446264801780078401C244A0E
:102DC000107022484454012240F227711D4802F03D
:102DD000F0F910BD10B504460FE020780D2802D19F
:102DE000FFF7E7FF08E020780A2802D1FFF7E1FFAC
:102DF00002E02078FFF7DDFF641C20780028ECD18A
:102E000010BD70B504460D4600200AE0225C104952
:102E10000B780978491C0E4E31700C49CA54411C7C
:102E2000C8B2A842F2DB07480C30008800F08000EE
:102E300028B9012240F22771024802F0BAF970BDA8
:102E40000008014000380140D40000201203002097
:102E5000D5000020D600002012040020D70000205A
:102E6000D8000020002109E0002201E0531C9AB2A2
:102E700042F234139A42F9DB4B1C99B28142F3DBE4
:102E800070470020F849087070470020F749087023
:102E9000704730B587B005460C46F5484078F44990
:102EA000097840EA0120F349B1F90010401A069070
:102EB000EF48C078EE49897840EA0120ED49B1F940
:102EC0000210401A0590EA484079E949097940EA38
:102ED0000120E849B1F90410401A0490E448407A0E
:102EE000E349097A40EA0120E349B1F90010401AA8
:102EF0000390DF48C07ADE49897A40EA0120DE4942
:102F0000B1F90210401A0290D948407BD849097B98
:102F100040EA0120D849B1F90410401A01900698FE
:102F2000B0F5004F00DB00E000BF069810F5004F41
:102F300000DA00E000BF0598B0F5004F00DB00E0CC
:102F400000BF059810F5004F00DA00E000BF0498BC
:102F5000B0F5004F00DB00E000BF049810F5004F13
:102F600000DA00E000BF0398B0F5004F00DB00E09E
:102F700000BF039810F5004F00DA00E000BF029890
:102F8000B0F5004F00DB00E000BF029810F5004FE5
:102F900000DA00E000BF0198B0F5004F00DB00E070
:102FA00000BF019810F5004F00DA00E000BF06985E
:102FB00000B22880059800B26880049800B2A8800A
:102FC000039800B22080029800B26080019800B29D
:102FD000A080A6480078002854D1A848007878B985
:102FE0000020A549088048808880A5490860A54937
:102FF0000860A54908600120A049087007B030BDED
:10300000B4F900009E49096808449D490860B4F974
:1030100002009C49096808449A490860B4F9040010
:103020009949096808449849086094480078C82874
:1030300023D1934800689149097890FBF1F000B2E0
:103040008D4908808F4800688C49097890FBF1F021
:1030500000B2894948808C4800688849097890FB0B
:10306000F1F000B284498880002084490870012072
:103070007E490870FFF7A6F8C0E780480078401C3A
:103080007E4908707848007800284CD17F48007845
:1030900070B9002077490880488088807C490860A2
:1030A0007C4908607C490860012078490870A5E7E0
:1030B000B5F9000076490968084475490860B5F912
:1030C0000200744909680844724908606F48007832
:1030D000C82823D16E4800686C49097890FBF1F04C
:1030E00000B2644908806B4800686849097890FB21
:1030F000F1F000B25F494880674800686349097889
:1031000090FBF1F000B25B49888000205F490870B5
:10311000012055490870FFF72BF86FE75B480078EE
:10312000401C5A49087000BF68E710B5504B0E228A
:103130003B21D22003F0B8FA10BDF8B506460F4681
:1031400014461D466B4601223946304603F0EBFA21
:103150002DB10120A0409DF80010084305E001209A
:10316000A0409DF8001021EA0000C0B200906B461C
:1031700001223946304603F057FBF8BD2DE9F843EC
:103180000746884614461D46089E6B460122414666
:10319000384603F0C8FA601CFF2101FA00F0C4F1C0
:1031A00008012944491EFF220A41104300F0FF098B
:1031B000C5F1080006FA00F0C6B2C4F107000641E6
:1031C0009DF8000000EA090000909DF800003043DF
:1031D00000906B4601224146384603F025FBBDE8CE
:1031E000F88338B50446032302226B21D2200094D1
:1031F000FFF7C4FF38BD38B50446022304221B2163
:10320000D2200094FFF7BAFF38BD38B50446022338
:1032100004221C21D2200094FFF7B0FF38BD10B566
:103220000446234606226B21D220FFF786FF10BDFD
:1032300010B50446234605226A21D220FFF77DFF00
:1032400010BD10B50446234601223721D220FFF7D6
:1032500074FF10BD38B50446032302221A21D22080
:103260000094FFF78BFF38BDE9000020E800002044
:1032700044040020E2000020DC000020F8000020D0
:10328000EC000020F0000020F400002008010020E5
:10329000FC000020000100200401002010B50020E7
:1032A000FFF7BDFFC820FFF7DDFD0120FFF799FF05
:1032B0003220FFF7D7FD0320FFF79DFF3220FFF7F5
:1032C000D1FD0120FFF7A1FF3220FFF7CBFD032046
:1032D000FFF7C0FF3220FFF7C5FD0020FFF7A8FF72
:1032E0003220FFF7BFFD0120FFF7ABFF3220FFF7D1
:1032F000B9FD10BD30B5B0F57A7F01DB40F2E730A3
:10330000B1F57A7F01DB40F2E731B2F57A7F01DB7C
:1033100040F2E732B3F57A7F01DB40F2E733002871
:1033200000DA0020002900DA0021002A00DA002259
:10333000002B00DA00234FF08045A8862987584DDE
:103340002A80574D0C352B8030BD10B588B0002435
:103350000121084602F0D1F9524800685249B0FBF9
:10336000F1F0401E84B240F2E730ADF81800ADF83D
:1033700014400020ADF81A00ADF8160005A94FF072
:10338000804001F001F86020ADF804000120ADF8A4
:1033900006000020ADF80A00ADF80C0001A94FF0BE
:1033A000804001F02EF80821C80601F079FC01A93F
:1033B0004FF0804001F067F80821C80601F079FC61
:1033C0000121880701F03CFC0121880701F038FB4E
:1033D00008B010BD10B588B000240121C80202F069
:1033E0007FF9304800683049B0FBF1F0401E84B2EC
:1033F00040F2E730ADF81800ADF814400020ADF809
:103400001A00ADF8160005A92548343800F0BCFFB5
:103410006020ADF804000120ADF806000020ADF8F2
:103420000A00ADF80C0001A91D48343800F0E9FF8E
:1034300008211B48343801F033FC01A918483438FE
:1034400001F0B9F808211648343801F048FC012190
:103450001348343801F000FB01211148343801F0E1
:10346000EFFB01210E48343801F0EAFA08B010BD34
:1034700008B50121042002F033F940F60310ADF83D
:10348000000003208DF8020018208DF80300694623
:10349000064800F057FDFFF758FFFFF79BFF08BDF8
:1034A000342C01402C01002000366E010008014040
:1034B00000B587B00121042002F012F90121082093
:1034C00002F00EF90121080302F00AF9E020ADF83C
:1034D000040001208DF8060018208DF8070001A9CE
:1034E0002F4800F02FFD2020ADF8040001208DF8BA
:1034F000060010208DF8070001A92A4800F022FDDF
:103500001020ADF8040001208DF8060010208DF881
:10351000070001A9224800F015FD1021204800F005
:10352000BEFD0020ADF808004FF48270ADF80A002F
:103530000020ADF80C00ADF80E00ADF810004FF40F
:103540000070ADF812001020ADF814000020ADF8A6
:1035500016000720ADF8180002A9134802F04AF936
:103560000121114802F0EBF907B000BD10B5044687
:1035700000BF02210C4802F066FA0028F9D021466B
:10358000094802F00DFA00BF0121074802F05BFA7A
:103590000028F9D0044802F005FAC0B210BD0000BE
:1035A00000080140000C01400030014070B50546A4
:1035B0000C4610218D4800F074FD2846FFF7D6FF19
:1035C00006462046FFF7D2FF1021884800F067FD2D
:1035D000304670BD70B504461021844800F061FD8E
:1035E0002046FFF7C3FF0020FFF7C0FF054610216C
:1035F0007E4800F054FD284670BD2DE9F041074695
:103600000D4616461021794800F04BFD3846FFF76D
:10361000ADFF8046002404E0285DFFF7A7FF601C93
:10362000C4B2B442F8DB1021704800F038FD4046C7
:10363000BDE8F0812DE9F04107460D461646102100
:103640006A4800F02EFD3846FFF790FF80460024C0
:1036500005E00020FFF78AFF2855601CC4B2B44281
:10366000F7DB1021614800F01AFD4046BDE8F0810B
:1036700070B504460D4620215D4800F012FD05227C
:103680005C492A20FFF7B9FF2A462146A020FFF710
:10369000B4FF2021564800F002FD70BD70B504460D
:1036A0000D462021524800F0FCFC2A462146A82065
:1036B000FFF7A3FF20214E4800F0F1FC70BD1CB5C0
:1036C00005224C493020FFF798FF0522694610205B
:1036D000FFF7B0FF002408E01DF804004549095D2C
:1036E000884200D003E0601CC4B2052CF4DB00BFAC
:1036F000052C01D101201CBD0020FCE770B504465B
:103700000D4620213A4800F0CCFC05223A492A20F7
:10371000FFF773FF052237493020FFF76EFF0121C5
:103720002120FFF743FF01212220FFF73FFF1A214D
:103730002420FFF73BFF28212520FFF737FF0F212B
:103740002620FFF733FF012C08D120213120FFF77D
:103750002DFF0F212020FFF729FF41E0022C08D187
:1037600020213120FFF722FF0E212020FFF71EFF2E
:1037700036E0032C1AD1FF21E120FFF717FFFF21CC
:10378000E220FFF713FF0F212020FFF70FFF50204B
:10379000FFF7ECFE7320FFF7E9FE01213C20FFF765
:1037A00005FF06213D20FFF701FF19E00E21202033
:1037B000FFF7FCFEFF21E120FFF7F8FEFF21E220EA
:1037C000FFF7F4FE5020FFF7D1FE7320FFF7CEFE87
:1037D00001213C20FFF7EAFE06213D20FFF7E6FE2F
:1037E0002021034800F05BFC70BD00000008014090
:1037F000000C0140090100200E010020D64840883D
:1038000000B2D6498880D448008800B2C880D24827
:10381000C08800B20880D048808800B248807047D5
:10382000CE4989888180CD49C988C180CB49098822
:103830000180CA4949884180704700B587B001219D
:10384000042001F05AFF0121082001F049FF4FF444
:103850007070ADF8000003208DF8020004208DF890
:1038600003006946BE4800F06DFBBE4800F0B8FC9E
:103870004FF6FF70ADF814004720ADF8100000209F
:10388000ADF81600ADF8120004A9B64800F07CFDB2
:103890000020ADF804000A20ADF806000120ADF8C4
:1038A00008000020ADF80A00ADF80C0001A9AD48F1
:1038B00000F0FDFF0420ADF804000A20ADF806007A
:1038C0000120ADF808000020ADF80A00ADF80C00AA
:1038D00001A9A44800F0EBFF0820ADF804000A207D
:1038E000ADF806000120ADF808000020ADF80A0090
:1038F000ADF80C0001A99B4800F0D9FF0C20ADF8F1
:1039000004000A20ADF806000120ADF808000020F0
:10391000ADF80A00ADF80C0001A9924800F0C7FF0D
:103920000121904801F08CF8012202218D4801F01C
:10393000A2F8012204218B4801F09DF80122082100
:10394000884801F098F801221021864801F093F888
:1039500007B000BD10B583481030008800F00200A9
:1039600098B38049343108887E491031098821F4A0
:1039700000717C4A1032118079490831096801F0E0
:10398000400151B17849088076492031098841F0D9
:103990000201744A2032118022E074490880714982
:1039A0002031098821F002016E4A203211806F49CE
:1039B00009886D4A1288914208DB6C4909886A4A75
:1039C0001288891A644A11800AE00AE06649098867
:1039D0004FF6FF72511A654A128811445E4A1180EF
:1039E00000BF60481030008800F00400B0B35D49AB
:1039F000383108885A490831096801F0800151B10D
:103A00005B49088057492031098841F02001554A17
:103A10002032118021E0574908805249203109881D
:103A200021F020014F4A2032118052490988504A22
:103A30001288914207DB4F4909884D4A1288891A3A
:103A4000454A518009E04A4909884FF6FF72511AE8
:103A5000484A12881144404A518000BF4148103002
:103A6000008800F00800B0B33E493C3108883C496A
:103A70000831096801F4807151B13F490880394922
:103A80002031098841F40071364A2032118021E04A
:103A90003A49088033492031098821F40071314ABC
:103AA0002032118035490988334A1288914207DB58
:103AB00032490988304A1288891A274A918009E0D8
:103AC0002D4909884FF6FF72511A2C4A1288114469
:103AD000214A918000BF23481030008800F0100078
:103AE000C0B32048403004881D480830006800F406
:103AF000007050B1224804801A482030008840F4F9
:103B0000005018492031088023E01E4804801548E1
:103B10002030008820F400501249203108801948D4
:103B2000008817490988884207DB1648008814492D
:103B30000988401A0849C88009E0114800884FF6F2
:103B4000FF71081A0F49098808440349C880FFF724
:103B500055FE00BF10BD000014010020920400209B
:103B6000000C0140000800401C0100201E01002044
:103B70002001002022010020240100202601002035
:103B8000280100202A0100200948804709480047F1
:103B9000FEE7FEE7FEE7FEE7FEE7FEE7FEE7FEE7FD
:103BA000FEE7FEE704480549054A064B704700005A
:103BB000A73C0008ED00000808050020080B0020C5
:103BC00008070020080700200CB500200190009095
:103BD0006C48006840F480306A49086000BF69485A
:103BE000006800F4003000900198401C019000989B
:103BF00018B90198B0F5A06FF1D16248006800F4DF
:103C0000003010B10120009001E0002000900098E9
:103C1000012843D15C48006840F010005A49086010
:103C20000846006820F0030008600846006840F07D
:103C3000020008605348406852494860084640689E
:103C400048600846406840F4806048600846406824
:103C500020F47C1048600846406840F4E810486052
:103C60000846006840F08070086000BF4548006862
:103C700000F000700028F9D04248406820F00300AE
:103C8000404948600846406840F00200486000BF74
:103C90003C48406800F00C000828F9D10CBD10B574
:103CA000FFF792FF10BD10B53648006840F00100E4
:103CB0003449086008464068344908403149486042
:103CC00008460068324908402E49086008460068E6
:103CD00020F4802008600846406820F4FE00486018
:103CE0004FF41F008860FFF7DAFF4FF000602949AA
:103CF000086010BD10B5002100200022214B5B6838
:103D000003F00C0121B1042906D0082928D107E0CD
:103D1000214B224C236027E01F4B204C236023E0E3
:103D2000184B5B6803F47010164B5B6803F4803229
:103D3000022303EB904022B9194B4343174C2360F5
:103D40000DE0104B5B6803F4003323B1144B434385
:103D5000124C236003E0104B4343104C236003E0FC
:103D60000D4B0E4C236000BF00BF064B5B68C3F3D6
:103D700003130C4CE15C094B1B68CB40074C2360E0
:103D800010BD000000100240002002400000FFF8BB
:103D9000FFFFF6FE08ED00E000127A002C01002083
:103DA00000093D003001002031490143314A1160D2
:103DB000704770B5002100230F22C47804B32D4C46
:103DC000246804F4E064C4F5E064210AC1F104034A
:103DD000CA40447804FA03F184781440214309016D
:103DE000254C0678A155047804F01F050124AC4049
:103DF00005786D11AD0005F1E025C5F8004109E039
:103E0000047804F01F050124AC401C4D067876119F
:103E100045F8264070BD1A4A0A400243154B1B1F45
:103E20001A60704739B1134A121D12680243114BD0
:103E30001B1D1A6006E00F4A121D126882430D4BCB
:103E40001B1D1A607047042808D14FF0E021096952
:103E500041F004014FF0E022116107E04FF0E02152
:103E6000096921F004014FF0E02211617047000060
:103E70000000FA050CED00E000E400E080E100E065
:103E800080FFFF1F10B50446CC48844208D10121B1
:103E9000042001F03FFC0021042001F03BFC46E03F
:103EA000C748844208D10121082001F033FC0021D9
:103EB000082001F02FFC3AE0C248844208D10121D9
:103EC000102001F027FC0021102001F023FC2EE03F
:103ED000BD48844208D10121202001F01BFC0021B3
:103EE000202001F017FC22E0B848844208D10121CB
:103EF000402001F00FFC0021402001F00BFC16E0F7
:103F0000B348844208D10121802001F003FC002144
:103F1000802001F0FFFB0AE0AE48844207D1012176
:103F2000801501F0F7FB0021A01501F0F3FB10BD97
:103F300010B50121084601F0EDFB0021012001F040
:103F4000E9FB10BD2DE9F0410246002500260020C6
:103F500000230024002791F803C00CF00F0591F80E
:103F600003C00CF0100CBCF1000F03D091F802C09C
:103F70004CEA050591F800C0BCF1000F31D014687F
:103F800000202BE04FF0010C0CFA00F3B1F800C058
:103F90000CEA03069E4220D183004FF00F0C0CFA6E
:103FA00003F7BC4305FA03FC4CEA040491F803C090
:103FB000BCF1280F06D14FF0010C0CFA00FCC2F83E
:103FC00014C00AE091F803C0BCF1480F05D14FF0CE
:103FD000010C0CFA00FCC2F810C0401C0828D1D318
:103FE0001460B1F800C0BCF1FF0F34DD546800204C
:103FF0002EE000F1080C4FF0010808FA0CF3B1F8BC
:1040000000C00CEA03069E4221D183004FF00F0C42
:104010000CFA03F7BC4305FA03FC4CEA040491F8DC
:1040200003C0BCF1280F05D100F1080C08FA0CF808
:10403000C2F8148091F803C0BCF1480F07D100F119
:10404000080C4FF0010808FA0CF8C2F81080401C68
:104050000828CED35460BDE8F0814FF6FF7101808F
:10406000022181700421C1707047024600209368CC
:104070000B400BB1012000E000207047014688682A
:1040800080B2704702460020D3680B400BB101207C
:1040900000E0002070470146C86880B270470161A7
:1040A0007047416170470AB1016100E041617047AA
:1040B000C16070474FF480320A438261816182613E
:1040C00082698269704702460020434B18684FF6A8
:1040D0008073184040EA021008433F4B1860704755
:1040E0003E49C8617047F0B50A460023002400210C
:1040F000002500F00046B6F1004F02D1364EF169BE
:1041000001E0354E7168C0F3034583B200F44016F8
:10411000B6F5401F08D121F070612F4E766826F069
:1041200070662D4F7E6012E000F48016B6F5801F99
:1041300006D1032606FA05F4A14341F0706106E0BA
:10414000460D360103FA06F6B14341F0706122B123
:10415000460D360103FA06F6314300F00046B6F18B
:10416000004F02D11C4EF16101E01B4E7160F0BDA9
:1041700030B500228B071C0F0F2303FA04F2164BF5
:1041800008338C1053F824309343134C08348D10AB
:1041900044F8253023468C1053F824308C07240F24
:1041A00000FA04F423430C4C08348D1044F82530F5
:1041B00030BD0A49DC31086070470000000801404A
:1041C000000C0140001001400014014000180140A3
:1041D000001C01400020014000000140000020427E
:1041E00010B50446FE48844208D10121C01401F0F4
:1041F00091FA0021E01401F08DFAC4E0B4F1804F8F
:1042000008D10121084601F092FA0021012001F0B5
:104210008EFAB8E0F348844208D10121022001F06F
:1042200086FA0021022001F082FAACE0EE488442D6
:1042300008D10121042001F07AFA0021042001F0C4
:1042400076FAA0E0E948844208D10121082001F073
:104250006EFA0021082001F06AFA94E0E4488442F2
:1042600008D10121102001F062FA0021102001F094
:104270005EFA88E0DF48844208D10121202001F065
:1042800056FA0021202001F052FA7CE0DA488442FC
:1042900008D10121401401F03DFA0021601401F021
:1042A00039FA70E0D548844209D10121C80401F0EF
:1042B00031FA00214FF4002001F02CFA63E0D048DD
:1042C000844209D10121080501F024FA00214FF4AC
:1042D000801001F01FFA56E0CA48844209D101213A
:1042E000480501F017FA00214FF4001001F012FA0E
:1042F00049E0C548844208D10121402001F017FA65
:104300000021402001F013FA3DE0C048844208D16A
:104310000121802001F00BFA0021802001F007FA32
:1043200031E0BB48844208D10121801501F0FFF93A
:104330000021A01501F0FBF925E0B648844209D11F
:104340000121080401F0E6F900214FF4803001F06A
:10435000E1F918E0B048844209D10121480401F094
:10436000D9F900214FF4003001F0D4F90BE0AB484B
:10437000844208D10121880401F0CCF900214FF4D6
:10438000802001F0C7F910BD00220288944B9842AA
:104390000ED0994B98420BD0B0F1804F08D0914B82
:1043A000984205D0904B984202D0904B984204D14D
:1043B0004FF68F731A404B881A438D4B984207D0A3
:1043C0008C4B984204D04FF6FF431A40CB881A43D7
:1043D00002808B8883850B880385814B98420BD0A4
:1043E000854B984208D08B4B984205D08A4B984217
:1043F00002D08A4B984201D10B7A03860123838233
:10440000704770B5002400220023058C4FF6FE761D
:1044100035400584028C8388048B4FF68F752C40C1
:10442000B51E2C400D882C43751E2A400D892A4349
:104430004D882A436A4DA8420BD06F4DA84208D040
:10444000744DA84205D0744DA84202D0734DA842C5
:1044500013D14FF6F7752A404D892A434FF6FB7565
:104460002A408D882A434FF6FF652B404FF6FF55B3
:104470002B408D892B43CD892B4383800483CD88AA
:104480008586028470BD70B5002400220023058C4F
:104490004FF6EF7635400584028C8388048B48F60E
:1044A000FF752C404FF6FF452C400D884FF6FF76E8
:1044B00006EA05252C434FF6DF752A400D8906EAEA
:1044C00005152A434D8806EA05152A43444DA8429E
:1044D00002D0494DA8421DD14FF67F752A404D8923
:1044E0004FF6FF7606EA05152A434FF6BF752A40B8
:1044F0008D8806EA05152A434FF6FF352B404FF20B
:10450000FF752B408D8906EA85052B43CD8906EA88
:1045100085052B4383800483CD880587028470BD85
:1045200070B5002400220023058C4FF6FF6635404D
:104530000584028C8388848B4FF68F752C404FF650
:10454000FC752C400D882C434FF6FF552A400D89F1
:104550004FF6FF7606EA05252A434D8806EA05252B
:104560002A431F4DA84202D0234DA8421DD14FF22D
:10457000FF752A404D894FF6FF7606EA05252A4346
:104580004FF6FF352A408D8806EA05252A434EF668
:10459000FF752B404DF6FF752B408D8906EA0515FA
:1045A0002B43CD8906EA05152B4383808483CD8870
:1045B0008587028470BD70B5002200230024058C1D
:1045C0004EF6FF7635400584038C8488828B48F64E
:1045D000FF752A404FF6FF452A400D8820E0000075
:1045E000002C01400004004000080040000C004086
:1045F000001000400014004000340140004C014015
:10460000005001400054014000180040001C0040D0
:1046100000200040004001400044014000480140AB
:104620004FF6FF7606EA05252A434DF6FF752B4027
:104630000D8906EA05352B434D8806EA05352B43DF
:10464000FA4DA84202D0FA4DA84208D14BF6FF75A8
:104650002C408D894FF6FF7606EA85152C43848021
:104660008283CD88A0F84050038470BD828B4FF2C6
:10467000FF331A408283828B4FF6FF7303EA0123D4
:104680001A4382837047F0B50C461546002200217C
:104690000026078C4EF6FF7C07EA0C070784828B06
:1046A000018C4FF6FF7707EA043640F6FF473A40A1
:1046B0004FF6FF7707EA05273A434FF6FF7707EAF9
:1046C00003373A43D94FB8420ED0D94FB8420BD036
:1046D000B0F1804F08D0D74FB84205D0D64FB8427E
:1046E00002D0D64FB84206D14DF6FF77394046F496
:1046F0008057394305E047F6FF57394044F4805767
:10470000394382830184F0BD828B4FF6F3731A40E4
:104710008283828B0A4382837047F0B50C4615462C
:10472000002200210026078C4FF6FF6C07EA0C07D9
:104730000784828B018C4FF6FF7707EA04264FF639
:104740000C773A404FF6FF7707EA03172F433A43B7
:10475000B64FB8420ED0B64FB8420BD0B0F1804F32
:1047600008D0B44FB84205D0B34FB84202D0B34FCF
:10477000B84206D14FF6FF57394046F480773943A7
:1047800005E04FF2FF57394044F480773943828384
:104790000184F0BD028B4FF2FF331A400283028B7B
:1047A0004FF6FF7303EA01231A4302837047F0B503
:1047B0000C461546002200210026078C4FF6EF7CA0
:1047C00007EA0C070784028B018C4FF6FF7707EA94
:1047D000041640F6FF473A404FF6FF7707EA0337E3
:1047E0003A434FF6FF7707EA05273A438F4FB8421F
:1047F0000ED08F4FB8420BD0B0F1804F08D08D4F04
:10480000B84205D08C4FB84202D08C4FB84206D186
:104810004FF6DF77394046F01007394305E04FF691
:104820005F77394044F01007394302830184F0BDBB
:10483000028B4FF6F3731A400283028B0A43028302
:104840007047F0B50C46154600220021068C4FF645
:10485000FE773E400684028B018C4FF60C76324088
:104860007E1C06EA03162E433243704EB0420ED031
:104870006F4EB0420BD0B0F1804F08D06D4EB042B9
:1048800005D06D4EB04202D06C4EB04206D14FF60C
:10489000FD76314044F00106314305E04FF6F576F0
:1048A000314044F00106314302830184F0BD70B50C
:1048B00005460C465D4885420ED05D4885420BD0CA
:1048C000B5F1804F08D05B48854205D05A488542F3
:1048D00002D05A48854200D100E000BF208850B97C
:1048E0002389A28861882846FFF7ABFFE188284624
:1048F000FFF79EFF25E0208804280AD12389A2889B
:1049000061882846FFF753FFE1882846FFF742FFFA
:1049100017E0208808280AD12389A28861882846C0
:10492000FFF7FBFEE1882846FFF7EEFE09E023894A
:10493000A28861882846FFF7A6FEE1882846FFF78F
:1049400095FE70BD2DE9F04105460C460026012775
:10495000608808B9022600E00026A088012801D15D
:10496000022700E001272088A0B92389A288618856
:104970002846FFF766FFE1882846FFF759FF23899D
:104980003A4631462846FFF712FFE1882846FFF7EE
:1049900001FF13E02389A28861882846FFF707FFFB
:1049A000E1882846FFF7F6FE23893A463146284635
:1049B000FFF747FFE1882846FFF73AFFBDE8F0819F
:1049C0000A884B881A438B881A43CB881A430B8971
:1049D0001A434B891A438B891A43A0F84420704725
:1049E0004FF6FF71818000210180C18041800172FA
:1049F00070470021018041808180C1800181418117
:104A00008181C18170470021018041800121818025
:104A10000021C18001817047002101804180818097
:104A2000C18001814181818170470000002C0140DB
:104A3000003401400004004000080040000C004029
:104A400021B1028842F00102028004E002884FF6A0
:104A5000FE731A400280704731B1B0F8442042F42E
:104A60000042A0F8442005E0B0F84420C2F30E0252
:104A7000A0F8442070471AB183890B43838102E078
:104A800083898B43838170478182704741EA0203A7
:104A9000A0F8483070471AB183890B43838102E044
:104AA00083898B438381704701894FF6F8721140E7
:104AB000018170470A46002101894FF68F73194022
:104AC00011430181704730B504460D462946204602
:104AD000FFF7F0FF208940F00700208130BD2DE96D
:104AE000F04104460D4616461F46602D06D13B4652
:104AF000012231462046FFF75AFE05E03B460122DF
:104B000031462046FFF79DFE29462046FFF7D2FF9B
:104B1000208940F007002081BDE8F08130B50C46C7
:104B200000210189C9B24FF6FF7505EA0325154337
:104B300025432943018130BD2DE9F04105460E464C
:104B400017469846002443463A4631462846FFF722
:104B5000E5FF2C894FF6F870044044F007044FF647
:104B60008F70044044F070042C81BDE8F081F0B5F2
:104B700004460D4616461F463B4632462946204609
:104B8000FFF7CCFF208940F480402081F0BD0185F3
:104B9000828270470A46002101884FF68F731940C0
:104BA000114301807047F0B50C4615461E460021A2
:104BB000002200230189028B038C4FF6F8773940DD
:104BC00021434FF6FC473A4040F201173A434FF673
:104BD000DD773B404FF6FF7707EA06172F433B434D
:104BE000018102830384F0BD0A460021018B4FF648
:104BF0008F7319401143018370470A460021018BCE
:104C000048F6FF7319404FF6FF7303EA0223194376
:104C1000018370470A460021818B4FF68F7319403C
:104C20001143818370470A460021818B48F6FF7348
:104C300019404FF6FF7303EA02231943818370473B
:104C400021B1028842F08002028004E002884FF61F
:104C50007F731A400280704721B1828842F00402BB
:104C6000828004E082884FF6FB731A40828070478E
:104C700021B1828842F00802828004E082884FF6E7
:104C8000F7731A408280704721B1828842F0010296
:104C9000828004E082884FF6FE731A40828070475B
:104CA0000A460021018B4FF6F77319401143018327
:104CB00070470A460021018B4FF2FF7319404FF6EF
:104CC000FF7303EA02231943018370470A46002158
:104CD000818B4FF6F77319401143818370470A4661
:104CE0000021818B4FF2FF7319404FF6FF7303EAE7
:104CF00002231943818370470A460021018B4FF636
:104D0000FB7319401143018370470A460021018B50
:104D10004FF6FF3319404FF6FF7303EA022319439E
:104D2000018370470A460021818B4FF6FB731940BF
:104D30001143818370470A460021818B4FF6FF3370
:104D400019404FF6FF7303EA02231943818370472A
:104D50000A460021018B4FF67F73194011430183EE
:104D600070470A460021018BC1F30E014FF6FF7315
:104D700003EA02231943018370470A460021818B0D
:104D80004FF67F7319401143818370470A46002113
:104D9000818BC1F30E014FF6FF7303EA022319431F
:104DA000818370470A460021018C4FF6FD7319403C
:104DB0001143018470470A460021018C4FF6F773B6
:104DC00019401143018470470A460021018C4FF6B7
:104DD000DF7319404FF6FF7303EA0213194301848E
:104DE00070470A460021018C4FF67F7319404FF639
:104DF000FF7303EA02131943018470470A46002136
:104E0000018C4FF6FF5319404FF6FF7303EA02235C
:104E10001943018470470A460021018C4FF2FF7349
:104E200019404FF6FF7303EA0223194301847047C8
:104E30000A460021018C4DF6FF7319404FF6FF73AF
:104E400003EA023319430184704730B5002301247B
:104E50008C40A3B2048C9C430484048C02FA01F5B8
:104E6000ADB22C43048430BD30B5002304248C4003
:104E7000A3B2048C9C430484048C02FA01F5ADB205
:104E80002C43048430BD70B503460020002418462E
:104E9000183001258D40ACB21D8CA5431D8409B18D
:104EA000082909D100EB6100056825F0700505604F
:104EB0000568154305600EE00D1FC5F34E05284437
:104EC000056825F4E045056005684FF6FF7606EABB
:104ED00002263543056070BD21B1028842F002020E
:104EE000028004E002884FF6FD731A40028070478A
:104EF00021B1028842F00402028004E002884FF6E9
:104F0000FB731A400280704721B1828842F0800210
:104F1000828004E082884FF67F731A408280704757
:104F200002884FF6F7731A40028002880A43028013
:104F3000704782884FF68F731A40828082880A43B6
:104F40008280704702894FF6F8731A400281028905
:104F50000A430281704702894FF67F731A4002812B
:104F600002890A43028170478184704781857047B6
:104F7000818670470187704781877047A0F840108D
:104F8000704702884FF6FF431A40028002880A43A6
:104F9000028070470146888E70470146088F70472F
:104FA0000146888F70470146B1F8400070470146BE
:104FB000888C70470146088D704702460020138A8E
:104FC0000B400BB1012000E000207047CA43028271
:104FD000704730B50246002000230024158A05EAF8
:104FE0000103958905EA010413B10CB1012000E029
:104FF000002030BDCA4302827047000010B504464D
:10500000FB48844209D10121880300F083FB002181
:105010004FF4804000F07EFB32E0F648844209D134
:105020000121480400F083FB00214FF4003000F020
:105030007EFB25E0F048844209D10121880400F07C
:1050400076FB00214FF4802000F071FB18E0EB4864
:10505000844209D10121C80400F069FB00214FF40A
:10506000002000F064FB0BE0E548844208D10121F8
:10507000080500F05CFB00214FF4801000F057FBA6
:1050800010BD2DE9F04786B005460E460024A24625
:1050900000BFA1460027B08900B100BF2F462C8A6F
:1050A0004CF6FF700440F08804432C82AC894EF625
:1050B000F3100440B08831890843718908430443E0
:1050C000AC81AC8A4FF6FF400440B0890443AC8207
:1050D00001A800F098FAC648874202D1DDF810A076
:1050E00001E0DDF80CA0A88900F4004040B10AEB13
:1050F000CA0000EB0A1031684900B0FBF1F807E084
:105100000AEBCA0000EB0A1031688900B0FBF1F825
:105110006420B8FBF0F004012009642101FB108930
:10512000A88900F4004040B1322000EBC900B0FB78
:10513000F1F000F00700044308E0322000EB091012
:105140006421B0FBF1F000F00F0004432C8106B0A5
:10515000BDE8F0874FF41651016000218180C180C5
:1051600001810C21418100218181704710B50246E7
:105170000020108A4FF2FF0318400B884C8823430D
:105180008C882343CC8823431843108210BD002110
:10519000018041808180C180704721B1828942F4C1
:1051A0000052828104E082894DF6FF731A408281A9
:1051B0007047F0B50346002400260025002040F685
:1051C0006A17B94200D100BF1846C1F3421401F07A
:1051D0001F06012707FA06F5012C01D10C3004E067
:1051E000022C01D1103000E014301AB107682F43AF
:1051F000076002E00768AF430760F0BD1AB1838A19
:105200000B43838202E0838A8B4383827047028A46
:105210004FF6F0731A400282028A0A4302827047F4
:1052200082894FF2FF731A40828182890A43828108
:10523000704721B1828942F00202828104E08289B2
:105240004FF6FD731A4082817047028A4FF6DF7372
:105250001A400282028A0A430282704721B1028AFE
:1052600042F48042028204E0028A4BF6FF731A4045
:1052700002827047C1F30802828070470146888825
:10528000C0F308007047818941F0010181817047B6
:10529000028BD2B20283028B42EA01220283704760
:1052A000028B02F47F420283028B0A43028370471F
:1052B00021B1828A42F02002828204E0828A4FF683
:1052C000DF731A408282704721B1828A42F0100255
:1052D000828204E0828A4FF6EF731A40828270471E
:1052E00021B1828A42F00802828204E0828A4FF66B
:1052F000F7731A408282704721B1828942F40042DA
:10530000828103E08289C2F30E028281704721B15B
:10531000828A42F40062828204E0828A4FF2FF7342
:105320001A4082827047828A4FF6FB731A4082824B
:10533000828A0A438282704721B1828A42F0020245
:10534000828204E0828A4FF6FD731A40828270479F
:1053500002460020B1F5007F00D100BF13880B404A
:105360000BB1012000E00020704701F40072B2F59B
:10537000007F00D100BFCA430280704770B502466B
:10538000002400230025002040F66A16B14200D117
:1053900000BFC1F3421501F01F03012606FA03F313
:1053A000012D02D19689334006E0022D02D1168AE2
:1053B000334001E0968A33400C12012606FA04F4C9
:1053C0001688344013B10CB1012000E0002070BDFC
:1053D00010B50022002340F66A14A14200D100BF9C
:1053E0000A1201249440A3B2DC43048010BD0000E3
:1053F000003801400044004000480040004C00409C
:1054000000500040DF48006840F00100DD490860BE
:1054100008464068DC490840DA49486008460068A8
:10542000DA490840D74908600846006820F480201F
:1054300008600846406820F4FE0048604FF41F00F2
:1054400088607047CF49096821F48031CD4A1160E6
:105450001146096821F480211160B0F5803F03D026
:10546000B0F5802F0ED106E0C649096841F48031BD
:10547000C44A116007E0C349096841F4A021C14A48
:10548000116000E000BF00BF704710B50146002268
:10549000002300204A11012A02D1BA4C236806E0F9
:1054A000022A02D1B74C236A01E0B64C636A01F0CC
:1054B0001F02012494401C400CB1012000E0002098
:1054C00010BD38B5002000900024002500BF312019
:1054D000FFF7DBFF05460098401C00900098B0F5F0
:1054E000A06F01D0002DF2D03120FFF7CEFF08B120
:1054F000012400E00024204638BD01460020A14AD6
:10550000106820F0F80040EAC10010607047A04920
:1055100008607047024600209A4B586820F47C10BF
:1055200042EA01031843974B586070479849086650
:10553000704701460020934A506820F0030008435A
:10554000506070478F48406800F00C00704701467B
:1055500000208C4A506820F0F000084350607047EB
:1055600001460020874A506820F4E06008435060FC
:10557000704701460020834A506820F4605040EA9A
:10558000C1005060704729B17E4A527A02437D4B78
:105590005A7204E07B4A527A82437A4B5A727047BD
:1055A0007B49D8310860704701460020754A506831
:1055B00020F440400843506070470021714A203277
:1055C0001170704A82F82010012802D004280AD1F4
:1055D00004E001216B4A2032117005E00521694A7F
:1055E0002032117000E000BF00BF704769490860B9
:1055F00070476449096A0143624A1162704765490C
:1056000044390860704730B500210022002400238F
:105610005C4D6D6805F00C0121B1042905D0082905
:1056200023D105E05C4D056022E05B4D05601FE085
:10563000544D6D6805F47012524D6D6805F4803458
:10564000022505EB92421CB9544D554305600BE011
:105650004C4D6D6805F400351DB1504D5543056046
:1056600002E04D4D5543056002E04B4D056000BF23
:1056700000BF444D6D6805F0F0010909484D6B5CB1
:105680000568DD4045603F4D6D6805F4E061090A3D
:10569000434D6B5C4568DD4085603A4D6D6805F4AF
:1056A0006051C90A3E4D6B5C4568DD40C560354DB3
:1056B0006D6805F44041890B3A4D6B5CC568B5FBDC
:1056C000F3F5056130BD29B12E4A526902432D4BD5
:1056D0005A6104E02B4A526982432A4B5A6170474F
:1056E00029B1284A92690243264B9A6104E0254A6F
:1056F00092698243234B9A61704729B1214AD2694A
:105700000243204BDA6104E01E4AD26982431D4BFA
:10571000DA61704729B11B4AD2680243194BDA603B
:1057200004E0184AD2688243164BDA60704729B108
:10573000144A12690243134B1A6104E0114A1269B8
:105740008243104B1A617047124940390860704714
:105750000F49C86470470B49C87170470948406ACF
:1057600040F0807007494862704701460020054AB2
:1057700092680A400AB1012000E000207047014908
:1057800088727047001002400000FFF8FFFFF6FE2D
:10579000000042428004424200127A0000093D00AB
:1057A000400100205001002010B50446BE4884424C
:1057B00008D101218014FFF7ADFF0021A014FFF7ED
:1057C000A9FF16E0B948844208D101210014FFF76F
:1057D000AEFF00212014FFF7AAFF0AE0B44884427C
:1057E00007D10121C013FFF7A2FF0021E013FFF74B
:1057F0009EFF10BD10B50022028802F441520B88B2
:105800004C8823438C882343CC8823430C8923432F
:105810004C8923438C892343CC8923431A43028038
:10582000838B4FF2FF74234083830B8A038210BD66
:105830002DE9F04F85B005460C464FF000090227D0
:105840004FF000084FF0010B0026B246A88B4FF234
:1058500040010840A88302202884B5F81C90A06865
:10586000022801D100BF38E0A08810B94FF0010B29
:1058700001E04FF0020B8D48854200D100E000BFEF
:105880006846FFF7C0FEDDF800A0E088B0F5007FB5
:105890000AD14FEA1A2000EB80004000A168B0FB5B
:1058A000F1F0401D86B20BE04FEA4B10BAFBF0F06E
:1058B00000EB80004000A168B0FBF1F0401D86B213
:1058C0000A20B6FBF0F606F00108A6EB0800C0F3CC
:1058D0004F074FF6FF7000EA0828022F01DBFF2F69
:1058E00002DD02274FF00008E08840EA0800384354
:1058F0002884A088A1890843618808432188084337
:1059000040F4006040EA0909A5F81C9005B0BDE824
:10591000F08F0021018041808180C180018141811F
:105920008181C1810721018270470021018041806E
:105930008180C1800221816000218181704721B175
:10594000028842F04002028004E002884FF6BF73F2
:105950001A400280704721B1828B42F480628283B8
:1059600004E0828B4FF6FF331A408283704730B5D4
:10597000002400230C110125A540ABB21AB1858883
:105980001D43858002E085889D43858030BD1AB126
:1059900083880B43838002E083888B438380704736
:1059A000818170470146888970474FF6FF629142B6
:1059B00004D0028842F48072028004E002884FF62C
:1059C000FF631A400280704721B1828842F00402CE
:1059D000828004E082884FF6FB731A408280704711
:1059E00002884FF2FF731A40028002880A43028045
:1059F0007047018841F480510180704721B10288CD
:105A000042F40052028004E002884DF6FF731A400F
:105A10000280704702460020012901D0108B00E06F
:105A2000908A70470146088A7047B1F5804F04D1CB
:105A3000028842F48042028004E002884BF6FF7341
:105A40001A40028070470246002013890B400BB1B8
:105A5000012000E000207047CA4302817047F0B582
:105A60000246002000240023002501F00F07012634
:105A7000BE40B4B20B1101269E40B3B2968806EA2E
:105A800003051689264016B10DB1012000E0002063
:105A9000F0BD10B5002201F00F040123A3409AB21B
:105AA000D343038110BD00000030014000380040A6
:105AB000003C004010B50446F748844209D101215A
:105AC0004805FFF734FE00214FF40010FFF72FFECA
:105AD00008E001218805FFF72AFE00214FF480002D
