:020000040800F2
:10000000A8150020990500087D0200087F0200085D
:100010008B02000897020008A302000800000000FD
:10002000000000000000000000000000AF02000817
:10003000B102000800000000AF050008B30200088C
:10004000B3050008B3050008B3050008E53400084F
:10005000B3050008B3050008B5020008B3050008A1
:10006000B3050008B3050008B3050008B305000890
:10007000B3050008B3050008B3050008B305000880
:1000800009580008B3050008B3050008B3050008C7
:10009000B3050008B3050008B3050008B305000860
:1000A000B3050008B3050008B3050008B305000850
:1000B000B30500087333000861640008B305000845
:1000C000B3050008B3050008B3050008B305000830
:1000D000B3050008B532000833580008B30500081E
:1000E000B30500083D350008B305000800F002F82C
:1000F00000F0B4F80AA090E8000C82448344AAF10E
:100100000107DA4501D100F0A9F8AFF2090EBAE80B
:100110000F0013F0010F18BFFB1A43F0010318473B
:10012000E0920000009300000A444FF0000C10F829
:10013000013B13F0070408BF10F8014B1D1108BF65
:1001400010F8015B641E05D010F8016B641E01F805
:10015000016BF9D113F0080F1EBF10F8014BAD1C55
:100160000C1B09D16D1E58BF01F801CBFAD505E073
:1001700014F8016B01F8016B6D1EF9D59142D6D3CD
:10018000704700000023002400250026103A28BFF5
:1001900078C1FBD8520728BF30C148BF0B607047F9
:1001A0006E2906F04385702907F0B180662908F0B2
:1001B0006983652908F06683672908F063836129EC
:1001C000AFF3008003681B0A28BF41F08001692952
:1001D00006F02282642906F01F82752906F01C822F
:1001E0006F2907F03F80782907F07D80E92906F024
:1001F000D987E42906F0D687F52906F0D387EF29B9
:1002000007F03C80F82907F07C800368DB0928BFF1
:1002100041F08001632906F05A87732906F05F8751
:10022000E32907F0FF81F32907F0048200207047DB
:100230001FB59DE8030006F031FC07F045F9040006
:100240000020002107F09CFF401C6060002000217E
:1002500007F080FFE0601FBD10B510BD07F0D4FAB5
:100260001146FFF7E5FF03F069FB07F000FB03B45D
:10027000FFF7F2FF03BC07F071FB000070470EA10F
:100280001C4802F0D1FF00BFFEE71BA1194802F095
:10029000CBFF00BFFEE727A1164802F0C5FF00BF55
:1002A000FEE733A1134802F0BFFF00BFFEE770472F
:1002B00070477047704700000D0A2A2A2A2A2A2A06
:1002C0002A2A2A2A2A2A2A2A2A2A2A2A2A486172F1
:1002D000644661756C745F48616E646C65722A2A4D
:1002E0002A2A2A2A2A2A2A2A2A2A2A2A2A2A2A2A6E
:1002F0002A0D0A00003801400D0A2A2A2A2A2A2A31
:100300002A2A2A2A2A2A2A2A2A2A2A2A2A4D656DAC
:100310004D616E6167655F48616E646C65722A2A23
:100320002A2A2A2A2A2A2A2A2A2A2A2A2A2A2A2A2D
:100330002A0D0A000D0A2A2A2A2A2A2A2A2A2A2AC1
:100340002A2A2A2A2A2A2A2A2A4275734661756C81
:10035000745F48616E646C65722A2A2A2A2A2A2AE6
:100360002A2A2A2A2A2A2A2A2A2A2A2A0D0A00007E
:100370000D0A2A2A2A2A2A2A2A2A2A2A2A2A2A2A1A
:100380002A2A2A2A2A55736167654661756C745F4B
:1003900048616E646C65722A2A2A2A2A2A2A2A2A25
:1003A0002A2A2A2A2A2A2A2A2A2A0D0A0000000092
:1003B0000CB50020019000906C48006840F480303B
:1003C0006A49086000BF6948006800F40030009086
:1003D0000198401C0190009818B90198B0F5A06FE1
:1003E000F1D16248006800F4003010B101200090A3
:1003F00001E0002000900098012843D15C4800688B
:1004000040F010005A4908600846006820F00300D8
:1004100008600846006840F00200086053484068E1
:10042000524948600846406848600846406840F4C1
:10043000806048600846406820F47C1048600846A8
:10044000406840F4881048600846006840F08070BA
:10045000086000BF4548006800F000700028F9D02F
:100460004248406820F00300404948600846406820
:1004700040F00200486000BF3C48406800F00C00BB
:100480000828F9D10CBD10B5FFF792FF10BD10B5CB
:100490003648006840F0010034490860084640686A
:1004A00034490840314948600846006832490840EC
:1004B0002E4908600846006820F48020086008463D
:1004C000406820F4FE0048604FF41F008860FFF78A
:1004D000DAFF4FF000602949086010BD10B5002117
:1004E00000200022214B5B6803F00C0121B104299C
:1004F00006D0082928D107E0214B224C236027E0B1
:10050000214B204C236023E0184B5B6803F47010F0
:10051000164B5B6803F48032022303EB904022B950
:100520001A4B4343174C23600DE0104B5B6803F4F8
:10053000003323B1164B4343124C236003E0124BAC
:100540004343104C236003E00D4B0E4C236000BF6F
:1005500000BF064B5B68C3F303130E4CE15C094B11
:100560001B68CB40074C236010BD00000010024008
:10057000002002400000FFF8FFFFF6FE08ED00E05B
:1005800000127A0000000020001BB70000093D00A7
:10059000808D5B000400002009488047094800471F
:1005A000FEE7FEE7FEE7FEE7FEE7FEE7FEE7FEE723
:1005B000FEE7FEE704480549054A064B7047000080
:1005C0008F040008ED000008A8050020A8150020F1
:1005D000A80D0020A80D002031490143314A1160C7
:1005E000704770B5002100230F22C47804B32D4C4E
:1005F000246804F4E064C4F5E064210AC1F1040352
:10060000CA40447804FA03F1847814402143090174
:10061000254C0678A155047804F01F050124AC4050
:1006200005786D11AD0005F1E025C5F8004109E040
:10063000047804F01F050124AC401C4D06787611A7
:1006400045F8264070BD1A4A0A400243154B1B1F4D
:100650001A60704739B1134A121D12680243114BD8
:100660001B1D1A6006E00F4A121D126882430D4BD3
:100670001B1D1A607047042808D14FF0E02109695A
:1006800041F004014FF0E022116107E04FF0E0215A
:10069000096921F004014FF0E02211617047000068
:1006A0000000FA050CED00E000E400E080E100E06D
:1006B00080FFFF1F10B50446CC48844208D10121B9
:1006C000042000F02DFB0021042000F029FB46E06F
:1006D000C748844208D10121082000F021FB0021F5
:1006E000082000F01DFB3AE0C248844208D10121F5
:1006F000102000F015FB0021102000F011FB2EE06F
:10070000BD48844208D10121202000F009FB0021CE
:10071000202000F005FB22E0B848844208D10121E6
:10072000402000F0FDFA0021402000F0F9FA16E028
:10073000B348844208D10121802000F0F1FA002161
:10074000802000F0EDFA0AE0AE48844207D1012192
:10075000801500F0E5FA0021A01500F0E1FA10BDC7
:1007600010B50121084600F0DBFA0021012000F05D
:10077000D7FA10BD2DE9F0410246002500260020E1
:1007800000230024002791F803C00CF00F0591F816
:1007900003C00CF0100CBCF1000F03D091F802C0A4
:1007A0004CEA050591F800C0BCF1000F31D0146887
:1007B00000202BE04FF0010C0CFA00F3B1F800C060
:1007C0000CEA03069E4220D183004FF00F0C0CFA76
:1007D00003F7BC4305FA03FC4CEA040491F803C098
:1007E000BCF1280F06D14FF0010C0CFA00FCC2F846
:1007F00014C00AE091F803C0BCF1480F05D14FF0D6
:10080000010C0CFA00FCC2F810C0401C0828D1D31F
:100810001460B1F800C0BCF1FF0F34DD5468002053
:100820002EE000F1080C4FF0010808FA0CF3B1F8C3
:1008300000C00CEA03069E4221D183004FF00F0C4A
:100840000CFA03F7BC4305FA03FC4CEA040491F8E4
:1008500003C0BCF1280F05D100F1080C08FA0CF810
:10086000C2F8148091F803C0BCF1480F07D100F121
:10087000080C4FF0010808FA0CF8C2F81080401C70
:100880000828CED35460BDE8F0814FF6FF71018097
:10089000022181700421C1707047024600209368D4
:1008A0000B400BB1012000E0002070470146886832
:1008B00080B2704702460020D3680B400BB1012084
:1008C00000E0002070470146C86880B270470161AF
:1008D0007047416170470AB1016100E041617047B2
:1008E000C16070474FF480320A4382618161826146
:1008F00082698269704702460020434B18684FF6B0
:100900008073184040EA021008433F4B186070475C
:100910003E49C8617047F0B50A4600230024002113
:10092000002500F00046B6F1004F02D1364EF169C5
:1009300001E0354E7168C0F3034583B200F4401600
:10094000B6F5401F08D121F070612F4E766826F071
:1009500070662D4F7E6012E000F48016B6F5801FA1
:1009600006D1032606FA05F4A14341F0706106E0C2
:10097000460D360103FA06F6B14341F0706122B12B
:10098000460D360103FA06F6314300F00046B6F193
:10099000004F02D11C4EF16101E01B4E7160F0BDB1
:1009A00030B500228B071C0F0F2303FA04F2164BFD
:1009B00008338C1053F824309343134C08348D10B3
:1009C00044F8253023468C1053F824308C07240F2C
:1009D00000FA04F423430C4C08348D1044F82530FD
:1009E00030BD0A49DC310860704700000008014052
:1009F000000C0140001001400014014000180140AB
:100A0000001C014000200140000001400000204285
:100A1000DF48006840F00100DD4908600846406892
:100A2000DC490840DA49486008460068DA4908406D
:100A3000D74908600846006820F48020086008460E
:100A4000406820F4FE0048604FF41F008860704743
:100A5000CF49096821F48031CD4A116011460968F7
:100A600021F480211160B0F5803F03D0B0F5802FD4
:100A70000ED106E0C649096841F48031C44A1160CC
:100A800007E0C349096841F4A021C14A116000E0B0
:100A900000BF00BF704710B50146002200230020B0
:100AA0004A11012A02D1BA4C236806E0022A02D177
:100AB000B74C236A01E0B64C636A01F01F020124BF
:100AC00094401C400CB1012000E0002010BD38B55E
:100AD000002000900024002500BF3120FFF7DBFF3D
:100AE00005460098401C00900098B0F5A06F01D01A
:100AF000002DF2D03120FFF7CEFF08B1012400E035
:100B00000024204638BD01460020A14A106820F08C
:100B1000F80040EAC10010607047A04908607047C3
:100B2000024600209A4B586820F47C1042EA0103E8
:100B30001843974B586070479849086670470146BC
:100B40000020934A506820F003000843506070472B
:100B50008F48406800F00C007047014600208C4A26
:100B6000506820F0F00008435060704701460020B4
:100B7000874A506820F4E06008435060704701469F
:100B80000020834A506820F4605040EAC100506061
:100B9000704729B17E4A527A02437D4B5A7204E073
:100BA0007B4A527A82437A4B5A7270477B49D831DA
:100BB0000860704701460020754A506820F44040A4
:100BC0000843506070470021714A20321170704A0A
:100BD00082F82010012802D004280AD104E0012163
:100BE0006B4A2032117005E00521694A20321170EC
:100BF00000E000BF00BF7047694908607047644962
:100C0000096A0143624A11627047654944390860C4
:100C1000704730B500210022002400235C4D6D6830
:100C200005F00C0121B1042905D0082923D105E0E4
:100C30005C4D056022E05C4D05601FE0544D6D6821
:100C400005F47012524D6D6805F48034022505EBF1
:100C500092421CB9554D554305600BE04C4D6D68F3
:100C600005F400351DB1524D5543056002E04E4D6F
:100C70005543056002E04B4D056000BF00BF444D89
:100C80006D6805F0F00109094A4D6B5C0568DD40AF
:100C900045603F4D6D6805F4E061090A454D6B5CA8
:100CA0004568DD4085603A4D6D6805F46051C90ABC
:100CB000404D6B5C4568DD40C560354D6D6805F4A1
:100CC0004041890B3C4D6B5CC568B5FBF3F5056194
:100CD00030BD29B12E4A526902432D4B5A6104E0BE
:100CE0002B4A526982432A4B5A61704729B1284ADC
:100CF00092690243264B9A6104E0254A9269824335
:100D0000234B9A61704729B1214AD2690243204B93
:100D1000DA6104E01E4AD26982431D4BDA617047F2
:100D200029B11B4AD2680243194BDA6004E0184A21
:100D3000D2688243164BDA60704729B1144A1269AF
:100D40000243134B1A6104E0114A12698243104BAB
:100D50001A61704712494039086070470F49C864EA
:100D600070470B49C87170470948406A40F080706D
:100D700007494862704701460020054A92680A40C8
:100D80000AB1012000E000207047014988727047D5
:100D9000001002400000FFF8FFFFF6FE0000424294
:100DA0008004424200127A00001BB70000093D0097
:100DB000808D5B00140000202400002010B5044644
:100DC000FE48844208D10121C014FFF7A9FF002189
:100DD000E014FFF7A5FFC4E0B4F1804F08D1012172
:100DE0000846FFF7AAFF00210120FFF7A6FFB8E0A1
:100DF000F348844208D101210220FFF79EFF002121
:100E00000220FFF79AFFACE0EE48844208D10121AE
:100E10000420FFF792FF00210420FFF78EFFA0E0DF
:100E2000E948844208D101210820FFF786FF00210C
:100E30000820FFF782FF94E0E448844208D10121B2
:100E40001020FFF77AFF00211020FFF776FF88E0DF
:100E5000DF48844208D101212020FFF76EFF0021E6
:100E60002020FFF76AFF7CE0DA48844208D10121A4
:100E70004014FFF755FF00216014FFF751FF70E0A9
:100E8000D548844209D10121C804FFF749FF002158
:100E90004FF40020FFF744FF63E0D048844209D1BB
:100EA00001210805FFF73CFF00214FF48010FFF7F8
:100EB00037FF56E0CA48844209D101214805FFF7AF
:100EC0002FFF00214FF40010FFF72AFF49E0C5482B
:100ED000844208D101214020FFF72FFF002140204C
:100EE000FFF72BFF3DE0C048844208D1012180205C
:100EF000FFF723FF00218020FFF71FFF31E0BB48F1
:100F0000844208D101218015FFF717FF0021A015A9
:100F1000FFF713FF25E0B648844209D101210804F8
:100F2000FFF7FEFE00214FF48030FFF7F9FE18E0D6
:100F3000B048844209D101214804FFF7F1FE0021A5
:100F40004FF40030FFF7ECFE0BE0AB48844208D1D1
:100F500001218804FFF7E4FE00214FF48020FFF711
:100F6000DFFE10BD00220288944B98420ED0994BB0
:100F700098420BD0B0F1804F08D0914B984205D0E9
:100F8000904B984202D0904B984204D14FF68F7309
:100F90001A404B881A438D4B984207D08C4B98428D
:100FA00004D04FF6FF431A40CB881A4302808B8847
:100FB00083850B880385814B98420BD0854B9842E3
:100FC00008D08B4B984205D08A4B984202D08A4B6E
:100FD000984201D10B7A038601238382704770B552
:100FE000002400220023058C4FF6FE763540058450
:100FF000028C8388048B4FF68F752C40B51E2C40D5
:101000000D882C43751E2A400D892A434D882A439A
:101010006A4DA8420BD06F4DA84208D0744DA8422B
:1010200005D0744DA84202D0734DA84213D14FF69B
:10103000F7752A404D892A434FF6FB752A408D8863
:101040002A434FF6FF652B404FF6FF552B408D8905
:101050002B43CD892B4383800483CD8885860284EE
:1010600070BD70B5002400220023058C4FF6EF768A
:1010700035400584028C8388048B48F6FF752C402C
:101080004FF6FF452C400D884FF6FF7606EA052502
:101090002C434FF6DF752A400D8906EA05152A43D1
:1010A0004D8806EA05152A43444DA84202D0494D11
:1010B000A8421DD14FF67F752A404D894FF6FF7625
:1010C00006EA05152A434FF6BF752A408D8806EAC1
:1010D00005152A434FF6FF352B404FF2FF752B4085
:1010E0008D8906EA85052B43CD8906EA85052B43C4
:1010F00083800483CD880587028470BD70B5002489
:1011000000220023058C4FF6FF6635400584028CD3
:101110008388848B4FF68F752C404FF6FC752C40DE
:101120000D882C434FF6FF552A400D894FF6FF7668
:1011300006EA05252A434D8806EA05252A431F4D60
:10114000A84202D0234DA8421DD14FF2FF752A407C
:101150004D894FF6FF7606EA05252A434FF6FF35FF
:101160002A408D8806EA05252A434EF6FF752B4056
:101170004DF6FF752B408D8906EA05152B43CD8969
:1011800006EA05152B4383808483CD8885870284F6
:1011900070BD70B5002200230024058C4EF6FF764A
:1011A00035400584038C8488828B48F6FF752A407D
:1011B0004FF6FF452A400D8820E00000002C01403A
:1011C0000004004000080040000C004000100040F7
:1011D0000014004000340140004C01400050014028
:1011E0000054014000180040001C00400020004056
:1011F0000040014000440140004801404FF6FF76A6
:1012000006EA05252A434DF6FF752B400D8906EAAF
:1012100005352B434D8806EA05352B43FA4DA84288
:1012200002D0FA4DA84208D14BF6FF752C408D89AB
:101230004FF6FF7606EA85152C4384808283CD889D
:10124000A0F84050038470BD828B4FF2FF331A40E8
:101250008283828B4FF6FF7303EA01231A43828352
:101260007047F0B50C461546002200210026078C79
:101270004EF6FF7C07EA0C070784828B018C4FF641
:10128000FF7707EA043640F6FF473A404FF6FF770C
:1012900007EA05273A434FF6FF7707EA03373A4351
:1012A000D94FB8420ED0D94FB8420BD0B0F1804FD1
:1012B00008D0D74FB84205D0D64FB84202D0D64F4B
:1012C000B84206D14DF6FF77394046F4805739438E
:1012D00005E047F6FF57394044F48057394382838D
:1012E0000184F0BD828B4FF6F3731A408283828BA8
:1012F0000A4382837047F0B50C4615460022002150
:101300000026078C4FF6FF6C07EA0C070784828BD8
:10131000018C4FF6FF7707EA04264FF60C773A4028
:101320004FF6FF7707EA03172F433A43B64FB84209
:101330000ED0B64FB8420BD0B0F1804F08D0B44FAA
:10134000B84205D0B34FB84202D0B34FB84206D12D
:101350004FF6FF57394046F48077394305E04FF2A6
:10136000FF57394044F48077394382830184F0BDCC
:10137000028B4FF2FF331A400283028B4FF6FF734A
:1013800003EA01231A4302837047F0B50C46154661
:10139000002200210026078C4FF6EF7C07EA0C079D
:1013A0000784028B018C4FF6FF7707EA041640F69C
:1013B000FF473A404FF6FF7707EA03373A434FF6C5
:1013C000FF7707EA05273A438F4FB8420ED08F4F79
:1013D000B8420BD0B0F1804F08D08D4FB84205D045
:1013E0008C4FB84202D08C4FB84206D14FF6DF770F
:1013F000394046F01007394305E04FF65F77394032
:1014000044F01007394302830184F0BD028B4FF68C
:10141000F3731A400283028B0A4302837047F0B5CC
:101420000C46154600220021068C4FF6FE773E4002
:101430000684028B018C4FF60C7632407E1C06EA45
:1014400003162E433243704EB0420ED06F4EB04260
:101450000BD0B0F1804F08D06D4EB04205D06D4E2C
:10146000B04202D06C4EB04206D14FF6FD7631400C
:1014700044F00106314305E04FF6F576314044F083
:101480000106314302830184F0BD70B505460C4668
:101490005D4885420ED05D4885420BD0B5F1804F46
:1014A00008D05B48854205D05A48854202D05A4848
:1014B000854200D100E000BF208850B92389A2886E
:1014C00061882846FFF7ABFFE1882846FFF79EFFBB
:1014D00025E0208804280AD12389A288618828462B
:1014E000FFF753FFE1882846FFF742FF17E0208807
:1014F00008280AD12389A28861882846FFF7FBFEC5
:10150000E1882846FFF7EEFE09E02389A28861887A
:101510002846FFF7A6FEE1882846FFF795FE70BD36
:101520002DE9F04105460C4600260127608808B9E0
:10153000022600E00026A088012801D1022700E051
:1015400001272088A0B92389A28861882846FFF74F
:1015500066FFE1882846FFF759FF23893A4631465E
:101560002846FFF712FFE1882846FFF701FF13E046
:101570002389A28861882846FFF707FFE18828466B
:10158000FFF7F6FE23893A4631462846FFF747FF24
:10159000E1882846FFF73AFFBDE8F0810A884B88CA
:1015A0001A438B881A43CB881A430B891A434B89F9
:1015B0001A438B891A43A0F8442070474FF6FF71F5
:1015C000818000210180C18041800172704700212B
:1015D000018041808180C180018141818181C181FF
:1015E0007047002101804180012181800021C1805C
:1015F000018170470021018041808180C18001818B
:101600004181818170470000002C0140003401407D
:101610000004004000080040000C004021B1028896
:1016200042F00102028004E002884FF6FE731A4085
:101630000280704731B1B0F8442042F40042A0F873
:10164000442005E0B0F84420C2F30E02A0F8442084
:1016500070471AB183890B43838102E083898B43EE
:10166000838170478182704741EA0203A0F84830C5
:1016700070471AB183890B43838102E083898B43CE
:101680008381704701894FF6F872114001817047DC
:101690000A46002101894FF68F73194011430181D9
:1016A000704730B504460D4629462046FFF7F0FF47
:1016B000208940F00700208130BD2DE9F04104462B
:1016C0000D4616461F46602D06D13B460122314687
:1016D0002046FFF75AFE05E03B46012231462046F0
:1016E000FFF79DFE29462046FFF7D2FF208940F0F4
:1016F00007002081BDE8F08130B50C46002101894A
:10170000C9B24FF6FF7505EA032515432543294362
:10171000018130BD2DE9F04105460E461746984639
:10172000002443463A4631462846FFF7E5FF2C8918
:101730004FF6F870044044F007044FF68F700440F1
:1017400044F070042C81BDE8F081F0B504460D46EC
:1017500016461F463B46324629462046FFF7CCFF39
:10176000208940F480402081F0BD0185828270474D
:101770000A46002101884FF68F73194011430180FA
:101780007047F0B50C4615461E4600210022002386
:101790000189028B038C4FF6F877394021434FF6CD
:1017A000FC473A4040F201173A434FF6DD773B40A1
:1017B0004FF6FF7707EA06172F433B430181028369
:1017C0000384F0BD0A460021018B4FF68F73194048
:1017D0001143018370470A460021018B48F6FF73CD
:1017E00019404FF6FF7303EA022319430183704740
:1017F0000A460021818B4FF68F7319401143818374
:1018000070470A460021818B48F6FF7319404FF656
:10181000FF7303EA022319438183704721B10288D1
:1018200042F08002028004E002884FF67F731A4083
:101830000280704721B1828842F00402828004E075
:1018400082884FF6FB731A408280704721B18288EC
:1018500042F00802828004E082884FF6F7731A4053
:101860008280704721B1828842F00102828004E0C8
:1018700082884FF6FE731A40828070470A46002124
:10188000018B4FF6F77319401143018370470A46E5
:101890000021018B4FF2FF7319404FF6FF7303EAEB
:1018A00002231943018370470A460021818B4FF6BA
:1018B000F77319401143818370470A460021818BD9
:1018C0004FF2FF7319404FF6FF7303EA02231943E7
:1018D000818370470A460021018B4FF6FB73194044
:1018E0001143018370470A460021018B4FF6FF33F5
:1018F00019404FF6FF7303EA02231943018370472F
:101900000A460021818B4FF6FB73194011438183F6
:1019100070470A460021818B4FF6FF3319404FF67E
:10192000FF7303EA02231943818370470A460021AB
:10193000018B4FF67F7319401143018370470A46AC
:101940000021018BC1F30E014FF6FF7303EA02235E
:101950001943018370470A460021818B4FF67F733C
:1019600019401143818370470A460021818BC1F3DE
:101970000E014FF6FF7303EA022319438183704778
:101980000A460021018C4FF6FD7319401143018472
:1019900070470A460021018C4FF6F7731940114336
:1019A000018470470A460021018C4FF6DF7319400D
:1019B0004FF6FF7303EA02131943018470470A4686
:1019C0000021018C4FF67F7319404FF6FF7303EA35
:1019D00002131943018470470A460021018C4FF617
:1019E000FF5319404FF6FF7303EA022319430184A2
:1019F00070470A460021018C4FF2FF7319404FF6E1
:101A0000FF7303EA02231943018470470A46002149
:101A1000018C4DF6FF7319404FF6FF7303EA023352
:101A200019430184704730B5002301248C40A3B2D0
:101A3000048C9C430484048C02FA01F5ADB22C435F
:101A4000048430BD30B5002304248C40A3B2048C40
:101A50009C430484048C02FA01F5ADB22C43048447
:101A600030BD70B50346002000241846183001250B
:101A70008D40ACB21D8CA5431D8409B1082909D144
:101A800000EB6100056825F07005056005681543E9
:101A900005600EE00D1FC5F34E052844056825F4CA
:101AA000E045056005684FF6FF7606EA02263543F5
:101AB000056070BD21B1028842F00202028004E09C
:101AC00002884FF6FD731A400280704721B10288E8
:101AD00042F00402028004E002884FF6FB731A40D1
:101AE0000280704721B1828842F08002828004E047
:101AF00082884FF67F731A408280704702884FF6C3
:101B0000F7731A40028002880A4302807047828875
:101B10004FF68F731A40828082880A438280704712
:101B200002894FF6F8731A40028102890A43028142
:101B3000704702894FF67F731A40028102890A4377
:101B40000281704781847047818570478186704724
:101B50000187704781877047A0F84010704702885E
:101B60004FF6FF431A40028002880A430280704702
:101B70000146888E70470146088F70470146888F5E
:101B800070470146B1F8400070470146888C7047A5
:101B90000146088D704702460020138A0B400BB1A6
:101BA000012000E000207047CA430282704730B530
:101BB0000246002000230024158A05EA01039589C6
:101BC00005EA010413B10CB1012000E0002030BD92
:101BD000CA4302827047000010B50446FB488442A5
:101BE00009D101218803FFF79BF800214FF48040C1
:101BF000FFF796F832E0F648844209D10121480403
:101C0000FFF79BF800214FF40030FFF796F825E02E
:101C1000F048844209D101218804FFF78EF80021A1
:101C20004FF48020FFF789F818E0EB48844209D18F
:101C30000121C804FFF781F800214FF40020FFF7CD
:101C40007CF80BE0E548844208D101210805FFF744
:101C500074F800214FF48010FFF76FF810BD2DE9E4
:101C6000F04786B005460E460024A24600BFA146B6
:101C70000027B08900B100BF2F462C8A4CF6FF70B8
:101C80000440F08804432C82AC894EF6F3100440E3
:101C9000B08831890843718908430443AC81AC8A18
:101CA0004FF6FF400440B0890443AC8201A8FEF720
:101CB000B0FFC648874202D1DDF810A001E0DDF890
:101CC0000CA0A88900F4004040B10AEBCA0000EB68
:101CD0000A1031684900B0FBF1F807E00AEBCA00CE
:101CE00000EB0A1031688900B0FBF1F86420B8FB02
:101CF000F0F004012009642101FB1089A88900F497
:101D0000004040B1322000EBC900B0FBF1F000F020
:101D10000700044308E0322000EB09106421B0FB07
:101D2000F1F000F00F0004432C8106B0BDE8F0870D
:101D30004FF41651016000218180C18001810C2186
:101D4000418100218181704710B502460020108A30
:101D50004FF2FF0318400B884C8823438C882343A1
:101D6000CC8823431843108210BD0021018041809C
:101D70008180C180704721B1828942F40052828102
:101D800004E082894DF6FF731A4082817047F0B5F6
:101D90000346002400260025002040F66A17B942B9
:101DA00000D100BF1846C1F3421401F01F060127FD
:101DB00007FA06F5012C01D10C3004E0022C01D108
:101DC000103000E014301AB107682F43076002E0BA
:101DD0000768AF430760F0BD1AB1838A0B43838263
:101DE00002E0838A8B4383827047028A4FF6F07346
:101DF0001A400282028A0A430282704782894FF2A5
:101E0000FF731A40828182890A438281704721B11F
:101E1000828942F00202828104E082894FF6FD73DA
:101E20001A4082817047028A4FF6DF731A4002829D
:101E3000028A0A430282704721B1028A42F4804238
:101E4000028204E0028A4BF6FF731A400282704756
:101E5000C1F308028280704701468888C0F30800F9
:101E60007047818941F0010181817047028BD2B2B4
:101E70000283028B42EA012202837047028B02F442
:101E80007F420283028B0A430283704721B1828A18
:101E900042F02002828204E0828A4FF6DF731A4009
:101EA0008282704721B1828A42F01002828204E06D
:101EB000828A4FF6EF731A408282704721B1828A7C
:101EC00042F00802828204E0828A4FF6F7731A40D9
:101ED0008282704721B1828942F40042828103E00C
:101EE0008289C2F30E028281704721B1828A42F454
:101EF0000062828204E0828A4FF2FF731A4082827B
:101F00007047828A4FF6FB731A408282828A0A43A4
:101F10008282704721B1828A42F00202828204E00A
:101F2000828A4FF6FD731A40828270470246002073
:101F3000B1F5007F00D100BF13880B400BB1012029
:101F400000E00020704701F40072B2F5007F00D17C
:101F500000BFCA430280704770B5024600240023C8
:101F60000025002040F66A16B14200D100BFC1F33F
:101F7000421501F01F03012606FA03F3012D02D1D9
:101F80009689334006E0022D02D1168A334001E0E3
:101F9000968A33400C12012606FA04F4168834405F
:101FA00013B10CB1012000E0002070BD10B500227B
:101FB000002340F66A14A14200D100BF0A12012496
:101FC0009440A3B2DC43048010BD000000380140FF
:101FD0000044004000480040004C004000500040D9
:101FE00001684FF6FE7211400160002101604160FE
:101FF0008160C1608D49884208D18C49083949689F
:1020000041F00F01894A083A51608AE0874914314A
:10201000884208D185490839496841F0F001834A6E
:10202000083A51607DE081492831884208D17F49D2
:102030000839496841F470617C4A083A516070E09F
:102040007A493C31884208D178490839496841F4D5
:102050007041764A083A516063E0744950318842D1
:1020600008D172490839496841F470216F4A083A29
:10207000516056E06D496431884208D16B49083996
:10208000496841F47001694A083A516049E067497A
:102090007831884208D165490839496841F0706152
:1020A000624A083A51603CE06149884206D1011F0A
:1020B000096841F00F01021F116032E05C491431E0
:1020C000884208D15A49091F096841F0F001584A6D
:1020D000121F116025E056492831884208D1544921
:1020E000091F096841F47061514A121F116018E01C
:1020F0004F493C31884208D14D49091F096841F4D4
:1021000070414B4A121F11600BE04949503188421F
:1021100007D14749091F096841F47021444A121F39
:102120001160704710B50022026847F6F0739A43B9
:102130000C6A8B6823430C6923434C6923438C69E5
:102140002343CC6923434C6A23438C6A23431A43B9
:102150000260CB6843600B6883604B68C36010BD4E
:102160000021016041608160C16001614161816164
:10217000C161016241628162704721B1026842F02F
:102180000102026004E002684FF6FE731A4002602A
:1021900070471AB103680B43036002E003688B4386
:1021A00003607047416070470146486880B27047DD
:1021B00001460020002201F080531BB11C4B083B5C
:1021C0001A6802E0194B083B1A6802EA01030BB1D6
:1021D000012000E00020704700F0805119B114493F
:1021E000091F086002E0114908394860704701463C
:1021F0000020002201F080531BB10D4B083B1A68F0
:1022000002E00A4B083B1A6802EA01030BB1012005
:1022100000E00020704700F0805119B10449091F07
:10222000086002E001490839486070470800024030
:102230000804024010B50120FEF78CFD0020FEF7D7
:1022400089FD10BD2A49086070472949091F0860A7
:102250007047274984310860704701460020254AAD
:1022600010884FF67F4210400843224A1080704782
:10227000014600201F4A10884FF680721040084324
:102280001C4A1080704708B500220092194A2C3A67
:102290000092009A02440092009A116008BD08B5AD
:1022A00001460020009013482C3800900098084404
:1022B00000900098008808BD0D489C300068C0B2AE
:1022C00070470C480830008840F001000949083187
:1022D000088070470648A0300068C0B270470548C3
:1022E0000830008840F00200024908310880704739
:1022F00004860D422C6C0040002044490860091DF2
:102300000860091D0860091D086041483F491431F3
:102310000860704700213D498279002A3AD00A4678
:10232000126803689A430B461A600A1D1268036814
:102330009A430B1D1A60027911440A6803681A4314
:102340000A60324A0832126803689A432F4B0833F6
:102350001A601A1D126803689A432C4B0C331A60DA
:102360004279102A0ED11A1F126803681A43274BAC
:1023700008331A601A1D126803681A43234B0C3382
:102380001A600DE02149427911440A6803681A4332
:102390000A6005E0027911440A6803689A430A60FA
:1023A00070470021016001710C2141710021817190
:1023B00070471649103109680143144A1032116000
:1023C000704701460020114A143212680A400AB1CF
:1023D000012000E0002070470C491431086070476C
:1023E000014600200022094B1B6803EA0102074B4B
:1023F00014331B680B4013B10AB1012000E0002028
:102400007047024914310860704700000004014021
:10241000FFFF0F0010B501210807FEF78EFC002119
:102420004FF08050FEF789FC10BD2A4908627047C2
:1024300028490861704701460020274A106820F0AB
:10244000E0000843106070472249A03108607047DF
:1024500010B502460020204B186820F003001043FE
:1024600018601E4B1B6843F004031C4C23600129B9
:1024700001D130BF00E020BF184B1B6823F00403DC
:10248000164C236010BD1448006840F00400124947
:1024900008600846006840F0020008600F480068C5
:1024A00040F004000D49086000BF00BF30BF704716
:1024B00001460020084A52680A400AB1012000E0A3
:1024C000002070470449096841EA8001024A11600E
:1024D0007047000000000E420070004010ED00E068
:1024E00029B1504A128802434E4B1A8004E04D4AEB
:1024F000128882434B4B1A8070474A48001D00885F
:1025000040F010004749091D088070474548001DEC
:1025100000884FF6EF7108404249091D0880704756
:10252000002140481C300188001F008841EA00401B
:10253000704700B50246FFF7E0FF100C394918312B
:102540000880091D0A80FFF7E1FF00BD00B50246C3
:10255000FFF7D3FFC2F30340324908310880091D59
:102560000A80FFF7D3FF00BD00B50246FFF7C5FFA5
:10257000100C2C4920310880091D0A80FFF7C6FF86
:1025800000BD00202749103109880907080B25499B
:10259000143109880843704700BF2248001D008895
:1025A00000F020000028F8D070471E48001D008869
:1025B0004FF6F77108401B49091D088000BF1948F4
:1025C000001D008800F008000028F8D07047014680
:1025D0000020144A121D12880A400AB1012000E0AE
:1025E000002070470F49091D098881430D4A121DBB
:1025F00011807047014600200A4A121D12880A40C5
:10260000D0B2084A12880A4012B108B1012000E095
:10261000002070470349091D09888143014A121DA2
:1026200011807047002800404FF0E020006920F042
:1026300004004FF0E021086109203649087008467F
:10264000007800EB4001C1EBC0104FF6FF7101EACA
:10265000C000314908807047002120F07F402D4A9A
:10266000127842434FF0E0235A6100229A6101221E
:102670001A6100BF4FF0E022116901F001021AB1A6
:1026800001F48032002AF5D000224FF0E0231A61D5
:102690009A617047002100B9704720F07F401E4AC0
:1026A000128842434FF0E0235A6100229A610122CE
:1026B0001A6100BF4FF0E022116901F001021AB166
:1026C00001F48032002AF5D000224FF0E0231A6195
:1026D0009A6100BFE0E770B50446002600254FF47C
:1026E000FA7094FBF0F0C6B24FF4FA7094FBF0F17C
:1026F00000FB114085B205E04FF4FA70FFF7CAFF06
:10270000701EC6B2002EF7D115B12846FFF7C2FFE2
:1027100070BD0000280000202A000020FA4908802F
:10272000704708B501210820FEF7E0FA14208DF863
:1027300003004FF44060ADF8000003208DF8020064
:102740006946F248FEF716F80520FFF7E7FF4FF459
:102750000061EE48FEF7BBF84FF48061EB48FEF7EE
:10276000B6F808BD10B54FF40061E848FEF7AFF8C1
:102770004FF48061E548FEF7AAF8E3490888FFF7BF
:102780006BFF4FF40061E148FEF7A3F8DE490888CB
:10279000FFF762FF4FF48061DC48FEF79AF810BD46
:1027A00010B54FF40061D948FEF793F84FF48061FB
:1027B000D648FEF78EF8D4490888FFF74DFF4FF44E
:1027C0008061D248FEF783F84FF40061CF48FEF7EE
:1027D0007EF8CD490888FFF73FFF10BD10B50446CD
:1027E0004FF40061C948FEF772F8C7490888FFF73F
:1027F00033FF4FF48061C548FEF769F8C249088885
:10280000FFF72AFF0EE0601E041E07D0C0A1C548D6
:1028100000F00AFDFFF7C4FF012010BDBA49088887
:10282000FFF71AFF4FF40061B848FEF736F80028AA
:10283000E9D14FF48061B548FEF74BF80020ECE792
:1028400010B54FF48061B148FEF743F84FF40061D2
:10285000AE48FEF73EF8AC490888FFF7FDFE4FF49E
:102860008061AA48FEF733F8A7490888FFF7F4FE0D
:102870004FF48061A548FEF72CF810BD10B54FF459
:102880008061A248FEF725F84FF400619F48FEF7EB
:102890001EF89D490888FFF7DFFE4FF480619B48D2
:1028A000FEF715F898490888FFF7D6FE4FF48061C7
:1028B0009648FEF70EF810BD70B5044600254FF49B
:1028C00080619248FEF705F823E004F0800028B10B
:1028D0004FF400618D48FDF7FAFF04E04FF400610A
:1028E0008A48FDF7F6FF6006040E87490888FFF75F
:1028F000B3FE4FF480618548FDF7E9FF82490888FF
:10290000FFF7AAFE4FF480618048FDF7E2FF681CE4
:10291000C5B2082DD9DB70BD70B5002500244FF479
:1029200000617A48FDF7D3FF1DE04FF480617748DE
:10293000FDF7CFFF74490888FFF78EFE4FF48061E2
:102940007248FDF7C4FF6006040E4FF400616F4843
:10295000FDF7A3FF08B1601CC4B26B490888FFF7FC
:102960007BFE681CC5B2082DDFDB204670BD2DE95B
:10297000F04105460E46144600276806070EFFF78D
:10298000F1FE3846FFF798FF41F28830FFF726FF47
:1029900010B10120BDE8F0813046FFF78DFF41F214
:1029A0008830FFF71BFF08B10120F3E74CB1207816
:1029B000FFF782FF41F28830FFF710FF08B10120D6
:1029C000E8E7FFF7EDFE0020E4E72DE9F0410446DB
:1029D0000D46164600276006070EFFF7C3FE384671
:1029E000FFF76AFF41F28830FFF7F8FE10B10120CF
:1029F000BDE8F0812846FFF75FFF41F28830FFF71E
:102A0000EDFE08B10120F3E7FFF7ACFE791CC8B278
:102A1000FFF752FF41F28830FFF7E0FE08B10120D6
:102A2000E6E7FFF779FF3070FFF728FFFFF7B8FE02
:102A30000020DDE72DE9F04105460E4614461F460D
:102A40004FF0000868064FEA1068FFF78BFE40461B
:102A5000FFF732FF41F28830FFF7C0FE10B10120CE
:102A6000BDE8F0813046FFF727FF41F28830FFF7DD
:102A7000B5FE08B10120F3E70DE02078FFF71CFF59
:102A800041F28830FFF7AAFE08B10120E8E7641C94
:102A90000A20FFF7E1FD381EA7F10101CFB2ECD10A
:102AA000FFF77EFE0020DBE72DE9F04106460F46EA
:102AB00014461D464FF000084FEA4608FFF752FE45
:102AC00008F0FF00FFF7F8FE41F28830FFF786FEBE
:102AD00010B10120BDE8F0813846FFF7EDFE41F26C
:102AE0008830FFF77BFE08B10120F3E7FFF73AFEDD
:102AF00008F10101C8B2FFF7DFFE41F28830FFF7AD
:102B00006DFE88B10120E5E72C000020000C01409B
:102B10005761697441636B2054696D654F75740D1D
:102B20000A0000000038014009E0FFF7F5FE2070C0
:102B3000641C15B9FFF7A2FE01E0FFF781FE281E15
:102B4000A5F10101CDB2F0D1FFF72AFE0020C1E7C7
:102B500010B50446012C01D0012000E000200246FF
:102B60004FF400713148FDF7B6FE0CB1012000E0D2
:102B700000202F49C87010BD10B50446012C01D0AB
:102B8000012000E0002002464FF480712748FDF745
:102B9000A2FE0CB1012000E000202549887010BD84
:102BA00010B50446012C01D0012000E000200246AF
:102BB00080211E48FDF78FFE0CB1012000E00020AF
:102BC0001B49487010BD10B50446012C01D00120EE
:102BD00000E00020024640211448FDF77CFE0CB1C5
:102BE000012000E000201249087010BD08B5012145
:102BF0000820FEF77BF810208DF803004FF470706A
:102C0000ADF8000003208DF8020069460748FDF783
:102C1000B1FD0020FFF7D7FF0020FFF7C1FF002024
:102C2000FFF7AAFF0020FFF793FF08BD000C01404B
:102C30002E00002010B50022FE214020FFF797FE55
:102C400010BD08B5002000906A46E7214020FFF73C
:102C5000BCFE9DF8000008BD70B503460C46154645
:102C600000210026002200BF13E0985C41400826A6
:102C70000BE001F0800020B1312080EA4100C1B2B8
:102C800001E04806010E701EC6B2002EF1DC501C99
:102C9000C2B2A242E9DBA94201D0012070BD0020EE
:102CA000FCE72DE9F84F82464FF0000B2AF0030AAB
:102CB000504605F089FD009005F03AFD8046654AD2
:102CC000654B05F04DFB0646644A654B05F0A0FADE
:102CD000044605F06BFA83465846BDE8F88F2DE9A7
:102CE000F84F82464FF0000B2AF0030A504605F0D9
:102CF0006BFD009005F01CFD80465A4A5A4B05F0CA
:102D00002FFB06460022594B05F028FC044605F02F
:102D10004DFA83465846BDE8F88F2DE9F84306463C
:102D20000C4600270025A846A9468025FFF71AFD76
:102D30002846FFF7C1FD4CF25030FFF74FFD10B1B0
:102D40000020BDE8F8833046FFF7B6FD4CF2503066
:102D5000FFF744FD08B10020F3E7FFF703FD691C0E
:102D6000C8B2FFF7A9FD05E0FFF7FCFC691CC8B27B
:102D7000FFF7A2FD4CF25030FFF730FD0028F3D1F1
:102D80005020FFF787FCFFF7C7FD8DF80000FFF725
:102D900057FDFFF7C1FD8DF80100FFF751FDFFF76B
:102DA000BBFD0746FFF76AFDFFF7FAFC3A46022132
:102DB0006846FFF751FF9DF801009DF8001000EBF9
:102DC00001201FFA80F8E32E04D14046FFF769FF87
:102DD000814603E04046FFF782FF81461CB148462A
:102DE00005F0D2FC20804846ABE708B500200090F3
:102DF0000520FFF793FCFFF724FF6420FFF72CFC6E
:102E00000021E320FFF789FF194908605020FFF7F0
:102E100041FC0021E520FFF780FF154948601E2096
:102E2000FFF738FCFFF70DFF1E20FFF733FC6A4663
:102E3000E6214020FFF79BFD6420FFF70DFCFFF724
:102E400000FF6420FFF708FCFFF7F4FE6420FFF7A3
:102E500003FC08BDD7A3703D0AF7653FCDCCCCCCB1
:102E6000CC6C47C07644CF7701405F3F00001840EC
:102E7000340000202DE9F04104460D4617461E4659
:102E80003EBBFE4884420FD10021FD48FFF775F993
:102E9000FB48443805653946F948FFF783F90121B5
:102EA000F748FFF76AF914E0F648844211D100218F
:102EB000F3483C30FFF761F9F14848300560394686
:102EC000EF483C30FFF76EF90121ED483C30FFF749
:102ED00054F9012E2AD1E948844212D10021E84850
:102EE0001430FFF74AF9E648443845663946E44865
:102EF0001430FFF757F90121E1481430FFF73DF98D
:102F000014E0E048844211D10021DD482830FFF769
:102F100034F9DB48443885673946D9482830FFF70B
:102F200041F90121D6482830FFF727F9BDE8F081A3
:102F300010B592B0044601210846FDF7CAFE0121F2
:102F40000420FDF7D3FE01218803FDF7CFFE1820F2
:102F50008DF847004FF40070ADF8440003208DF861
:102F6000460011A9C848FDF705FC04208DF847006C
:102F70000002ADF8440003208DF8460011A9C248B4
:102F8000FDF7F8FB0D940020ADF840000C20ADF8E3
:102F90003E000020ADF83C00ADF83A00ADF8380036
:102FA0000DA9B648FEF75BFE0121B448FEF7E3FE2B
:102FB000012240F22441B148FEF7E9FE25208DF8B8
:102FC000300001208DF833008DF8310002208DF89B
:102FD00032000CA8FDF705FBA948FFF701F8A74848
:102FE000001D01900020029010200390002004900A
:102FF00005908020069000200790089009904FF4DB
:1030000080500A9000200B9001A99D48FFF78AF894
:10301000012280219948FEF7DFFE002301229B490F
:103020009648FFF727FF96481430FEF7D9FF9348DC
:10303000001D0190002002900390049005908020D4
:10304000069000200790089009904FF480500A9055
:1030500000200B9001A98A481430FFF763F8012281
:1030600040218648FEF7B8FE12B010BD10B592B0F0
:10307000044601210846FDF72CFE01210420FDF73E
:1030800035FE01214804FDF73EFE18208DF847006B
:103090000420ADF8440003208DF8460011A97A48B9
:1030A000FDF768FB04208DF847000820ADF84400C8
:1030B00003208DF8460011A97348FDF75BFB0D94C2
:1030C0000020ADF840000C20ADF83E000020ADF827
:1030D0003C00ADF83A00ADF838000DA96948FEF79C
:1030E000BEFD01216748FEF746FE012240F2244161
:1030F0006448FEF74CFE26208DF8300001208DF844
:10310000330000208DF831008DF832000CA8FDF757
:1031100068FA5B483C30FEF763FF5A48001D019097
:103120000020029010200390002004900590802041
:10313000069000200790089009904FF480500A9064
:1031400000200B9001A94E483C30FEF7EBFF012216
:1031500080214C48FEF740FE002301224B4949489C
:10316000FFF788FE46482830FEF73AFF4548001D25
:10317000019000200290039004900590802006901A
:1031800000200790089009904FF480500A9000208A
:103190000B9001A93A482830FEF7C4FF10208DF8A3
:1031A000300001208DF833008DF8310002208DF8B9
:1031B00032000CA8FDF715FA012202213048283010
:1031C000FEF7E7FF012240212E48FEF705FE12B070
:1031D00010BD2DE9F04104460D4616462F462748FE
:1031E00084420BD100BF4FF40050FEF7E1FF0028EE
:1031F000F9D04FF40050FEF7EFFF0DE02148844274
:103200000AD100BF4FF00070FEF7D2FF0028F9D0BE
:103210004FF00070FEF7E0FF0023324639462046AB
:10322000FFF728FEBDE8F0810FB4F8B50446174D4E
:10323000124884420BD100BF4FF40050FEF7B8FF94
:103240000028F9D04FF40050FEF7C6FF0DE00D48FE
:1032500084420AD100BF4FF00070FEF7A9FF00289A
:10326000F9D04FF00070FEF7B7FF8021074803F058
:10327000A2FB08A800900548009A09E00038014028
:103280004400024000440040000801404802002081
:10329000079903F053F900200090284603F01BFB28
:1032A00086B20023324614492046FFF7E3FDF8BCFE
:1032B0005DF814FB10B510211048FEF737FED0B1B1
:1032C00001200F4981F89700002081F896000B48F3
:1032D000001D008840F224410848FEF734FE00211A
:1032E0000848FEF74AFF962006495839C86501216B
:1032F0000448FEF742FF10BD48020020003801409C
:10330000B0010020580002407FB506460C46154625
:103310001F48864207D101210220FDF7F4FC1D2041
:103320008DF8000006E001210420FDF7ECFC1E20D2
:103330008DF800000020ADF80600ADF80840ADF8AB
:10334000045001A93046FDF70DFE0122114630461A
:10335000FEF77FF901208DF803008DF801008DF84C
:1033600002006846FDF73DF901213046FEF756F9A7
:103370007FBD10B501210648FEF719FC012805D1D3
:1033800001F041F801210248FEF722FC10BD0000C7
:103390000004004008B5002000906A46E721402064
:1033A000FFF713FB9DF8000058B116A11848FFF76E
:1033B0003BFF1848008820F00100401C1549088098
:1033C00003E015A11248FFF72FFF0120FFF762F974
:1033D0006A46FF215020FFF7F8FA58B912A10C48AD
:1033E000FFF722FF0B48008820F00200801C0949EB
:1033F000088003E010A10648FFF716FF0120FFF741
:1034000049F908BD5348543230203A4F6B0D0A0039
:10341000003801403C0000205348543230203A45E7
:1034200072726F720D0A0000454550524F4D203A9E
:103430004F6B0D0A00000000454550524F4D203A99
:103440004572726F720D0A00704710B501214FF07E
:10345000C050FDF758FC0120FEF7E7FFFEF7EAFE3B
:103460004FF44070FDF7CBFB0120FDF7CEFBFFF7DB
:1034700093F8FFF79AF801210220FFF731F8FFF7E0
:103480008BF8FFF73AF83448FFF760F8FFF784F855
:103490000020FFF74EF8FFF77FF8FFF737F8FFF748
:1034A000D3FF002010BD10B5044601214FF0C050DD
:1034B000FDF729FC0120FEF7B8FF2046FFF739F899
:1034C000FFF76AF810BD70B50446FFF765F8FFF71F
:1034D00027F805192846FFF747F8FFF75DF8FFF7CB
:1034E00064F870BD10B50120FFF784F848B10120E1
:1034F000FFF790F81948007820F00100401C1749A8
:1035000008700420FFF776F848B10420FFF782F82E
:103510001248007820F00200801C10490870022038
:10352000FFF768F848B10220FFF774F80B480078FD
:1035300020F00400001D0949087010BD10B50748AF
:10354000007820F008000830044908704FF400307B
:10355000FEF757FF10BD0000356E01003E00002051
:1035600010B54FF4A060FDF737F8FFF75DF84FF4A2
:10357000E130FFF7DDFC01239622FE49FE48FFF70C
:1035800079FCFFF733FBFFF7CCF8FFF75EFFFFF79F
:1035900001FF7D20FDF77FFA012812D1F7A1F6483F
:1035A000FFF742FEFDF7E0FB0520F949487008707F
:1035B000F848808B20F4805000F58050F5498883CE
:1035C0000CE0F54BA3F10F02F4A1EB48FFF72CFE42
:1035D000F048808B20F48050EE49888348F69F4263
:1035E0003121F648FFF790FEF5A1E348FFF71CFEF6
:1035F00010BD10B5E8480F38C06C40B1E6490F392E
:10360000C86C00F06BFA0020E3490F39C86410BDA4
:10361000E1480F3890F8500020F00600001DDE4908
:103620000F3981F850007047DB480F3890F8500090
:1036300020F00600801CD8490F3981F850007047EF
:1036400010B5E548007800F0010008B1FFF7CDFBA8
:1036500010BD08B5D0480F3890F85000C0F34100B5
:10366000012804D0022816D0032834D120E0DB48FA
:103670000078DB4B002211460090032000F0B8FDDB
:10368000C5490F3991F8501060F34201C2480F3814
:1036900080F850101FE000F021FEBF490F3991F86B
:1036A000501060F34201BC480F3880F8501012E00F
:1036B00000200346024601460090022000F098FDDB
:1036C000B5490F3991F8501060F34201B2480F38F4
:1036D00080F8501000BF00BF00F027FE08BD70B595
:1036E00002F089FD50B102F091FD044602F08AFD1E
:1036F0000546214602F012F902F0B6FD70BD10B584
:10370000A348007828B1B7A19B48FFF78DFD00F0D2
:1037100059FF10BD10B5A0480F3890F8500000F0C8
:103720000100002841D19C480F3890F8500000F06B
:10373000010010BBA8480078C0F38000E8B19649AA
:103740000F3991F84A0001F14202323102F0EAFBEE
:1037500098B99149A1F10F0000F01FFB8E480F3876
:1037600090F8500000F0010038B1A54890F8200012
:1037700018B101219A4880F85D1097480078C0F38D
:10378000800090B902F01CFA58B99EA17A48FFF760
:103790004BFD9148008820F00400001D8E490880F0
:1037A00003E09DA17448FFF73FFD10BD00B585B053
:1037B0009E480078002847D00021894880F85110A1
:1037C00002F04BFE9A490968401A45F6C0518842FA
:1037D00011D30020964908606E4908606E480F3882
:1037E00090F8500020F001006B490F3981F850002B
:1037F000002002F0F9FC6748006828B3FEF790FE4D
:103800008C490860634801688A48006800F5967032
:10381000814207D85F48016886480068A0F5967025
:10382000814203D28348006864280DD85949096849
:10383000081DFFF738FE00207C4908707C490860AD
:103840000121674880F85110FEF76AFE7949086047
:10385000084600687849096888424ED9754800686A
:1038600075490860734803F0EFF87449086018213F
:10387000734803F0A0F87148006800686F49096850
:1038800049686E4A126892686C4B1B68DB68CDE928
:103890000132CDE90310694800680069401C0090BE
:1038A00066480068406900F26C7366A2182164489B
:1038B00002F06CFE614800688068F0B95F480068FB
:1038C0004068D0B95D4800680068B0B90120574928
:1038D000087002F0C2FD5649086000202D490860BA
:1038E0002D480F3890F8500020F001002A490F3978
:1038F00081F85000002002F077FC05B000BD10B543
:1039000025480F3890F8500000F0010090B9524857
:103910000088401C80B2504908803C280DDB4FA134
:103920001548FFF781FC00204B4908800320184907
:10393000087002E000204849088010BD10B5FFF76C
:103940000FFE01F099FF02F0B6FB02F0FBFC042130
:10395000AFF2613002F0FEFC4FF47A61AFF24F300B
:1039600002F0F8FC40F6B831AFF2433002F0F2FC5E
:1039700064217FE0B0010020003801405741524EE1
:103980003A0949574447205265626F6F740D0A0027
:103990008D0100209001002047010020322E444577
:1039A0005649443A2025732C20202020204150499C
:1039B0004B45593A2025730D0A00000000040040D1
:1039C000332E486172647761726520696E69742074
:1039D0004F4B0D0A000000003C0000202001002099
:1039E000B40000205741524E3A094E4554204661DA
:1039F000756C742050726F636573730D0A0000005C
:103A0000E60400204E455420446576696365203AFB
:103A10004F6B0D0A000000004E4554204465766946
:103A20006365203A4572726F720D0A0034010020FE
:103A30002C0100202401002028010020300100205A
:103A4000C802002025642D25642D25642025643AB4
:103A500025643A2564000000B000002054697073AA
:103A60003A0954696D657220436865636B2045723D
:103A7000720D0A00AFF2374002F06CFC0A21AFF27F
:103A80002D4002F067FC6421AFF2AD3002F062FC21
:103A90000A21AFF2953002F05DFC0A21AFF28B30C3
:103AA00002F058FC1421AFF2FB2002F053FC142169
:103AB000AFF2B51002F04EFC03A10748FFF7B4FBCC
:103AC00002F09DFC002010BD52756E6E696E672E6F
:103AD0002E2E0D0A00000000003801402DE9F041B3
:103AE0008CB007460020089009900A900B90079030
:103AF0000690059004908046002600250024384654
:103B000000F07EFE8046B8F1900F76D009DCB8F167
:103B1000200F0DD0B8F1300F73D0B8F1400F6ED137
:103B200054E0B8F1A00F7DD0B8F1D00FF7D156E036
:103B3000384600F058FF0A2841D2DFE800F00513AC
:103B4000181D22272C31363BC0A1C548FFF76CFB5E
:103B5000C44890F8500020F00100401CC14981F891
:103B6000500031E0C0A1BE48FFF75EFB2CE0C5A1CC
:103B7000BB48FFF759FB27E0CBA1B948FFF754FB3F
:103B800022E0D1A1B648FFF74FFB1DE0D7A1B44812
:103B9000FFF74AFB18E0DCA1B148FFF745FB13E053
:103BA000E1A1AF48FFF740FB0EE0E7A1AC48FFF70B
:103BB0003BFB09E0EDA1AA48FFF736FB04E0F5A1C5
:103BC000A748FFF731FB00BF00BF60E0F8A1A448A1
:103BD000FFF72AFB0120FD494870087057E0FCA15F
:103BE0009F48FFF721FB9F4890F8500020F04000CD
:103BF00040309C4981F8500049E02FE001E043E06B
:103C000010E004AB05AA07A9384601F071F8064692
:103C10003EB904980090F4A19148059B079AFFF7DC
:103C200003FB34E004A805AB06AA07A900903846B8
:103C300001F0B6F8064686B908A80090BDF818103D
:103C4000DDE90432079801F016F904980090F0A11C
:103C50008348059B079AFFF7E7FA18E0F87855289C
:103C60000DD13879AA280AD1787908B1F1A000E0FD
:103C7000F1A00246F1A17A48FFF7D6FA03E0F3A1DA
:103C80007748FFF7D1FA02E04FF0FF3600BF00BFE0
:103C9000701C10B90CB0BDE8F0817D21059802F0D0
:103CA000C8FD0546002D50D06D1C05E015F8012B10
:103CB0002046641C01A90A542878302802DB2878A1
:103CC0003928F3DD01A802F0A7FD0446E5A1059817
:103CD00002F0CBFD50B1012C03D10120FEF738FFDB
:103CE00033E014BB0020FEF733FF2EE0DFA1059880
:103CF00002F0BBFD50B1012C03D10120FEF73CFFC7
:103D000023E094B90020FEF737FF1EE0DAA1059802
:103D100002F0ABFD50B1012C03D10120FEF740FFB2
:103D200013E014B90020FEF73BFF0EE0D5A1059883
:103D300002F09BFD48B1012C03D10120FEF743FFA7
:103D400003E014B90020FEF73EFFB8F1300F07D1B1
:103D500036B9079802F0CBFB059802F0C8FB1AE0D1
:103D6000B8F1A00F17D1B6B9079802F0C0FB0598BB
:103D700002F0BDFB099A91B2089802F04BFA08A82C
:103D800000F030FD374890F8500020F00600801C0D
:103D9000344981F8500000BF7CE77FB504460D46EA
:103DA00000200090019002900390C8262B462246E6
:103DB000B6A12B48FFF738FA6B464FF480722946BC
:103DC000204600F020FDD0B9019A91B2009801F090
:103DD000A5FD684600F006FD06E02249C86CFFF725
:103DE0007DFE0A20FEF756FC1E4890F8500000F0B9
:103DF000010040B9701EC0B2061EEED103E0AEA1B4
:103E00001748FFF711FA174890F8500000F001002A
:103E100040B1144890F8500020F03800114981F862
:103E200050006DE10F4890F85000C008401C0D494B
:103E300091F8501060F3C5010A4880F85010C1F3A2
:103E4000C200052801DB074848E159E15469707355
:103E50003A09C1ACBDD3B3C9B9A60D0A0000000030
:103E600000380140380100205741524E3A09C1AC98
:103E7000BDD3CAA7B0DCA3BAD0ADD2E9B4EDCEF3BE
:103E80000D0A00005741524E3A09C1ACBDD3CAA732
:103E9000B0DCA3BAC9E8B1B84944BCF8C8A8CAA7FD
:103EA000B0DC0D0A000000005741524E3A09C1AC87
:103EB000BDD3CAA7B0DCA3BAB7FECEF1C6F7CAA776
:103EC000B0DC0D0A000000005741524E3A09C1AC67
:103ED000BDD3CAA7B0DCA3BAD3C3BBA74944BCF8BF
:103EE000C8A8CAA7B0DC0D0A000000005741524E16
:103EF0003A09C1ACBDD3CAA7B0DCA3BACEB4CADA02
:103F0000C8A80D0A000000005741524E3A09C1AC42
:103F1000BDD3CAA7B0DCA3BACADAC8A8C2EBCEDE4A
:103F2000D0A70D0A000000005741524E3A09C1AC1B
:103F3000BDD3CAA7B0DCA3BABCA4BBEEC2EBCEB45F
:103F4000B7D6C5E40D0A00005741524E3A09C1AC3C
:103F5000BDD3CAA7B0DCA3BAB8C3C9E8B1B8D2D13F
:103F6000B1BBBCA4BBEE0D0A000000005741524E8D
:103F70003A09C1ACBDD3CAA7B0DCA3BAD6D8B8B48D
:103F8000B7A2CBCDC1ACBDD3C7EBC7F3B0FC0D0A14
:103F9000000000004552523A09C1ACBDD3CAA7B0D7
:103FA000DCA3BACEB4D6AAB4EDCEF30D0A0000005D
:103FB0005741524E3A09C1ACBDD3B6CFBFAAA3AC4C
:103FC000D7BCB1B8D6D8C1AC0D0A00008D01002015
:103FD000546970733A09486561727442656174206E
:103FE0004F4B0D0A000000007372635F64657669D1
:103FF000643A2025732C207265713A2025732C2099
:104000007265715F6C656E3A2025640D0A000000D0
:10401000636D6469643A2025732C207265713A20BF
:1040200025732C207265715F6C656E3A2025640DD6
:104030000A000000457272004F6B000054697073F3
:104040003A0953656E642025730D0A005469707334
:104050003A094D6573736167652049442045727262
:104060000D0A00007265646C656400006772656526
:104070006E6C65640000000079656C6C6F776C6530
:1040800064000000626C75656C6564004F6E654E7F
:1040900065745F4465764C696E6B0D0A44455649FC
:1040A000443A2025732C20202020204150494B45A4
:1040B000593A2025730D0A005741524E3A0945449A
:1040C000505F5061636B6574436F6E6E65637420FF
:1040D0004661696C65640D0A0000000090F85000AC
:1040E00020F00100EB4981F85000084690F850009C
:1040F00020F0380081F850000320E749487008702C
:104100007FBD7FB504460D46164600200090019005
:1041100002900390DF4890F8500000F0010010B9C1
:10412000012004B070BD6B4632462946204600F09F
:104130007DFD40B9019A91B2009802F06BF8684693
:1041400000F050FB03E0D5A1DC48FFF76DF800203C
:10415000E7E7F0B589B007460D4614460020059004
:10416000069007900890D6A30FCB01AE0FC62E463F
:1041700005A8022301AA21B20090384600F06CFC89
:1041800000282FD1D2A1CD48069AFFF74DF8069A04
:1041900091B2059801F0C2FB05A800F023FB22466E
:1041A000CFA1C648FFF740F815E04FF49670FEF730
:1041B00071FAB4F5806F09D34FF48061304601F095
:1041C000ADFB06F58066A4F5806404E0A1B230463C
:1041D00001F0A4FB0024002CE7D1C6A1B748FFF7EB
:1041E00023F803E0C7A1B548FFF71EF809B0F0BDFA
:1041F0002DE9F04786B004460E4692461F46DDF88C
:10420000388000200290039004900590814600259C
:10421000A04890F8500000F0010018B9012006B045
:10422000BDE8F087012C03DA052C01DD0120F6E75B
:104230002246BBA1A148FEF7F7FF022C43D0002382
:1042400042463946204601F009F90546002D33DD86
:1042500002A82346002229460090304600F0FCFBCD
:10426000002824D1039800B2049909B2CDE90010C6
:10427000424639462046029B00F03CFF0546002D91
:104280000DDD039828440390039A91B2029801F03F
:10429000C1FF8FA18948039AFEF7C6FF03E0A9A1D9
:1042A0008648FEF7C1FF02A800F09CFA11E0B0A119
:1042B0008248FEF7B9FF0CE0002D01DA0020AEE7DE
:1042C0004FF0010905E040F61722B1493046FFF7EB
:1042D00040FF0020704948704846A0E71FB5002005
:1042E00000900190029003906A4890F8500000F00E
:1042F000010010B9022004B010BD684600F01BFE9A
:1043000008B10220F7E7634890F8500020F0400021
:10431000604981F85000019A91B2009801F07AFF4B
:10432000684600F05FFA0020E5E710B5594890F8BC
:10433000500000F0010008B9012010BD554890F868
:104340005000C0F3801060B10020924908705148BD
:1043500090F8500020F038004E4981F850000020BD
:10436000EBE78C480078401CC0B28A4908702828C6
:1043700047DB00200870474890F85000C0F3C202A5
:1043800085A14E48FEF750FF424890F8500020F0BB
:104390000600001D3F4981F85000084690F8500083
:1043A000C008401C91F8501060F3C501394880F8EE
:1043B0005010C1F3C200032823DB0024354890F8D5
:1043C000500020F03800334981F8500001F0C1FB63
:1043D00004461CB1012C01D0022C04D101202E492D
:1043E000487008700CE0032C01D0052C04D1032088
:1043F00029494870087003E0002027494870087078
:1044000000BF012099E770B50025002401F0A4FE4B
:104410000546002D3CD0284601F0A2FE044694B18A
:104420006348808B20F4804000F580406049888399
:104430000846808BC0F3403010B11648C46427E0B2
:104440005B48C46024E05BA1284602F00EFA40B14C
:104450005748808B20F4804000F580405449888381
:1044600016E056A1284602F000FA70B15048808B41
:10447000C0F3403048B1AFF2C8411048FEF7D4FE57
:10448000012005494870087002E0284601F056FEF8
:1044900070BD0000380100208D0100205741524EB0
:1044A0003A094F6E654E65745F5075736844617468
:1044B00061204661696C65640D0A000000380140A6
:1044C0007B2264735F6964223A22706963227D00F3
:1044D00053656E642025642042797465730D0A006B
:1044E000696D616765206C656E203D2025640D0A4D
:1044F00000000000696D6167652073656E64206F60
:104500006B0D0A004544505F5061636B65745361E5
:10451000766544617461204661696C65640D0A00CA
:10452000546970733A094F6E654E65745F53656EDA
:1045300064446174612D4544505F5459504525646D
:104540000D0A00005741524E3A0944535452454116
:104550004D5F4765744461746153747265616D5F4A
:10456000426F6479204661696C65640D0A00000041
:104570005741524E3A094544505F4E657742756641
:10458000666572204661696C65640D0A0000000072
:10459000888800088C01002048656172744265615A
:1045A000742054696D654F75743A2025640D0A00B6
:1045B0009001002053454E44204F4B00434C4F5335
:1045C0004500000010B54248007806287CD2DFE89C
:1045D00000F003083F606A733EA14548FEF724FEE1
:1045E00073E044A14248FEF71FFE4949A1F11000C3
:1045F00001F076FDF8B94648423890F84A000A289A
:104600000BD14348423890F8500020F00100401C84
:104610003F49423981F8500009E03D48423890F85E
:10462000500020F001003A49423981F85000002042
:10463000274908700BE026488078401CC0B2244906
:104640008870032803DB00208870022008703CE09B
:1046500030A12748FEF7E8FD3548008820F0040027
:1046600033490880002001F0BFFD3248808B20F4E0
:104670000050304988832648423890F8500020F096
:1046800001002349423981F8500000201049087088
:104690001BE029A11648FEF7C7FD01F00CFD022022
:1046A0000B49087011E02BA11148FEF7BDFD032056
:1046B0000749087009E007E02DA10D48FEF7B4FD99
:1046C00000200349087000E000BF00BF10BD0000DB
:1046D0008D0100205741524E3A094E45545F4641E4
:1046E000554C545F4C4556454C5F300D0A00000058
:1046F000003801405741524E3A094E45545F4641F9
:10470000554C545F4C4556454C5F310D0A00000036
:104710007A0100205741524E3A094E45545F4641B6
:10472000554C545F4C4556454C5F320D0A00000015
:104730003C000020900100205741524E3A094E455E
:10474000545F4641554C545F4C4556454C5F330DC4
:104750000A0000005741524E3A094E45545F464107
:10476000554C545F4C4556454C5F340D0A000000D3
:104770005741524E3A094E45545F4641554C545F9D
:104780004C4556454C5F350D0A00000070B5044697
:104790000E460025206898B901202073304601F0AC
:1047A00077FE20602068E0B100206060A66003E032
:1047B0000020216848556D1CA068A842F8D810E078
:1047C0000220207303E00020216848556D1CA0687A
:1047D000A842F8D800206060A068B04201D2002052
:1047E000206070BD10B50446207B012802D12068EE
:1047F00001F07DFE002020606060A060207310BD8D
:104800000146087870472DE9F047804689461746EB
:104810001C46404602F05FF8C5B2484602F05BF81D
:10482000C6B238212046FFF7B1FF206810B9012039
:10483000BDE8F0871020216808706068401C606047
:1048400005F10D003044216848706068401C6060CC
:1048500000202168887003202168C8706068801C6F
:1048600060602168081D0322FEA101F0ECFF606872
:10487000C01C606001202168C8716068401C6060D5
:104880004020216808726068401C6060380A216816
:10489000487221688F726068801C60600020216807
:1048A000C87221680D736068801C6060216801F126
:1048B0000D002A46414601F0C6FF6068284460604A
:1048C000002105F10D0022681154401C2268165485
:1048D0006068801C606021680F3148193246494683
:1048E00001F0B1FF6068304460600020A0E72DE96E
:1048F000F0478046894617461C46404601F0EBFFCC
:10490000C5B2484601F0E7FFC6B238212046FFF79E
:104910003DFF206810B90120BDE8F0871020216814
:1049200008706068401C606005F10F003044216829
:1049300048706068401C6060002021688870032017
:104940002168C8706068801C60602168081D0322AF
:10495000C4A101F078FF6068C01C6060012021687C
:10496000C8716068401C6060C0202168087260687F
:10497000401C6060380A2168487221688F72606844
:10498000801C606000202168C8722168087360681C
:10499000801C606000202168487321688D73606806
:1049A000801C6060216801F10F002A46414601F039
:1049B0004AFF606828446060002105F10F0022680A
:1049C0001154401C226816546068801C6060216885
:1049D000113148193246494601F035FF60683044CC
:1049E0006060002098E70146C878704770B50346BC
:1049F0000024002500BF01F07F05C90909B145F079
:104A000080051046561CB2B21D54641C09B1052C19
:104A1000F1DB501E80B2024670BDF0B503460124A2
:104A2000002600250020086000BF1046571CBAB2BF
:104A30001D5C05F07F07086807FB04000860E401BF
:104A4000761C042E02D94FF0FF30F0BD05F0800037
:104A50000028EAD11046F8E72DE9F84F81460D46C7
:104A600017461E460A9C00200090484601F033FF7E
:104A700000F0FF08022E03D117B90120BDE8F88F1E
:104A8000022E08D1384601F026FF824651462046C4
:104A9000FFF77CFE04E005F118012046FFF776FEE3
:104AA000206808B90220E9E780216268501C606034
:104AB00020688154B9F1000F40D0022E07D138464A
:104AC00001F009FF0C30284400B2009004E005F129
:104AD0000800404400B20090A1888AB22068009982
:104AE000FFF784FF616808446060C0216268501C61
:104AF00060602068815400216268501C60602068FA
:104B000081546168481C6060206800F80180D4E925
:104B1000001288184246494601F095FE60684044FC
:104B2000606055216268501C606020688154AA2131
:104B30006268501C60602068815427E0022E07D113
:104B4000384601F0C8FE0A30284400B2009002E066
:104B5000A81D00B20090A1888AB220680099FFF7D2
:104B600045FF61680844606040216268501C6060D5
:104B70002068815455216268501C6060206881540F
:104B8000AA216268501C6060206881546168481CDA
:104B9000606020684654022E3AD1384601F09BFEF0
:104BA00000F0FF0A4FF0000B00216268501C6060AB
:104BB000206881546168481C6060206800F801A08A
:104BC0000AE017F80B106268501C6060206881547E
:104BD0000BF1010000F0FF0BD345F2DB290E6268F8
:104BE000501C606020688154C5F307416268501C06
:104BF000606020688154C5F307216268501C6060C2
:104C0000206881546268501C6060206885540BE005
:104C1000C5F307216268501C606020688154626897
:104C2000501C606020688554002027E72DE9F05F64
:104C30000746884616461C46384601F04CFE801C46
:104C400000EB060A384601F046FE00F0FF09002599
:104C5000384601F040FE401D30441FFA80FB3FB152
:104C600002E0000045445000B8F1000F00D016B932
:104C70000120BDE8F09F59462046FFF787FD2068D8
:104C800008B90220F5E730216268501C6060206896
:104C90008154A1888AB251462068FFF7A7FE616857
:104CA0000844606000216268501C60602068815484
:104CB0006268501C6060206800F8029007E0795D2F
:104CC0006268501C606020688154681C85B24D4544
:104CD000F5DB002508E018F805106268501C6060DC
:104CE00020688154681C85B2B542F4D30020C0E727
:104CF0002DE9F84305460E46174699460024002044
:104D0000009080462046641C285C302802D0012098
:104D1000BDE8F883A2B269462846FFF77EFE044646
:104D2000601C08B90220F3E7601C285C295D40EA9A
:104D30000128A41C08F1010001F0AAFB30603068D2
:104D400008B90320E4E708F10101306801F033FEFF
:104D500029194246306801F0E9FD444408F1020097
:104D60000099081A00900098401C01F091FB3860EF
:104D7000386820B9306801F0BAFB0420C8E7386809
:104D80000099491C01F017FE29193868009A01F0B2
:104D9000CDFD009804440098C9F800000020B7E752
:104DA0002DE9F84305460E4617469846DDF8209053
:104DB0000020009000242046641C285CA02802D01B
:104DC0000120BDE8F883A2B269462846FFF725FE18
:104DD0000446601C08B90220F3E7601C285C295DCA
:104DE00040EA01203880A41C3988481C01F050FB9F
:104DF0003060306808B90320E3E73A88511C306816
:104E000001F0D9FD3A882919306801F08FFD388802
:104E10000444285D0106601C285C41EA0041A01C96
:104E2000285C41EA0020E11C695C0843C9F80000E5
:104E3000241DD9F80010481C01F02AFBC8F8000016
:104E4000D8F8000020B9306801F051FB0420B8E721
:104E5000D9F80020511CD8F8000001F0ACFD291948
:104E6000D9F80020D8F8000001F060FDD9F8000062
:104E700004440020A5E72DE9F04780460E46914600
:104E80001D46089C70190DB1062100E0022147184B
:104E9000791D2046FFF77AFC206810B90120BDE893
:104EA000F087B0216268501C606020688154A1883E
:104EB0008AB239462068FFF799FD6168084460604E
:104EC00031126268501C6060206881546268501C16
:104ED000606020688654D4E9001288183246414642
:104EE00001F024FD60683044606015B3290E6268EB
:104EF000501C606020688154C5F307416268501CF3
:104F0000606020688154C5F307216268501C6060AE
:104F1000206881546268501C606020688554D4E920
:104F2000001288182A46494601F000FD60682844AE
:104F300060600020B3E710B5044602212046FFF769
:104F400025FC206808B9012010BDC0216268501CF2
:104F500060602068815400216268501C6060206895
:104F600081540020F0E700002DE9FC4704460E467E
:104F7000154699464946304601F01DFD05EB4500B2
:104F800004EB8000007A0D2813D2DFE800F007134D
:104F9000202C3945515D69758593A50005EB4500C9
:104FA00004EB800040680378FBA24946304601F0DC
:104FB000EDFA9CE005EB450004EB8000406890F9B9
:104FC0000030F5A24946304601F0E0FA8FE005EBEB
:104FD000450004EB800040680378EFA24946304664
:104FE00001F0D4FA83E005EB450004EB8000406853
:104FF000B0F90030E8A24946304601F0C7FA76E041
:1050000005EB450004EB800040680388E2A24946B6
:10501000304601F0BBFA6AE005EB450004EB800086
:105020004068DDA249460368304601F0AFFA5EE011
:1050300005EB450004EB80004068D7A249460368B1
:10504000304601F0A3FA52E005EB450004EB800086
:105050004068D2A249460368304601F097FA46E01C
:1050600005EB450004EB80004068CCA2494603688C
:10507000304601F08BFA3AE005EB450104EB810183
:105080004968086803F054FBC5A2CDE90001494610
:10509000304601F07BFA2AE005EB450004EB800086
:1050A000406803C8BEA2CDE900014946304601F080
:1050B0006DFA1CE005EB450004EB80004068103001
:1050C000009005EB450004EB8000B6A2494643681A
:1050D000304601F05BFA0AE005EB450004EB800086
:1050E000B5A249464368304601F050FA00BF00BF00
:1050F000BDE8FC872DE9FF4FA5B083468846924660
:10510000329E00250024A14633992898471808E0CC
:1051100005EB450008EB8000407A00B103E0681C15
:1051200005B25545F4DB00BF554504D14FF0FF30C3
:1051300029B0BDE8F08F0025701E06B2BBF1010F4B
:1051400009D0BBF1030F57D0BBF1040F7ED0BBF1E8
:10515000050F7CD1DDE004F11000B04208DA102226
:1051600097A1384601F0E2FB04F1100004B201E01F
:105170000020DDE72EE005EB450008EB8000407ADB
:1051800030B3AAB2302301A94046FFF7EDFE01A8D3
:10519000009005EB450058F820308EA260210DA844
:1051A00001F0F4F90DA801F096FB0FFA80F9301B1D
:1051B000484501DC0020BBE738194A460DA901F03B
:1051C000B5FB04EB090004B2B44201DD0020AFE7F7
:1051D000681C05B25545CEDB00203855601CB04236
:1051E00007DC381986A1098820F8011C601C04B26C
:1051F00001E000209CE72EE1601CB04205DA81A0AE
:1052000000783870601C04B201E0002090E731E0C3
:1052100005EB450008EB8000407A48B3AAB2302382
:1052200001A94046FFF7A0FE01A8009005EB45004C
:1052300058F8203074A260210DA801F0A7F90DA83C
:1052400001F049FB0FFA80F9301B01E01CE001E19D
:10525000484501DC00206BE738194A460DA901F0EA
:1052600065FB04EB090004B2B44201DD00205FE7F6
:10527000681C05B25545CBDB00203855381965A1AF
:10528000097800F8011CE6E0601CB04205DA5DA078
:1052900000783870601C04B201E0002048E72EE07E
:1052A00005EB450008EB8000407A30B3AAB230230A
:1052B00001A94046FFF758FE01A8009005EB450004
:1052C00058F8203054A260210DA801F05FF90DA814
:1052D00001F001FB0FFA80F9301B484501DC00208A
:1052E00026E738194A460DA901F020FB04EB090016
:1052F00004B2B44201DD00201AE7681C05B255452E
:10530000CEDB00203855381942A1097800F8011C7D
:10531000A1E0A01CB04205DA48A000883880A01C9B
:1053200004B201E0002003E790E005EB450008EB44
:105330008000407A70B305EB450008EB8000007AEE
:105340000B2827D0AAB2302301A94046FFF70CFE54
:1053500001A8009005EB450058F8203038A26021E4
:105360000DA801F013F90DA801F0B5FA0FFA80F9B4
:10537000301B801E484501DC0020D9E638194A461A
:105380000DA901F0D3FA04EB090004B2B4425BDDCD
:105390000020CDE658E0000025640000256C640084
:1053A000256600007B226C6F6E223A25732C226CDE
:1053B0006174223A25737D002225732200000000CB
:1053C0007B226461746173747265616D73223A5BF0
:1053D000000000007B226964223A222573222C22DD
:1053E00064617461706F696E7473223A5B7B2276BC
:1053F000616C7565223A25737D5D7D2C000000008F
:105400005D7D00007B000000222573223A25732C6D
:10541000000000007D000000222573223A7B22322A
:105420003031362D30382D31305431323A33313A33
:105430003137223A25737D2C000000002C3B000000
:1054400025732C25733B0000681C05B25545FFF6FB
:105450006CAF00E000BF00BF204669E62DE9F043D5
:10546000A5B081460D46174698460024002608E060
:1054700004EB440005EB8000407A00B103E0601CBF
:1054800004B2BC42F4DB00BFBC4204D14FF0FF3099
:1054900025B0BDE8F0830024B9F1010F09D0B9F1BE
:1054A000030F31D0B9F1040F56D0B9F1050F7BD1FC
:1054B0007BE006F1100006B221E004EB440005EBAE
:1054C0008000407A10B9B8F1000F16D0A2B2302394
:1054D00001A92846FFF748FD01A8009004EB44000D
:1054E00055F82030AFF2141260210DA801F04EF8EB
:1054F0000DA801F0F0F9304406B2601C04B2BC42C1
:10550000DBDB701C06B279E0701C06B221E004EB14
:10551000440005EB8000407A10B9B8F1000F16D0B6
:10552000A2B2302301A92846FFF71EFD01A8009072
:1055300004EB440055F82030AFF2341260210DA87E
:1055400001F024F80DA801F0C6F9304406B2601C41
:1055500004B2BC42DBDB51E0701C06B221E004EB7C
:10556000440005EB8000407A10B9B8F1000F16D066
:10557000A2B2302301A92846FFF7F6FC01A800904B
:1055800004EB440055F82030AFF2741260210DA8EE
:1055900000F0FCFF0DA801F09EF9304406B2601C3B
:1055A00004B2BC42DBDB29E027E0B01C06B221E0FC
:1055B00004EB440005EB8000407A10B9B8F1000F0D
:1055C00016D0A2B2302301A92846FFF7CDFC01A8CE
:1055D000009004EB440055F82030AFF29C1260219B
:1055E0000DA800F0D3FF0DA801F075F9304406B204
:1055F000601C04B2BC42DBDB00E000BF00BF3046F1
:1056000046E7000010B54FF4E130FDF72FFD012310
:105610001A0294499448FDF72DFC10BD10B50024E2
:105620001AE09248015D8F48B0F80022B0F80002FD
:10563000401C8C4BA3F80002184681540146B1F877
:105640000002C11700EB11610912A0EB01211A46FB
:10565000A2F80012601CC4B2032CE2DB00218448D3
:10566000FCF78BFD7F48B0F80002C0F5807081B276
:105670007F48FCF797FD7B48B0F800027949084461
:105680007B496C39886701217948FCF776FD7548BC
:10569000B0F80402401C7349A1F8040210BD10B513
:1056A0000020704BB3F80212002225E06D4B5B5CCA
:1056B0006E4CA45CA34202D1531CDAB208E0002273
:1056C000684B5B5C694CA45CA34201D1531CDAB209
:1056D000431C98B24B1C99B20346C41700EB1464E8
:1056E0002412A0EB0424A0B20B46CC1701EB1464E7
:1056F0002412A1EB0424A1B2032AD7DB10BD70B59C
:1057000004460D46264600BF4FF00070FCF750FDE2
:105710000028F9D04FF00070FCF75EFD00232A4608
:1057200031465148FDF7A6FB70BD70B50025002439
:1057300000264C48B0F80402002863DD4948B0F860
:105740000402401E80B24749A1F804024FF6FF71DF
:10575000884203D100204349A1F80402FFF79FFFCC
:1057600005464048B0F800023E49B1F802128842AE
:1057700031DC3C48B0F802022844FF2805DC3948F7
:10578000B0F80202374946182AE03648B0F802025B
:10579000C0F5807081B2FF2D01DD002070BD0024B6
:1057A00009E03048B0F8020220442E4A125C314829
:1057B0000255601C84B28C42F3DB002406E02948C9
:1057C000025D63182B48C254601C84B2681AA04260
:1057D000F5DC284E04E02348B0F8020221494618BF
:1057E0002048B0F8020228441E49A1F80202B1F88C
:1057F0000202C11700EB11610912A0EB0121194A45
:10580000A2F802123046C9E710B54FF40010FCF7B9
:10581000EEFC01280CD100201249A1F8000201235E
:105820001A021148FDF726FB4FF40010FCF7D4FCD8
:1058300010BD10B510210C48FCF778FB88B10A4860
:10584000001D008840F224410748FCF77CFB084813
:10585000FCF7AAFCC0F580700249A1F80002FFF72E
:10586000DDFE10BDE0020020004400409F920008D1
:105870006C000240E003002008B501210820FBF77E
:1058800035FA10208DF803002020ADF80000032029
:105890008DF802006946FE48FAF76CFFFFF7B2FE8A
:1058A000FC48808B20F48050FA49888308BD2DE99C
:1058B000F04106460C46C825304601F00CF887B288
:1058C00039463046FFF71BFF14B90020BDE8F081D0
:1058D000F048046102E00A20FCF7DCFEED480069B4
:1058E00018B1681EC0B2051EF5D1002D01DD0020E3
:1058F000ECE70120EAE710B50124E7A1EA48FDF74B
:1059000093FCEAA1EAA0FFF7D2FF08B1002400E06F
:1059100001243220FCF7BEFE204610BD70B58AB0CF
:1059200006460C46C82502E00A20FCF7B3FED9481B
:10593000808BC0F3803018B9681EC0B2051EF3D149
:1059400015B901200AB070BDD248808B20F4804088
:10595000D04988832246DAA1684600F001FEDCA126
:105960006846FFF7A4FF18B921463046FFF7C7FE87
:105970003220FCF78FFE0020E4E770B592B00020E3
:105980001190C8260025FFF7B6FFD2A1C648FDF743
:105990004BFCDBA1CFA0FFF78AFF002858D13021B4
:1059A00005A801F02AF8E3208DF8140000208DF8F6
:1059B000150006208DF81600EB208DF81700302119
:1059C00005A8FFF7ABFF0020B249C86006E0B14868
:1059D000C06800B106E00A20FCF75CFE701EC0B291
:1059E000061EF4D100BFAB48C068002830D0A948DB
:1059F000C568FFF780FF28780321B1EB901F02D123
:105A0000119812B070BD15F8280F0006697840EAA9
:105A10000140A97840EA0120E978283D0843119027
:105A2000B9491198401A119011A801F00DF80446D7
:105A300094E80B00E268CDE90023CDE9021020696B
:105A4000431C606900F26C72B0A19748FDF7ECFB53
:105A50001198D6E72DE9F047A0B006460D46174647
:105A60000024A0464FF0C8090A2E0BD1AFA128464A
:105A700000F00DFFB1A1384600F009FF002020B072
:105A8000BDE8F087FFF737FFADA18748FDF7CCFBF6
:105A90009BA1ABA0FFF70BFF002856D180216846E1
:105AA00000F0ABFF3346B04A8021684600F06EFD3F
:105AB000684600F010FF1FFA80FA51466846FFF76B
:105AC0002DFF0AE07349C868A8A100F0CEFE044685
:105AD00004B108E00A20FCF7DDFDA9F10100C0B225
