:020000040800F2
:1000000048160020990100080F120008A7100008E8
:100010000D120008750200086D16000800000000AF
:1000200000000000000000000000000001010008C6
:10003000770200080000000045010008F1120008E6
:10004000B3010008B3010008B3010008B3010008C0
:10005000B3010008B3010008B3010008B3010008B0
:10006000B3010008B3010008B3010008B3010008A0
:10007000B3010008B3010008B3010008B301000890
:10008000B3010008B3010008B3010008B301000880
:10009000B3010008B3010008B3010008B301000870
:1000A000B3010008B3010008B3010008B301000860
:1000B000B3010008A9130008B5130008B301000834
:1000C000B3010008B3010008B3010008B301000840
:1000D000B3010008B3010008B3010008B301000830
:1000E000B3010008B3010008B3010008DFF80CD029
:1000F00000F0AEF8004800476519000848160020D7
:10010000224B19680868B0E8F00F80F30988BFF344
:100110006F8F4FF0000080F311884EF00D0E704786
:100120000000000006480068006880F3088862B696
:1001300061B6BFF34F8FBFF36F8F00DF00BF00BF0B
:1001400008ED00E0EFF30980BFF36F8F0F4B1A68E3
:1001500020E9F00F106008B54FF0500080F31188CF
:10016000BFF34F8FBFF36F8F02F0CEF94FF0000057
:1001700080F31188BDE8084019680868B0E8F00FFE
:1001800080F30988BFF36F8F704700BF4C000020D9
:10019000EFF3058070470000064880470648004797
:1001A000FEE7FEE7FEE7FEE7FEE7FEE7FEE7FEE727
:1001B000FEE7FEE761130008ED00000840EA0103D6
:1001C0009B0703D009E008C9121F08C0042AFAD20D
:1001D00003E011F8013B00F8013B521EF9D27047D1
:1001E000D2B201E000F8012B491EFBD27047002279
:1001F000F6E710B513460A4604461946FFF7F0FF26
:10020000204610BD421C10F8011B0029FBD1801AAA
:100210007047034611F8012B00F8012B002AF9D191
:100220001846704730B50B460146002020220124B5
:1002300009E021FA02F59D4205D303FA02F5491BB4
:1002400004FA02F52844151EA2F10102F1DC30BDCA
:10025000064C074D06E0E06840F0010394E8070013
:1002600098471034AC42F6D3FFF744FF74280008D7
:1002700094280008FEE770472DE9F84FDFF890A1B9
:1002800000220AF1040B144601274FF00F090BF16D
:10029000040E00BF0B6807FA04F52B40AB4274D183
:1002A000DFF870C14E68A6EB0C0866452BD00DDC5C
:1002B000032E34D005DC36B3012E19D0022E2FD1F7
:1002C0001BE0112E16D0122E2AD119E0B8F5881F86
:1002D00019D006DCB8F5803F15D0B8F5801F1FD1C6
:1002E00011E0B8F5001F0ED0B8F5041F18D10AE0D0
:1002F000CA6815E0CA68121D12E0CA6808320FE029
:10030000CA680C320CE08A682AB1012A4FF0080250
:1003100003D0456104E0042202E0056100E0002210
:10032000FF2B01D8064601E000F104064FEA8405E0
:1003300001D9A5F12005D6F800C009FA05F82CEA84
:10034000080C02FA05F54CEA050CC6F800C04D6829
:10035000ED0057D5304DAE6946F00106AE61AD698E
:1003600024F0030605F0010500952C4D06EB050C65
:10037000DCF80850A6074FEA167809FA08F6B543E4
:10038000274EB04202D1002610E03BE0254EB0429D
:1003900001D101260AE0244EB04201D1022605E037
:1003A000224EB04201D1032600E0042606FA08F6E8
:1003B0002E43CCF808604D68DAF80060ED0355462E
:1003C00001D51E4300E09E432E604D68DBF80060BF
:1003D000AD035D4601D51E4300E09E432E604D688F
:1003E000DEF80060ED02754601D51E4300E09E4335
:1003F0002E604D68AD020E4D2E6801D51E4300E003
:100400009E432E60641C102CFFF444AFBDE8F88FAF
:1004100000040140000011100010024000000140E3
:1004200000080140000C0140001001400014014090
:100430000C040140C2684A40C26070470AB10161C1
:1004400070470904FBE7000001488068704700001E
:100450000C000020024881680278114481607047D6
:100460000C000020074810B5016841F01001016040
:10047000032000F0B7F8002000F006F800F03EF886
:10048000002010BD0020024000B5014687B00022C8
:100490001E2000F087F81E2000F078F81348C1698C
:1004A00041F00401C161C06905A900F00400069093
:1004B000684600F05BF900F07FF90D494000B0FBA1
:1004C000F1F10D480B4A491E0260416040F2E732EB
:1004D0000021C0E90321816000F09CFB10B10120E4
:1004E00007B000BD044800F0CFFBF9E70010024060
:1004F00040420F000008004014010020214808B5C8
:10050000816941F001018161816901F0010100917E
:10051000C16941F08051C161C06900F08050009014
:10052000032000F05FF8002211466FF00B0000F08E
:1005300039F8002211466FF00A0000F033F800226B
:1005400011466FF0090000F02DF800221146501FEF
:1005500000F028F800221146101F00F023F80022B6
:100560000F21901E00F01EF800220F21501E00F0F7
:1005700019F80548416821F0E06141F000714160DF
:1005800008BD0000001002400000014000F01F0202
:10059000012191404009800000F1E020C0F80011E5
:1005A00070470000F0B40E4B1B680C46C3F30223E7
:1005B000C3F10705042D00D90425191D072901D20F
:1005C000002300E0DB1E012606FA05F1491E21404A
:1005D00099409E40761E16403143F0BC00F019BE93
:1005E0000CED00E0064900F0070208684FF6FF0333
:1005F000184040EA0220034A104308607047000098
:100600000CED00E00000FA05704700002DE9F0470E
:10061000DFF83C8105460E46D8F8000000F00700E0
:10062000B0420CD2D8F8001021F007013143C8F8CD
:100630000010D8F8000000F00700B04263D128781D
:10064000444C800705D56068A96820F0F000084395
:1006500060602878C00745D06868012816D02168F6
:10066000022816D0890700294DDA616821F00301BC
:1006700001436160FFF7E8FE6968074641F2883090
:1006800001290FD00229814619D027E0216889036A
:10069000E9E78901E7E700BFFFF7D6FEC11B49453F
:1006A00001D918E081466068C0F381000128F3D1C8
:1006B00018E000BFFFF7C8FEC11B49450BD86068B2
:1006C000C0F381000228F5D10CE000BFFFF7BCFEAB
:1006D000C11B494502D90320BDE8F087606810F0CE
:1006E0000C0FF3D1D8F80010404601F00701B142D9
:1006F0000BD9016821F0070131430160006800F067
:100700000700B04201D00120E6E72878400705D570
:100710006068E96820F4E0600843606028780007BA
:1007200006D56068296920F4605040EAC100606025
:1007300000F062F86168084AC1F30311515CC840D7
:10074000064908600020FFF79FFE0020C4E7000074
:100750000020024000100240442800081800002039
:1007600001490120C8647047000042420F22026024
:100770000C4A536803F003034360536803F0F0032B
:100780008360536803F4E063C36052684FF4E0632E
:1007900003EAD20202610448006800F00700086022
:1007A000704700000010024000200240014800682D
:1007B0007047000018000020044805490068496897
:1007C000044AC1F30221515CC84070471800002060
:1007D0000010024054280008044805490068496890
:1007E000044AC1F3C221515CC84070471800002080
:1007F000001002405428000812A185B00FC98DE8EE
:100800000F0014A0144A006804905168134801F0C6
:100810000C03042B10D0082B0ED1C1F38343C90362
:100820001DF803000AD5516804AAC1F34041515C88
:100830000A4A5043B0FBF1F005B0704708494843FD
:10084000FAE7000002030405060708090A0B0C0D6D
:100850000E0F1010010200000010024000127A007A
:1008600000093D0010B5044CA068000603D5FFF751
:10087000CBFE8020A07210BD001002402DE9F84F81
:1008800004460078B94DC00748D06868C0F38100BD
:10089000012807D06868C0F38100022809D1686880
:1008A000C00306D52868800338D5606800286FD05B
:1008B00034E06068B0F5803F0BD010B1B0F5A02FE8
:1008C00011D0286820F480302860286820F4802027
:1008D00002E0286840F480302860606888B1FFF743
:1008E000B3FD064609E0286840F480202860F0E760
:1008F000FFF7AAFD801B642875D828688003F7D508
:100900000CE0FFF7A1FD064605E000BFFFF79CFDE8
:10091000801B6428F0D828688003F7D42078944E90
:1009200080074FF001094FF000083BD5686810F0D0
:100930000C0F07D06868C0F38100022809D16868ED
:10094000C00306D42868800714D5206901281FD168
:1009500010E02069B0B1C6F80090FFF775FD0746BA
:1009600005E000BFFFF770FDC01B0228C4D828684F
:100970008007F7D52868616920F0F80040EAC100D7
:1009800028600FE0C6F80080FFF75EFD074606E02E
:10099000E9E000BFFFF758FDC01B022823D82868F4
:1009A0008007F7D4207800072CD57248A169D9B107
:1009B000C0F80090FFF748FD074604E0FFF744FD4C
:1009C000C01B02280FD8686A8007F7D56A484FF421
:1009D000FA510068B0FBF1F0009000BF0098411E92
:1009E0000091FAD20EE080E0C0F80080FFF72CFD05
:1009F000074604E0FFF728FDC01B022875D8686A87
:100A00008007F7D42078400760D5E8690027C00048
:100A100008D4E86940F08050E861E869012700F0F7
:100A20008050009055480168C90513D40168834679
:100A300041F480710160FFF707FD824606E000BFC8
:100A4000FFF702FDA0EB0A0064284ED8DBF8000097
:100A5000C005F5D5E06801280AD008B1052813D0F3
:100A6000286A20F001002862286A20F0040002E0D1
:100A7000286A40F001002862E06841F2883B98B1A2
:100A8000FFF7E2FC82460BE0286A40F0040028628F
:100A9000EEE700BFFFF7D8FCA0EB0A0159455AD892
:100AA000286A8007F6D50CE0FFF7CEFC824605E009
:100AB000FFF7CAFCA0EB0A0159454CD8286A800709
:100AC000F6D41FB1E86920F08050E861E06988B38E
:100AD0006968C1F38101022945D00228C6F8608007
:100AE00004D0FFF7B1FC044638E034E0FFF7ACFC7B
:100AF000074604E0FFF7A8FCC01B02282BD8286893
:100B00008001F7D4206AB0F5803F05D16868A168FC
:100B100020F4003008436860D4E90801084369689C
:100B200021F4741108436860C6F86090FFF78CFCEC
:100B3000044606E015E000BFFFF786FC001B022814
:100B400009D828688001F7D50BE000BFFFF77CFCCF
:100B5000001B022802D90320BDE8F88F2868800115
:100B6000F4D40020F8E70120F6E70000001002406E
:100B70000000424280044242180000200070004001
:100B80004FF0E0210428086903D020F00400086138
:100B9000704740F00400FAE710B5401EB0F1807FC6
:100BA00001D3012010BD4FF0E02460610F216017D8
:100BB00000F02FFB0020A06107202061002010BD65
:100BC0007047704730B590F83C20012A20D00122B0
:100BD00080F83C20022380F83D3003685C6824F0F4
:100BE00070045C6003685C680D682C435C6003689B
:100BF0009C6824F080049C6003689C6849680C43EE
:100C00009C6080F83D20002180F83C10084630BDF3
:100C1000022030BD10B5040003D094F83D0010B19F
:100C200007E0012010BD002084F83C00204600F0C1
:100C30000DF8022084F83D00211D206800F0C0FB63
:100C4000012084F83D00002010BD000008B50068B8
:100C50000B49884212D10B48C16941F00201C161C0
:100C6000C069002200F00200009011461D20FFF72D
:100C700099FCBDE808401D20FFF788BC08BD0000B6
:100C800000040040001002400168CA6842F00102FE
:100C9000CA600068016841F00101016000207047EE
:100CA00070B5044690F83C00012817D0012584F85F
:100CB0003C50022084F83D002068826822F07702D0
:100CC00022F47F4282600868502837D00DDC20284B
:100CD00059D005DC88B3102841D151E0022070BD05
:100CE000302853D040283AD13FE060282ED07028D9
:100CF0000BD0B0F5805F03D0B0F5005F2FD110E0CE
:100D00002068816821F0070115E0CB68D1E9012155
:100D1000206800F08BFB2168886840F077008860CD
:100D20001DE0CB68D1E90121206800F07FFB20683D
:100D3000816841F48041816011E01EE0CA68496821
:100D4000206800F085FB5021206806E0CA684968E9
:100D5000206800F08EFB6021206800F071FB84F8B1
:100D60003D50002084F83C0070BDCA684968206886
:100D700000F06EFB40212068EFE700212068ECE7DF
:100D800010212068E9E720212068E6E7302120686B
:100D9000E3E7704770B50446006801694FF000054D
:100DA000C943890715D4C168C943890711D4E91E0D
:100DB000016101202077206880698007204602D0E9
:100DC000FFF7E7FF04E000F098F8204600F096F8FF
:100DD000257720680169C943490717D4C168C94309
:100DE000490713D46FF004010161022020772068C5
:100DF000806910F4407F204602D0FFF7CAFF04E06C
:100E000000F07BF8204600F079F82577206801692A
:100E1000C943090716D4C168C943090712D46FF042
:100E200008010161042020772068C06980072046FE
:100E300002D0FFF7AEFF04E000F05FF8204600F0BC
:100E40005DF8257720680169C943C90617D4C168D0
:100E5000C943C90613D46FF010010161082020773F
:100E60002068C06910F4407F204602D0FFF791FF50
:100E700004E000F042F8204600F040F825772068B2
:100E80000169C943C90708D1C168C943C90704D169
:100E9000891E0161204600F033F820680169C943CA
:100EA000090609D4C168C943090605D46FF0800159
:100EB00001612046FFF784FE20680169C9434906A5
:100EC00009D4C168C943490605D46FF040010161E6
:100ED000204600F02DF820680169C94389060BD42B
:100EE000C168C943890607D46FF02001016120461B
:100EF000BDE87040FFF765BE70BD704770470000E9
:100F000010B5044600680749884201D1FFF7A2FAEC
:100F100005492068884203D104480168491C0160E2
:100F200010BD000000080040000400400000002048
:100F3000704770B5040004D094F83900002510B152
:100F400006E0012070BD84F83850204600F022F8F9
:100F5000242084F839002068C16821F40051C16060
:100F6000204600F099FA2068016921F4904101615E
:100F70002068416921F02A0141612068C16841F47B
:100F80000051C160E563202084F8390084F83A00FC
:100F9000002070BD10B50068114986B088421DD18F
:100FA0001048816941F48041816180690E4C00F4F0
:100FB000804004904FF400700090022001900320C4
:100FC000039069462046FFF757F900212015CDE927
:100FD0000001029169462046FFF74EF906B010BDA8
:100FE0000038014000100240000801402DE9F8439C
:100FF000044690F839001F4616460D46202850D169
:10100000A5B19EB194F8380001284AD0012084F897
:1010100038004FF00008C4F83C80212084F83900E3
:10102000FFF712FAA6848146E68426E00120BDE897
:10103000F883E08C401EE084A0684B46B0F5805FEA
:101040004FF000024FF080012046009703D000F0DF
:10105000DBFAE8B90DE000F0D7FAC8B928882168B2
:10106000C0F308004860206908B16D1C05E0AD1CA4
:1010700003E0216815F8010B4860E08C0028D8D106
:101080004B46002240212046009700F0BDFA08B1EF
:101090000320CCE7202084F8390084F83880002031
:1010A000C5E70220C3E7FEE710B58AB014220B495A
:1010B0006846FFF783F80021684600F083FC084C7F
:1010C000064914222060143105A8FFF777F80021A3
:1010D00005A800F077FC60600AB010BD1C2800086D
:1010E0000400002030B5174885B0816941F0100137
:1010F0008161816901F010010491816941F0200151
:101100008161816901F020010491816941F004014C
:10111000816180690C4D00F004004FF4005404908C
:10112000002221462846FFF789F90120CDE9004039
:10113000002002900320039069462846FFF79CF8A0
:1011400005B030BD001002400010014010B5174836
:1011500086B01549016047210024C0E901146321CC
:10116000C0E903148461FFF755FD18B1492110A0AF
:1011700000F07DFA4FF48050009069460B48FFF76D
:101180008FFD18B14F210AA000F071FA049404A950
:1011900006480594FFF716FD002803D0562104A049
:1011A00000F065FA06B010BD000400409400002075
:1011B0002E2E2F5372632F74696D2E630000000072
:1011C0000D4810B50B4901604FF4E1314160002139
:1011D00081600C22C160C0E904128161C161FFF726
:1011E000A8FE002805D0BDE810404C2103A000F067
:1011F0003EBA10BD00380140D40000202E2E2F53DF
:1012000072632F75736172742E630000FEE7FFF73F
:1012100029BB0907090E002806DA00F00F0000F1CB
:10122000E02080F8141D704700F1E02080F80014E1
:101230007047704770470000054D4FF40054214639
:101240002846FFF7F7F8642000F0A6FBF7E7000058
:101250000010014090B04FF4FA74684601F0A4F811
:101260000AA000F005FA694615A000F001FA6846E8
:1012700001F040F814A000F0FBF9694610A000F05E
:10128000F7F9204600F088FBE7E700005461736B34
:10129000206E616D65202020537461747573202069
:1012A00020205072696F72697479202020202020DC
:1012B000537461636B202020204E756D626572004F
:1012C00025730D0A000000005461736B206E616D80
:1012D00065202020202020436F756E742020202060
:1012E000202070726563656E7461676500000000A0
:1012F00000F05EBB30B58FB001210804CDE90010CD
:101300000024029402250491CDE907504FF4E01027
:1013100009906846FFF7B2FA00B1FEE70F20CDE969
:101320000A054FF48060CDE90C4002210AA80E9412
:10133000FFF76CF900B1FEE7FFF712FAFFF736FA94
:101340004FF47A71B0FBF1F0FFF726FC0420FFF7B1
:1013500017FC00220F21501EFFF724F90FB030BDFB
:101360000D48016841F00101016041680B4A1140DC
:10137000416001680A4A11400160016821F480213E
:101380000160416821F4FE0141604FF41F0181605A
:101390000449C00308607047001002400000FFF8D5
:1013A000FFFFF6FE08ED00E00148FFF7F3BC000088
:1013B000940000200148FFF7EDBC0000140100205C
:1013C000F0B50268164B174C174D4FF08047984206
:1013D00005D0B84203D0A04201D0A84203D122F0E8
:1013E00070064A683243984205D0B84203D0A04202
:1013F00001D0A84203D122F44074CA68224322F0EB
:1014000080044A69224302608A68C2620A68826272
:10141000984201D10969016301214161F0BD0000D9
:10142000002C0140000400400008004010B5846812
:1014300042EA032224F47F440A432243826010BD1F
:10144000826822F070020A4342F00701816070470F
:1014500010B5036A046A24F001040462846924F06C
:10146000F00444EA021423F00A020A43846102628F
:1014700010BD10B5036A23F0100303628369046A88
:1014800023F4704343EA023224F0A00343EA01113B
:101490008261016210BD00002DE9F0410446006840
:1014A0000169E26821F44051114301612169A0689A
:1014B0000843616908432168CA6841F20C639A4392
:1014C0000243CA6020684169A26921F44071114356
:1014D00041614C4920686425322688423CD1FFF79F
:1014E0007BF900EBC00101EB001061688900B0FBE3
:1014F000F1F7FFF771F900EBC00101EB0010616833
:10150000B0468900B0FBF1F0B0FBF5F06FF01801C8
:10151000484307EB800106EB0110B0FBF5F000F04B
:10152000F006FFF759F900EBC00101EB001061680C
:101530008900B0FBF1F0B0FBF5F006EB0016FFF709
:101540004BF900EBC00101EB001061688900B0FBB2
:10155000F1F7FFF741F93BE0FFF72EF900EBC0018F
:1015600001EB001061688900B0FBF1F7FFF724F987
:1015700000EBC00101EB00106168B0468900B0FBD0
:10158000F1F0B0FBF5F06FF01801484307EB800174
:1015900006EB0110B0FBF5F000F0F006FFF70CF9D8
:1015A00000EBC00101EB001061688900B0FBF1F0B5
:1015B000B0FBF5F006EB0016FFF7FEF800EBC001FC
:1015C00001EB001061688900B0FBF1F7FFF7F4F858
:1015D00000EBC00101EB001061688900B0FBF1F085
:1015E000B0FBF5F06FF01801484307EB800108EB02
:1015F0000110B0FBF5F0216800F00F003044886066
:10160000BDE8F081003801402DE9F04198461746C9
:101610000E460446069D1DE0681C1BD02DB1FEF74A
:1016200013FFA0EB0800A84214D92068C16821F478
:10163000D071C1602068416921F001014161202021
:1016400084F8390084F83A00002084F83800032038
:10165000BDE8F0812068006836EA000004D0002070
:10166000B842D9D00020F3E70120F9E7FEE7FEE712
:101670000FB4054B10B503A9044A029800F02CF8EA
:1016800010BC5DF814FB0000411900089000002018
:101690000FB4084B10B504A902AA039800F01CF877
:1016A000044602A9002000F0F3F8204610BC5DF8C3
:1016B00014FB00009118000802E008C8121F08C1BE
:1016C000002AFAD170477047002001E001C1121FC3
:1016D000002AFBD1704700002DE9FF4F8BB09A46DE
:1016E0000F460546002606E025280BD052460D99E8
:1016F00090476D1C761C28780028F5D10FB0304635
:10170000BDE8F08F0024A0460122604900E00443B8
:1017100015F8013F203B02FA03F00842F7D1287880
:101720002E2817D115F8010F44F004042A280ED0F2
:101730006FF02F022878A0F1300109290AD808EBB0
:10174000880102EB410100EB01086D1CF2E757F83C
:10175000048B6D1C287869283ED006DC0028CDD08B
:1017600063280BD0642804D136E0732810D0752884
:101770004BD052460D999047761C85E017F8040B24
:101780008DF8000000208DF80100E946012003E0FB
:1017900057F8049B4FF0FF3061074FF0000401D46D
:1017A0000AE0641C44450DDA8442FADB19F804109F
:1017B0000029F6D106E0641C8442FCDB19F8041011
:1017C0000029F8D1264404E019F8010B52460D997E
:1017D0009047641EF8D257E001CF4FF00A0B002863
:1017E00002DA40422D2102E0210504D52B218DF89B
:1017F0002410012103E0E10705D02021F7E70DF1D6
:10180000200908910CE00021F9E701CF4FF00A0B05
:10181000F9E75946FEF706FD01F1300209F8012DFE
:101820000028F6D1ADEB090000F1200B600701D4D0
:101830004FF00108D84502DDA8EB0B0000E00020C6
:101840008046002406E009A85246005D0D999047A5
:10185000641C761C08988442F5DB04E03020524674
:101860000D999047761CB8F10001A8F10108F5DC4C
:1018700005E019F8010B52460D999047761CBBF113
:101880000001ABF1010BF4DC6D1C34E70928010009
:101890000A68531C0B60107070470000014900205B
:1018A000086070470000002009490120096809B15B
:1018B000002070470749CA69002AF9D1044A89689B
:1018C00028321268491E8A42F3D102207047000074
:1018D000081200204C00002070B5040005D0164E00
:1018E0003068844209D1002070BD502080F31188F7
:1018F000BFF34F8FBFF36F8FFEE700F099FB656971
:1019000000F0B6FBF06B854202D0306C854201D10D
:10191000022070BD0948854204D1A06A0028F7D191
:10192000032070BD05481438854202D00DB1012056
:1019300070BD042070BD00004C000020301200205B
:1019400013B5FF23012269460248FFF74FFB0098B9
:101950001CBD0000D4000020014800687047000052
:1019600000000020FEF77EFDFFF7C4FCFFF7BAFB86
:10197000FFF7ECFBFFF724FC0348FFF785F9FFF7BF
:1019800093FB00F010F8FEE79400002001460020D1
:10199000842900D0C81C704710B500B9012000F0A0
:1019A0003FFC002010BD10B500F05CFD002010BD14
:1019B00010B500F05FFE012803D0BDE8104000F034
:1019C00017BE10BD3EB504460D46B0F90800FFF73E
:1019D000DDFF02A9CDE90001208A2B4682B2D4E9BD
:1019E000001000F01BFE012801D000203EBD02982F
:1019F0003EBD00002DE9F041184C0F460546E66853
:101A00002068001D00F07AFA38B9206890F82C1090
:101A100001208840216981432161681C07D137B1C9
:101A20002168BDE8F0410E48091D00F0F5BA2068B4
:101A30003544B5424560216805D2206CBDE8F041CF
:101A4000091D00F0D1BAE06B091D00F0CDFAA06AC3
:101A5000854200D2A562BDE8F08100004C00002064
:101A6000301200202DE9F041054600F0E1FA2E4C3D
:101A7000A068401CA06020682C4F10B1606940B382
:101A80002DE02560A068012829D1002606EB8600FC
:101A900007EB800000F09AFA761C072EF6D3234855
:101AA0008C3000F093FA2148A03000F08FFA1F48E4
:101AB000B43000F08BFA1D48C83000F087FA1B489C
:101AC000DC3000F083FA19488C30E0631430206475
:101AD00005E02068E96AC06A884200D82560606A2B
:101AE000401C60626864E96A0120226988401043F2
:101AF000206101EB810007EB8000291D00F08CFACA
:101B000000F0B6FA606900280CD02068E96AC06A63
:101B1000884207D206494FF080500860BFF34F8FCC
:101B2000BFF36F8FBDE8F0814C00002054110020FE
:101B300004ED00E070B5114E114C17E000F0DCFC34
:101B40003068B8B100F008FE00F072FAF068C568BD
:101B5000281D00F0D3F9A068401EA0606068401EF8
:101B6000606000F085FA284600F00CF860680028F4
:101B7000E4D170BD00F0F0FDF8E700001C12002079
:101B80004C00002010B50446006B00F085FA20469A
:101B9000BDE8104000F080BA0A4800210269012A1D
:101BA00000D901210268D26A0AB100207047064AB2
:101BB0001268012AF9D80029F7D1816AC068081A89
:101BC000704700004C0000205411002010484FF4D2
:101BD0008051420706D0C01D0D4920F00700411A70
:101BE000C1F580510B4A00230144C2E900030839C2
:101BF000103A21F0070111604B600B600B1AC0E92D
:101C0000001393604FF000405360D06070470000B5
:101C1000540100202C0000200F4C00BFFFF78AFF6A
:101C2000FFF7BAFF0228F9D300F066FCA06AE1686A
:101C3000884207D2502080F31188BFF34F8FBFF343
:101C40006F8FFEE7FFF7A8FF022801D300F074FAB8
:101C500000F082FDE2E700004C0000202DE9F04793
:101C60000E46DDE909841746824691009946089D93
:101C7000A522206BFEF7B4FA6FF00301206B01EB95
:101C80008701084420F00707780707D0502080F329
:101C90001188BFF34F8FBFF36F8FFEE72218315CBF
:101CA00082F83410315C11B1401C1028F6D30026A4
:101CB00084F84360072D00D30625201DE56200F05F
:101CC00090F904F1180000F08CF92461C5F10700C7
:101CD0006462A0614A4651463846E66400F0FCF86A
:101CE0002060B8F1000F01D0C8F80040BDE8F087CF
:101CF00030B5114900E011460A688242FBD34B68B7
:101D00005C18844203D14068184448600846436820
:101D10001C18944209D1084C103C2468A24209D0F6
:101D200052681A4442600A6812680260814200D018
:101D3000086030BD0460F9E72C0000202DE9F04771
:101D40008146086892460C46002600B3606804F19C
:101D5000080540686060A84201D141686160606820
:101D6000D0F80C80606840686060A84201D141688A
:101D70006160606806EBC60109EB8101C7685346E4
:101D80000122384600F072FA761C4745EAD1304607
:101D9000BDE8F0870648C16B096829B1C16BC96805
:101DA000C9684968816270474FF0FF31FAE7000067
:101DB0004C00002008484068401C4FF0500080F361
:101DC000118804D0BFF34F8FBFF36F8FFEE7BFF3CF
:101DD0004F8FBFF36F8FFEE73400002010B504462D
:101DE000FEF717FA2046FEF70DFA202101E02154F4
:101DF000401C0F28FBD300212154204410BD0000BB
:101E00002DE9F0410546002700F076FB314E3068A1
:101E100008B9FFF7DBFEF06805424BD1C5B30835C2
:101E200068070ED005F00700C0F1080005446807F8
:101E300007D0502080F31188BFF34F8FBFF36F8F0F
:101E4000FEE72DB37068854234D822481030014631
:101E50000C6801E020460C466168A94202D2216864
:101E60000029F7D131688C4224D0076821680160CD
:101E700060680837411B10290FD96019420708D044
:101E8000502080F31188BFF34F8FBFF36F8FFEE7B1
:101E900010E041606560FFF72BFF61687068401AD1
:101EA0007060B268904200D2B060F06801430020D8
:101EB000C4E9000100F050FC780707D0502080F3FF
:101EC0001188BFF34F8FBFF36F8FFEE73846BDE831
:101ED000F08100001C00002010B5031F4FF080743B
:101EE0001C601B1F21F001011960191F024B0B60C0
:101EF000143940380A6010BDB51D0008D0E9013220
:101F000001699A60D0E901235A604A68824201D18E
:101F100082684A60002202610868401E08607047BB
:101F20002DE9F04717460A4605460024072600F02B
:101F3000E3FADFF89080D8F8080082423CD3DFF85B
:101F40008890761E06EB860104EBC40009EB810144
:101F500005EB80000122FFF7F1FE0444002EF0D1D2
:101F600004EBC40005EB800002224646D8F83C1082
:101F7000FFF7E4FE044404EBC40005EB80000222FA
:101F8000316CFFF7DBFE04440F4904EBC40005EBA2
:101F900080000422C831FFF7D1FE04440A4904EB53
:101FA000C40005EB80000322DC31FFF7C7FE0444C8
:101FB00017B1FFF7D1FC386000F0CEFB2046BDE83A
:101FC000F08700004C0000205411002000F10801AF
:101FD0004FF0FF32C0E90112C160016100210160D0
:101FE000704700210161704730B50B685A1C02D060
:101FF00000F1080202E0026904E022465468256804
:102000009D42FAD953684B6099608A6051600861BB
:102010000168491C016030BD42684A6093688B606A
:1020200093685960916008610168491C01607047BC
:10203000502080F31188BFF34F8FBFF36F8F0A4991
:102040004868401C486001280CD10848006810F01E
:10205000FF0F07D0502080F31188BFF34F8FBFF3DD
:102060006F8FFEE7704700003400002004ED00E0B1
:102070000849486828B1401E486001D180F31188A2
:102080007047502080F31188BFF34F8FBFF36F8FDD
:10209000FEE700003400002070B5002827D0144D62
:1020A000A0F108046168E868014207D1502080F37C
:1020B0001188BFF34F8FBFF36F8FFEE722683AB1ED
:1020C000502080F31188BFF34F8FBFF36F8FFEE76F
:1020D0008143616000F010FA6068696808446860D4
:1020E0002046FFF705FEBDE8704000F035BB70BD2F
:1020F0001C0000200E4810B501684FF47A72B1FB45
:10210000F2F30C486FF07F448360B4FBF3F3C360D9
:10211000B1FBF1F32D24B4FBF3F3B1FBF2F1036156
:102120004FF0E020491E41610721016110BD000010
:102130001800002034000020F1B5384D82B002991B
:10214000E868814200D902904FF0E024206920F035
:1021500001002061A1690298AA68401E02FB0016D6
:102160002869864200D9361A72B6BFF34F8FBFF383
:102170006F8FFFF799FB58B366610027A76120694D
:1021800040F001002061029800906846FFF752F885
:10219000009820B1BFF34F8F30BFBFF36F8F02A8FD
:1021A000FFF747F8206920F00101216162B6C00302
:1021B00019D5A069A968301A081A2A69401E9042E8
:1021C00001D3884200D9481E6061029A521E15E070
:1021D000A0696061206940F001002061A868401E8C
:1021E000606162B6FEBD0298A968A2694843801A80
:1021F000B0FBF1F2531C4B43181A6061A761FFF763
:1022000017FF206940F001002061104600F060F9DE
:10221000A868401E6061FFF72BFFFEBD3400002060
:1022200010B5020014D00F48006B38B1502080F375
:102230001188BFF34F8FBFF36F8FFEE700F05CF99B
:1022400000211046FFF7D6FB00F086FA002807D1E0
:1022500005494FF080500860BFF34F8FBFF36F8F79
:1022600010BD00004C00002004ED00E02DE9F04717
:102270001E4691460C4607000ED0054605F1340077
:10228000C4E90050E86A2061286BE061686CA060D6
:10229000207B032803D00AE015480568EEE700F02C
:1022A0002BF9A86A08B10220207300F055FA4FF00C
:1022B0000008C4F81480E86CA061052E01D02673D4
:1022C00003E03846FFF708FB2073B9F1000F0BD08D
:1022D0000021286B01E0401C491C0278A52AFAD095
:1022E00088082084BDE8F087A4F82080FAE7000081
:1022F0004C00002070B586B00025064605702348C6
:1023000081680091806800EBC0008000FFF778FDD5
:10231000040038D003AA0099FFF702FE009003984A
:102320006421B0FBF1F0039050B32846019524E0FE
:1023300000EBC00004EB8000039A8169B1FBF2F569
:1023400041683046FFF74AFD0646019800EBC000A1
:1023500004EB800082692DB12B460DA13046FFF7BA
:1023600097F903E00DA13046FFF792F93046FDF7EB
:1023700049FF06440198401C019000998842D7D338
:102380002046FFF789FE06B070BD00004C0000201B
:102390000925750909257525250D0A0009257509E1
:1023A000093C3125250D0A0070B586B0002406468B
:1023B0000470274881680291806800EBC0008000AB
:1023C000FFF71EFD050041D000220299FFF7A8FD8E
:1023D000CDE90204204628E000EBC00005EB8000B8
:1023E000017B01292AD002292AD003292AD00429D5
:1023F0002AD0002441683046FFF7F0FC06460398D7
:1024000000EBC00005EB80008268018CCDE9001272
:10241000036922460FA13046FFF73AF93046FDF72F
:10242000F1FE06440398401C039002998842D3D3DE
:1024300006B02846BDE87040FFF72EBE5224D9E70B
:102440004224D7E75324D5E74424D3E706B070BD30
:102450004C00002009256309257509257509257596
:102460000D0A00001CB516480024CDE900402346A3
:10247000802214A1154800F0D1F8012809D0401C91
:102480001CD1502080F31188BFF34F8FBFF36F8FA3
:10249000FEE7502080F31188BFF34F8FBFF36F8F9B
:1024A00007484FF0FF312C38816201214161C4603F
:1024B000FFF7F4F9BDE81C4000F060B81CBD000057
:1024C0007800002049444C4500000000191C000819
:1024D0000849CA688B6A02449A4207D9502080F39F
:1024E0001188BFF34F8FBFF36F8FFEE7CA681044A8
:1024F000C86070474C0000200248016B491C016312
:10250000704700004C00002010B51A4C206B10B131
:102510000120E06110BD0020E061FFF71DFAA0631B
:10252000626B904204D92168821ACB6C1A44CA6447
:10253000606320691049B0FA80F0C0F11F0000EB21
:10254000800051F820206AB101EB800000F1080200
:10255000416849684160914201D149684160C86859
:10256000206010BD502080F31188BFF34F8FBFF360
:102570006F8FFEE74C000020541100201CB5194954
:1025800008780190FF20087008788DF800009DF809
:102590000000154C00F0500020700720606105E03D
:1025A0009DF8002052008DF80020401E9DF800206C
:1025B0001206F5D4000200F4E06060610198087032
:1025C0000A48016841F470010160016841F07041FE
:1025D0000160FFF78FFD00206060FDF7A3FD002084
:1025E0001CBD000000E400E03400002020ED00E00D
:1025F00010B5502080F31188BFF34F8FBFF36F8F5A
:1026000000F046F818B104494FF0805008600020EF
:1026100080F3118810BD000004ED00E02DE9FF5F9C
:102620008346DDE90E87994616468A469000FFF7F5
:10263000E7FB05001AD05020FFF7E2FB040012D0A0
:1026400025630021CDE90241CDE900874B463246A2
:1026500051465846FFF702FB2046FFF703FA0120D8
:1026600004B0BDE8F09F2846FFF716FD4FF0FF309D
:10267000F6E700000548416919B1006B18B1002068
:102680007047012070470220704700004C00002076
:102690002DE9F0412E4C0027206B40B1A069401C71
:1026A000A061E06900B101273846BDE8F081E66825
:1026B000761CE66013D1E06B006838B1502080F3DF
:1026C0001188BFF34F8FBFF36F8FFEE7E06B216C74
:1026D000E1632064206A401C2062FFF75BFBA06A74
:1026E000DFF87080864209D3E06B006880B1E06B50
:1026F000C068C568686886420DD2A0622068C06A5A
:1027000000EB800158F821000128CAD90127C8E749
:102710004FF0FF30F1E7281DFFF7F0FBA86A18B172
:1027200005F11800FFF7EAFBE86A01212269814000
:102730001143216100EB800108EB8100291DFFF7A7
:102740006BFCE86A2168C96A8842CDD30127CBE7D0
:102750004C000020541100202DE9F0472C4D00249E
:102760002746286B38B1FFF763FC286B401E2863AF
:10277000286B40B146E0502080F31188BFF34F8FA3
:10278000BFF36F8FFEE7A968224E0120D1B3A6F1F7
:10279000B40980463068E8B1F068C46804F11800F4
:1027A000FFF7ACFB201DFFF7A9FBE06A2A6908FAD6
:1027B00000F11143296100EB800109EB8100211D2B
:1027C000FFF72AFCE06A2968C96A8842E2D3C5F8A3
:1027D0001C80DFE70CB1FFF7DDFAAC6944B1464677
:1027E000FFF756FF00B1EE61641EF9D10020A86129
:1027F000E86938B10849012738070860BFF34F8FEF
:10280000BFF36F8FFFF734FC3846BDE8F087000058
:102810004C0000200812002004ED00E068280008A9
:1028200039120008000000000000000080000000D5
:102830005C28000855120008FEFF000000000000A0
:1028400080000000000000000000000001020304FE
:1028500006070809000000000102030453797349C8
:102860006E666F5461736B0064656661756C745459
:1028700061736B00942800080000002094000000A1
:10288000B81600082829000894000020B41500009C
:10289000C816000800000000000000000000000052
:1028A00001000000100000000000000000A24A0427
:1028B0000000000000000000000000000000000018
:1028C000000000000000000000000000AAAAAAAA60
:1028D00000000000000000000000000000000000F8
:1028E00000000000000000000000000000000000E8
:1028F00000000000000000000000000000000000D8
:1029000000000000000000000000000000000000C7
:1029100000000000000000000000000000000000B7
:082920000000000000000000AF
:04000005080000ED02
:00000001FF
