:020000040800F2
:10000000F80B002001010008B10D0008110B0008D9
:10001000AD0D0008E7010008FD1100080000000018
:10002000000000000000000000000000C10E0008F9
:10003000EB01000800000000ED0D000819010008A8
:100040001B0100081B0100081B0100081B01000820
:100050001B0100081B0100081B0100081B01000810
:100060001B0100081B0100081B0100081B01000800
:100070001B0100081B0100081B0100081B010008F0
:100080001B0100081B0100081B0100081B010008E0
:100090001B0100081B0100081B0100081B010008D0
:1000A0001B0100081B0100081B0100081B010008C0
:1000B0001B0100081B0100081B0100081B010008B0
:1000C0001B0100081B0100081B0100081B010008A0
:1000D0001B0100081B0100081B0100081B01000890
:1000E0001B0100081B0100081B010008DFF80CD0F1
:1000F00000F03CF80048004701140008F80B00200D
:100100000648804706480047FEE7FEE7FEE7FEE7B1
:10011000FEE7FEE7FEE7FEE7FEE7FEE7DD0F00088D
:10012000ED00000840EA01039B0703D009E008C97D
:10013000121F08C0042AFAD203E011F8013B00F8AC
:10014000013B521EF9D27047D2B201E000F8012BF8
:10015000491EFBD270470022F6E710B513460A4647
:1001600004461946FFF7F0FF204610BD064C074D28
:1001700006E0E06840F0010394E807009847103477
:10018000AC42F6D3FFF7B6FFC4150008E41500082B
:1001900070B58C1810F8015B15F0070301D110F849
:1001A000013B2A1106D110F8012B03E010F8016B76
:1001B00001F8016B5B1EF9D12B0705D40023521EF9
:1001C0000DD401F8013BFAE710F8013BCB1A921C61
:1001D00003E013F8015B01F8015B521EF9D5A1425F
:1001E000D8D3002070BD00BFFEE770477047000005
:1001F0002DE9F84703460024002000258446002707
:1002000000226EE14FF0010808FA02F4D1F80080F4
:1002100008EA0400A0427DD1DFF8D0A2D1F8048022
:10022000A8EB0A09D0453AD014DCB8F1030F50D03E
:1002300009DCB8F1000F31D0B8F1010F1CD0B8F1D2
:10024000020F49D120E0B8F1110F18D0B8F1120F08
:1002500042D11EE0B9F5881F25D006DCB9F5803FF4
:1002600020D0B9F5801F37D11AE0B9F5001F18D09A
:10027000B9F5041F30D117E0D1F80CC02DE0D1F84A
:100280000C8008F1040C28E0D1F80C8008F1080C6F
:1002900023E0D1F80C8008F10C0C1EE000BF00BF79
:1002A00000BF00BF00BF00BFD1F80880B8F1000F49
:1002B00002D14FF0040C0BE0D1F80880B8F1010F27
:1002C00003D14FF0080C1C6102E04FF0080C5C6198
:1002D00003E04FF0000C00E000BF00BFFF2801D892
:1002E000984601E003F104084646FF2802D84FEA89
:1002F000820803E0A2F108084FEA88084746D6F8CA
:1003000000804FF00F0909FA07F928EA09080CFAEA
:1003100007F900E088E048EA0908C6F80080D1F84B
:10032000048008F08058B8F1805F7DD100BFDFF80D
:10033000C081D8F8188048F00108DFF8B491C9F8F6
:100340001880C846D8F8188008F00108CDF8008059
:1003500000BF00BF4FEAB9384FEA920958F8295058
:100360004FEA82784FEA18794FF00F0808FA09F837
:1003700025EA0805DFF87C81434502D14FF00008EB
:1003800016E0DFF87481434502D14FF001080FE019
:10039000DFF86881434502D14FF0020808E0DFF83A
:1003A0006081434502D14FF0030801E04FF004089B
:1003B0004FEA82794FEA197908FA09F848EA0505FF
:1003C000DFF840814FEA920948F82950D1F80480BB
:1003D00008F48038B8F5803F0AD1DFF82C81D8F8CE
:1003E000008048EA0008DFF82091C9F8008009E0A1
:1003F000DFF81481D8F8008028EA0008DFF80891B7
:10040000C9F80080D1F8048008F40038B8F5003F3E
:1004100010D1DFF8F48008F10408D8F8008048EA29
:100420000008DFF8E49000E05AE009F10409C9F897
:1004300000800DE0DFF8D08008F10408D8F80080D3
:1004400028EA0008DFF8C09009F10409C9F8008023
:10045000D1F8048008F48018B8F5801F0ED1DFF8B9
:10046000A88008F10808D8F8008048EA0008DFF8FA
:10047000989009F10809C9F800800DE0DFF888803C
:1004800008F10808D8F8008028EA0008DFF878901A
:1004900009F10809C9F80080D1F8048008F40018AF
:1004A000B8F5001F0ED1DFF8608008F10C08D8F80D
:1004B000008048EA0008DFF8509009F10C09C9F8FB
:1004C00000800DE0DFF8408008F10C08D8F80080CB
:1004D00028EA0008DFF8309009F10C09C9F800801B
:1004E000521C102AFFF48EAEBDE8F88700001110F0
:1004F0000010024000080140000C014000100140C3
:100500000014014008000140000401400148006857
:1005100070470000FC06002010B50848006840F055
:10052000100006490860032000F098F8002000F051
:1005300007F800F02BF8002010BD0000002002405A
:1005400070B504460E4800784FF47A71B1FBF0F0B4
:100550000C490968B1FBF0F5284600F00EFA08B125
:10056000012070BD102C07D200222146501E00F041
:1005700037F80548046001E00120F2E70020F0E7C9
:1005800004070020080700200007002008B500BF6E
:100590001148806940F001000F4988610846806970
:1005A00000F00100009000BF00BF00BF0846C06916
:1005B00040F08050C8610846C06900F0805000904B
:1005C00000BF00BF00BF0549486820F0E06040F070
:1005D0000070486000BF08BD0010024000000140EC
:1005E0002DE9F05F80460D461646002700F0E2FB3D
:1005F000074639462A46334601F00700C0F1070A8C
:10060000BAF1040F02D94FF0040A01E0C0F1070A61
:10061000D14600F1040ABAF1070F02D24FF0000AE6
:1006200001E0A0F1030AD4464FF0010A0AFA09FAE0
:10063000AAF1010A0AEA020A0AFA0CFA4FF0010BBF
:100640000BFA0CFBABF1010B0BEA030B4AEA0B04B0
:100650002146404600F0B6FBBDE8F09F00BF00F029
:100660000702064B19684FF6FF031940044B0B4372
:1006700043EA0221014B196000BF70470CED00E016
:100680000000FA05014800687047000008070020D4
:1006900000B5FFF7F7FF04494968C1F30221034A97
:1006A000515CC84000BD000000100240BA150008AF
:1006B00000B5FFF7E7FF04494968C1F3C221034AC7
:1006C000515CC84000BD000000100240BA1500088F
:1006D000014691F85100704710B504460CB901204D
:1006E00010BD0021A16294F8510010B9204600F01D
:1006F00037F8022084F851002068006820F040009C
:1007000021680860D4E901010843E16808432169D0
:10071000084361690843218B01F400710843E169D2
:100720000843216A0843A16A08432168086004213C
:10073000A06901EA1040616A0843216848602168A5
:10074000E06A08612068C06920F400602168C8611F
:1007500000206065012084F851000020C0E70000FF
:1007600010B586B0044600200290039004900590D6
:1007700015492068884225D100BF1448C06940F45B
:1007800080401249C8610846C06900F48040019069
:1007900000BF00BF00BF0846806940F008008861C4
:1007A0000846806900F00800019000BF00BF4FF4C8
:1007B00020400290022003900320059002A90448E3
:1007C000FFF716FD06B010BD0038004000100240D3
:1007D000000C01402DE9F84304460D4617461E461D
:1007E0004FF00008C14600BF94F85000012802D124
:1007F0000220BDE8F883012084F8500000BFFFF715
:1008000085FE804694F85100012802D04FF002097D
:10081000A9E005B117B94FF00109A4E0032084F85D
:100820005100002060652563A786E786A063A08746
:10083000E08760642064A068B0F5004F05D12068AF
:10084000006840F48040216808602068006800F07B
:100850004000402805D02068006840F04000216832
:100860000860E068B0F5006F2AD1606810B1E08ED2
:10087000012806D128882168C860AD1CE08E401E82
:10088000E08619E02068806800F00200022807D1A5
:1008900028882168C860AD1CE08E401EE0860BE011
:1008A0003EB1701C40B1FFF731FEA0EB0800B04232
:1008B00002D34FF0030956E0E08E0028E2D129E090
:1008C000606810B1E08E012806D12878216808738D
:1008D0006D1CE08E401EE08619E02068806800F004
:1008E0000200022807D12878216808736D1CE08E69
:1008F000401EE0860BE03EB1701C40B1FFF706FEE3
:10090000A0EB0800B04202D34FF003092BE0E08EC9
:100910000028E2D13346012202212046CDF8008092
:1009200000F079FA10B14FF003091CE0424631465D
:10093000204600F05CFA20B14FF0010920206065EC
:1009400011E0A06850B900BF002000902068C06886
:10095000009020688068009000BF00BF606D08B103
:100960004FF0010900BF012084F8510000BF0020B2
:1009700084F8500000BF48463BE770B50446254662
:10098000681EB0F1807F01D301200FE0681E4FF098
:10099000E02148610F214FF0FF3000F013FA0020F2
:1009A0004FF0E021886107200861002070BD10B57C
:1009B00004460CB9012010BDA06900B100E000BFE1
:1009C00094F8390028B9002084F83800204600F057
:1009D00027F8242084F839002068C06820F40050EB
:1009E0002168C860204600F025FB2068006920F4DB
:1009F0009040216808612068406920F02A00216841
:100A000048612068C06840F400502168C860002038
:100A1000E063202084F8390084F83A000020CAE717
:100A200010B586B004460020029003900490059013
:100A30003349206888422FD100BF3248806940F492
:100A40008040304988610846806900F48040019008
:100A500000BF00BF00BF0846806940F00400886105
:100A60000846806900F00400019000BF00BF4815EF
:100A70000290022003900320059002A92248FFF76C
:100A8000B7FB4FF48060029000200390049002A90D
:100A90001D48FFF7ADFB31E01C49206888422DD18D
:100AA00000BF1848C06940F400301649C8610846C4
:100AB000C06900F40030019000BF00BF00BF0846CD
:100AC000806940F0040088610846806900F00400F5
:100AD000019000BF00BF0420029002200390032079
:100AE000059002A90848FFF783FB08200290002028
:100AF0000390049002A90448FFF77AFB06B010BDEA
:100B0000003801400010024000080140004400404D
:100B100000BFFEE708B5054989690143034A9161B1
:100B2000114689690140009100BF08BD00100240D4
:100B30002DE9F04102460B461868C0F30F2595FADF
:100B4000A5F0B0FA80F47CE00120A0402840002805
:100B500076D0082C04D240F2011000FA04F106E02D
:100B6000A4F108004FF00116864046F080615868F5
:100B700002EB116691FAA1FCBCFA8CFC4FEA8C08DE
:100B80004FF00F0C0CFA08FC376827EA0C0791FAB3
:100B9000A1FCBCFA8CFC4FEA8C0C00FA0CFC47EA76
:100BA0000C07376000BF1869D66826EA11260F0ABD
:100BB00097FAA7F7B7FA87F700FA07F73E43D66028
:100BC00000BF5868012802D05868092838D19868B1
:100BD00002EB116691FAA1FCBCFA8CFC4FEA8C087E
:100BE0004FF0030C0CFA08FC376827EA0C0791FA5F
:100BF000A1FCBCFA8CFC4FEA8C0C00FA0CFC47EA16
:100C00000C07376000BFD86802EB116691FAA1FCAF
:100C1000BCFA8CFC4FEA8C084FF0040C0CFA08FC70
:100C2000376827EA0C0791FAA1FCBCFA8CFC4FEA62
:100C30008C0C00FA0CFC47EA0C07376000BF00BFC1
:100C4000641C25FA04F000287FF47EAF0120BDE883
:100C5000F0814FF47A71B0FBF1F2521E4FF0E023B5
:100C60005A6100229A6105221A6100BF7047000094
:100C700001490860704700000807002008B54FF0E0
:100C8000E0210969009100BF411C01B1401C06E050
:100C90004FF0E021096901F4803101B1401E0028C4
:100CA000F6D108BD00B585B014216846FFF753FAA8
:100CB0001020FFF72FFF2020FFF72CFF0420FFF765
:100CC00029FF0820FFF726FF0948C0F30F21094A32
:100CD000116100BF009001200190032002900020CC
:100CE000039069461046FFF723FF05B000BD0000E2
:100CF000C3C00304000C014010B50E480E49086043
:100D00004FF48270486000210B488160C16001612E
:100D100041614FF4007181610021C1610162416252
:100D200081620A21C162FFF7D7FC08B1FFF75EFAC2
:100D300010BD0000003800401C07002010B50B4813
:100D40000B4908604FF4E130486000210848816099
:100D5000C16001610C21416100218161C161FFF726
:100D600026FE08B1FFF742FA10BD0000003801402E
:100D70007407002010B50B480B4908604FF416505B
:100D80004860002108488160C16001610C21416117
:100D900000218161C161FFF70AFE08B1FFF726FA61
:100DA00010BD000000440040B407002000BFFEE773
:100DB0007047000002480068C0F30220704700003E
:100DC0000CED00E010B5002807DA0A07140E054AFA
:100DD00000F00F031B1FD45403E00A07130E024A4E
:100DE000135410BD18ED00E000E400E07047F8B5C2
:100DF00004460D4616462B460022802120460096CA
:100E000000F009F828B1606D40F020006065032013
:100E1000F8BD0020FCE72DE9F04104460E461746D8
:100E20001D46DDF818803FE0681CE0B32DB1FFF7E8
:100E30006DFBA0EB0800A84236D32068406820F084
:100E4000E000216848606068B0F5827F0DD1A0683D
:100E5000B0F5004F03D0A068B0F5806F05D12068D1
:100E6000006820F0400021680860A06AB0F5005FCB
:100E70000ED100BF206800684DF6FF710840216860
:100E800008602068006840F400502168086000BFD6
:100E9000012084F8510000BF002084F8500000BFFA
:100EA0000320BDE8F081FFE7206880683040B04251
:100EB00001D1012000E00020B842B5D10020F0E7C8
:100EC0007047000010B502204149096821F0070170
:100ED00001433F4A116000BF00BF1046006800F0A8
:100EE0000700022801D0FFF781F900BF39480068E8
:100EF00040F480303749086000BF00BF00BF35486C
:100F00000068C0F340400028F8D04FF48030010161
:100F1000304A526822F47C1200F440330B431A43E7
:100F20002C4B5A6000BF00BF1846006840F080702C
:100F30001946086000BF00BF00BF26480068C0F324
:100F400040600028F8D000202249496821F0F001D3
:100F50000143204A516000BF10151146496821F431
:100F6000E0610143516000BF00201146496821F44F
:100F700060510143516000BF02201146496821F0D1
:100F800003010143516000BF00BF00BF114840682A
:100F900000F00C000828F8D10F48FFF75AFE042093
:100FA000042808D14FF0E021096941F004014FF015
:100FB000E022116107E04FF0E021096921F004010E
:100FC0004FF0E022116100BF0348FFF751FE10BD52
:100FD000002002400010024000A24A0411480068AC
:100FE00040F001000F490860084640680E4908407B
:100FF0000C494860084600680C49084009490860E7
:101000000846006820F4802008600846406820F404
:10101000FE0048604FF41F008860C8030449086060
:1010200070470000001002400000FFF8FFFFF6FECE
:1010300008ED00E02DE9F041044600252068006934
:1010400020F44050E1680843216808612169A068E4
:1010500008436169084305432068C06841F20C6198
:10106000884328432168C8602068406920F44070A4
:10107000A1690843216848615F49206888425CD1C2
:10108000FFF716FB00EBC00101EB0010616889005F
:10109000B0FBF1F6FFF70CFB00EBC00101EB001019
:1010A00061688900B0FBF1F06421B0FBF1F000EB66
:1010B000C00101EB0010A6EB8000322101EB001013
:1010C0006421B0FBF1F000F0F006FFF7F1FA00EB5D
:1010D000C00101EB001061688900B0FBF1F06421F0
:1010E000B0FBF1F006EB0016FFF7E2FA00EBC001EF
:1010F00001EB001061688900B0FBF1F7FFF7D8FA47
:1011000000EBC00101EB001061688900B0FBF1F059
:101110006421B0FBF1F000EBC00101EB0010A7EB84
:101120008000322101EB00106421B0FBF1F000F0EF
:101130000F003044216888605BE0FFF7A9FA00EBFC
:10114000C00101EB001061688900B0FBF1F6FFF708
:101150009FFA00EBC00101EB001061688900B0FB51
:10116000F1F06421B0FBF1F000EBC00101EB0010E5
:10117000A6EB8000322101EB00106421B0FBF1F0FE
:1011800000F0F006FFF784FA00EBC00101EB00105D
:1011900061688900B0FBF1F06421B0FBF1F006EB6F
:1011A0000016FFF775FA00EBC00101EB0010616853
:1011B0008900B0FBF1F7FFF76BFA00EBC00101EB20
:1011C000001061688900B0FBF1F06421B0FBF1F020
:1011D00000EBC00101EB0010A7EB8000322101EB16
:1011E00000106421B0FBF1F000F00F0030442168E2
:1011F0008860BDE8F08100000038014000BFFEE7D4
:1012000010B50446A289511E88222068FEF79CFF73
:101210000120A07310BD0346080440EA03201043D8
:101220007047000070B504460D46658105EB45002A
:10123000C000A0810A4820600A4860600020207237
:10124000FE20A2892168114401F8010C0120A0733D
:101250002046FFF7D5FF204600F02EF870BD0000B5
:101260000000002055030020F0B5034601EB4107C4
:101270001E6806EB870000241AE002F0030535B172
:10128000012D07D0022D08D0032D0CD108E08826AF
:10129000067008E08E26067005E0E826067002E07B
:1012A000EE26067000BF00BF9208401C661CF4B218
:1012B0000C2CE2DBF0BD000010B504460C48FFF733
:1012C00007FA012812D1A07B012806D1A289D4E90E
:1012D0000010FEF727FF0020A073A289FF23044817
:1012E0006168FFF777FA08B1FEF780FF10BD0000D4
:1012F0001C0700202DE9F04705460E4690461F4684
:10130000DDF82090002400BF0FE0305D012805D1FA
:10131000424621462846FFF7A7FF04E03A46214609
:101320002846FFF7A1FF601CC4B26889A042ECDC2C
:101330000120A8732846FFF7BFFF4846FFF79EFC31
:10134000BDE8F08710B50446C4F1FF04552C0BDA54
:1013500004EB4401CAB204EB4401C1F1FF01C8B27D
:101360000021FFF758FF10BDAA2C0EDAA4F155009A
:10137000C4B204EB4400C0F1FF00C2B204EB44006D
:10138000C1B20020FFF747FFEDE7A4F1AA00C4B205
:1013900004EB4402C2F1FF02D1B204EB4402D0B22A
:1013A0000022FFF738FFDEE702E008C8121F08C17D
:1013B000002AFAD170477047002001E001C1121FD6
:1013C000002AFBD170472DE9F04104460E4617462E
:1013D000002500BF0EE0E9B232462046FFF744FF89
:1013E0000120A0732046FFF767FF3846FFF746FC51
:1013F000681C85B26089A842EDDCBDE8F081000080
:1014000008B5FFF789F8FFF75DFDFFF74BFCFFF725
:10141000B1FCFFF793FCFFF76FFC10212748FFF7A3
:1014200001FF00226FF07F412448FFF7CCFF4FF40B
:101430007A7000234FF47F42214900901F48FFF744
:1014400059FF4FF47A7000236FF07F421D490090DE
:101450001A48FFF74FFF4FF47A7000234FF47F4292
:10146000174900901548FFF745FF4FF47A700023A5
:101470004FF47F42134900901048FFF73BFF4FF4B1
:101480007A7000236FF07F420F4900900B48FFF7FE
:1014900031FF4FF47A7000236FF07F420B490090C8
:1014A0000648FFF727FF07E06421044800F010F822
:1014B0006421024800F031F8F6E700000C07002034
:1014C000BA060020CA060020EA060020DA0600203C
:1014D0002DE9F04105460F4600261AE000240BE0F6
:1014E000A119C8B2FFF72EFF8046E1B24246284656
:1014F000FFF7BAFE601C84B26889A042F0DC0120CC
:10150000A8732846FFF7D8FE3846FFF7B7FB701CD4
:1015100086B2FF2EE2DDBDE8F0812DE9F0470546F9
:10152000884600273DE0002637E0002413E0E0195C
:10153000FF2190FBF1F201FB120000F0FF0A504680
:10154000FFF700FF8146A019C1B24A462846FFF7BF
:101550008BFEE01C84B26889A042E8DC0120A873FD
:101560002846FFF7A9FE4046FFF788FB002407E066
:10157000A019C1B200222846FFF776FEE01C84B213
:101580006889A042F4DC0120A8732846FFF794FE86
:101590004046FFF773FB701C86B2032EC5DB781C38
:1015A00087B2FF2FBFDDBDE8F0870000000000001C
:1015B0000000010203040607080900000000010200
:1015C00003040000E4150008000000200C070000E0
:1015D000900100081C1600080C070020EC04000015
:1015E000B813000802FF8801FF01FF015702FF88BE
:1015F00001FF01FF01582B01010539034905990C31
:101600001A011D29034926B90C691069465902714E
:0C1610005A104C110400A24A0400000013
:04000005080000ED02
:00000001FF
