:020000040800F2
:1000000008040020C9000008E90C0008210C0008C1
:1000100000000000000000000000000000000000E0
:10002000000000000000000000000000670D000854
:100030000000000000000000650D0008690D0008C8
:10004000DB00000800000000DB000008DB00000807
:10005000DB000008DB000008DB000008DB00000814
:1000600000000000DB000008DB000008DB000008E7
:10007000DB000008DB000008DB00000800000000D7
:10008000DB000008DB00000800000000DB000008C7
:10009000DB000008DB000008DB000008DB000008D4
:1000A000DB000008DB000008DB000008DB000008C4
:1000B000DB0000080348854600F03CF80048004794
:1000C000610E0008080400200448804704480047E7
:1000D000FEE7FEE7FEE7FEE7FEE7FEE7CD0D0008E0
:1000E000B500000830B50B4601460020202201244F
:1000F00009E00D46D5409D4205D31D469540491B5C
:100100002546954040191546521E002DF1DC30BDA4
:10011000D2B201E00270401C491EFBD2704700229F
:10012000F6E710B513460A4604461946FFF7F0FFF6
:10013000204610BD064C0125064E05E0E36807CCBD
:100140002B430C3C98471034B442F7D3FFF7B6FF6B
:10015000AC0E0008CC0E0008704731B500F010F965
:100160000546009C601C002800D0641C00BF00F005
:1001700007F9401BA042FAD338BD000078B503460A
:10018000002200240020DEE0012696400D68354064
:100190002C46002C7ED04D68022D02D04D68122DC9
:1001A00015D1D508AE001D462035A8595507EE0ECD
:1001B0000F25B5400646AE4330465607F60E0D698C
:1001C000B5402843D508AD001E462036705118684A
:1001D00056000325B5400646AE4330460D79AD07BF
:1001E000AD0F5600B540284318604D68012D08D06A
:1001F0004D68022D05D04D68112D02D04D68122D8D
:1002000018D1986856000325B5400646AE433046DF
:100210005600CD68B5402843986058680125954040
:100220000646AE43304610264D6835402D099540B0
:1002300028435860D86856000325B5400646AE43AB
:10024000304656008D68B5402843D86001263607F1
:100250004D683540B54275D100BF3E4DAD690126B0
:1002600035433C4EB5613546AD69ED07ED0F009560
:1002700000BF00BF384D9608B600A85995072E0F4D
:100280000F25B5400646AE4330460925ED06AB4284
:1002900003D100E056E000250FE0304DAB4201D124
:1002A00001250AE02E4DAB4201D1022505E02D4D7E
:1002B000AB4201D1032500E005259607360FB54076
:1002C0002843254D9608B600A851274D28680546B5
:1002D000A5432846012636044D683540B54202D173
:1002E000054625432846204D286068680546A543F5
:1002F0002846012676044D683540B54202D10546B0
:1003000025432846184D6860A8680546A543284639
:10031000012636054D683540B54202D105462543D4
:100320002846114DA860E8680546A54328460126E1
:1003300076054D683540B54202D10546254328462D
:10034000094DE860521C0D68D540002D00D01BE718
:1003500078BD000000100240080001400004004881
:1003600000080048000C00480004014042694A406F
:1003700042617047002A01D0816100E081627047CC
:10038000014800687047000004000020024800682F
:10039000401C0149086070470400002010B5064861
:1003A00000681021084304490860002000F006F8A6
:1003B00000F018F8002010BD0020024070B504467F
:1003C00000F004F906467D21C900FFF78BFE0546C3
:1003D00000F00AFC00222146501E00F023F8002005
:1003E00070BD000008B500BF0D48806901210843B9
:1003F0000B49886108468069C007C00F009000BFA4
:1004000000BF00BF0846C069090408430449C86129
:100410000846C06909040840009000BF00BF08BD3D
:100420000010024070B504460D4616462946204687
:1004300000F05CFC70BD000070B504460D4600265F
:100440005D480068C007C00FA8420ED25A48006835
:100450004008400028435849086008460068C00723
:10046000C00FA84201D0012070BD022120680840C1
:10047000022807D151484068F0218843A168084309
:100480004E4948602078C007C00F00285FD06068E0
:10049000012808D149480068012149040840002882
:1004A00015D10120E0E76068022808D143480068C0
:1004B000012149060840002809D10120D4E73F481E
:1004C000006802210840002801D10120CCE73B4808
:1004D0004068800880006168084338494860FFF739
:1004E0004FFF0646606801280FD107E0FFF748FF7D
:1004F000801B3349884201D90320B5E72F48406863
:100500000C2108400428F1D121E0606802280FD1B5
:1005100007E0FFF735FF801B2949884201D90320F6
:10052000A2E7264840680C2108400828F1D10EE0D7
:1005300007E0FFF725FF801B2149884201D90320EE
:1005400092E71E4840680C2108400028F1D11A4863
:100550000068C007C00FA8420ED9174800684008BD
:10056000400028431449086008460068C007C00FCF
:10057000A84201D0012077E7042120680840042820
:1005800008D10E484068072109028843E168084302
:100590000A49486000F020F808494968F0221140F3
:1005A0000909084A515CC840074908600020FFF764
:1005B00005FF002058E70000002002400010024024
:1005C00088130000940E0008000000200148006815
:1005D0007047000000000020F0B589B024A001465B
:1005E0000EC9C06805AC0EC4089025A001460EC90E
:1005F000C06801AC0EC4049000240027002500262A
:1006000000200090224844680C202040002827D079
:10061000042802D0082822D102E01E48009022E0DF
:100620000F2080042040800C05A90E5C1848C06A89
:100630000007000F01A90F5C0120000420400121E8
:100640000904884206D139461248FFF74BFD704332
:10065000054602E0104835464543009503E000BFDB
:100660000C48009000BF00BF009809B0F0BD00002A
:1006700002030405060708090A0B0C0D0E0F1010E3
:100680000102030405060708090A0B0C0D0E0F10E2
:100690000010024000127A0000093D00F8B504463F
:1006A00000252078C007C00F002871D0F9484068A5
:1006B0000C21084004280BD0F64840680840082860
:1006C00012D1F448406801210904084088420BD146
:1006D000F048006801214904084000286BD0606898
:1006E000002868D10120F8BD00BF6068012807D14B
:1006F000E8480068012109040843E649086031E040
:10070000606800280ED1E34800680121090488438D
:10071000E049086008460068012189048843DD49F2
:1007200008601FE0606805280ED1DA4800680121E2
:1007300089040843D7490860084600680121090474
:100740000843D44908600DE0D2480068012109043B
:100750008843D0490860084600680121890488431D
:10076000CC49086000BF6068002812D0FFF708FE7F
:10077000054606E0FFF704FE401B642801D903206C
:10078000B1E7C44800680121490408400028F1D0BD
:1007900011E0FFF7F5FD054606E0FFF7F1FD401B10
:1007A000642801D903209EE7BA4800680121490462
:1007B00008400028F1D1022120680840022861D1B8
:1007C000B44840680C21084000280BD0B14840686C
:1007D000084008281BD1AF4840680121090408409F
:1007E000002814D1AB48006802210840002804D03A
:1007F000E068012801D0012075E7A6480068F821CB
:1008000088432169C9000843A24908603AE0E068CA
:10081000002820D09F480068012108439D490860B6
:10082000FFF7AEFD054606E0FFF7AAFD401B0228D4
:1008300001D9032057E797480068022108400028A3
:10084000F2D094480068F82188432169C900084320
:100850009049086016E08F480068400840008D49C4
:100860000860FFF78DFD054606E0FFF789FD401B98
:10087000022801D9032036E7864800680221084093
:100880000028F2D1082120680840082831D1E06909
:10089000002817D07F48406A012108437D494862FB
:1008A000FFF76EFD054606E0FFF76AFD401B0228D4
:1008B00001D9032017E77748406A02210840002841
:1008C000F2D016E07348406A40084000714948621F
:1008D000FFF756FD054606E0FFF752FD401B0228D4
:1008E00001D90320FFE66B48406A02210840002836
:1008F000F2D1042120680840042871D100266548FF
:10090000C0698906084000280DD100BF6148C06950
:1009100008436049C8610846C0690904084000905E
:1009200000BF00BF01265C480068FF21013108407C
:10093000002816D158480068084357490860FFF757
:100940001FFD054606E0FFF71BFD401B642801D98B
:100950000320C8E650480068FF2101310840002804
:10096000F1D000BFA068012806D14A48006A0121E1
:100970000843484908622BE0A06800280CD145488C
:10098000006A40084000434908620846006A0421A2
:100990008843404908621BE0A06805280CD13D4807
:1009A000006A042108433B4908620846006A0121A5
:1009B0000843384908620BE03648006A40084000A6
:1009C000344908620846006A0421884331490862B4
:1009D00000BFA068002813D0FFF7D2FC054608E04E
:1009E00029E0FFF7CDFC401B2C49884201D90320A8
:1009F00079E62848006A022108400028F1D011E079
:100A0000FFF7BEFC054607E0FFF7BAFC401B234991
:100A1000884201D9032066E61E48006A0221084088
:100A20000028F1D1012E05D11A48C0693107884349
:100A30001849C86100BF10212068084010285FD104
:100A4000606901282CD11348406B042108431149E7
:100A500048630846406B012108430E494863FFF78D
:100A60008FFC054606E0FFF78BFC401B022801D9EE
:100A7000032038E60748406B022108400028F2D0E6
:100A80000448406BF8218843A169C9000843014923
:100A9000486335E0001002400070004088130000F9
:100AA0006069401D00280FD14E48406B04218843E7
:100AB0004C4948630846406BF8218843A169C90046
:100AC0000843484948631BE04648406B04210843FB
:100AD000444948630846406B400840004863FFF7BC
:100AE0004FFC054606E0FFF74BFC401B022801D9EE
:100AF0000320F8E53B48406B022108400028F2D172
:100B0000206A00286CD0374840680C21084008282B
:100B100064D0206A022847D13248006801210906C2
:100B2000884330490860FFF72BFC054606E0FFF7D5
:100B300027FC401B022801D90320D4E5294800687E
:100B40000121490608400028F1D100BF2548C06AAC
:100B500000090001E16A08432249C862616AA06A8B
:100B60000843204949683D221204914308431D4926
:100B7000486000BF0846006801210906084319497A
:100B80000860FFF7FDFB054606E0FFF7F9FB401B99
:100B9000022801D90320A6E5124800680121490670
:100BA00008400028F1D01BE00E480068012109062A
:100BB00088430C490860FFF7E3FB054606E0FFF7B2
:100BC000DFFB401B022801D903208CE505480068A3
:100BD0000121490608400028F1D101E0012082E509
:100BE000002080E50010024070B504462546681ECE
:100BF0000949884201D901200CE0681E0749486173
:100C00000321081F00F072F80020044988610720C2
:100C10000861002070BD0000FFFFFF0000E000E061
:100C200000BFFEE700B587B0142102A8FFF777FAEE
:100C300000BF2B48406901218905084328494861C4
:100C400008464069012189050840019000BF00BFA6
:100C500000BF2348406949110843214948610846BB
:100C60004069012149040840019000BF00BF00BF56
:100C70001B484069490008431949486108464069D2
:100C8000012189040840019000BF00BF0122032117
:100C900049020920C006FFF76DFB0122110211482D
:100CA000FFF768FB03204002029001200390002020
:100CB00004900320059002A90920C006FFF75EFA00
:100CC000FF200130029001200390002004900320B7
:100CD000059002A90348FFF751FA07B000BD0000D4
:100CE00000100240000400487047000010B50028C2
:100CF00019DA1A4A03071B0F083B9B089B00D258BE
:100D00008307DC0EFF23A3409A438B071B0E840747
:100D1000E40EA3401A43114B0407240F083CA40817
:100D2000A4001A5118E00E4A03231B02D2188308AC
:100D30009B00D2588307DC0EFF23A3409A438B0706
:100D40001B0E8407E40EA3401A43054B0324240220
:100D50001B198408A4001A5110BD00001CED00E00E
:100D600000E100E07047704710B5FFF70FFB10BDC2
:100D700000B591B0302105A8FFF7D1F9002001900E
:100D800002900390049001200590069002200D909F
:100D9000C1030E91C1040F910021109105A8FFF726
:100DA0007DFC002801D0FFF7D7F907200190022031
:100DB0000290002003900490012101A8FFF73CFB62
:100DC000002801D0FFF7C8F911B000BD194800682C
:100DD0000121084317490860084640681649084041
:100DE00014494860084600681449084011490860E1
:100DF000084600680121890488430E4908600846B6
:100E000040683F21090488430A4948600846C06A8F
:100E100000090001C8620846006BFF2114318843B5
:100E2000044908630846406B4008400048630020BE
:100E300088607047001002400CB8FF08FFFFF6FE04
:100E400002E008C8121F08C1002AFAD17047704793
:100E5000002001E001C1121F002AFBD170470000F1
:100E6000FFF79CFAFFF784FFFFF7DCFE0022FF216B
:100E700001310748FFF77EFA08E0012189020920C5
:100E8000C006FFF773FA6420FFF767F9F5E7000083
:100E900000040048000000000000000001020304FC
:100EA000060708090000000001020304CC0E000838
:100EB0000000002008000000400E0008D40E0008CA
:100EC0000800002000040000500E000800127A0004
:040ED000000000001E
:04000005080000B53A
:00000001FF
