:020000040800F2
:10000000E809002089010008791300084D0700085D
:10001000751300085B020008AD1E00080000000018
:10002000000000000000000000000000F91A0008B5
:100030008D04000800000000491600085D1C00083F
:10004000A3010008A3010008A3010008A301000800
:10005000A3010008A3010008A3010008A3010008F0
:10006000A3010008A3010008A3010008A3010008E0
:10007000A3010008A3010008A3010008A3010008D0
:10008000A3010008A3010008A3010008A3010008C0
:10009000A3010008A3010008A3010008A3010008B0
:1000A000A3010008A3010008A3010008A3010008A0
:1000B000A3010008391D0008A3010008A3010008DE
:1000C000A3010008A3010008A3010008A301000880
:1000D000A3010008A3010008A3010008A301000870
:1000E000A3010008A3010008A301000800F002F822
:1000F00000F03AF80AA090E8000C82448344AAF188
:100100000107DA4501D100F02FF8AFF2090EBAE885
:100110000F0013F0010F18BFFB1A43F0010318473B
:10012000103A0000303A0000103A24BF78C878C175
:10013000FAD8520724BF30C830C144BF04680C60ED
:10014000704700000023002400250026103A28BF35
:1001500078C1FBD8520728BF30C148BF0B60704739
:100160001FB51FBD10B510BD00F044F81146FFF7D4
:10017000F7FF02F073F900F062F803B4FFF7F2FF43
:1001800003BC00F063F800000948804709480047B5
:10019000FEE7FEE7FEE7FEE7FEE7FEE7FEE7FEE737
:1001A000FEE7FEE704480549054A064B7047000094
:1001B000611C0008ED000008E8030020E8090020A9
:1001C000E8050020E805002070477047704710B52B
:1001D00000F008F8006810BD10B5044600F002F801
:1001E000046010BD00487047880300200048704735
:1001F000880300207546FFF7F9FFAE460500694603
:10020000534620F00700854618B020B5FFF7CAFF17
:10021000BDE820404FF000064FF000074FF0000807
:100220004FF0000B21F00701AC46ACE8C009ACE888
:10023000C009ACE8C009ACE8C0098D467047044667
:10024000AFF300802046FFF798FF00000149182017
:10025000ABBEFEE726000200704700BFFEE70000CD
:1002600070B55848008858490880002055490880D2
:100270005548008803F0ACF90546544903F09AF854
:10028000534908605349B1F9000003F089F9054664
:10029000514903F0B1F9514908604E49B1F90200E2
:1002A00003F07EF905464C4903F0A6F94B49486036
:1002B0004849B1F9040003F073F90546464903F0D3
:1002C0009BF9464988604649B1F9000003F068F996
:1002D0000546444903F090F9434908604049B1F9A3
:1002E000020003F05DF905463E4903F085F93E49F9
:1002F00048603B49B1F9040003F052F90546394919
:1003000003F07AF938498860344801683748384A38
:10031000127840F82210314841683648344A127841
:1003200040F822102D4880683349314A127841F84C
:10033000220000241CE02D4850F824102F480068AB
:1003400002F0CAFF2D4908602A4850F824102C48B2
:10035000006802F0C1FF2A490860274850F82410BD
:100360002848006802F0B8FF26490860601CC4B243
:100370000A2CE0DB24492148006803F01BF82349DC
:10038000086021491E48006803F014F81F494860BE
:100390001D491C48006803F00DF81C4988600020C6
:1003A0001649086016490860164908601048007828
:1003B000401C0F490870084600780A2801DB00201D
:1003C000087070BD240800406800002000247449B3
:1003D000780000201E0000202BCD9C3A3001002028
:1003E0002400002023DBF93C3C01002054010020C4
:1003F0006A0000207C010020A40100207C00002075
:1004000080000020840000200000204148010020DE
:1004100010B5072000F0C6FF17490870084600789D
:1004200000F04000154908701348007800F02000E3
:10043000134908701048007800F010001149087046
:100440000F48007810B90846007890B1FF212720A6
:1004500001F02AF84FF480710B4800F022F9E120F6
:1004600000F0B8FF4FF48071074800F01CF900203D
:1004700010BD0120FCE70000130000201400002044
:10048000150000201600002000080140704708E019
:100490004FF6FF7101E04A1E91B20029FBDC421EBB
:1004A00090B20028F4D170470549096821F0100185
:1004B000034A11601146096801431160704700004A
:1004C0000020024001460020034A106800F0380076
:1004D00008431060704700000020024008B5032068
:1004E000ADF800008DF8020010208DF80300694679
:1004F000254800F04DF80221234800F0D4F8C02030
:10050000ADF8000003208DF802001C208DF80300D8
:1005100069461D4800F03CF80F20ADF800000320AC
:100520008DF8020018208DF803006946174800F086
:100530002FF84FF4C060ADF8000003208DF80200E2
:1005400018208DF803006946104800F021F80420B7
:10055000ADF8000002208DF8020010208DF8030095
:100560006946094800F014F84FF48070ADF80000B7
:1005700003208DF8020010208DF80300694603481F
:1005800000F006F808BD0000000C01400008014022
:100590002DE9F0410246002500260020002300241A
:1005A000002791F803C00CF00F0591F803C01CF070
:1005B000100F03D091F802C04CEA050591F800C075
:1005C000BCF1000F31D0146800202BE04FF0010C7B
:1005D0000CFA00F3B1F800C00CEA03069E4220D1E9
:1005E00083004FF00F0C0CFA03F7BC4305FA03FC31
:1005F0004CEA040491F803C0BCF1280F06D14FF077
:10060000010C0CFA00FCC2F814C00AE091F803C017
:10061000BCF1480F05D14FF0010C0CFA00FCC2F8F8
:1006200010C0401C0828D1D31460B1F800C0BCF140
:10063000FF0F34DD546800202EE000F1080C4FF06D
:10064000010808FA0CF3B1F800C00CEA03069E4258
:1006500021D183004FF00F0C0CFA03F7BC4305FACD
:1006600003FC4CEA040491F803C0BCF1280F05D147
:1006700000F1080C08FA0CF8C2F8148091F803C0D5
:10068000BCF1480F07D100F1080C4FF0010808FA3F
:100690000CF8C2F81080401C0828CED35460BDE886
:1006A000F081416170470161704700003EB5002054
:1006B00002900190009002212048FFF7F2FF0020F5
:1006C0001F490870002418E001F0CAF81D48B0F96D
:1006D00000000299084402901A48B0F902000199FA
:1006E000084401901748B0F90400009908440090AC
:1006F0000120FFF7CCFE601CC4B2052CE4DB052111
:10070000029890FBF1F00290019890FBF1F00190BB
:10071000009890FBF1F00090029800B20A4908801E
:10072000019800B24880009800B2888001200449F6
:10073000087002210148FFF7B6FF3EBD000C0140E2
:100740001C000020240000207200002000BFFEE7F3
:1007500021B1028842F48062028004E002884FF6F0
:10076000FF331A400280704770B50246002400250E
:1007700000230020958A138B1B0445EA030626F00C
:100780007F4404EA01068E4201D1012000E00020EE
:1007900070BD21B1028842F00102028004E00288AB
:1007A0004FF6FE731A400280704700001FB500200C
:1007B000ADF804004BF6FF70ADF80600A020ADF8D0
:1007C00008004FF48060ADF80A000001ADF80C009D
:1007D0000948009000210948FFF7DBFF69460748F8
:1007E00000F044F801210548FFF7B2FF012103485A
:1007F000FFF7CFFF1FBD0000801A06000054004025
:1008000021B1028842F48072028004E002884FF62F
:10081000FF631A400280704721B1028842F40072DF
:10082000028004E002884FF6FF531A4002807047AE
:100830000CB50246002000230193009300920B0F99
:10084000019321F07F41019B1BB1009B1433009366
:1008500003E0090C009B18330093009B1B680B42BC
:1008600001D0012000E000200CBD00002DE9F04384
:1008700085B004460D460026B1460427DFF8CC803B
:10088000A6884FF6C0700640684600F035FFDDF8D8
:1008900008802F48B8FBF0F01FFA80F946EA0906F5
:1008A000A68020884FF6FE71084020800026294946
:1008B000286888420CD828684000B8FBF0F087B25E
:1008C000042F00DA04273E4309F10100208427E0C9
:1008D000E888A0F53F41FF3906D1286800EB4000C9
:1008E000B8FBF0F087B209E0286800EBC00101EB2B
:1008F0000010B8FBF0F087B247F480473805000DD0
:1009000001D147F0010747F4004006434FF49670C9
:1009100009FB00F04FF47A7190FBF1F0401C208449
:10092000A683208840F00100208026884FF6F5300D
:100930000640A8886989084306432680A889298932
:100940000843208105B0BDE8F083000000127A0062
:1009500040420F00A08601000146088AC0B27047DD
:1009600012B141F0010102E04FF6FE73194001821D
:10097000704701827047000070B504460E46154668
:1009800001211948FFF73CFF00BF18491648FFF73F
:10099000EBFE0028F9D0002221461348FFF7E0FFC4
:1009A00000BF13491048FFF7DFFE0028F9D0314699
:1009B0000D48FFF7DEFF00BF0D49891C0A48FFF70D
:1009C000D3FE0028F8D029460748FFF7D2FF00BF22
:1009D0000749891C0448FFF7C7FE0028F8D0012109
:1009E0000148FFF719FF70BD0054004001000300EB
:1009F0008200070008B5C020ADF8000003208DF884
:100A0000020010208DF8030069461048FFF7C0FD72
:100A100040210E48FFF745FE80210C48FFF741FEBC
:100A200040210A48FFF73FFE80210848FFF73BFEC0
:100A3000C020ADF8000003208DF802001C208DF8C6
:100A4000030069460148FFF7A3FD08BD000C014003
:100A500010B500226B21D020FFF78EFF072219214D
:100A6000D020FFF789FF04221A21D020FFF784FF4E
:100A700010221B21D020FFF77FFF08221C21D0204D
:100A8000FFF77AFF10BD00002DE9F04106460F4642
:100A900014461D4600BF4FF400313348FFF7C8FE2F
:100AA0000028F8D101213048FFF7AAFE00BF2F49E6
:100AB0002D48FFF759FE0028F9D0002231462A4878
:100AC000FFF74EFF00BF2A492748FFF74DFE0028D9
:100AD000F9D001212448FFF75CFE39462248FFF790
:100AE00048FF00BF2249891C1F48FFF73DFE002830
:100AF000F8D001211C48FFF783FE00BF1B491A48AC
:100B0000FFF732FE0028F9D0012231461648FFF7E0
:100B100027FF00BF1549491C1348FFF725FE002891
:100B2000F8D014E000BF11493F310F48FFF71CFE19
:100B30000028F8D00C48FFF70FFF2870022C03D1D3
:100B400000210948FFF704FE6D1C601EC4B2002C92
:100B5000E8D101210448FFF7FBFD01210248FFF71E
:100B60005BFEBDE8F081000000540040010003007E
:100B7000820007000FB5A7B0279802F081FBFE4A5C
:100B8000FE4BCDE90A0102F0A1F8CDE90C0101F01C
:100B90001BFE2790289802F073FBF74AF74BCDE92C
:100BA0000A0102F093F8CDE90C0101F00DFE289046
:100BB000299802F065FBF04AF04BCDE90A0102F0FA
:100BC00085F8CDE90C0101F0FFFD2990EC48299949
:100BD000006802F011FD0D90EA482899006802F0C3
:100BE0000BFD0B90E848006880F0004009902799C1
:100BF00002F002FD0A900B9902F05CFE0C900D9938
:100C000002F058FE4FF07C510E9002F0F5FC22905D
:100C1000DB482899006802F0EFFC0D90D94829992B
:100C2000006802F0E9FC0B90D8480168279802F0B0
:100C3000E3FC0A900B9902F04FFB0C900D9902F027
:100C400039FE4FF07C510E9002F0D6FC2190CC483A
:100C50000168279802F0D0FC0D90CB4829990068D4
:100C600002F0CAFC0B90C9482899006802F0C4FC45
:100C70000A900B9902F01EFE0C900D9902F02CFBCD
:100C80004FF07C510E9002F0B7FC2090BD480168F7
:100C9000279802F0B1FC0D90BB482899006802F03B
:100CA000ABFC0B90B9482999006802F0A5FC0A90AA
:100CB0000B9902F011FB0C900D9902F0FBFD4FF027
:100CC0007C510E9002F098FC1F9000212A9802F0AF
:100CD00033FC09D100212C9802F02EFC04D1002114
:100CE0002D9802F029FC7DD02D99084602F084FC55
:100CF0000D902C99084602F07FFC0B902A9908462B
:100D000002F07AFC0A900B9902F0E6FA0C900D9929
:100D100002F0E2FA0E9001F07BFB269026992A98C9
:100D200002F06AFC2A9026992C9802F065FC2C901F
:100D300026992D9802F060FC2D90944801684FF0A0
:100D4000804002F059FC1E908F4801684FF08040AF
:100D500002F052FC1D908B4801684FF0804002F079
:100D60004BFC1C90864801684FF0804002F044FC28
:100D70001B90864801684FF0814002F03DFC1A90BC
:100D8000814801684FF0814002F036FC19907D489F
:100D900001684FF0814002F02FFC18907A480168FA
:100DA0004FF0824002F028FC1790764801684FF01F
:100DB000824002F021FC169074480168006802F03D
:100DC0001BFC159070480168006802F015FC149037
:100DD0006C480168006802F00FFC139068480168D5
:100DE000006800E037E202F007FC12902D990846F7
:100DF00002F002FC0D902C99084602F0FDFB0B90CE
:100E00002A99084602F0F8FB0A900B9902F064FA5E
:100E10000C900D9902F060FA0E9001F0BFFC5C4955
:100E20000860084601682A9802F0C4FA2A905848D7
:100E300001682C9802F0BEFA2C90554801682D9854
:100E400002F0B8FA2D904F4801685048006802F04F
:100E5000D3FB0D904A4801684B48006802F0CCFB78
:100E60000C900D9902F026FD4FF080410E9002F09B
:100E7000C3FB2590424801684248006802F0BCFB71
:100E80000D90414801684148006802F0B5FB0C90A4
:100E90000D9902F021FA4FF080410E9002F0ACFB68
:100EA0002490DDE9141002F005FD0D90139902F075
:100EB00001FD0E90129902F00FFA239024992D98BB
:100EC00002F09AFB0E9023992C9802F095FB0D905E
:100ED0000E9902F0EFFC119023992A9802F08CFBF6
:100EE0000E9025992D9802F087FB0D900E9902F037
:100EF000E1FC109025992C9802F07EFB0E9024992D
:100F00002A9802F079FB0D900E9902F0D3FC0F9015
:100F10000F9802F0B5F921F00041CDE908011098D1
:100F200002F0AEF921F00041CDE90401119802F080
:100F3000A7F921F00041CDE90201DDE9042301F028
:100F400075FCCDE90601DDE9082301F06FFC002204
:100F5000104BCDE90A0101F0B9FECDE90C0101F019
:100F600033FC0D490860084601684FF0804002F0EC
:100F7000A1FC0A49086013E01283C0CAA145C63F1C
:100F8000400000203C0000203800002034000020F9
:100F900090000020000024408C000020640000200D
:100FA0000846006802F06CF9E54AE64BCDE90C0111
:100FB00001F050FE02D2E448E44908602C991D98E3
:100FC00002F01AFB0E9014991A9802F015FB0C907F
:100FD0002A991C9802F010FB0A9013991A9802F0B3
:100FE0000BFB09900A9902F077F90B900C9902F02B
:100FF00073F90D900E9902F05DFCD54908602D99AA
:10100000199802F0F9FA0E901399179802F0F4FA71
:101010000C901499179802F0EFFA0A902C991E98E8
:1010200002F0EAFA07904FF08140159902F0E4FAD5
:101030000390C8480168039802F0DEFA05902A99E7
:101040001B9802F0D9FA03901299199802F0D4FA79
:101050000290039902F02EFC0490059902F03CF9ED
:101060000690079902F026FC0890199902F022FCDC
:1010700009900A9902F030F90B900C9902F02CF9C2
:101080000D900E9902F028F9B34908602D9918982F
:1010900002F0B2FA0E901399169802F0ADFA0C9085
:1010A0001499169802F0A8FA0A902C991B9802F04D
:1010B000A3FA07901299189802F09EFA05902A99BF
:1010C0001E9802F099FA03904FF08140159902F0B2
:1010D00093FA0190A1480168019802F08DFA0290FC
:1010E000039902F0F9F80490059902F0F5F80690DA
:1010F000079902F0DFFB0890189902F0DBFB0990DA
:101100000A9902F0E9F80B900C9902F0E5F80D90BD
:101110000E9902F0E1F8924908602C991C9802F0AF
:101120006BFA0E904FF08140139902F065FA0A9025
:101130008C4801680A9802F05FFA0C902A991D9871
:1011400002F05AFA0A904FF08140149902F054FAD2
:10115000089084480168089802F04EFA09900A99AC
:1011600002F0A8FB0B900C9902F0B6F80D900E99C6
:1011700002F0A0FB7C49086008460168006802F0A4
:101180003BFA0D9076480168006802F035FA0B9042
:1011900071480168006802F02FFA09906C480168F4
:1011A000006802F029FA0890099902F095F80A906F
:1011B0000B9902F091F80C900D9902F08DF80E90B9
:1011C00001F026F9269062482699006802F014FA88
:1011D0005F49086060482699006802F00DFA5E4990
:1011E00008605F482699006802F006FA5C490860CA
:1011F0005D482699006802F0FFF95B490860544891
:1012000001685248006802F0F7F90E90229902F046
:10121000BFFA2290504801684C48006802F0ECF98F
:101220000E90219902F0B4FA21904D480168474888
:10123000006802F0E1F90E90209902F0A9FA2090DE
:10124000494801684148006802F0D6F90E901F999C
:1012500002F09EFA1F904549229802F0CDF90E90B7
:10126000434801680E9802F037F8414908603F4949
:10127000219802F0C1F90E90364801680E9802F0EC
:101280002BF8344908603949209802F0B5F90E90DE
:10129000324801680E9802F01FF83049086033495F
:1012A0001F9802F0A9F90E902E4801680E9802F0DE
:1012B00013F82C49086008460168006802F09CF9A0
:1012C0000D9026480168006802F096F90B902148BD
:1012D0000168006802F090F90990254801680068EB
:1012E00002F08AF90890099901F0F6FF0A900B992B
:1012F00001F0F2FF0C900D9901F0EEFF0E9001F05D
:1013000087F826901A482699006802F075F918495E
:10131000086010482699006802F06EF90D490860CF
:101320000E482699006802F067F90C4908600D48DC
:101330002699006802F060F90A4908602BB000BDE8
:101340009A9999999999C93FCDCC4C3E6400002057
:101350009400002038000020980000203C0000206D
:101360009C00002040000020A00000206F12033AE3
:101370003400002000BFFEE77047000010B50421D4
:101380000648FFF78EF94FF480710548FFF78BF997
:1013900020210348FFF785F910BD0000000C014033
:1013A0000008014070B504464FF480710848FFF70B
:1013B00078F9204600F00EF8FF2000F00BF8054603
:1013C0004FF480710248FFF76EF9284670BD0000A7
:1013D0000008014070B50546002407E0601CC4B257
:1013E00041F24460844201DD002070BD02210F48BB
:1013F00000F01EFB0028F1D029460C4800F024FB29
:10140000002400BF0121094800F012FB0028F9D098
:10141000601CC4B241F24460844201DD0020E4E774
:10142000024800F00EFBC0B2DFE7000000300140D0
:1014300010B50446FFF7A2FF04211948FFF731F960
:1014400005221849302000F047F8052215492A20C6
:1014500000F042F820222146A02000F03DF80121B2
:10146000212000F021F80121222000F01DF80121A7
:10147000242000F019F84021252000F015F807215C
:10148000262000F011F80E21202000F00DF8042194
:101490000348FFF708F91E2000F084FF10BD00008C
:1014A000000C01400600002070B505460C464FF4C4
:1014B00080710848FFF7F5F82846FFF78BFF0646CE
:1014C0002046FFF787FF4FF480710248FFF7EBF8E3
:1014D000304670BD000801402DE9F04107460C463A
:1014E00015464FF480710C48FFF7DBF83846FFF7DC
:1014F00071FF8046002605E014F8010BFFF76AFF34
:10150000701CC6B2AE42F7DB4FF480710248FFF7A1
:10151000CAF84046BDE8F0810008014070B50021DE
:1015200000230F22C4780CB3164C246804F4E06442
:10153000C4F5E064210AC1F10403CA40447804FA06
:1015400003F184781440214309010F4C0678A1551A
:10155000047804F01F050124AC4005786D114FF0AC
:10156000E02606EB8505C5F8004109E0047804F0A3
:101570001F050124AC40054D0678761145F826403C
:1015800070BD00000CED00E000E400E080E100E050
:1015900002490143024A1160704700000000FA0549
:1015A0000CED00E0024A0A400243024B1A60704709
:1015B00080FFFF1F08ED00E010B5044B1860596074
:1015C0009A60034B014CE36210BD00004003002011
:1015D0000000FA4310B50A4B18600A4B1860084B1C
:1015E0005960084B5960064B9A60064B9A60064B4F
:1015F000064C2360064B024CE362024CE36210BDD2
:10160000D8010020200200200AD7A33BAC00002014
:101610000000A04110B5094B1860094B1860074B3A
:101620005960074B5960054B9A60054B9A60054B12
:10163000024CE362024CE36210BD0000B0020020E5
:10164000F80200200000FA437047000029B1064A62
:10165000D2690243044BDA6104E0034AD26982434F
:10166000014BDA61704700000010024029B1064AC0
:1016700092690243044B9A6104E0034A92698243EF
:10168000014B9A61704700000010024010B5102015
:10169000FEF70AFF0220FEF715FF012000F0A2F876
:1016A0004FF46011002000F0C1F8012000F0B8F8FC
:1016B000022000F0C9F8002000F088F84FF4A06084
:1016C00000F096F84FF4A06000F09EF80121480564
:1016D000FFF7BCFF01210820FFF7C8FF01210846E2
:1016E000FFF7C4FF01210420FFF7C0FF0121880399
:1016F000FFF7BCFF10BD000030B500210022002420
:1017000000232D4D6D6805F00C0121B1042905D091
:10171000082923D105E0294D056022E0274D056009
:101720001FE0254D6D6805F47012234D6D6805F4BA
:101730008034022505EB92421CB9214D55430560CA
:101740000BE01D4D6D6815F4003F03D01C4D554353
:10175000056002E0194D5543056002E0174D056034
:1017600000BF00BF144D6D6805F0F0010909154D6B
:101770006B5C0568DD4045600F4D6D6805F4E06108
:10178000090A104D6B5C4568DD4085600A4D6D6847
:1017900005F46051C90A0B4D6B5C4568DD40C560BE
:1017A000054D6D6805F44041890B074D6B5CC568BC
:1017B000B5FBF3F5056130BD0010024000127A0060
:1017C00000093D00C8000020D8000020014600208C
:1017D000034A506820F0F000084350607047000052
:1017E00000100240014908607047000000004242BA
:1017F00001460020034A506820F4E060084350602E
:10180000704700000010024001460020034A506863
:1018100020F4605040EAC100506070470010024060
:10182000014908667047000000004242024600205D
:10183000044B586820F47C1042EA01031843014B22
:10184000586070470010024001460020034A50686B
:1018500020F0030008435060704700000010024071
:1018600070B586B055480088ADF8000053484088F0
:10187000ADF8020051488088ADF8040002AB0E229A
:101880003B21D020FFF700F99DF809009DF80810D2
:1018900040EA012000B24A4948809DF80B009DF8BB
:1018A0000A1040EA012000B2454908809DF80D0069
:1018B0009DF80C1040EA012000B2414988809DF853
:1018C00011009DF8101040EA012000B23B49488009
:1018D0009DF813009DF8121040EA012000B237492C
:1018E00008809DF815009DF8141040EA012000B210
:1018F000324988803348007878B3314800883249CB
:101900000988401A00B22E490880084640882E49AE
:101910004988401A00B22A494880084680882A49E6
:101920008988401A00B226498880244800882749BF
:101930000988401A00B22149088008464088234996
:101940004988401A00B21D494880084680881F49CE
:101950008988401A00B219498880BDF90030174DB6
:10196000B5F900505A1B01D4134601E0C2F100033F
:10197000BDF90250114EB6F90260A91B01D40D4603
:1019800001E0C1F100051D44BDF904300B4EB6F96C
:101990000460981B01D4034600E043422B449CB2F0
:1019A0000F2C05DA0A480088401C0949088002E02B
:1019B00000200749088006B070BD00002400002008
:1019C0001E0000201C0000206C000020720000207F
:1019D0002A00002010B5044604210848FEF761FEE5
:1019E00020222146A020FFF777FD04210348FEF7BF
:1019F0005AFE052000F0D6FC10BD0000000C01408E
:101A000010B50448FFF7E6FF00BFFEF701FD002810
:101A1000FBD110BDFC00002021B1028842F0400241
:101A2000028004E002884FF6BF731A4002807047BC
:101A30000246002013890B4201D0012000E0002063
:101A400070470146888970478181704710B5002230
:101A5000028802F441520B884C8823438C8823432C
:101A6000CC8823430C8923434C8923438C8923430B
:101A7000CC8923431A430280838B4FF2FF742340A7
:101A800083830B8A038210BD08B5012141F2040053
:101A9000FFF7ECFDE020ADF8000018208DF8030002
:101AA00003208DF8020069461048FEF771FDE02121
:101AB0000E48FEF7F8FD00200D4908804FF48270B3
:101AC000488000208880C88008814FF400704881D9
:101AD00000208881C881072008820648FFF7B6FFEA
:101AE00001210448FFF798FF08BD000000080140ED
:101AF0001C010020003001407047000010B5114863
:101B00004068114908600F48006880F00040486054
:101B10000E48006888600E480068C8600C4841683C
:101B2000094801610A4881680748416109484068DD
:101B300005498861074801680348C161FFF760FFF4
:101B400010BD000048010020FC0000208C00002097
:101B50003C010020CC01002010B500F001F810BDC0
:101B60000CB50020019000903248006840F48030AD
:101B70003049086000BF2F48006800F40030009032
:101B80000198401C0190009818B90198B0F5A06F19
:101B9000F1D12848006810F4003F02D001200090E5
:101BA00001E0002000900098012842D122480068FE
:101BB00040F01000204908600846006820F003004B
:101BC00008600846006840F0020008601948406854
:101BD000184948600846406848600846406840F434
:101BE000806048600846406820F47C1048600846E1
:101BF000406840F4E81048600846006840F0807093
:101C0000086000BF0B48006810F0007FFAD0094858
:101C1000406820F00300074948600846406840F0EB
:101C20000200486000BF0348406800F00C0008282C
:101C3000F9D10CBD0010024000200240A12005494E
:101C400008800020488040F2A4608880012002497A
:101C5000087070476C0000201C00002070470000D6
:101C600010B51348006840F00100114908600846AB
:101C70004068104908400E494860084600680E490F
:101C800008400B4908600846006820F4802008607E
:101C90000846406820F4FE0048604FF41F0088604A
:101CA000FFF75AFF4FF000600449086010BD0000C4
:101CB000001002400000FFF8FFFFF6FE08ED00E014
:101CC00010B501210220FFF7C1FC4FF4A060FFF71F
:101CD0005FFC00214FF00060FFF764FC1D201449F9
:101CE000087003204870022088700120C8700846E0
:101CF000FFF714FC41F288300E4908801F20091FAD
:101D000008800C482038008840F00100094920393B
:101D100008800846008840F04000088005482C38BC
:101D2000008840F0010003492C39088010BD0000F4
:101D30002D0000202C0400401CB50121204800F09B
:101D400069F8FFF78DFDFEF78BFA1E4880681D4984
:101D500009681C4CCDE9001063681B4CA26821681F
:101D60006068FEF707FF194A111F081F00F0D6FB35
:101D700017480088C8280ADD00201649087016494F
:101D8000087016480088401C1449088009E0104873
:101D90000088401C0E49088001200E4908700E4939
:101DA0000870FFF7ABFE0E480088642807DD0A487C
:101DB000007820B9FEF77AFC0020094908801CBD94
:101DC00000040040480100203C010020D401002014
:101DD0000000002002000020A800002004000020D5
:101DE0002A00002010B501210420FFF72FFC44F643
:101DF0002060074908803F20091F088004482C38CC
:101E0000008840F0010002492C39088010BD000014
:101E10002C080040CA4302827047000010B501211F
:101E20000846FFF713FC4FF47A70C106888501203D
:101E300008858007008B40F0600008830846008B0F
:101E400040F0080008830846008B40F4C040088337
:101E50000846008B40F4006008830846808B40F001
:101E6000600088830846808B40F00800888308461D
:101E7000808B40F4C04088830846808B40F400602B
:101E800088830846008C41F21111084389070884B1
:101E90000846008840F001000880002088860887F6
:101EA00088870149088010BD4000004000BFFEE760
:101EB000490050EAC12018BF04204A0D18BF40F065
:101EC000010040F2FF72B2EB515F08BF40F0020028
:101ED000012808BF052070472DE9F0414F1E00EB97
:101EE000C7010446D1E9000115461E4637F0060237
:101EF0000DD02A46334600F0E9FE7F1E04EBC703EF
:101F0000D3E9002300F092FC37F00602F1D1022F52
:101F100025D0042F13D0062F18BFBDE8F0812A4624
:101F2000334600F0D3FED4E90A2300F07FFC2A46B2
:101F3000334600F0CBFED4E9082300F077FC2A46B4
:101F4000334600F0C3FED4E9062300F06FFC2A46B6
:101F5000334600F0BBFED4E9042300F067FC2A46B8
:101F6000334600F0B3FED4E9022300F05FFC2A46BA
:101F7000334600F0ABFED4E90023BDE8F04100F0A9
:101F800055BC0000024A0020110701F03ABD0000D4
:101F900001FDFFFF2DE9F84F04460D4621F00040FA
:101FA00000917449814213DC7349884201DC08D1F5
:101FB0003CB120462946BDE8F84F4FF0010201F040
:101FC00020BD6E48002DCCBF6D496E49BDE8F88F2D
:101FD0006D49814211DD6D498142D8BF4FF0FF3616
:101FE0006DDD20462946FFF763FF042808BFFFF791
:101FF000C9FF20462946BDE8F88F6549654F25F0A1
:102000000045814233DD6449814219DD00263246B4
:102010004FF080432046294600F008FC80468A465F
:1020200001222046294601F0ECFC00223B4601F04B
:102030003DF84246534600F0B5FC04460D463EE0EE
:1020400001260022BA463B462046294600F0EEFB18
:1020500080460F46002253462046294601F026F8C6
:1020600042463B4600F09EFC04460D4627E04B49A5
:1020700081421BDDDFF828810226002243462046EC
:10208000294600F023FE00223B4600F0CFFB074626
:102090008A46002243462046294601F007F83A4680
:1020A000534600F07FFC04460D4608E00326224616
:1020B0002B4600203B4900F075FC04460D462246A5
:1020C0002B461046194600F001FE8B46824602461A
:1020D0000B4600F0FBFD07460246334888460B4698
:1020E00006217844FFF7F8FE52465B4600F0EEFD0D
:1020F00082462E488B463A46434605217844FFF7F0
:10210000EBFE3A46434600F0E1FD02460B46002E48
:10211000504659460CDA00F089FB22462B4600F067
:10212000D5FD01B022462B46BDE8F04F00F0CCBEF5
:1021300000F07CFB22462B4600F0C8FD1C4A7A4486
:1021400002EBC603D3E9002300F0B0FF22462B4682
:1021500000F0ACFF174A7A4402EBC603D3E9002330
:1021600000F0B2FE009A002AB8BF81F00041BDE83D
:10217000F88F0000000010440000F07F182D445438
:10218000FB21F93FFB21F9BF0000DC3F0000203EAE
:102190000000F33F0000F03F0000E63F00800340F6
:1021A0000000F83F0000F0BF121A0000D019000034
:1021B0006E190000361900002DE9F04D9446CCF15F
:1021C000000423F000464CEA0404524F46EAD4745B
:1021D0009A46884621F00042BC4206D8454240EA71
:1021E000050442EAD474BC4204D9BDE8F04D62460D
:1021F00000F01CBBAAF14055A5F17F6555EA0C041F
:102200000BD0022404EAAA74434DDFF810E144EA3B
:10221000D87452EA000B04D00CE0BDE8F04DFFF793
:10222000B9BE002C14BF012CBDE8F08D022C30D0BB
:10223000032C32D056EA0C0B0AD0BE4220D1BA424F
:1022400009D126F0804622F080423346114617E03D
:1022500000291ADB25E0DFF8C8B0FB44002C04BFDE
:10226000DBE90001BDE8F08D012C02BFDBE90001D4
:1022700081F00041BDE8F08D022C0AD0032C0CD077
:10228000BA4212D1B8F1000F0BDA23482549BDE854
:10229000F08D28462449BDE8F08D28467146BDE8FA
:1022A000F08D1D482149BDE8F08D921B12153C2A86
:1022B000C4BF19481D490EDCBAF1000FBEBF12F1B0
:1022C0003C0F0020014606DB624600F06BFB21F06C
:1022D0000041FFF75FFE002C08BFBDE8F08D012C28
:1022E00004BF81F00041BDE8F08D114A114B022C72
:1022F00007D000F0DBFE2A46BDE8F04D0A4B00F0A7
:10230000D5BE00F0D3FE2A46BDE8F04D064B00F0E6
:10231000DBBD00000000F07F182D4454FB2109C0F4
:10232000CA180000FB21F9BFFB210940FB21F93F3E
:10233000075C143326A6A13C01464FF0E022126947
:1023400022F004024FF0E0231A610822134B1A70A6
:102350001A46127802EB4203C3EBC2124FF6FF7328
:1023600003EAC2020E4B1A801A4612884A434FF003
:10237000E0235A6100229A6101221A6100BF4FF0E6
:10238000E022106910F0010F02D010F4803FF6D067
:1023900000224FF0E0231A619A6170471800002074
:1023A0001A00002001464FF0E022126922F00402D8
:1023B0004FF0E0231A610822134B1A701A46127864
:1023C00002EB4203C3EBC2124FF6FF7303EAC202F1
:1023D0000E4B1A800C4A12784A434FF0E0235A61A0
:1023E00000229A6101221A6100BF4FF0E0221069B9
:1023F00010F0010F02D010F4803FF6D000224FF011
:10240000E0231A619A617047180000201A0000202A
:102410002DE9F04704464FF07C51204601F0ECF8DE
:10242000814625462E460C48A0EB660635462946D1
:10243000484601F0E1F88246294601F0DDF8804681
:102440004FF07F5101F0A4F90746294601F0D4F876
:1024500005462846BDE8F087DF59375FFFF716F9D4
:102460003220FFF769FFFEF7A1F9FEF737F8FFF713
:102470000BFBFEF783FF2148FEF7DAFFFFF7CEFCE8
:10248000FEF7B8FAFEF7B6FAFEF7E2FAFFF7D6FB68
:10249000FFF716FCFFF7A6FC194A00211948FFF7C1
:1024A00099F8194A00211948FFF7B4F84FF07C5207
:1024B00000211748FFF780F81EE001211548FEF7BC
:1024C000F0F80120FDF7E3FF01211248FEF7EBF8D9
:1024D0000820FDF7DCFF1048007868B102210D48A4
:1024E000FEF7DFF80120FDF7D2FF02210948FEF7D1
:1024F000DAF80120FDF7CBFFDFE70000DC00002069
:102500009A99193F0000C0408FC2F53D000040403D
:102510000000C841000C0140020000202DE9F04FEE
:102520008FB004460D46164684480168844800680A
:1025300001F062F88046834801688348006801F032
:102540005BF841460D9001F0B5F907464FF0804128
:1025500001F052F881467B4801687848006801F034
:102560004BF88046784801687548006801F044F8E7
:1025700041460D9000F0B0FE07464FF0804101F05B
:102580003BF882466F480168006801F035F80D900D
:102590006A480168006801F02FF80C906A480168E9
:1025A000006801F029F80B9065480168006801F0A7
:1025B00023F80A900B9901F07DF980460C9901F0FF
:1025C00079F907460D9900F087FE83465E48016859
:1025D0004FF0804001F010F803905B4801680398C9
:1025E00001F00AF80490564801684FF0804001F06D
:1025F00003F8039052480168039800F0FDFF8046FD
:10260000049900F069FE4FF07E51059001F052F9F7
:10261000074600F035FECDE90801494801684FF052
:10262000804000F0E9FF049046480168049800F0FB
:10263000E3FF8046444801684FF0804000F0DCFF33
:1026400004903E480168049800F0D6FF414605908A
:1026500001F030F9074600F013FECDE90601DDE98F
:102660000823FFF7A9FD4FF06632384BCDE90A0188
:1026700000F02CFBCDE90C0100F0A6F830605946C3
:10268000584600F0B9FF51460290504600F0B4FFA2
:102690000190029900F020FE039000F0F1FD074642
:1026A00000F056F8CDE90601484600F0E9FDCDE915
:1026B0000401DDE9062300F075F9CDE90801FFF713
:1026C00069FC4FF06632214BCDE90A0100F0FEFAB9
:1026D000CDE90C0100F078F828605946584600F022
:1026E0008BFF49460290484600F086FF0190029910
:1026F00000F0F2FD039000F0C3FDCDE9040100F00D
:1027000027F8CDE90601504600F0BAFD0746DDE99D
:10271000062300F047F9CDE90801FFF73BFC4FF035
:1027200066320A4BCDE90A0100F0D0FACDE90C017E
:1027300000F04AF820600FB0BDE8F08F3C000020A8
:1027400034000020400000203800002066A64C40E5
:102750002DE9F04106460F4600F0C2FB04000D468D
:1027600018BF0120284320F00040C0F17F6000F135
:10277000E040C00F0ED0301C18BF0120384320F0BD
:102780000040C0F17F6000F1E040C00F04BF0120B5
:10279000FDF722FD20462946BDE8F08170B50546CB
:1027A00001F000F8044620F00040C0F1FF40C00FE7
:1027B00008D025F00040C0F1FF40C00F04BF012049
:1027C000FDF70AFD204670BD21F00042A2F16052E3
:1027D000B2F5801F01F0004328BFD2F17F6C0BD906
:1027E0005FEA001C43EAC20242EB507018BF704718
:1027F00028BF20F001007047B2F5801FBCBF18460B
:1028000070474FEA410C1CF5001F02D2084600F049
:10281000BABF70B500F004FB00000089FFF7F6BFF7
:102820004FF00040A0F580007047000010B591EA1D
:10283000030F48BF83F0004300F14084841A71EB1A
:10284000030C05D2121943EB0C03001B61EB0C01C6
:10285000DFF824E14FEA1154A4EB135C1EEA430FA6
:1028600018BF9EEA445F73D023EA0E03DCF1200E0A
:1028700021EA045143F4801332D322FA0CFE10EB08
:102880000E0023FA0CFE41EB0E01CCF1200E03FAF0
:102890000EFE10EB0E0051F10001B1F5801FCCF1DE
:1028A000200E32D201EB045112FA0EF2BDE81040B4
:1028B00058BF7047401C38BF5FEA420218BF7047DC
:1028C000002814BF20F0010041F100014FEA41034C
:1028D00013F5001F38BF7047A1F1C04100F0EEBAF8
:1028E000012A43EB0302ACF1200CDCF11F0E32BFD6
:1028F0004FF0000E23FA0CF310EB030041EB0451F0
:10290000B4EB115FD0D0A1EB045101F5801149085F
:102910005FEA300001EB04510ED350F1000038BFE4
:1029200012FA0EFE08D1BDE81040C9E7401C38BFBE
:102930005FEA4202CAD1C3E7BDE810404FEA410353
:1029400013F5001F38BF7047A1F1C04100F0B6BABF
:102950009EEA445F08D011EA5E0FBDE8104004BF54
:1029600001F0004100207047BDE8104070B500F054
:1029700057FA00BF64FBBE3E0000E0FF02494FF083
:10298000000001F00CB800BF0000F87F491058BFEC
:10299000C1F140415B1058BFC3F140438B42EFF39C
:1029A000008070472DE9C04130B4DFF8A0C23CEA96
:1029B000111418BF3CEA131400F0EC8081EA0305FF
:1029C0001CEA111444EAD57418BF1CEA131500F070
:1029D000C780A4EB05044FF0004545EAC12145EA54
:1029E000C32341EA505143EA525304F17F749942A0
:1029F00004F500344FEAC0204FEAC22208BF9042DB
:102A000000F09C804FEA13650FF24016765D4FEAA6
:102A1000134506FB05F7C7F1807706FB07F74FEA7A
:102A2000D737A7FB03687642C8F58038A7FB06CEE8
:102A300038BFA8F1010807FB08E64FF0000EA6FB1F
:102A4000028CE6FB03CEDCF1000CCEF1004E38BF69
:102A5000AEF1010EA6FB0C584FF000074FF0000539
:102A6000E6FB0E87A1FB08C6A0FB07CE16EB0E0601
:102A700045F10005E1FB076515F1E04E7EBFA4F5C9
:102A800080345FEA46066D4116F1800745F1000586
:102A90004FEA17274FEA066647EA0567A6F1DE46C2
:102AA000B6F1805F4FEA15251FD9384624F0010C96
:102AB00005EBC471BCF1FE6F01EB0C1102D8F0BC48
:102AC000BDE8008124425CBF01F5801E9EEAC47F00
:102AD00002D4F0BCBDE80081244238D4F0BCA1F19E
:102AE000C041BDE8004100F0E9B94FEAD22242EA14
:102AF00043524FEAD323A7FB02864FEAD02040EA95
:102B0000415007FB03661EEA0E0F4FEAD12105FB79
:102B1000026658BFA6EB0056B6EB00564FEA520EBF
:102B20004EEAC37E18EB0E0E56EB530EBDD518EBD6
:102B300002085E417F1C55F10005B6E74FF4801591
:102B40004FF000074FF000064FF00008ADE7F0BC73
:102B50004FF0000001F1C04101F00041BDE80081EB
:102B600011EA0C1F0CEA131500D00CE013EA0C1F3D
:102B700000F025804FF00000F0BC81EA030101F075
:102B80000041BDE80081F0BCBDE8004181EA0301DD
:102B900000F094B9F0BCBDE8004170B500F040F918
:102BA000097EFC3E00F007B881EA03014FF0000007
:102BB00001F00041704781EA030100F07FB9F0BCE9
:102BC000BDE800414FF0000021497047FFFDFBF9CF
:102BD000F7F5F4F2F0EEEDEBE9E8E6E4E3E1E0DE50
:102BE000DDDBDAD8D7D5D4D3D1D0CFCDCCCBCAC8C2
:102BF000C7C6C5C4C2C1C0BFBEBDBCBBBAB9B8B7E9
:102C0000B6B5B4B3B2B1B0AFAEADACABAAA9A8A8DB
:102C1000A7A6A5A4A3A3A2A1A09F9F9E9D9C9C9BA9
:102C20009A99999897979695959493939291919054
:102C30008F8F8E8E8D8C8C8B8B8A898988888787E5
:102C40008685858484838382828181800000FF075A
:102C50000000F87F51EA030C17D41CF5801F58BF01
:102C6000BCF5801F00F10680994218BF704708BF6D
:102C70009042704707D711F5801F58BF13F5801F8A
:102C800019D499427047894270471CF5801F08D5B6
:102C9000BCF5801FF7D58B4218BF704708BF824232
:102CA00070474FF4001C1CEB410F38BF1CEB430F67
:102CB00001D28B42704770B500F0B2F892244900FF
:102CC0004FF000514FF08053FFF760BEDFF848C16E
:102CD00070B51CEA111E1EBF1CEA13159EEA0C0FEC
:102CE00095EA0C0F00F06F8081EA030423EA4C138D
:102CF0004EEAD47E21EA4C1141F4801143F4801352
:102D0000AE44A1FB024CA0FB0365AEF17F7E3619F9
:102D100055EB0C05A1FB034C4CF10003A0FB021C7E
:102D200016EB0C06654153F10003094218BF46F04B
:102D3000010613F4007F0BD14FEA03314FEA05304F
:102D4000340341EA155140EA16506FF003020AE0DD
:102D50004FEAC3214FEAC520F40241EA555140EA47
:102D600056506FF0020202EB2E4201EB025585EA4B
:102D7000CE710AD05FEA440C18BF24F0004450F131
:102D8000000041F1000120EAD47040F2FE7C62456F
:102D900000D270BDA84214BF4FF080444FF04044B1
:102DA000002E08BF0024BEF1806FA8BFA1F1C04172
:102DB000BDE8704080F282804FF0000001F1C04118
:102DC00001F0004170479EEA0C0F0CEA131518BF82
:102DD00095EA0C0F06D04FF0000081EA030E0EF0CA
:102DE000004170BD00F01CF88900013E00F007B8FA
:102DF00000F009B84FEA430C5FEA5C5C08D081EA56
:102E0000030100F05BB84FEA410C5FEA5C5CF6D16D
:102E10004FF00000014970470000FF070000F87FF5
:102E20000EF1020E2EF0030E5EF8046B364205D44E
:102E3000012A43EB030515F5001F12D8012841EBC9
:102E4000010C1CF5001F0CD80ED14FEAD17C15F5F2
:102E5000001F0CEB4C0C0CF1020C08BF4CEBD37CAC
:102E600004E04FF0080C01E04FEAD37C0CEB4C057A
:102E700026FA05F606F00706B6F1040C06D20EEBAC
:102E8000860CBDE870404CF0010C6047DFE80CF0A8
:102E9000090B02024FF000414FF00000A1F50021A4
:102EA00070BD19461046012851EB010418BFD4F536
:102EB000001484BF002001F0004170BD0808A0F597
:102EC00000114FEA3101704791EA030F10B581F00C
:102ED00000413FF5B3AC83F0004300F0EFB80000D1
:102EE0002DE9F04101F5801CBCF5001FC0F2C38044
:102EF0004FEA115C21EA0C510CF1FD0C41F48011F8
:102F00005FEA5C0C0CF5C07C01D3400049413DA454
:102F1000890241EA905187028E0E0A0CA45D04FBDF
:102F200004F602FB06F6C6F14046A4FB0662F60D67
:102F300046EA422606FB06F4A4FB01235242C3F1F3
:102F4000404338BF5B1EA6FB02420024E6FB03247D
:102F5000D20B42EA4446A6FB0623A1FB02E2A3FBF6
:102F600007E4A4184FF0000252F10002E3FB014213
:102F70006442C2F1404E38BFAEF1010EA6FB0423FD
:102F80004FF00002E6FB0E32A2FB03464FF00004B6
:102F9000B61954F10004E2FB0264A1FB06E6A4FBAF
:102FA00007E816EB08064FF0000858F10008E4FBAC
:102FB00001687642C8F1405838BFA8F10108A2FB69
:102FC00006E4A3FB08E52D194FF0000454F10004BA
:102FD000E2FB0854A1FB05E6A7FB04E818EB060892
:102FE0004FF0000656F10006E1FB048618F12005BB
:102FF00056F10006A809A8F11B08B10908F03F081E
:10300000B8F10A0F40EA86601CD901EB0C51BDE80B
:10301000F08100BFFCF5EEE8E2DDD8D3CFCBC7C32B
:10302000C0BDB9B6B4B1AEACA9A7A5A3A19F9D9BE5
:103030009A9896959392908F8D8C8B8988878685A8
:1030400084838281A0FB006800FB01F208EB420848
:10305000B8EB872807D5341858EB0104D5D5401CA8
:1030600051F10001D1E7341A78EB0104CDD4401EB0
:1030700071F10001C9E75FEA4C0C5FEA9C5C0DD17D
:1030800005D34FF0000001F00041BDE8F081BDE83C
:10309000F04170B5FFF7C4FE6DDBFFBEBDE8F04147
:1030A0004FF00000004970470000F87F10B591EA2A
:1030B000030F48BF83F000433FF5C0AB841A71EBA8
:1030C000030C07D212198CF0004C43EB0C03001BCD
:1030D00061EB0C01DFF8A4E14FEA1154A4EB135C9F
:1030E0001EEA430F18BF9EEA445F00F0B08023EA57
:1030F0006E03524221EA0451C3EB6E0338BF5B1EDC
:10310000DCF1200E25D322FA0CFE10EB0E0043FA60
:103110000CFE41EB0E01CCF1200E03FA0EFE10EB7B
:103120000E0051F10001CCF1200E29D412FA0EF25A
:1031300001EB0451BDE8104058BF7047401C1CBF54
:10314000B2F1004F704700280CBF491C20F001006D
:10315000704712EB020E43EB030218BF4FF0010E53
:103160004EEA4202ACF1200CDCF11E0E54D943FAB7
:103170000CFE10EB0E0051F1FF31CCF11E0ED5D537
:103180000EF1010E12FA0EFE404141EB010101EB7E
:10319000445C5FEA5C5C10D910EBDE7001EB04511B
:1031A00038BFBEF1004FBDE8104018BF704700287F
:1031B0000CBF491C20F00100704730D24FEAD42CDC
:1031C00011F5001124F400641BD0B1FA81F20B3A1E
:1031D000A41AA41ED2F12003914030FA03F319433C
:1031E000904001EBCC71002C01EB0451BDE8104084
:1031F000A8BF704701F1C0414FF0000001F000414D
:103200007047B0FA80F310FA03F100D110BDE41A50
:10321000173C4805C90AE4E701EB045110BD491009
:1032200001EB0451BDE810404FEA300002E04FF0DE
:10323000000170474A0008BF0042F8D0B2F5001FF5
:1032400028BF704701F000414FF0000070479EEA30
:10325000445F07D011EA5E0FBDE8104004BF0021B3
:1032600000207047BDE8104070B5FFF7D9FD00BFE2
:1032700040DFF63E83F00041104670470000E0FF5B
:1032800043004FEAD30C4FEA3C0C43401FBF4007BA
:103290000CF1605113F0FE4F70471CF0006F03D12A
:1032A00000200CF0004170470CF0004343EA5070DE
:1032B00010B540EACC0000F020FA00BF00000092F8
:1032C0004FEA0001FFF7FABD4FF000414FF0000058
:1032D000A1F500217047000090EA010F48BF81F07E
:1032E000004100F1EE82421A3CBF801A89184FEA71
:1032F000D0524FF07F4C1CEA410FA2EBD15318BFC4
:103300009CEA026F00F03B804FF0004C4CEA00203A
:103310004CEA012121FA03FC10EB0C0C1ED202F145
:10332000FF325FEA1C2040EBC25038BF70471CF0F0
:103330007F0F4FEA400C18BFBCF17F4F38BF70477A
:10334000C3F12003994008BF20F00100BCF17F4F7A
:1033500038BF7047A0F1C04000F015BA4FEA3C00FA
:10336000000A40EBC25028BF1CF0FF0F4FEA400C90
:10337000E6D018BFBCF17F4F38BF7047EAE79CEA40
:10338000026F05D010EA5C0F08BF00F000407047E4
:1033900010B500F0B2F900BF64FBBE3E401058BF4C
:1033A000C0F14040491058BFC1F140418142EFF3A4
:1033B000008070474FF47F0C1CEAD0121EBF1CEA3D
:1033C000D11392EA0C0F93EA0C0F00F0858090EA7B
:1033D000010F48BF42F4807240F4000C41F4000039
:1033E0002CF07F4120F07F4000B58142A2EB030228
:1033F0000FF2081CACEB504EC0F100009EF800E04C
:103400004FEA4E0E00FB0EFC38BF49004FEA2C1C61
:1034100002F5FA020CFB0EF34FEACE1E4FEA112C16
:103420004FEAC1210EEB635E42EB22420EFB0CFC25
:103430004FEA1C5300FB03114FEA112C4FEA0131F4
:103440000EFB0CFC4FEADC4C00FB0C11C14228BF08
:1034500009184CEB03335DF804EB10EB410143EB2F
:10346000C250B2F57C0F38BF704729D512F0F00F6B
:103470001CBF00F1C04000F0004070470081828313
:103480008485868788898B8C8D8E8F919293959673
:1034900097999A9C9D9FA0A2A3A5A7A8AAACAEB0FD
:1034A000B2B3B5B7B9BCBEC0C2C5C7C9CCCED1D402
:1034B000D7D9DCDFE2E6E9ECF0F3F7FAFE00000032
:1034C0004FEA400C0CF1807CBCF17E4F28BF704766
:1034D000B0F1C04000F057B990EA010F0CEAD113E7
:1034E00048BF42F48072624538BF634507D213F487
:1034F0007F0F16D080EA010000F00040704710B541
:1035000000F0FBF8097EFC3E00F005B880EA0100FF
:1035100000F00040704780EA010000F0004000F039
:1035200032B912F47F0F04BF0248704780EA0100ED
:1035300000F029B90000C07F50EA010C00F11380AF
:103540001CF5000F58BFBCF5000F01D4884270472E
:1035500007D710F5000F58BF11F5000F15D488429A
:103560007047894270471CF5000F04D5BCF5000F69
:10357000F7D5814270474FF0807C1CEB400F38BF7D
:103580001CEB410F01D28142704710B500F0B5F835
:10359000922449004FF000504FF08051FFF7FEBEDB
:1035A00010F0004148BF4042B0FA80F310FA03F235
:1035B000C3F19D030BD051EAC35101EB1220530616
:1035C00038BF704700F1010008BF20F001007047CC
:1035D000B0FA80F310FA03F2C3F19D030AD0D905C3
:1035E00001EB1220530638BF704700F1010008BFFD
:1035F00020F00100704700004FF47F0C1CEAD0124D
:103600001EBF1CEAD11392EA0C0F93EA0C0F00F0D4
:10361000478090EA010F48BF42F480724FF0004C9F
:103620004CEA00204CEA012102EB0302A0FB01134B
:10363000A2F50002002918BF43F001035B0028BF78
:103640004FEA330342EB22425FEA132C4CEBC250A9
:103650002EBFBCEB436FB2F57C0F70474FEA036C93
:10366000BCF1004F08BF20F00100B2F57C0F38BF5D
:1036700070470BD582F0FF0212F5803FC8BF70473C
:1036800000F1C040D8BF00F00040704700F5000CCA
:103690005FEA4C0C48BF7047B0F1C04000F073B80F
:1036A00090EA010F0CEAD11348BF42F480726245E0
:1036B00038BF634504D280EA010000F00040704743
:1036C00010B500F01AF800BF8900013E00F007B8FD
:1036D00000F009B85FEA410C5FEA1C6C08D080EA90
:1036E000010000F050B85FEA400C5FEA1C6CF6D1B4
:1036F0004FF00040A0F5800070470EF1020E2EF052
:10370000030E5EF8044B244204D44FEA4102B2F1A6
:103710007F4F11D84FEA4003B3F17F4F0CD80ED141
:103720004FEAD07CB2F17F4F0CEB4C0C0CF1020C49
:1037300008BF4CEBD17C04E04FF0080C01E04FEAED
:10374000D17C0CEB4C0324FA03F404F00704B4F12D
:10375000040C06D20EEB840CBDE810404CF0010CBA
:103760006047DFE80CF0070802024FF00040A0F5C8
:10377000800010BD0846420018BFD2F1807288BF99
:1037800000F0004010BDFF2141EAD050C005704755
:1037900080F0004090EA010F7FF5A5AD81F0004177
:1037A00000F08FB84FEAD051002988BFD1F1FF0255
:1037B00040F2758001F17D014FEA002070B54908A3
:1037C00040F0004038BF40080EA2430E040CD25C0B
:1037D00002FB02F304FB03F3C3F14043A3FB0254D7
:1037E000ED0D45EA442202FB02F3A0FB03546D42B7
:1037F000C4F1404438BF641EA2FB05350023E2FB40
:103800000453EA0B42EA4342A0FB023212F14004A5
:10381000A2F12103E40903F07F031F2B32D904EB4B
:10382000C15070BDFEFAF7F3F0ECE9E6E4E1DEDC4E
:10383000D9D7D4D2D0CECCCAC8C6C4C2C1BFBDBCF1
:10384000BAB9B7B6B4B3B2B0AFAEACABAAA9A8A779
:10385000A6A4A3A2A1A09F9E9E9D9C9B9A99989787
:10386000979695949393929190908F8E8E8D8C8C49
:103870008B8A8A89898887878686858484838382E0
:103880008281818004FB04F6B6EB004603D5E64254
:1038900048BF641CC3E7A64258BF641CBFE711F0D1
:1038A000FF0F02D100F00040704710B5FFF725FF71
:1038B0007FDBFFBE90EA010F48BF81F000413FF57A
:1038C00012AD421A04D882F00042A0EB020011446B
:1038D0004FEAD0524FF07F4C1CEA410FA2EBD1537C
:1038E00018BF9CEA026F4AD04FF0004C4CEA00200F
:1038F0004CEA012121FA03FCB0EB0C0C0FD412F0BE
:10390000FE0F36D05FEA4C001DD5001240EBC250CE
:1039100038BF70471CF03F0F18BF70470BE0A2F193
:1039200001025FEA1C2040EBC25038BF70471CF018
:103930007F0F18BF7047C3F12003994014BF401E8A
:1039400020F00100704780084FEA122308BF70473B
:10395000B0FA80FCA2EB0C02CCF1280C60FA0CF05F
:1039600093EA122F04BF00EBC25070474FEAC370B6
:103970007047130A5FEADC1008BF7047F6E79CEA5D
:10398000026F04D010EA5C0F08BF0020704710B52A
:10399000FFF7B3FE40DFF63E81F0004070470CF0C9
:1039A0000F03092B08BF082000F059800A2B0BD009
:1039B000082B18BF704708BF1CF0400F0AD04FF00B
:1039C00000004FF0000170471CF0400F18BF4FF08F
:1039D000004070471CF0100F08D020F0704300F03A
:1039E0007F4242EAD3014FEA4370704700F06040E3
:1039F00021F07F4242EA000201F07F4040EA72700B
:103A000070474FF0FF0C4CF4E06C1CEA11531CBFE4
:103A10009CEA030C9445C2BFDA4201EB02517047A5
:103A2000002B0DD0BCF1000F0FD0002A01F0004197
:103A3000A4BF41F0E04141F07F614FF000007047CA
:103A400001F000414FF00000704750EA01334FF0A1
:103A50009B0C18BF4CF0806C7EF490AF70471CF448
:103A6000801F11D01CF4E02F03D06FEACC31490045
:103A700070474FF04050EFF3008222F0704242EA6C
:103A8000000282F3008870474FF00000704700008A
:103A90004FBB610567ACDD3F182D4454FB21E93F66
:103AA0009BF681D20B73EF3F182D4454FB21F93F55
:103AB000E2652F227F2B7A3C075C143326A6813CDB
:103AC000BDCBF07A8807703C075C143326A6913C86
:103AD000C4EB98999999C9BF711623FEC671BCBFF2
:103AE0006D9A74AFF2B0B3BF9AFDDE522DDEADBF5A
:103AF0002F6C6A2C44B4A2BF0D5555555555D53F72
:103B0000FF8300922449C23F6E204CC5CD45B73F8C
:103B1000513DD0A0660DB13FEB0D76244B7BA93F04
:103B200011DA22E33AAD903F0000000000000000EF
:103B3000503B000800000020DC00000028010008C5
:103B40002C3C0008DC0000200C09000044010008A7
:103B50002D0100000000344310100100000000009F
:103B60000000000000000000000000000000000055
:103B70000000000000000000000000000000000045
:103B8000000000000000803F000000000000000076
:103B90000000000000000000000000000000000025
:103BA0000000404100000000000000000000000094
:103BB00000000000000000400000000000000000C5
:103BC00000000000000000000000000000000000F5
:103BD00000000000000000000000000000000000E5
:103BE00000000000000000000000000000000000D5
:103BF00000000000000000000000000000000000C5
:103C000000000000000000000000000000000000B4
:103C1000000000000000000000000000010203049A
:0C3C20000102030406070809020406085C
:04000005080000ED02
:00000001FF
