:020000040800F2
:10000000882E002001010008AF0F00082D0D000808
:10001000AD0F0008B1010008F7250008000000003E
:100020000000000000000000000000003513000880
:100030009D04000800000000331300083713000877
:100040001B0100081B0100081B0100081B01000820
:100050001B0100081B0100081B0100081B01000810
:100060001B0100081B0100081B0100081B01000800
:100070001B0100081B0100081B0100081B010008F0
:100080001B0100081B0100081B0100087125000866
:100090007D2500081B0100081B0100081B0100084A
:1000A0001B0100081B0100081B0100081B010008C0
:1000B0001B0100081B0100081B0100081B010008B0
:1000C0001B0100081B0100081B0100081B010008A0
:1000D0001B0100081B0100081B0100081B01000890
:1000E0001B0100081B0100081B010008DFF80CD0F1
:1000F00000F04CF80048004741260008882E0020F8
:100100000648804706480047FEE7FEE7FEE7FEE7B1
:10011000FEE7FEE7FEE7FEE7FEE7FEE7ED13000879
:10012000ED000008202A04DB203A21FA02F0002129
:10013000704721FA02F3D040C2F1200291400843F7
:100140001946704740EA01039B0703D009E008C93C
:10015000121F08C0042AFAD203E011F8013B00F88C
:10016000013B521EF9D27047D2B201E000F8012BD8
:10017000491EFBD270470022F6E710B513460A4627
:1001800004461946FFF7F0FF204610BD064C074D08
:1001900006E0E06840F0010394E807009847103457
:1001A000AC42F6D3FFF7A6FF98260008B826000851
:1001B000FEE7000010B5D0F81822044692F800348B
:1001C000022B07D0032B05D0052B03D0062B01D023
:1001D000092B13D1022082F80004002382F8013495
:1001E00082F8023482F8033482F8043482F8050479
:1001F00082F80634C2F80834C2F80C340848407D4E
:10020000C00607D5204601F01FFF2046BDE810407C
:1002100001F014BE4888BDE8104000F0CBB90000E2
:10022000A000002030B40B46D0F81812DC8891F8FA
:1002300000248CB1022A01D0052A11D15A88C1F8B4
:100240000824DA880323C1F80C2481F8003481F8EB
:10025000053430BC01F010B9052A05D0022A03D0BC
:1002600030BC194601F0FDB8012081F807040622D0
:1002700081F80024002081F8020481F8030481F849
:10028000040481F8052430BC7047000070B5D0F834
:1002900018420546002194F80004032802D00628DD
:1002A00045D128E0D4F80C0418B3042084F80004E5
:1002B00084F8021484F8031484F8041484F8050400
:1002C000D4F8080410B92078412809D0D5F81C12B8
:1002D000D4F8100404F201428B690121984726E00A
:1002E000D5F81C12D4F8100404F201428B690021E5
:1002F000F4E7052011E094F80704012801D038B193
:1003000015E0072084F80004012284F8022408E0A4
:100310000B48007D40070AD5022084F8000484F8C9
:10032000021484F8031484F8041484F8050404F215
:1003300001412846BDE87040062201F0B7B8000030
:10034000A000002010B50446D0F81812184800226A
:1003500081F80724007D40070BD5062081F80004B2
:1003600081F8022481F8032481F8042481F805042B
:1003700010BD082081F8000481F8022481F80324CC
:1003800081F8042481F80504204601F05DFED4F8CC
:100390001C0280688047BFF34F8F06480168064AF9
:1003A00001F4E06111430160BFF34F8F00BFFDE72F
:1003B000A00000200CED00E00400FA0570B50B462B
:1003C0000546C988D0F818420020B1B394F800144B
:1003D000022906D0092904D0C4F80C04C4F8080482
:1003E0004AE05988C4F80814DA88C4F80C2401B328
:1003F000012936D9092384F8003484F8020484F8EA
:10040000030484F8040484F805348802D4F8101432
:10041000A0F500600844D5F81C124B6921469847A6
:100420000146B4F80C0482B22846BDE8704001F0E1
:100430003DB8032A02D9022101E023E0092184F812
:10044000001484F8020484F8030484F8040484F893
:1004500005142070212060704120A07003222146E5
:10046000E2E70F2184F8001484F8020484F80304FE
:1004700084F8040484F805142846BDE87040194641
:1004800000F0EFBF022184F8001484F8020484F81D
:10049000030484F8040484F8051470BD70477047A1
:1004A00006490020C8610648016941F00401016164
:1004B000016941F04001016170470000680D0020B2
:1004C00000200240064A0021D16106490A6942F033
:1004D00002020A614861086940F040000861704703
:1004E000680D002000200240044B0022DA61044A1B
:1004F000136943F00103136101807047680D002008
:100500000020024014480022C168CB06134904D5DC
:10051000CA6942F00202CA611022C3685B0705D5AE
:10052000CB6943F00103CB6142F00402C369DB07EE
:1005300007D0CB6943F00403CB61C16921F001010D
:10054000C161A2F58071013901D0C2607047C169F3
:1005500021F00101C161704700200240680D0020B8
:1005600070B5054600F0EAF80646114C09E0681C33
:1005700007D025B100F0E2F8801BA84201D9032082
:1005800070BDE068C007F2D1E068800601D5202088
:10059000E060E068C00605D4E069C00702D1E06809
:1005A000400703D5FFF7AEFF012070BD002070BDEE
:1005B0000020024070B5044600F0C0F80546601CFB
:1005C00002D004480078044400F0B8F8401BA04270
:1005D000FAD370BD500000202DE9F04705462648AB
:1005E0000F460126017E01290FD0012181460176A7
:1005F0002868DFF888804CF25034022808D0A246E0
:100600002046FFF7ADFFA8B131E00220BDE8F0873A
:100610002046FFF7A5FF08BB0120FFF741FF20465A
:10062000FFF79EFFD8F81010064621F00401C8F825
:1006300010101CE04FF0FF303860AC6811E020462D
:10064000FFF740FF5046FFF78BFFD8F81010060069
:1006500021F00201C8F8101001D03C6007E004F559
:100660008064D5E9020100EB8120A042E7D8002197
:1006700089F818103046C9E7680D002000200240B4
:100680000348016941F080010161002070470000CA
:10069000002002402DE9F05F07461C4888460024F0
:1006A000017E15461E46012909D0012181460176A9
:1006B0004CF2503A5046FFF753FF18B122E00220A7
:1006C000BDE8F09F012F02D0022F00D00427D346AF
:1006D000DFF83CA0220128463146FFF723FD81B216
:1006E00008EB4400FFF700FF5846FFF739FFDAF840
:1006F000102022F00102CAF8102018B9641CE4B2DC
:10070000BC42E7D3002289F81820D9E7680D002001
:1007100000200240064900200A69120607D5054A52
:100720004A60054A4A600969090600D501207047F8
:100730000020024023016745AB89EFCD0148806866
:100740007047000050000020024881680278114480
:100750008160704750000020074810B5016841F0E3
:1007600010010160032000F073F8002000F006F88B
:1007700000F024F8002010BD0020024070B50D4D9F
:1007800004464FF47A712878B1FBF0F00A49096801
:10079000B1FBF0F000F0B6FA48B9102C07D20022F5
:1007A0002146501E00F034F800206C6070BD01201E
:1007B00070BD0000500000205C0000200C4808B50F
:1007C000816941F001018161816901F001010091BC
:1007D000C16941F08051C161C06900F08050009052
:1007E0000448416821F0E06141F00071416008BDBA
:1007F000001002400000014000F01F020121914062
:100800004009800000F1E020C0F8001170470000AE
:10081000F0B40E4B1B680C46C3F30223C3F107056B
:10082000042D00D90425191D072901D2002300E059
:10083000DB1E012606FA05F1491E214099409E4023
:10084000761E16403143F0BC00F0B2BB0CED00E068
:10085000064900F0070208684FF6FF03184040EA17
:100860000220034A10430860704700000CED00E0CE
:100870000000FA0510B50C0605D501F07F0100EB6C
:100880004110283003E000EB411000F50A7099B2E6
:1008900032B101228272C180190C0181002010BD89
:1008A000002282728180F9E7704700EB4112D0F894
:1008B0005C04D26B01F0BFB800EB4112D0F85C04CD
:1008C000D2F83C2201F00CB970B50A46044609067C
:1008D00002F07F0003D504EB4011283103E004EB64
:1008E000421101F50A7100258D700870D009487019
:1008F00094F82804012809D0012084F828042068ED
:1009000001F000FD84F82854002070BD022070BD65
:1009100070B504460D460E0601F07F0004EB401151
:1009200001D5283101E001F50A710870E809487025
:100930000A61CB7094F82804012809D0012084F8BA
:100940002804206801F092FB002084F8280470BD80
:10095000022070BD70B50C4601F07F0500EB45111B
:10096000C1E98F230022C1F8442281F8292281F8AD
:10097000285201F50A716206006801F01DFD002091
:1009800070BD70B50D460446090605F07F0003D51D
:1009900004EB4011283103E004EB451101F50A7125
:1009A00001228A700870E809487094F82804012828
:1009B00007D084F82824206801F0D9FC680602D00A
:1009C00006E0022070BD04F22C41206801F098FC82
:1009D000002084F8280470BD70B50C4601F07F0536
:1009E00000EB4511C1E90F2300224A64012281F87E
:1009F000292001F8285F6206006801F0DDFC002074
:100A000070BD10B50446006801F0BEFD000402D5BB
:100A1000204600F0DDFA206801F0B6FD40050CD557
:100A2000206830F8441F21F480610180204600F0E6
:100A3000F5F80021204600F006F9206801F0A4FD39
:100A4000400405D5206830F8441F21F4804101801E
:100A5000206801F099FD800405D5206830F8441F16
:100A600021F400510180206801F08EFDC00414D5EE
:100A7000206830F8401F21F004010180206830F820
:100A8000401F21F008010180204600F0D4F82068C2
:100A900030F8441F21F480510180206801F074FD7A
:100AA00000051AD5206830F8401F41F00801018088
:100AB000206830F8441F21F400610180206830F87C
:100AC000401F41F004010180206801F05DFDC0433A
:100AD000C00402D5204600F003F9206801F054FD5F
:100AE000800508D5206830F8441F21F4007101808A
:100AF000204600F0A4F8206801F046FDC00505D5A9
:100B0000206830F8441F21F48071018010BD00007E
:100B10002DE9F04186B004004FF0000504D094F8B0
:100B20002904002620B108E0012006B0BDE8F081CC
:100B300084F82864204600F04BF8032084F8290448
:100B4000206801F0D6FB04F11001142288466846A3
:100B5000FFF7F8FA94E80F0001F0B6FB00212068D7
:100B600001F025FD5FF0010704EB451080F82970C6
:100B700000F8285F8581C670066146616D1C86613C
:100B80000F2DF1D35FF0000004EB401181F82962D2
:100B900081F82802888681F82B62C1F83862C1F892
:100BA0003C62401CC1F840620F28EDD3142241463C
:100BB0006846FFF7C7FA94E80F0001F08BFB84F852
:100BC000246084F82974206801F082FB0020ACE7DF
:100BD00008B500680F4988421AD10F48C16941F42D
:100BE0000001C161C069002200F4000000901146BC
:100BF0001320FFF70DFE1320FFF7FEFD0022114624
:100C00001420FFF705FEBDE808401420FFF7F4BDEF
:100C100008BD0000005C00400010024010B5044612
:100C20000121D0F85C0401F01FF8D4F85C04BDE8A1
:100C3000104000F0E8BFD0F85C0401F003B8D0F831
:100C40005C0401F005B810B5044690F828040128AA
:100C50000BD0012084F8280484F82410206801F0C7
:100C6000A8FC002084F8280410BD022010BDD0F894
:100C70005C2400F22C41104601F009B810B504467E
:100C800090F82804012810D0012084F82804014697
:100C90002046FFF709FE206801F018FB206801F0EC
:100CA00060FC002084F8280410BD022010BD10B59F
:100CB000044690F8280401280FD0012084F8280465
:100CC000206801F016FB206801F079FC206801F033
:100CD000FFFA002084F8280410BD022010BD000097
:100CE00010B50446D0F85C0401F02EF8A069002885
:100CF00004D00348016841F00601016010BD000006
:100D000010ED00E010B5401EB0F1807F01D301204E
:100D100010BD4FF0E02460610F21601700F048F92A
:100D20000020A06107202061002010BDFEE7000028
:100D3000044908B58A6902438A61896901400091C2
:100D400008BD000000100240F0B50A68C2F30F258C
:100D500095FAA5F2B2FA82F369E001229A402A429A
:100D600064D0082B03D240F201129A4006E0A3F1AE
:100D700008024FF00114944044F0806292FAA2F706
:100D800000EB1264B7FA87F74FEA870C0F27266843
:100D900007FA0CF7BE4392FAA2F7D1F804E0B7FACB
:100DA00087F7BF000EFA07FE46EA0E0626600E69B8
:100DB000C7684FEA122C9CFAACFCBCFA8CFC27EA00
:100DC000122706FA0CF63743C7604E68012E01D091
:100DD000092E2BD192FAA2F7B7FA87F74FEA870CC0
:100DE000032707FA0CF72668D1F808E0BE4392FA09
:100DF000A2F7B7FA87F7BF000EFA07FE92FAA2FC35
:100E000046EA0E06BCFA8CFC4FEA8C0E4FF0040C3E
:100E100026600CFA0EFC92FAA2F2B2FA82F2CF68C5
:100E2000920026EA0C0697403E4326605B1C35FA8A
:100E300003F292D10120F0BD4FF47A71B0FBF1F1D1
:100E40004FF0E020491E41610021816105210161CF
:100E50007047000001490860704700005C000020F6
:100E600010B5FFF70DFC002800D0022010BD0000D7
:100E700000B585B000200490009006480290302014
:100E8000039004A96846FFF7A7FB002800D00220C2
:100E900005B000BD004000080020502309B1012921
:100EA00002D153709070D0700020704710B5FFF7DA
:100EB00031FC002800D0022010BD000010B5002336
:100EC00004E000BF10F8014BCC545B1C9342F9D3F3
:100ED000084610BD2DE9F04117460D460646002490
:100EE0000FE03259291900230220FFF7D3FB18B96C
:100EF00030592959884202D00220BDE8F081241DD2
:100F0000A4B2BC42EDD30020F7E7000010B586B0D4
:100F100014216846FFF72FF91020FFF709FF202062
:100F2000FFF706FF0820FFF703FF0420FFF700FF8D
:100F30000E480D494FF4005242610124CDE90014DE
:100F400003210291002103916946FFF7FDFE42F261
:100F50002000009008200190694604940448FFF79F
:100F6000F3FE06B010BD0000200020040010014078
:100F70000008014010B500220849094800F036FD7C
:100F80000849074800F00DFF0749054800F082FBBB
:100F9000BDE81040024800F051BF000000000020F2
:100FA000C80000206400002034000020FEE77047E5
:100FB0000907090E002806DA00F00F0000F1E02012
:100FC00080F8141D704700F1E02080F8001470478D
:100FD0002DE9FC5F4FF000080446ADF80480ADF841
:100FE000008048F60F7B4FF002094FF4806692E1D3
:100FF000BDF8041011F00F072BD030F82710ADF812
:101000000010BDF80010090478D530F8272040F60C
:101010008F710A4020F8272004EB471595F832021B
:1010200005F50A750028206869D0297830F8212054
:1010300052047DD5B0F8503009EBC101194406EBDC
:101040004101415AC1F309015FEA010A71D0EA88FE
:10105000D0E0BDF80410C9062AD4018801EA0B01CA
:101060000180206804F12805B0F850202B7809EBA6
:10107000C301114406EB4101405AC0F3090060640A
:10108000E16B0844E06300212046FFF70EFC94F872
:1010900024000028ABD0A8690028A8D194F8240027
:1010A000216840F08000A1F84C0084F8248032E1EF
:1010B000018804F50A75ADF80010BDF800100905A7
:1010C0001ED5B0F850302978062202EBC101194430
:1010D00006EB4101405A04F22C41C0F30903EB61D5
:1010E000AA88206801F054FA2068018840F68F72BF
:1010F000114001802046FFF7BAFD0CE1A0E055E069
:10110000BDF800100904D2D5028840F68F710A405C
:1011100002802068B0F850302978062202EBC10125
:10112000194406EB4101405A83059B0DEB6101E038
:1011300051E063E008D0AA886969206801F028FAC4
:10114000E96968690844686100212046FFF7B4FB3B
:101150002068B0F85010891D06EB41010144286950
:101160003E280CD9C0F34F12C00601D1521E92B2D4
:101170004FF6FF7000EA822040F4004009E0C0F31F
:101180004F02C00701D0521C92B24FF6FF7000EA26
:1011900082200860216808884BF68F72104080F426
:1011A000405048F2800210430880B4E0B0F850206C
:1011B0002B78062101EBC301114406EB4101415A92
:1011C000C1F309015FEA010A24D0AA88534669697C
:1011D00001F0DEF91EE0B0F85020062303EBC10158
:1011E000114406EB4101415AC1F309015FEA010ACA
:1011F00004D02A895346696901F0CAF92978206820
:1012000030F8213048F68F72134048F2C002134381
:1012100020F82130E96901EB0A00E861696901EB16
:101220000A026A61AB6913B12869504504D929786B
:101230002046FFF741FB03E029782046FFF78AFBB1
:10124000BDF80000000666D5206804EB471530F8AD
:10125000271001EA0B0120F8271095F832002835F5
:101260000028206812D0297830F82120B0F85030BA
:1012700052061ED509EBC101194406EB4101405A43
:1012800083059B0DEB6124D0EA881EE0B0F8503056
:101290002A7809EBC201194406EB4101405A830543
:1012A0009B0DEB6121D0AA886969206801F090F953
:1012B0001BE0062202EBC101194406EB4101405A32
:1012C00083059B0DEB6104D02A896969206801F0D0
:1012D0007FF92978206830F8212048F68F731A406A
:1012E0004CF280031A4320F821202068B0F85020E7
:1012F0002B7809EBC301114406EB4101405AC0F3BE
:101300000900E86169690A186A612978AB692046B1
:1013100063B1FFF761FB2068B0F84410ADF804102A
:1013200009043FF565AE0020BDE8FC9FFFF7BDFA5C
:10133000F1E770477047FFF707BA000070B528481B
:10134000016821F0070141F0020101600068254CAD
:10135000206840F4803020602068C0F340400028BE
:10136000FAD0206840F400202060606820F47C10EF
:1013700040F4E8106060206840F0807020602068D1
:10138000C0F340600028FAD0606820F0F000606090
:10139000606820F4E06040F480606060606820F481
:1013A00060506060606820F0030040F00200606000
:1013B000606800F00C000828FAD10B4D2846FFF7B2
:1013C0003BFD4FF0E021086940F004000861284629
:1013D000FFF740FD606820F48000606070BD000091
:1013E000002002400010024000A24A040D4801689B
:1013F00041F00101016041680B4A11404160016800
:101400000A4A11400160016821F4802101604168AD
:1014100021F4FE0141604FF41F0181600449C003C3
:1014200008607047001002400000FFF8FFFFF6FE62
:1014300008ED00E010B5D0F8142252689047002063
:1014400010BD134610B50A46002100F0CCFB002069
:1014500010BD134610B50A46002100F07EFC0020A6
:1014600010BD10B50446802100F03EFC2046BDE8CA
:101470001040002100F038BC10B50323C0F808214B
:10148000C0F8F431C0F80C2113460A46002100F0E0
:10149000AAFB002010BD10B505210023C0F8F411EF
:1014A0001A46194600F09FFB002010BD10B502231C
:1014B0008261C0F8F431C26113460A46002100F08F
:1014C0004CFC002010BD10B504210023C0F8F4111D
:1014D0001A46194600F041FC002010BD002070475C
:1014E0000020704770B50446D0F81802002502218C
:1014F000C0F80854C0F80C5480F8001480F8015467
:1015000080F80514D4F8180248B1D4F81C0204F588
:10151000067480688047206800F0A3FD25600020E5
:1015200070BD002070477CB5D0F8184294F80014C4
:10153000042902D0072963D064E0D4F808140025F8
:1015400089B101293AD9D0F81C028902D4F81024B3
:10155000A1F5006111440369D4F80C242046984792
:1015600060B302207CBD217821B1212907D0412917
:1015700016D019E0D4F80C1401291FD014E0D4F8C7
:101580000C14052910D16078A17800EB0120E178D6
:1015900000EB0140217900EB0160C4F810040DE07C
:1015A000D4F80C14052919D0C4F80C540121ADF855
:1015B00006108DF800506946FFF753FFC4F80C542D
:1015C0000320C4F8085484F8000484F8025484F812
:1015D000035484F8045484F8050413E06178A27875
:1015E00001EB0221E27801EB0241227901EB026179
:1015F000C4F81014D0F81C02C26808469047AFE740
:10160000FEF7A0FE00207CBD1B2101800048704732
:10161000A00000200A21018000487047BC00002083
:1016200010B5062907D8D0F81C020449006800F05C
:10163000BAF9024810BD002010BD0000880D00203E
:1016400010B504464FF4836000F00CFDC4F8180296
:10165000C0B10021C0F81414C0F808140A4A00F5FB
:101660008060C0E90312C171022202704170817072
:10167000C170017142718171D4F81C0240688047C9
:10168000002800D0022010BD004000080020704754
:101690000020704709B1C0F81C12002070470020DC
:1016A000704700002DE9F0410B4600251E78D0F868
:1016B00018122A462C4616F0600660D0202E0DD156
:1016C0005E7800220225072E78D2DFE806F0540467
:1016D000080C0F3135001946FEF7A4FD72E01946DB
:1016E000FEF76CFE6EE0FEF7D1FD6BE091F80004B2
:1016F0000A2810D00A2081F800040E2381F8013452
:1017000081F8022481F8032481F8042481F8050477
:1017100081F8062456E081F8005481F8012481F80C
:10172000022481F8032481F8042481F80554EFE7AA
:10173000012201F5806135E091F80004022807D00C
:10174000032805D0052803D0062801D0092839D15F
:1017500081F8005481F8012481F8022481F80324DF
:1017600081F8042481F8055481F80624C1F808247E
:10177000C1F80C2426E01946FEF71CFD22E05E7835
:10178000062E04D00A2E11D00B2E17D112E0598844
:101790002126B6EB112F04D1DA880E4D092A00D983
:1017A00009222946FFF782FE0CE007E0012201F240
:1017B0001441F7E75A8812F0FF0F06D01946FFF7D9
:1017C00050FE02242046BDE8F081D0B2C1F81404D6
:1017D000F8E70000B200002010B50A46024903A055
:1017E00000F0E1F8004810BDEC020020444655200E
:1017F000436F6E66696700001220088000487047DA
:101800002000002010B50A46024903A000F0CBF8E2
:10181000004810BDEC02002044465520496E746516
:10182000726661636500000004200880004870470C
:101830001C00002010B50A46024903A000F0B3F8CE
:10184000004810BDEC02002053544D6963726F656F
:101850006C656374726F6E696373000010B50A463D
:10186000024903A000F09FF8004810BDEC020020E0
:1018700053544D333220446F776E4C6F6164204671
:1018800069726D77617265205570646174650000DE
:1018900010B50A46024903A000F085F8004810BDC3
:1018A000EC020020303030303030303030303141D8
:1018B00000000000F8B5044648880D46010A0829D2
:1018C00054D2DFE801F05304091753534951D4F8B7
:1018D0001012207C0A6819E0207C02260028D4F827
:1018E000140205D0C16A68468847014646704AE03E
:1018F000816AF8E7C1B2062926D2DFE801F0030ABF
:101900000F14191ED4F81012207C4A6869469047BB
:1019100018E0D4F81012207C8A68F7E7D4F8101287
:10192000207CCA68F2E7D4F81012207C0A69EDE73F
:10193000D4F81012207C4A69E8E7D4F81012207C11
:101940008A69E3E701461EE0C1B2D4F814026A4690
:10195000836B20469847F5E7207C38B9D4F8140209
:10196000416B68468847EDE7207C20B12946204638
:10197000FFF777FDF8BDD4F81402016B684688477D
:10198000014607204870BDF800000028F2D0EA8820
:10199000002AEFD0824200D90246ADF8002020464E
:1019A000FFF784FDF8BD70B5002300281DD0044664
:1019B000002502E06D1CEDB2641C2678002EF9D1E2
:1019C000022404EB45041480CC545B1C0322CA544B
:1019D00000245B1C06E0CA545B1CDAB28C54521C17
:1019E000D3B2401C0278002AF5D170BD10B580B189
:1019F000D0F8143213B10023C0F8143209B1C0F882
:101A00001012012180F8FC11027000F09FF80020F4
:101A100010BD022010BD10B50024D0F82002FEF742
:101A200053FF30B1012801D0022801D0022400E088
:101A30000124204610BD2DE9F0411746044641B16E
:101A4000D4F8140242698AB394F8FC01032842D006
:101A500043E0D4F8F411002504F11400022933D135
:101A6000D0E902639E4207D9F31A83609AB23946DD
:101A70002046FFF7EEFC12E04068B0FBF3F103FBF9
:101A80001101A1B9984212D3D4F8F81188420ED2AC
:101A9000002211462046FFF7DCFCC4F8F851002371
:101AA0001A461946204600F09EF80DE012E0D4F8E0
:101AB0001402C16829B194F8FC01032801D1204621
:101AC00088472046FFF7E7FC94F80002012804D17C
:101AD00084F8005201E0204690470020BDE8F081E4
:101AE00070B51546044641B1D4F8140282693AB380
:101AF00094F8FC01032824D025E0D4F8F41104F56F
:101B0000827003291FD1D0E902218A420BD9531ACE
:101B100083600846834200D303469AB22946204692
:101B2000FFF78FFC0FE0D4F81402016929B194F893
:101B3000FC01032801D1204688472046FFF7C3FC5B
:101B400001E020469047002070BD000010B5134909
:101B50000446C1F85C04C0F820121148086008204F
:101B60004860022088600020C8608861C8610862FF
:101B70000846FEF7CDFF08B1FEF791FC00221823BE
:101B80001146D4F82002FEF775FE5823002280216A
:101B9000D4F82002FEF76EFE002010BD08090020D8
:101BA000005C00400A06D0F8200201F07F0100EB43
:101BB000411002D590F82A00704790F82A02704729
:101BC00070B51D4613460024D0F820022A46FEF7C1
:101BD0009FFE30B1012801D0022801D0022400E08C
:101BE0000124204670BD10B50024D0F82002FEF775
:101BF000B1FE30B1012801D0022801D0022400E05A
:101C00000124204610BD70B5002204464023114631
:101C1000FFF7D6FF40252B46002280212046C4F83E
:101C20001051FFF7CDFF0120256284F8FC01D4F8A4
:101C3000180228B1D4F8140221794268204690474E
:101C4000002070BD90F8FD1180F8FC110020704755
:101C500010B590F8FC11032904D1D0F81412C96909
:101C600001B18847002010BD01740020704710B5F5
:101C70000024D0F82002FEF7E6FF30B1012801D0A1
:101C8000022801D0022400E00124204610BD70B5D6
:101C9000044600F50270054600F06FF80120C4F814
:101CA000F401B4F80E02C4F8F80194F8080210F038
:101CB0001F010AD001290DD0022910D000F08001A7
:101CC000204600F011F8002070BD2946204600F0A3
:101CD000BAF8F8E72946204600F09CF9F3E72946D0
:101CE000204600F029F9EEE710B50024D0F82002D4
:101CF000FEF747FE30B1012801D0022801D00224AE
:101D000000E00124204610BD10B50024D0F82002C8
:101D1000FEF7B4FF30B1012801D0022801D002241F
:101D200000E00124204610BD10B50024D0F82002A8
:101D3000FEF7BDFF30B1012801D0022801D00224F6
:101D400000E00124204610BD90F8FC1180F8FD1140
:101D5000042180F8FC110020704710B50024D0F851
:101D60002002FEF739FE30B1012801D0022801D04F
:101D7000022400E00124204610BD0A7802704A784F
:101D800042708A78CB7802EB032242800A794B7941
:101D900002EB032282808A79C97902EB0121C1809A
:101DA00070470246002011B1C2F814127047022099
:101DB000704710B5D0F8142202241AB11268904767
:101DC00000B90024204610BD70B50E461A4D897822
:101DD00004462970012928D894F8FC01022802D071
:101DE000032822D105E099B10320616084F8FC0149
:101DF00009E091B1606888420AD0C1B22046FFF77D
:101E000019FB297861602046FFF7D3FF02280CD028
:101E10002046BDE87040FFF756BB022084F8FC0165
:101E200020466160FFF706FBF2E731462046BDE839
:101E30007040FFF716BB00006000002010B5FFF7F0
:101E400063FF002010BD2DE9F04100264B780125ED
:101E500032460A2B43D2DFE803F03C584251420895
:101E600005422A27FFF726FD63E004468888C8B9A3
:101E7000C888B8B9887800F07F0794F8FC01032877
:101E800010D084F8FE7139462046FFF7F0FE204658
:101E9000FFF719FB1FB1022084F8FC0149E084F828
:101EA000FC5146E020461AE0FFF78EFF41E0CB8868
:101EB000012B14D190F8FC31022B02D0032B0ED150
:101EC00004E08260012200F1080114E00122011DFA
:101ED00011E090F8FC21022A04D0032A02D0FFF777
:101EE000C0FA26E0C560D0F8041209B10321C16030
:101EF000022200F10C01FFF7D9FA1AE004464888E3
:101F0000012816D1C4F804520BE0044690F8FC01F5
:101F1000022801D00328C5D14888012809D1C4F876
:101F20000422D4F814028268204690472046FFF726
:101F3000CAFA3046BDE8F08170B50D4604462878EF
:101F400000260979C0F34110012806D06878A0B3B3
:101F500001281FD003283FD107E0D4F814022946F6
:101F6000826820469047002070BD94F8FC0102284A
:101F700017D003282CD1688828B921B1802902D034
:101F80002046FFF7B1FED4F81402294682682046A5
:101F9000904713E094F8FC01022802D0032817D1DF
:101FA00003E0C9B180291BD116E06888A0B94806B2
:101FB00004D02046FFF72FFDE5E703E02046FFF7BA
:101FC00082FA09E094F8FC01022807D003280BD01C
:101FD00029462046FFF745FA304670BD4806FBD03B
:101FE0002046FFF781FEF7E7080601F07F0004EBCB
:101FF000001501D5143501E005F582752046FFF77F
:10200000D1FD00B101202860022229462046FFF7B9
:102010004DFAE1E770B5054690F8FC010C4603283F
:102020000DD1207901280AD8D5F8140282682846F3
:102030009047E08830B92846FFF745FA02E0284685
:10204000FFF70FFA002070BD10B504460179D0F8F3
:1020500014024268204690472046FFF765FE0020A4
:1020600010BD704700487047EC0400202DE9F04790
:10207000CC780A7848F68F1334B1012C6DD0022C3D
:1020800008D0032C13D10BE030F822401C4044F45C
:1020900000730AE030F822401C4020F8224006E09D
:1020A00030F822401C4044F4C06320F822300C7801
:1020B00030F8245048F68F72154048F280031D43D3
:1020C000254320F824508D7A48F6BF7904274BF633
:1020D0008F7A48F2C0044CF28006EDB30D7830F8E8
:1020E00025C048F280180CEA020C4CEA080C20F8D3
:1020F00025C0CD88B0F850C025F0010591F80080CA
:102100000CEBC80C00EB4C0CCCF800540D89B0F86B
:1021100050C025F0010591F8008007EBC80767441F
:1021200000EB4707C7F800544D78002D0D7830F8C4
:1021300025704FEA47477DD0002F05DA30F825702B
:102140001740374320F825700D7830F825707F064A
:1021500008D530F8257001E024E01DE01740274342
:1021600020F825700C7830F824501540354320F8BD
:1021700024500C7830F8242002EA09021A4320F88F
:1021800024200A7830F8221001EA0A01194320F8C5
:1021900022100020BDE8F08730F822401C4044F4B3
:1021A000806382E74D78F5B18D88B0F8506025F0F6
:1021B00001050F7806EBC70600EB4606C6F800548B
:1021C0000D7830F82560760605D530F82560164084
:1021D000264320F825600A7830F8221001EA090128
:1021E00081F02001D2E78C88B0F8505024F001042F
:1021F00091F800C007EBCC073D4400EB4505C5F85E
:102200000044B0F850400D78062707EBC5052C4474
:1022100000EB44070C694FF6FF7C07F580673E2C06
:102220000CD9C4F34F15E40601D16D1EADB20CEA12
:10223000852400E01EE044F4004407E0C4F34F05A9
:10224000E40701D06D1CADB20CEA85243C600C782B
:1022500030F824506D0405D530F82450154035432E
:1022600020F824500A7830F8221001EA0A0181F49B
:1022700040518BE7002F05DA30F8257017403743BF
:1022800020F825700D7830F82560760605D530F8F1
:1022900025601640264320F825600E7830F8265039
:1022A0001540254320F826500C7830F8242002EA07
:1022B0000A0282F440521A4320F824200A7830F8A7
:1022C000221001EA090161E70020704700207047F1
:1022D0000020704700B50121A0F840100021A0F8AF
:1022E0004010A0F84410A0F8501000F03AF9002077
:1022F00000BD30F8401F21F43D41018000207047AF
:102300000020704730B54D780A78002D48F68F745C
:1023100030F8225048F2800312D06D0607D530F80D
:102320002250254048F2C004254320F822500A7864
:1023300030F8221048F6BF74214081F0300111E0DE
:102340006D0407D530F8225025404CF28004254317
:1023500020F822500A7830F822104BF68F74214072
:1023600081F44051194320F82210002030BD10B5EF
:102370000A7848F2800352B14978002930F82210D7
:1023800010D048F6BF74214081F010010FE00188A1
:102390004BF6BF72114081F4805181F01001194356
:1023A000018007E04BF68F74214081F4805119437E
:1023B00020F82210002010BD2DE9F0410D46064600
:1023C000896995F801C00023AA7A022728690C467A
:1023D00048F28008BCF1010F05D0814252D9044671
:1023E000081AA8614FE0814203D90446081AA8617F
:1023F00000E0AB617AB1287836F820104906B6F8CB
:10240000501007EBC000084406EB4000C0F8004441
:1024100012D52A8911E0A3B2AA883046696900F072
:10242000D7F8B6F85000297807EBC101084406EB4D
:102430004000C0F800441CE0EA88A3B23046696955
:1024400000F0C6F8687848F68F7110B1012807D0FF
:102450000FE0287836F820200A4048F2C00105E055
:10246000287836F820200A404CF280010A4326F8EA
:102470002020297836F8210048F6BF72104080F0FD
:10248000300067E0AB6106234FF6FF701AB1BCF174
:10249000000F1BD056E0B6F850102A783E2C03EB04
:1024A000C202114406EB410202F5806239D9C4F33D
:1024B0004F11E30632D000BF00EA812040F4004013
:1024C00002E000BF00EA812010603BE0B6F8501047
:1024D0002A783E2C07EBC202114406EB410202F5BA
:1024E00080620BD9C4F34F115FEAC46C01D1491E5D
:1024F00089B200EA812141F4004108E0C4F34F01B0
:102500005FEAC47C01D0491C89B200EA81211160D4
:1025100069780029BFD001290AD013E0491E89B289
:10252000CAE7C4F34F01E307CCD0491C89B2C9E71D
:10253000B6F85000297807EBC101084406EB4000CB
:10254000C0F80044297836F821004BF68F7210400D
:1025500080F4405040EA080026F821000020BDE841
:10256000F08130F8401F41F43F4101800020704766
:102570000148FEF746BA0000080900200148FEF7AE
:1025800040BA000008090020B0F84400704700007D
:102590005B1C00EB42005B0800F5806006D000BFCA
:1025A00030F8042B21F8022B5B1EF9D17047002074
:1025B000704711B98021A0F84C100020704701210C
:1025C00020F8401F002181800321018000207047F6
:1025D00010B55B1C00EB42005B0800F5806009D081
:1025E00011F8012B5B1E11F8014B42EA042220F87E
:1025F000042BF5D110BDFEE702E008C8121F08C188
:10260000002AFAD170477047002001E001C1121F73
:10261000002AFBD170470000074910B50868074A37
:102620001040B0F1005F05D14868096881F308885F
:102630008047FEE710BD0000004000080000FE2FAC
:10264000FEF78AF8FEF77AFEFEF760FC05492020C7
:102650008968884302D0FEF78DFCFEE7FFF7DCFFB8
:10266000FBE700000008014040496E7465726E612E
:102670006C20466C6173682020202F307830383011
:1026800030303030302F31362A30314B612C3438F5
:102690002A30314B67000000B826000800000020F7
:1026A000C8000000F825000880270008C8000020A6
:1026B000C02D000008260008F91700082918000896
:1026C000351800085D18000891180008D91700088F
:1026D000051800080403090412010002000000406C
:1026E000830411DF000201020301000068260008D4
:1026F000AD0E0008610E0008710E0008D50E00082E
:10270000BD0E0008990E0008010000001000000036
:102710000000000000A24A0400000000411600086A
:10272000E5140008A5160008271500082315000861
:10273000DD140008E11400089F1600088D1600083B
:102740009116000809160008091600080916000865
:10275000151600082116000809021B00010102C01D
:10276000320904000000FE01020609210BFF0000EF
:10277000041A01000A0600020000004001000000E7
:04000005080000ED02
:00000001FF
