:020000040800F2
:10000000D831002099010008496500086D520008A8
:1000100045650008A9070008E1730008000000001A
:1000200000000000000000000000000001010008C6
:10003000AD0700080000000045010008C16D000880
:10004000B3010008B3010008B3010008B3010008C0
:10005000B3010008B3010008B3010008B3010008B0
:10006000B3010008B3010008B3010008B3010008A0
:10007000B3010008B3010008B3010008B301000890
:10008000B3010008B3010008B3010008B301000880
:10009000B3010008B3010008B3010008B301000870
:1000A000B3010008B3010008B3010008B301000860
:1000B000B3010008B3010008656F0008B301000830
:1000C000B3010008B3010008B3010008B301000840
:1000D000B3010008B3010008B3010008B301000830
:1000E000B3010008B3010008B3010008DFF80CD029
:1000F00000F0F8FA00480047BDE70008D8310020BA
:10010000224B19680868B0E8F00F80F30988BFF344
:100110006F8F4FF0000080F311884EF00D0E704786
:100120000000000006480068006880F3088862B696
:1001300061B6BFF34F8FBFF36F8F00DF00BF00BF0B
:1001400008ED00E0EFF30980BFF36F8F0F4B1A68E3
:1001500020E9F00F106008B54FF0500080F31188CF
:10016000BFF34F8FBFF36F8F0FF046FB4FF00000D0
:1001700080F31188BDE8084019680868B0E8F00FFE
:1001800080F30988BFF36F8F704700BF34000020F1
:10019000EFF3058070470000064880470648004797
:1001A000FEE7FEE7FEE7FEE7FEE7FEE7FEE7FEE727
:1001B000FEE7FEE70D6F0008ED000008202A04DBD3
:1001C000203A21FA02F00021704721FA02F3D040D0
:1001D000C2F12002914008431946704710B5431AF6
:1001E000934209D28318881803E010F8011D03F820
:1001F000011D521EF9D210BD40EA01039B0703D036
:1002000009E008C9121F08C0042AFAD203E011F855
:10021000013B00F8013B521EF9D210BDD2B201E001
:1002200000F8012B491EFBD270470022F6E710B5FB
:1002300013460A4604461946FFF7F0FF204610BD54
:10024000F0B480EA0102D40F4200B2EB410F02D2B7
:100250000246084611464A0042D0C30DDDB2C1F342
:10026000C752AD1A202D35DAC1F3160141F4000250
:1002700004B15242C5F1200602FA06F12A411044A7
:10028000B3EBD05F23D0C4B1012DA0EBC35009DC88
:10029000F0BC4FF0004202EAC352DBB200F50000AE
:1002A00000F0D5B8400000F1807000EBC350A0F121
:1002B000807040EAD170490009E0490841EAC07104
:1002C000A0EBC35000F50000400800EBC350F0BCA9
:1002D00000F0B4B86142012202EB4101001BF6E7D5
:1002E000F0BC704781F00041AAE780F00040A7E72A
:1002F00080EA010210B502F00043400022D04A001B
:100300001FD0010E01EB1261C0F35600C2F356027A
:1003100040F4000042F40002A0FB022000047F39F8
:10032000140400D0401C50EA124001D44000491E81
:10033000C2B20C0604EBD010401C4008802A02D048
:1003400003E0002010BD20F00100002900DA0020A9
:10035000184310BDC10F80EAE0700844CA07962315
:10036000002100F074B896230022114600F06FB807
:1003700000F0004220F00040C10DC0F3160040F430
:1003800000007F2901DA00207047962903DCC1F1C3
:100390009601C84001E096398840002AF4D04042D6
:1003A000704720F00040C10DC0F3160040F400007B
:1003B0007F2901DA00207047962903DCC1F19601FC
:1003C000C840704796398840704700F0004230F0CE
:1003D00000400AD0C10D01F56071C0F3160042EA79
:1003E0000151C20840071143704700200146704781
:1003F00001F0004330B421F0004150EA010206D080
:100400000A0DA2F56072C1F31301002A02DC30BCB0
:1004100000207047440F44EAC104C100E01830BC1A
:1004200000EBC25000F00AB8002801DBC0F1004028
:10043000002901DBC1F10041814270470029A8BFBA
:100440007047401C490008BF20F00100704710B4FD
:10045000B0FA80FC00FA0CF050EA010404BF10BCB2
:10046000704749B1CCF1200421FA04F411FA0CF1DF
:1004700018BF012121430843A3EB0C01CB1D4FEA18
:1004800000614FEA102042BF002010BC704700EB13
:10049000C35010440029A4BF10BC7047401C490041
:1004A00008BF20F0010010BC704710B5141E73F196
:1004B000000408DA401C41F1000192185B411A4324
:1004C00001D120F0010010BD2DE9F04D92469B4670
:1004D00011B1B1FA81F202E0B0FA80F22032904616
:1004E00000F012F904460F4640EA0A0041EA0B0107
:1004F00053465A46084313D0114653EA010019D017
:10050000C8F140025046FFF759FE05460E465046D8
:100510005946424600F0F8F8084305D0012004E0AF
:1005200020463946BDE8F08D0020054346EAE076D6
:100530002C4337430A986305E40AA0EB0800002225
:10054000FD0A44EA47540A3002D500200146E9E793
:10055000010510196941DDE9084500196941BDE847
:10056000F04DA2E72DE9FE4F804681EA0300C00F5F
:100570000C46009021F0004123F00045B8EB02004A
:10058000A94105D24046214690461C460B460246EC
:1005900023F00040104347D0270DC7F30A00C3F3F0
:1005A0000A510290401A019040286BDAC3F31300FD
:1005B00040F4801B0098924620B10023D2EB030A3E
:1005C00063EB0B0B01985946C0F14002504600F016
:1005D0009BF806460D4650465946019A00F0A3F88E
:1005E00010EB08006141002487EA115284EAE773A6
:1005F0001A4340D0009A62B3019A012A4FEA075287
:1006000015DC001B61EB02014FF0004202EA0752C9
:10061000CDE90042001C41F5801132462B46FFF720
:1006200053FF03B0BDE8F08F40462146F9E7001BB9
:1006300061EB0201001C41F5801300185B4120189A
:10064000A2F5001747EB030140EAD570B6196D41DA
:1006500011E06D084FEA360645EAC0754FEA0752C9
:10066000001B61EB0201001C41F5801149084FEAB3
:1006700030000019514132462B4603B0BDE8F04F1F
:10068000FFF713BF0098012240000023D0EB0202C5
:1006900063EBE073009821464FEAE074B8EB00008A
:1006A00061EB0401E9E783F000435BE781F000417F
:1006B00058E7000030B5041E71F1000404DB4FF070
:1006C0000044404264EB0101141E73F1000405DB99
:1006D0001C464FF00043524263EB0403994208BFAB
:1006E000904230BD064C074D06E0E06840F0010343
:1006F00094E8070098471034AC42F6D3FFF7FAFCB1
:10070000E812010808130108202A04DB203A00FA45
:1007100002F1002070479140C2F1200320FA03F358
:10072000194390407047202A06DBCB17203A41FA44
:1007300002F043EAE07306E041FA02F3D040C2F16E
:100740002002914008431946704770B58C1810F884
:10075000015B15F0070301D110F8013B2A1106D106
:1007600010F8012B03E010F8016B01F8016B5B1E20
:10077000F9D12B0705D40023521E0DD401F8013BFB
:10078000FAE710F8013BCB1A921C03E013F8015B67
:1007900001F8015B521EF9D5A142D8D3002070BDEB
:1007A000002800DC4042704700BFFEE770477047FA
:1007B0007CB507F0E1FA0546002000902B46044A7C
:1007C00002210190034801F011FB044620467CBD44
:1007D00019E400081C0501081CB50024019401ACB3
:1007E000009400F0E7F81CBD2DE9FF4F83B081466F
:1007F00006988A46A0EB0A08109E00200090A2EB03
:1008000009043568934654EA080018D02046FFF7DB
:10081000C7FF07464046FFF7C3FF87420BDA204673
:10082000444680464846D14682465846DDF818B0D0
:10083000069001200090002C07DD204606E007B05E
:100840004846BDE8F04F00F03BB96042A0420AD0F4
:100850004846D9466442C8F1000883464FF0FF3746
:10086000DDF818A000E001275148B8F1000F11D0C1
:1008700004EBD4714FEA610B01DACBF1000B4C4869
:100880000068807E88B3002F02DA30682044306030
:1008900000257BE000990029016821D0897E11B1F3
:1008A0000027804615E007B05A4649465046BDE845
:1008B000F04F04F063BE28466D1C0CF0CBFE38B937
:1008C000D8F8000009EB0701406E42685046904797
:1008D0007F1CA742EFDD6D1E356007B0BDE8F08FCD
:1008E0008A7E1AB10027804617E019E0486E5A4602
:1008F0005146036807B04846BDE8F04F1847284600
:100900006D1C0CF0A7FE38B9D8F8001009EB0700F1
:10091000496E4A68514690477F1CA742EFDDDAE7EF
:1009200000250FE008FB05B090FBF4F101EB0A0095
:10093000009951B11E4A09EB05011268526E5268C6
:1009400090476D1CA542EDDDC7E7194909EB05038A
:100950000968496E4A6801461846F1E708FB05B088
:1009600090FBF4F101EB0A000190306838443060EC
:100970000CF070FE48B9009890B10D4809EB0501E4
:100980000068406E4268019890476D1CA542E5DD05
:100990003068002F01DA20443060C01B30609CE7D3
:1009A000034909EB05000968496E4A680199EBE7BC
:1009B000B40000202DE9FF470F4640491646804607
:1009C00009680C981D460A7E012A1CD0A8EB060077
:1009D000791B50EA01031CD0A2F101090DF0B2FC11
:1009E00000F58060824603F03FFC00FB09F45046AE
:1009F00003F03EFC00FB09F1002C0CDAC4F500709A
:100A0000801240420AE00090324639464046FFF7E5
:100A1000EBFEBDE8FF8704F50074A012002904DA9C
:100A2000C1F5007189124C4202E001F500718C128F
:100A3000002804DD411C01EBD171491003E000EBFB
:100A4000D0714910401E00EBD0704210002C04DD24
:100A5000601C00EBD070401003E004EBD470401039
:100A6000641E04EBD47308EB0104ADF800403C189D
:100A7000ADF80240A8EB02045B10B21AADF80440D6
:100A8000ADF808203144FC1AEA1AADF80C102844DD
:100A9000ADF80A20ADF80E000023ADF806401A4666
:100AA0000421684600F07AF8394640460AF09AFC7C
:100AB000294630460AF096FCABE70000B40000205F
:100AC000064A13681A7E012A05D0521E02EBD27222
:100AD000521000F005B85A6E52681047B40000205A
:100AE0002DE9F05F0646884640F2C32002FB00F184
:100AF0004FF47A7091FBF0F702FB02F102EBD27037
:100B000001EB600B1446B118234A301B7F1C12689E
:100B1000526E13680A4641469847012538E000BFE7
:100B200005FB05F004FB040159451CDDBC4219DD41
:100B3000194B06EB050AA6EB05091B68AAF1010291
:100B400008EB04015B6E09F101001B689847124B2A
:100B5000AAF10102A8EB04011B6809F101005B6E18
:100B60001B689847641E0C4B3219301B1B68924659
:100B700008EB05015B6E81461B689847064B5246A1
:100B8000A8EB05011B6848465B6E1B6898476D1C07
:100B9000BD42C5DDBDE8F09FB40000202DE9FF4F48
:100BA00043F6FF740F46664283B09B4681460021A0
:100BB0000BE000BF09EB8100B0F90200A04200DAAF
:100BC0000446B04200DD0646491CB942F2DB6748E4
:100BD0000068406900280DD0B0F906101A46A1EB54
:100BE0000B01B14200DA0E46B0F90200801AA042B1
:100BF00000DD0446B4E0DFF878A100200546CAF81D
:100C0000000088E0781E854201DA6B1C00E00023BA
:100C100009EB850C09EB8302BCF90200B2F9021062
:100C2000A04244D1A14215D139F92330059A39F9AE
:100C3000251003EB020C4D4A05981268084404EB9A
:100C40000B01526E6045136801DA62462AE00246E3
:100C5000604627E02846A4464FF000087A1E0BE0C5
:100C600008B1401E00E0781E09EB8003B3F90230A2
:100C7000634504D108F101089045F1DB2346A34206
:100C800048D01A1B39F92500A1EB040C059B92EA08
:100C90000C0F09D4354A184404EB0B011268526E4C
:100CA00013680246984735E008F014FA32E0A14292
:100CB00030D001DBA04203DDA0422BDBA14229DCC6
:100CC000E04688420ADC0346A04223DC0846A142F3
:100CD00020DBB8F900C0B2F9001008E00B46A142D1
:100CE00018DCA04216DBB2F900C0B8F90010E21A15
:100CF000A1EB0C0151430029A0EB030202DD01EB43
:100D0000620102E0A1EB6201491CC01A91FBF0F004
:100D10006044C9E76D1CBD42FFF674AF05980090B2
:100D200004EB0B00019000208046054613E01149BA
:100D3000B8F1000F31F915A009D0009901EB0A02B2
:100D400008440A490968496E0B680199984788F078
:100D5000010850466D1C064909688D42E7DB641C9A
:100D6000B4427FF748AF07B0BDE8F08FB400002071
:100D700088020020BC2B002010B5002002F0B4F93E
:100D80006FF07F4002F0BBF9012002F013FA00205F
:100D900002F01EFA002002F02BFA002002F0C0F947
:100DA0000448006802F0C8F9BDE81040002002F0D5
:100DB000D3B90000B000002033B583B004001BD0CD
:100DC00001F05CFC204600F03DFE0190456E01A85C
:100DD00000F09AFE049800F035FE009084606846AA
:100DE00000F092FE042204A9284600F0B1FE20463D
:100DF00007F0CEF902F054FC05B030BD33B583B036
:100E000004001BD001F03AFC204600F01BFE0190CC
:100E1000856E01A800F078FE049800F013FE0090A3
:100E20008460684600F070FE042204A9284600F0A1
:100E30008FFE204607F0ACF902F032FC05B030BD61
:100E40002DE9F04104460025D4E90007B0F5407FC4
:100E500000D101252146384606F0DDFA064615B1D7
:100E600038460BF07CFB002E2FD02068052806D0DA
:100E70000B280ED00F2806D0262821D10EE03846A8
:100E80000BF06DFB1CE03846E168BDE8F0410BF06B
:100E9000DDBC3846BDE8F0410BF003BCE068052836
:100EA0000ED1384607F05CF8A168884205D0384674
:100EB00007F046F8A168884202D160680BF0F9FE9D
:100EC0002046BDE8F04106F021BEBDE8F081F0B556
:100ED00085B0B0F90850468A84690296CDE903547A
:100EE0000027CDE90017B0F90C10B0F91050B0F997
:100EF0000E40B0F90A00194410442B46224600F077
:100F000003F805B0F0BD00002DE9F04F85B098461C
:100F1000DDE90E5691468A468346109F129C01F0E9
:100F2000ADFB18486C34CDE90204CDE900564346C8
:100F30004A465146584606F031FD04001BD000F0E9
:100F400044FE054600F041FE0646204600F07AFDCC
:100F50000490C0E919560022119906F085FB049807
:100F6000302209493430FFF739F90498A0F8787035
:100F700004A800F0C9FD02F093FB05B02046BDE8CF
:100F8000F08F0000410E00082401002013B582B04C
:100F9000044601F073FB204600F054FD009060B160
:100FA000406A00F04FFD01460190022303AA009819
:100FB00000F033F901A800F0A7FD684600F0A4FD99
:100FC00002F06EFB1FBD38B504000FD001F056FBD8
:100FD000204600F037FD002100900161806807F095
:100FE000D7F8684600F090FD02F05AFB38BD0000CB
:100FF0002DE9F04385B01D4690460F46814601F02D
:101000003DFB2C2000F041FC060024D0780000F0CD
:101010003CFC04000ED0B8F1000F0BD055B12046B7
:1010200000F010FD6A0041460090FFF7D7F86846CF
:1010300000F06AFD304600F005FD0A49029000F11B
:101040000C02446282E8A20207490160074941603C
:1010500002A800F059FD02F023FB05B03046BDE8C0
:10106000F08300000DC40008F7C9000833C700086A
:1010700038B50C46054601F001FB284600F0E2FCBD
:10108000009040B190F82810A14204D080F8284088
:10109000806807F07DF8684600F036FD02F000FB3E
:1010A00038BD00002DE9F843984615460E46074620
:1010B00001F0E4FA302000F0E8FB040014D000F066
:1010C000C1FC0090C0E9057685840A4A4FF07E5144
:1010D000C0F81C808162D2E90012C0E903120649FF
:1010E0000160684600F010FD02F0DAFA2046BDE823
:1010F000F883000054010020CFCA0008F8B50D465F
:1011000006004FF0000415D001F0B8FA304600F0A8
:1011100099FC0090806A29460446FFF785F904D0BF
:1011200000988562806807F033F8684600F0ECFCB0
:1011300002F0B6FA2046F8BD2DE9F8431D46DDF869
:10114000208016460F46040015D001F097FA20467D
:1011500000F078FC0090C0F860804765C0E9166533
:10116000684600F0D1FC20460BF0F9F9204607F064
:101170000FF802F095FABDE8F883F8B50D460600C1
:101180004FF0000411D001F079FA304600F05AFC1B
:101190000090446CAC4203D04564304606F0F8FF42
:1011A000684600F0B1FC02F07BFA2046F8BDF8B5C5
:1011B0000D4606004FF0000411D001F05FFA3046F2
:1011C00000F040FC0090846CAC4203D08564304653
:1011D00006F0DEFF684600F097FC02F061FA204658
:1011E000F8BDF8B50D4606004FF0000413D001F02D
:1011F00045FA304600F026FC009090F86C40AC4276
:1012000004D080F86C50304606F0C2FF684600F00B
:101210007BFC02F045FA2046F8BD2DE9F04104467A
:1012200080681D4617460E46002826D0D4E90402E1
:1012300090420ED1521E6A4371193046FEF7CEFF1E
:1012400020692A46401E05FB00603946FEF7C6FFAE
:101250000EE005FB0013401C20612A463946184663
:10126000FEF7BCFFE16819B12046BDE8F041084730
:10127000A068BDE8F04100F002B8BDE8F08110B50B
:101280008AB0044600F0DEFB09A904AACDE90021DA
:1012900005AB089006AA07A90AF0FDFE08A800F011
:1012A00033FC02A9204606F0C6FDBDF808000799E8
:1012B0000844ADF80800BDF80A0006990844ADF8E6
:1012C0000A00BDF80C000599401AADF80C00BDF8F5
:1012D0000E000499401AADF80E0002A9204606F04F
:1012E00017FF0AB010BD70B50C46054600F0FEF8B9
:1012F000A8682168C16261680163A1684163490708
:1013000007D5D0E90021C0E90012D0E90221C0E9E7
:101310000212A18981842169002903D001DC4FF0E8
:101320000001016270BD2DE9F0411E461746884656
:10133000054600F0DBF8AC686822414604F586708B
:10134000FEF74CFF2846B8472846B0472869806812
:101350008047A062BDE8F08110B5044600F0C6F8F1
:10136000A0681149144AC0F8AC101049C0F8A81080
:101370000F49C0F8B0100F49C0F8B8100021C0F8EC
:10138000BC101368C0F8B4300C4BC0E9323151685E
:10139000C0F8C41030F8261F21F0030120F82A1BE2
:1013A0000749416410BD00002DD7000875D800081A
:1013B000F5D6000813D200081C010020E3D2000873
:1013C00025D6000810B5044600F090F8A46810482F
:1013D0000821C4F8E4000F48C4F8E8000E48C4F837
:1013E000EC000E48C4F8F0000D48C4F8A0000D4809
:1013F000C4F8A400D4F8C800C4F8FC00D4F89420C1
:10140000204690471020A0630748606410BD00008C
:10141000B1A500088DB700082D1400085D1500085F
:10142000CDD10008D5DA000878100108F8B5846835
:1014300015460F4694F8260080074CD5D4F80031A5
:10144000204698470646D4F804312A4639462046B5
:101450009847D4F8983005461BB100220121204658
:1014600098472069B04201DD012000E00020A16919
:10147000B14201DA012100E0002108436169A9427B
:1014800001DD012100E000210843E169A94201DA00
:10149000012100E0002108430AD060680022401EBC
:1014A00000902368D4F8A870114620465B1EB84708
:1014B000D4F8AC302A46314620469847D4F8A010DC
:1014C00020468847D4F8983005466BB101220021A8
:1014D0002046984708E0D4F8AC3020469847D4F826
:1014E000A0102046884705462846F8BD70B504463A
:1014F0008068002812D14FF4BA75284600F01CFA13
:101500002A460021A06002F06BFEA0680221C1847F
:101510000121046401620249C0F8081170BD000095
:101520002515000810B590B0044620220A496846E7
:10153000FEF754FE08492022203108A8FEF74EFE8F
:10154000606B5DF82010C4F8001108A951F8200064
:10155000C4F8040110B010BD200601082DE9F843BD
:1015600084689846154694F826000F46800740D5B3
:10157000D4F80031204698470646D4F804312A466C
:1015800039462046984705462069B04201DD0120D2
:1015900000E00020A169B14201DA012100E0002150
:1015A00008436169A94201DD012100E000210843EF
:1015B000E169A94201DA012100E0002108430AD0D3
:1015C00060680022401E00902368D4F8A87011467D
:1015D00020465B1EB847D4F8AC302A463146204638
:1015E0009847D4F8A42001B041462046BDE8F04316
:1015F0001047D4F8AC30F2E72DE9F04FDFF828B10E
:1016000091B04FF0FF35DBF80030B3F922100691AE
:10161000DE69B3F924A0F469A189814206D8E28980
:10162000824203D3471AD4F8008012E0D4E9018142
:10163000002970D00A8882426DD84D8885426AD3CD
:10164000801A82B2486800EB8200B0F90070B0F9ED
:101650000250781C5FD0307EA27C014600FB02F96C
:10166000207CCDE90710B3F92A60304604F01CFB5A
:10167000C0B20E90DBF8001007FB0980A37C8A6BD8
:101680000127CDE90402CDE90273C869089AC17E39
:10169000807ECDE90001DDE90603514603F00CFE32
:1016A000681C18D046F0020004F0FEFADBF80000D7
:1016B000A37C05FB0981826BCDE90273CDE904129D
:1016C000C069089AC17E807ECDE90001DDE906038C
:1016D000514603F0F1FDDBF800005D46C069417E34
:1016E000007E814214D9022E12D086F0040004F04C
:1016F000DBFA2868C069027EC37E857E02FB03A1F7
:10170000437E089A0698534402FB050203F060FFEB
:101710000E9804F0C9FADBF80000627C418C114499
:10172000418411B0BDE8F08FB40000200448006887
:10173000C069C06909B1027C0A60407C7047000042
:10174000B4000020022008807047C06982898A4264
:1017500002D8C2898A4210D2806880B102888A4247
:101760000DD843888B420AD3406800EB8100A0EB80
:101770008200B0F90000002801DB01207047002042
:10178000704700002DE9F0410025154E154C18E07A
:101790002069C5EB051700EBC7007022001D3168FA
:1017A000FEF71CFD2069002140F8371000EBC70050
:1017B00000F10C018161011D0A1DC0E90F126D1CB1
:1017C0004164A0688542E3DB0AF0CEFC2169C0EBEE
:1017D000001001EBC000001D3060BDE8F08100008A
:1017E000B4000020F001002070B50F490D480860DA
:1017F000084602F0EDFC0C4C143CA068C0EB001055
:10180000C500284600F098F82A460021206102F021
:10181000E7FC4FF0FF30206001F068FFBDE870404A
:101820000AF0A2BCEDC7000804020020F8B50C00C5
:1018300005460FD000F022FF204600F017F8060002
:1018400010D000F0FFF8224600902DB12946FEF797
:10185000C5FC04E00020F8BD002102F0C1FC684690
:1018600000F052F901F01CFF3046F8BD10B504003D
:1018700009D000F003FF204607F090FC044601F079
:101880000FFF204610BD002010BD38B5054600F002
:10189000F5FE2846FFF7EAFF040009D000F0D2F871
:1018A0002A460021009002F09BFC684600F02CF9CB
:1018B00001F0F6FE204638BD024A106021F0030018
:1018C00050607047882A002010B5040016D000F040
:1018D000D5FE0B48406B10F8341059B1022909D2DB
:1018E000042101EBC4014158486807F00FFC204671
:1018F0000BF058FCBDE8104001F0D2BE10BD000056
:10190000C8290020002805D0034AD16B016001B12D
:101910004860D06370470000C829002010B5044615
:1019200000F0ACFE2068FFF7CFFF00202060BDE88C
:10193000104001F0B5BE00002DE9F04104460AF068
:10194000D1FC2848E41C24F00305016C2D1DA9429C
:1019500000D90D46C46B13E054F8042CAA420ED1F2
:1019600084B1216809B162684A60616809B122687E
:101970000A60C26BA24231D12168C1632EE02468A3
:10198000002CE9D18046816BC0680F1857F8040C11
:101990003E1A306838B100200BF010FD57F8040CE7
:1019A0003E1A3068D0B97068A84217DB3044441B37
:1019B0003046241D0BF0BAFCD8F80C10491BC8F8AF
:1019C0000C10D8F814102944C8F814107068401B83
:1019D00002D0314607F09AFB44F8045C2046BDE88B
:1019E000F0810000C829002010B500240AF07AFC1C
:1019F0000C490F2001EBC002526C1AB101EBC00080
:101A0000406C08E0401EF5D508E04168A14200D9CD
:101A10000C46806810B180680028F6D1A4F10C0053
:101A200010BD0000C8290020002138B1044904225B
:101A300002EBC000496B085841680C3908467047F2
:101A4000C82900200549CA69521CCA61496B01EBCB
:101A5000C0010A78521C0A7000F06EB8C829002034
:101A60007CB506460C460846FFF700FF050020D06F
:101A7000FEB13046FFF7D8FFA04200DA044600F07E
:101A8000FDFD2846FFF7DEFF00903046FFF7DAFF46
:101A90000146019022460098FEF7A0FB684600F040
:101AA00033F801A800F030F83046FFF70DFF01F0E1
:101AB000F7FD28467CBD000010B500F0DFFDFFF704
:101AC00093FF64220849B0F5800F04D990FBF2F42B
:101AD000086A444303E0096A4143B1FBF2F401F0B0
:101AE000DFFD204610BD0000C82900200549102850
:101AF00005D94A68B0EB520F02D3500800E010201D
:101B000088607047882A00200A4902684B6B52F8A7
:101B1000082C03EBC2021378022B03D3CB690BB161
:101B20005B1ECB611178491E1170002101600846CF
:101B300070470000C8290020002806D0034904226D
:101B400002EBC000496B085808307047C8290020D4
:101B50002DE9FC414FF000060B465FEA00083446D1
:101B60002BD032B111461846FFF760FE060000D1B7
:101B700001244046FFF766FF0090078845686846E5
:101B8000FFF7C2FFCCB9B9002846091DFFF768FF6F
:101B9000050015D0FFF756FF019040F8276001A817
:101BA000FFF7B2FF4046FFF74DFF00904560018808
:101BB000491C01806846FFF7A7FF2046BDE8FC816D
:101BC0003046FFF781FE0124F7E70820FFF75DBEEE
:101BD0007CB5050023D0FFF735FF00904068C0B109
:101BE000FFF730FF0024019005E0019800EB84002E
:101BF000FFF794FE641C00980088A042F5DC01A861
:101C0000FFF782FF0098001DFFF788FE0099002073
:101C100008806846FFF778FF2846FFF755FE7CBD31
:101C200038B5002430B1FFF70DFF009004886846F6
:101C3000FFF76AFF204638BD38B50D46002448B18D
:101C4000FFF700FF2946009000F006F804466846BA
:101C5000FFF75AFF204638BD38B50D4601880024ED
:101C6000A94209D9406838B1FFF7ECFE009050F85E
:101C700025406846FFF748FF204638BDF0B52D27C0
:101C80001C68B0F1004F08D0002600280DDA651C52
:101C90001D6027704042012408E0651C01261D607C
:101CA0006FF000402770491E01E00024091BC9B2F3
:101CB0002AB3491EC9B222E00C46491EC9B2944259
:101CC00005D1124C27781C68651C1D602770104CCC
:101CD00054F8215090FBF5F4E4B20A2C11D804FB1F
:101CE000150011B90EB1641CE4B20A2C02D1012412
:101CF000491CC9B21D686F1C30341F602C7000294C
:101D0000DAD1196800200870F0BD0000A80000209A
:101D1000AC10010810B5002807DD0A682B24531CFD
:101D20000B601470096800220A7010BD10B5C2B2B1
:101D3000CBB2D21A00D5524293B25B43C0F3072212
:101D4000C1F30724121B00D55242000C92B2A0EB43
:101D5000114002FB023200B2002801DA404200B218
:101D600080B200FB002010BD10B50021084600F035
:101D700031FC43F6FF725042BDE810401346014665
:101D8000AFF300802DE9FC411C4615460E46074680
:101D900000F074FC042003F087FF80461248C068FE
:101DA000C16C006D0F4406440D440444ADF800704E
:101DB000ADF80450ADF80260ADF80640684606F094
:101DC000DBFD07E023462A463146384603F000FC97
:101DD00006F094FD0028F5D1404603F065FF01F0C0
:101DE0005FFCBDE8FC810000A80000202DE9F8435D
:101DF0001C00DDE9089816460F46054602D105F09D
:101E0000BBFF044600962E6843464A4621462846B4
:101E1000B047061E39D005F0A4FF8146698A3046D6
:101E200005F08DFB304606F04FFC484606F04CFCB2
:101E30004FF000080CE000BFCDF8008055F81CCF33
:101E400000231A4649462846E04700B306F03CFC0A
:101E50007F1E002FF0DC1D21484606F00AFB601CA7
:101E600012D000F00BFC05F0C1FF30B1FFF764FEAB
:101E70008469B44201D02000F8D1B44202D0304687
:101E800006F094FB01F00CFC3046BDE8F8833046C8
:101E900005F074FE0020F8E72DE9F0411C461646D7
:101EA0000D460746022B02DB0020BDE8F0811C2016
:101EB000FFF742FD0028F8D00DB105610AE0094A9C
:101EC00052F8241009B905E011460A68002AFBD12E
:101ED0000969016184618682002101604160C0E975
:101EE0000217E2E7CC00002070B51D46FFF7D4FFD3
:101EF000040009D000F00EF8E068006820B903483B
:101F0000006800EB85008465204670BDB4000020A9
:101F1000FFF7F8BC70B590B38269022A30DA1E4C24
:101F200054F8221019B944F8220032E019464B68DF
:101F3000002BFBD106E0CB68C5681B682D68AB425F
:101F400003DD09680029F6D11AE0C1B1CB68C66883
:101F50001B683668B3420CD1838A012B05D008E098
:101F60001946DB681B68AB4203DB0B68002BF7D11B
:101F700029B14B6833B118604A68426004E0FFE75A
:101F8000012070BD44F822004860884200D1002141
:101F90000160002070BD0000CC00002010B503E0FF
:101FA0000468FFF7B7FF20460028F9D110BD0000F4
:101FB0000A4A816952F82130834202D1036842F80B
:101FC0002130416809B102680A60016809B14268BC
:101FD0004A6000210160416070470000CC00002091
:101FE00000207047022801DB00207047054951F8A6
:101FF000200004E0C16809680029F6D000680028C4
:10200000F8D17047CC0000201FB503ABCDF80CD041
:10201000FFF734FE684600F019F81FBD002207F0F4
:10202000CDBB7FB50C461546CDF80CD003A9FFF704
:1020300071FE002801DD641EE4B203AB2A4621468E
:10204000FFF71CFE684600F001F87FBD2DE9FC4754
:1020500006005FD000F012FB00F05AFA3C4C8146BB
:102060002068B0F9228000F087FA216807468A8C40
:10207000D01B888441E000BF47F6FF71304601F075
:1020800055FF82460146304601F026FF216805468D
:1020900091F82C0000F00300012841D002283BD029
:1020A00000204A8C101A4884ADF800006A1E1044C3
:1020B000ADF80400888CADF80200A9F101010844D4
:1020C000ADF806006A465146304601F0BDFC216875
:1020D000BDF8020088845146304601F0CFF906442D
:1020E00030780A281ED00D281CD0BDF800002168C9
:1020F00028444884307818B1761C30780028BBD149
:102100002068818C39448184818D21F0030181858F
:1021100001F0C6FABDE8FC8705EBD5704010C0E7BA
:102120002846BEE7206890F82C1001F00301012931
:102130000BD0022909D0018C418431780A29D9D1E8
:10214000828C02EB09018184D4E7A0F82280F4E7B5
:10215000B40000202DE9F04F87B09B46DDE91098D0
:1021600092460C46054600F089FA16480168C86C8C
:10217000096D47190E1900EB0A0501EB0B04ADF8C8
:102180001070ADF81450ADF81260ADF8164004A808
:1021900006F0F2FB88B1DFF830B04FF0000ACDE96D
:1021A0000098CDE902BA2B4622463946304608F05F
:1021B0005DFE06F0A3FB0028F1D101F071FA07B033
:1021C000BDE8F08FB40000207D5500082DE9F04FE8
:1021D00087B09B46DDE9109892460C46054600F014
:1021E0004DFA16480168C86C096D47190E1900EBC5
:1021F0000A0501EB0B04ADF81070ADF81450ADF802
:102200001260ADF8164004A806F0B6FB88B1DFF8FE
:1022100030B04FF0010ACDE90098CDE902BA23466B
:102220002A463146384608F021FE06F067FB0028B2
:10223000F1D101F035FA07B0BDE8F08FB40000200D
:10224000BD5400082DE9FE4F9846DDE90D651446A2
:102250008A4683460C9F00F011FA0E480068C16C54
:1022600001EB0409016D002001EB080406F084FB7A
:102270000AE00097CDE9016523464A465146584693
:1022800008F0B4FE06F03AFB0028F2D1BDE8FE4F9C
:1022900001F006BAB40000202DE9FC4114460D46B9
:1022A000064600F0EBF9114F3968C86C096D05441A
:1022B00004440E44ADF80050ADF80440ADF802609F
:1022C000ADF80660684606F057FB08E0386822461D
:1022D0003146406E03682846984706F00FFB0028F9
:1022E000F4D101F0DDF9BDE8FC810000B40000206C
:1022F0002DE9F0411C4615460E46074600F0BEF992
:102300000C480168C86C096D074405440E440C4430
:10231000002006F031FB07E023462A4631463846C6
:10232000FEF75AFA06F0EAFA0028F5D1BDE8F041C6
:1023300001F0B6B9B40000207CB50C46064600F0AA
:102340009DF90F4D2868C16C006D0E440444ADF832
:102350000460ADF80060ADF80640ADF80240684694
:1023600006F00AFB07E028682146406E42683046C6
:10237000904706F0C3FA0028F5D101F091F97CBD31
:10238000B40000202DE9FC411C4616460D460746C8
:1023900000F074F91A480168087ECA6C096D174488
:1023A0000D440C44401E391A1644ADF80010311883
:1023B000ADF80410291A2044ADF80600ADF802105B
:1023C000684606F0D9FA15E032462946384603F049
:1023D00075F832462146384603F070F8621E691CD3
:1023E000384603F0CBF8621E691C304603F0C6F88D
:1023F00006F084FA0028E7D101F052F9BDE8FC812B
:10240000B40000207CB514460D46064600F036F9AF
:102410000F480068C16C006D0E4405440444ADF8DB
:102420000060ADF80460ADF80250ADF806406846B3
:1024300006F0A2FA06E022462946304603F09EF84E
:1024400006F05CFA0028F6D101F02AF97CBD000004
:10245000B400002010B5002400E0012400F004F8CE
:102460000028FAD1204610BD094810B500680024A4
:1024700010B1804700B1012405F0F8FB00B1012440
:102480000448006810B1804700B10124204610BD07
:10249000D8000020D4000020034951F82000C16872
:1024A0008A6A082110470000CC00002010B50446BD
:1024B00000F0E4F8054800210068C0694268204641
:1024C0009047044601F0ECF8204610BDB40000200F
:1024D00070B50C46054600F0D1F806482146006864
:1024E000C069426828469047044601F0D9F8204662
:1024F00070BD0000B400002010B500F0BFF803F07C
:1025000097F803F021F9044601F0CAF8204610BDFF
:1025100010B500F0B3F804480068C069447E01F0CB
:10252000BFF8204610BD0000B400002010B500F038
:10253000A5F801F0C7FC044601F0B2F8204610BD32
:1025400010B500F09BF803480068847E01F0A8F8FD
:10255000204610BDB400002070B50C46054600F0C2
:102560008DF82146284601F0FDFCBDE8704001F0E1
:1025700097B801F0B6B8000010B5002400F07EF85E
:102580000B48006890F82C1001F00C01042904D0CD
:10259000082906D00C2907D103E0C069047E641E17
:1025A00002E0C069007E440801F07AF8204610BDC0
:1025B000B4000020024951F820000069006870470B
:1025C000CC000020024951F82000006940687047A3
:1025D000CC00002070B50D46044600F04FF82046B0
:1025E00009F0E0FD0446284609F0E4FD044301F04B
:1025F00057F8204670BD00002DE9F04119480168E8
:1026000021F001010160184801258560174901602A
:1026100000681749884200D0FEE701F045F9154EE1
:102620002E20307001F061F8134809F021FE0CF003
:1026300009F8074603F042F810B103F053F838B92F
:1026400003F059F8044603F042F8214603F026FB54
:102650000021084600F08EFD05F0F0FC757038464C
:10266000BDE8F081002000E000300240C2A507F480
:10267000CDB5E8B5A8000020942A002070B5184C0C
:10268000E06820B101F029F86168884204D001F0C7
:1026900043F801F022F86060E068401CE060012827
:1026A0001CD109F061FD05462068854216D000283E
:1026B00013DBFFF795FC01462068C0EB0012206990
:1026C00000EBC2025167C5EB0511064A00EBC100E1
:1026D000011D1160406FFFF761FC256070BD0000B7
:1026E000F0010020B400002010B5011E01DD0246FB
:1026F00000E04A42064B012053F82040944202D8A1
:10270000401C0A28F8DB002900DA401C10BD00003C
:10271000AC1001081CB5040004D10E480068046E1A
:10272000002C16D0FFF7AAFF2046FFF78BF9009088
:1027300044696846FFF7E8F94CB12046FFF782F993
:10274000019081688968884701A8FFF7DDF900F0EA
:10275000A7FF1CBDB400002001490A4600F002B8E2
:1027600001F0FFFF2DE9F04387B015460C465FEA04
:10277000000846D0FFF782FF002000F0D1FC814620
:1027800021480068066E4046FFF75CF9009000683B
:10279000806900F08DFC074640F6FF70C44204D10A
:1027A0000098B0F90440B0F906500098611E028903
:1027B000ADF804401144ADF808104189681E084482
:1027C000ADF80650ADF80A0005F054F86846FFF77A
:1027D0009BF901A806F0D0F806E02A4621464046BB
:1027E00000F088FB06F08AF80028F6D1384600F0A1
:1027F0005FFC304600F090F9484600F091FC00F094
:102800004FFF07B0BDE8F083B40000202DE9FE4F74
:10281000984691468A46834600270C9EFFF72EFF76
:10282000184819490068407C51F82040E16809685F
:10283000042903D02468002CF8D100E01CB9FFF76C
:10284000D1FB041E1BD0E0680121C26A20469047DC
:10285000050011D02469A0688047401C02D10B4CB0
:1028600046F001060096CDE9015443464A465146DA
:10287000584600F0E5F9074600F012FF3846BDE87B
:10288000FE8F0000B4000020CC000020EC100108F6
:1028900038B504001CD0FFF7F1FE0E480068006E4A
:1028A000A04201D100F0F6FB2046FFF7CBF80090E4
:1028B000406908B100F0DDFE00980068FFF728FBD2
:1028C0006846FFF721F92046FEF7FEFF00F0E8FE1C
:1028D00038BD0000B40000202DE9FF4F83B09A46B8
:1028E0008B460746FFF7CAFEDFF83891D9F800009B
:1028F000447C4D4800570128204606DD02F0E4FEE6
:102900000546204602F0F4FE05E002F0C5FE05464D
:10291000204602F0C7FE04461FB302A901A8FFF734
:102920001BFEB7F90000002800DA0020B7F90260AA
:102930008046002E00DA002601984119B7F90400FC
:10294000491E09F073FE054602980119B7F9060001
:10295000491E09F06BFEA5EB0802841B521C641C87
:1029600003E04FF0000846462A46BAF1000F01D1B5
:10297000C4F1000A002A51DD002C4FDD10980090B0
:10298000534631464046FFF741FF5FEA000A10D048
:1029900000F07CF80746A04206D0D9F80000806C11
:1029A00010B1322106F006FB504600F0B5F80025C4
:1029B00023E059460598884700F072FE012007B0D1
:1029C000BDE8F08F611BB94202DA504600F088F88A
:1029D0003DB172194146504600F0C6F85046FFF727
:1029E00099FE5946059888471048016809B10020AA
:1029F00088475046FFF7B0FE3D44A542E2DB504613
:102A0000FFF746FF002000F087F8A74206D0D9F86C
:102A10000000806C10B1332106F0CCFA00F040FECB
:102A20000020CCE7B4000020EC000020340200209D
:102A300038B505004FF0000411D0FFF71FFE2846FF
:102A4000FFF700F80090006800698068804703F095
:102A500011FB04466846FFF757F800F021FE2046B8
:102A600038BD38B504000ED0FFF708FE2046FEF74B
:102A7000E9FF00F1180400906846FFF745F800F000
:102A80000FFE204638BD002038BD000038B5044692
:102A90000025FFF7F3FD1CB908480068046E44B137
:102AA0002046FEF7CFFF0090B0F90A506846FFF7C6
:102AB0002BF800F0F5FD284638BD0000B4000020DA
:102AC00070B505460024284606F06EFD641C18B15A
:102AD000BDE8704000F07AB8052CF4DB70BD000052
:102AE00038B50C46050004D10A480068056E002D73
:102AF0000FD0FFF7C3FD2846FEF7A4FF0090B0F902
:102B00000A10A14200DD44816846FEF7FDFF00F097
:102B1000C7FD38BDB4000020F8B50546FFF7AEFD8F
:102B2000104E3068046ECDB10CB100F0B3FA04F071
:102B3000DDFF2846FEF786FF009031680D660068CD
:102B4000FFF7E8F96846FEF7DFFF03F0F5F803F05A
:102B500085F800BF00F0A4FD2046F8BD00F09AFA09
:102B6000F8E70000B40000207CB515460E460400CE
:102B700004D115480068046E002C24D0FFF77EFDB8
:102B80002046FEF75FFF2DB20090C58034B28480EE
:102B900003F064F80098406980B1FEF753FF009A93
:102BA0000190B2F908108180B2F90A20C28011B1F7
:102BB0000AB10480458001A8FEF7A6FF6846FEF72B
:102BC000A3FF00F06DFD7CBDB400002001490A4662
:102BD00000F002B801F0FFFF7FB515460C46060075
:102BE0002DD0FFF74BFD3046FEF72CFF40F6FF716E
:102BF0000190CC4203D1B0F90440B0F906500289EB
:102C0000611E1144ADF80840ADF80C104189681EF2
:102C10000844ADF80E00ADF80A5001A8FEF774FFA5
:102C200002A805F0A9FE06E02A462146304600F03B
:102C300049F905F063FE0028F6D100F031FD7FBDB3
:102C40002DE9FF4FDFF8E8B083B01C46DBF8001039
:102C5000DDE9106092464FF000084B7C4246129925
:102C6000FFF71AF9050060D028698068804703F0F3
:102C700001FA81460AFB09F1C91DCF08FEF71CFFC6
:102C8000F10705D1C11700EB9170801000EB4000F7
:102C9000002C09DC1FB11838B0FBF7F000E0002071
:102CA0006442A04200DC0446F00707D10090DDE951
:102CB00003012346524600F061FC8046002C03DCF1
:102CC0002846FFF725F930E004FB07F01830F1073C
:102CD00002D0FEF7CBFD01E0FEF7D7FD06001CD0C9
:102CE000FEF7B0FE01900560039981800499C180D0
:102CF000A0F808A04481C0F81480C0E9037901A8B5
:102D0000FEF702FF1298AE602861DBF80000407CFD
:102D1000A861304607B0BDE8F08F2846FFF7F8F805
:102D2000B8F1000001D0FEF7CFFD0020F2E700006F
:102D3000B40000202DE9F74F8EB0144689460E9856
:102D4000FEF780FE0990B0F908B0B0F90A6000689B
:102D5000006940680C9009A8FEF7D6FE564D574F03
:102D60002868407C57F82000C1688A6A082190478B
:102D70000790182801D3202007902868407C57F836
:102D800020000069069003C80B904D48814201D095
:102D9000012000E000200A90002000F0CFFC002875
:102DA0007DD1286809EB0B01B0F90C20891A491E66
:102DB000002902DDABEB010500E05D46B0F908102B
:102DC000494505DDA1EB090189446D1A089101E02F
:102DD00000210891002D6BDDB0F90E20A119891A90
:102DE000491E002902DDA6EB010800E0B046B0F95B
:102DF0000A00A04204DD061B3444A8EB060800E0EC
:102E00000026B8F1000F53DD089801900DA95F4628
:102E1000DDF830A00E980091FFF723FE774300EB1A
:102E2000870101982B4601EB800200994846CDE9C5
:102E300000A1214600F06EFE0090002838D00A98CC
:102E4000E8B1DDE906322946009800F027FDB0B967
:102E50000698009FDA46D0F810C0BCF1000F05D0EC
:102E600004235A4639463846E04708E00B9938684B
:102E7000884701C7AAF101005FEA000AF6D100996C
:102E80000020079ACDE90301059001200090CDE9CB
:102E9000010221460346641C2A46484600E007E03A
:102EA00002F00AFAA8F10100761C5FEA0008ABD133
:102EB00011B0BDE8F08F0000B4000020CC0000206D
:102EC00067570008F8B515460E460746FEF7BAFDE7
:102ED000009000681621C068426A002090470446AE
:102EE0006846FEF711FE002C03D02A4631463846CC
:102EF000A047F8BDF8B516460F46050012D0FEF7FC
:102F0000A1FD009044696846FEF7FEFD2846FFF7E4
:102F10008FFD0346082800DD2CB13246394628468D
:102F20000AF012FEF8BD3246394628460AF0ACFFD8
:102F3000F8BD10B5002821D009B30AB3B1F900409B
:102F4000B2F900309C4200DA23460380B1F9024016
:102F5000B2F902309C4200DA23464380B1F90440C2
:102F6000B2F904309C4200DD23468380B1F906109B
:102F7000B2F90620914200DC1146C18010BD114615
:102F80000A6802604968416010BD00280BD00388C0
:102F90000B44038083881944818041881144418017
:102FA000C1881144C180704770B50025FFF766FBEA
:102FB000094CD4E9002082420AD0D2E900561046DA
:102FC00009F00EF920603146284605F06DF901251B
:102FD00000F066FB284670BDE00100202DE9FC41B1
:102FE000154DDDE908742D68B5F90860864200DDED
:102FF0003046B5F90C60964200DA3246824219DB5F
:10300000B5F90A608E4200DD3146B5F90E509D4299
:1030100000DA2B468B420DDB00E02C46E5682D687C
:1030200025B1042D02D02568002DF6D1CDE900741C
:1030300002F0FEFCBDE8FC81B4000020B0F90220E3
:10304000B1F906309A4213DCB1F90220B0F906302A
:103050009A420DDCB0F90020B1F904309A4207DC45
:10306000B1F90010B0F90400814201DC0120704781
:10307000002070470146024870220068FDF7AEB894
:10308000B4000020024970220968FDF7A7B80000CB
:10309000B400002010B5FFF7F1FA02F095FD02F040
:1030A0004BFE04F0E7FBBDE8104000F0F9BA000069
:1030B00070B50B4D04462868467CFFF7DFFA022CFA
:1030C00009D22046FEF78EFF28B128684474FFF726
:1030D000E1FF0448046000F0E3FA304670BD0000F0
:1030E000B40000206C01002010B50446FFF7C6FABA
:1030F000204602F089FDBDE8104000F0D1BA10B5BD
:103100000446FFF7BBFA204602F0B6FDBDE81040CA
:1031100000F0C6BA0149886070470000A80000208E
:1031200010B50446FFF7AAFA204602F0BDFD04469A
:1031300000F0B6FA204610BD70B50446FFF79EFABF
:1031400004480068C56904B1C46100F0A9FA2846C2
:1031500070BD0000B400002070B50546FFF78EFA80
:1031600003480068847E857600F09AFA204670BD98
:10317000B400002070B50C460546FFF77FFA0948F9
:10318000224605800848048008480068417C0848B9
:1031900050F82100C1680B6A29469847BDE8704085
:1031A00000F07EBAF4000020F6000020B4000020F9
:1031B000CC00002070B50546FFF760FA03480068B0
:1031C000047E057600F06CFA204670BDB400002045
:1031D00070B50446FFF752FA04480068B0F92C5065
:1031E000848500F05DFA284670BD0000B400002020
:1031F00070B50446FFF742FA04480068B0F92A5057
:10320000448500F04DFA284670BD0000B40000204F
:1032100002480068002800D0004770470C020020D8
:1032200002498A6802B98860FFF7F2BFE001002016
:103230002DE9FC41984616460D460746FFF71EFA53
:103240001C20FEF722FB04002DD01C491A48086000
:103250002046FEF7F7FB009015B9FFF78AF90546FF
:1032600000980760C0E90465A0F80C806846FEF786
:103270004BFC204609F0FEF8114DA86840B901202A
:10328000A86005F10C010F480860084600F0A0FF97
:103290002046FEF7D7FB0190296849B181602C6078
:1032A00001A8FEF731FC00F0FBF92046BDE8FC81E7
:1032B00000212C608160F3E7F1320008D800002083
:1032C0008C0200203DC8000810B504000ED0FFF7A6
:1032D000D5F920460AF044F820460AF0D3FB2046F0
:1032E000FEF7F2FABDE8104000F0DAB910BD0000B8
:1032F0002DE9F04188B00025FFF7C0F9184C676848
:1033000025E000BFFFF735F906466068FEF79AFB37
:1033100001904169891B002915DC616802960491BE
:103320000169039146686660D0F8008001A8FEF745
:10333000EBFB02A84146884766B160680125B842A8
:1033400005D1002506E001A8FEF7DEFB02E060687B
:103350000028D7D100F0A4F908B02846BDE8F081D4
:103360008C02002038B50C46050011D0FFF786F915
:103370002846FEF767FB00908089204201D0012497
:1033800000E000246846FEF7BFFB00F089F900E08A
:103390000124204638BD38B5040017D0FFF76EF978
:1033A0002046FEF74FFB0090FFF7E3F80146009838
:1033B0008269114441616846FEF7A6FB20460AF087
:1033C00061FB204609F056F800F06AF938BD38B5BF
:1033D0000C4605000BD0FFF751F92846FEF732FBEB
:1033E000009084616846FEF78FFB00F059F938BD04
:1033F00038B50546002028600648046844B12046D8
:10340000FEF720FB0090006928606846FEF77CFB11
:10341000204638BD8C02002038B504004FF0000073
:103420000D46086011D02046FEF70CFB0090846822
:1034300044B16846FEF768FB2046FEF703FB0090A8
:10344000006928606846FEF75FFB204638BD000033
:103450002DE9F041084E04460568306801682846A9
:1034600088470746306841682846884728442060D6
:103470003846BDE8F0810000B80000202DE9F04199
:103480000C4606460025064F05E038684168304680
:10349000884706440544641EF7D22846BDE8F081FB
:1034A000B80000202DE9F0411E46069C17468846CC
:1034B00005463A46A8687F1C3346D0F804C041460A
:1034C0002846E047641EF4D1BDE8F08170B5B0F93C
:1034D0000040091BB0F904408C422CDD00F11404BB
:1034E000B0F902500069521B02FB0040CA1800EB01
:1034F000E104521ED010B0EBE10501F007034FF0DC
:10350000FF0102F0070221FA03F0C2F1070201FAFB
:1035100002F1CEB221780FD001436D1E04F8011BD9
:10352000002D05DDFF2229462046FCF777FE2C44BE
:1035300020783043207070BD30400143217070BD51
:1035400010B5B0F90030B0F90240C91A00F1140307
:103550000069121B02FB003000EBE10001F00703E1
:1035600002788021D9400A43027010BDB0F90610DC
:10357000026951431430FCF758BE00002DE9F843AE
:10358000804602F10F000011470003FB07F01C46C4
:10359000154689461430FEF778F9060018D0FFF773
:1035A0006DF83046FEF74EFA0090A0F80080A0F8C3
:1035B00002908580C4800749816001218181076173
:1035C0006846FEF7A1FA00F06BF83046BDE8F883D4
:1035D0000020FBE77812010870B5B0F90660B0F979
:1035E00004400B6800F1140596421BDD0069A342FC
:1035F00002FB005000EBE30214DA641EE010A0EBC3
:10360000E30512F8010B03F00704A040C4B206E082
:1036100045B1083312F8014B23F007036D1E002C4F
:10362000F6D004E0002070BD6006040E5B1C20068E
:10363000FAD5FF2C07D0184602E06406240E401C81
:103640006606FAD400E0D81DC443640705D006E03E
:1036500012F8014BFF2C09D108306D1EF8D5C01AA5
:10366000401C0B6070BD6206140E401C2206FAD48A
:10367000F5E738B50546FFF701F82846FEF7E2F909
:1036800000908189491E0CB284816846FEF73CFA9D
:1036900014B92846FEF718F900F002F838BD00000A
:1036A0000348C168491EC16001D100F03FB87047AE
:1036B000F001002010B54FF480510548FEF7FCF8EA
:1036C0008020FEF713FA0348FFF724FD10BD000029
:1036D00010030020540D0108704710B50BF072F96B
:1036E00010BD10B50CF03CFD10BD70471CB500209E
:1036F000019001A80BF0D4F8054908600020009063
:10370000012168460BF030F9024908601CBD000039
:10371000040000200800002010B54FF0FF310248DF
:1037200000680BF0EBF810BD0400002010B5024853
:1037300000680BF0BBF810BD040000200EB508B106
:1037400002AA00E00022002301A9684600F06CFBF9
:103750000EBD0000074910B50C7818B101200870A3
:10376000801E03E0002008706FF07F4001F08EFDA6
:10377000204610BDEE00002010B5082A0EDC0346DE
:10378000012A18D0022A56D0042A76D010F8042B29
:1037900003F8012B491EF9D1012010BD102A08DCC5
:1037A0004FEA000230F8043B22F8023B491EF9D1EF
:1037B000F2E7002010BD10F8042BD207120E491EAC
:1037C00034D010F8044B491E04F0010442EA84127C
:1037D0002CD010F8044B491E04F0010442EA4412B4
:1037E00024D010F8044B491E04F0010442EA0412EC
:1037F0001CD010F8044B491E04F0010442EAC40234
:1038000014D010F8044B491E04F0010442EA84026B
:103810000CD010F8044B491E04F0010442EA4402A3
:1038200004D010F8044B04F00104224303F8012BE8
:103830000029C0D1B0E710F8042B9207120E491EE0
:1038400015D010F8044B491E04F0030442EA041298
:103850000DD010F8044B491E04F0030442EA840220
:1038600005D010F8044B04F003042243491E03F86A
:10387000012B0029DFD18FE7FFE710F8042B120797
:10388000120E491E05D010F8044B04F00F04224319
:10389000491E03F8012B0029EFD17DE738B500243C
:1038A000009400F01DF838BD0B4810B5816900295F
:1038B00010D101218161FFF7FDFEFDF795FF02F0B8
:1038C0007DFA054905481C310860BDE810400846EE
:1038D00000F07EBC10BD0000A80000208DC70008CD
:1038E0002DE9F0410D460699044601B901461F68CD
:1038F000082A09DC0E46012A1AD0022A5BD0042AC3
:103900007DD0082A13D18DE0102A07DCD3F810C02F
:103910000E46BCF1000F04D0022389E00020BDE870
:10392000F08101CCB84726F8020B6D1EF9D189E071
:1039300001CCB847C0074FEA10686D1E36D001CCE5
:10394000B84748EA801000F0FF086D1E2ED001CC69
:10395000B84748EA401000F0FF086D1E26D001CCA1
:10396000B84748EA001000F0FF086D1E1ED001CCD9
:10397000B84748EAC00000F0FF086D1E16D001CC21
:10398000B84748EA800000F0FF086D1E0ED001CC59
:10399000B84748EA400000F0FF086D1E06D001CC91
:1039A000B84740EA080000F0FF086D1E06F8018BDA
:1039B000002DBDD146E001CCB84780074FEA106822
:1039C0006D1E16D001CCB84748EA001000F0FF0881
:1039D0006D1E0ED001CCB84748EA800000F0FF0809
:1039E0006D1E06D001CCB84740EA080000F0FF0881
:1039F0006D1E06F8018B002DDDD123E0FFE701CC21
:103A0000B84700074FEA10686D1E06D001CCB847D2
:103A100040EA080000F0FF086D1E06F8018B002D3B
:103A2000EDD10FE0D3F810C0BCF1000F04D001239A
:103A30002A462046E04705E001CCB84706F8010BCE
:103A40006D1EF9D101206AE77CB5064628480D466F
:103A5000006868B1002004F08FFF06E06A4629463E
:103A6000304605F017FF04F049FF0028F6D17CBD71
:103A7000106800901F4C506801902268BDF800004B
:103A800032F84C1F0844ADF80000BDF802009188E0
:103A90000844ADF80200BDF8040011880844ADF8F0
:103AA0000400BDF8060091880844ADF80600684699
:103AB00004F062FF0EE000BF2068BDF800106A4607
:103AC0004184BDF8021081842946304605F0E2FEAB
:103AD00004F014FF0028EFD1206830F8221F428D37
:103AE000891A01804188C28D891A41807CBD0000FD
:103AF000F0000020B400002049B1002802DAA0EB59
:103B0000610001E000EB610090FBF1F070470020E4
:103B1000704700002DE9FF4F8DB00020DDF86CA04C
:103B2000164600901D4604460246CAF8000008AB3F
:103B300003A902A800F078F918B1002011B0BDE87F
:103B4000F08F0898854200DD0546614F0B9561496D
:103B50003868407C51F82010049109690691FEF7FD
:103B60009BFC05903868407CFEF72CFD5A49814645
:103B7000884204D05949894501D0012000E0002045
:103B80000A9001CE1A9988478346000E079077D095
:103B9000009870BB0D9800EB04084D480068B0F920
:103BA0000800404503DDA0EB0807804600E0002741
:103BB0000298049900EB840000EB8700CDE9000136
:103BC0000B990D98421809920E9B40461946521EB9
:103BD000FFF704FA01200090059818280ADA0298E5
:103BE000DDE9052300EB840000EB8700E91B00F012
:103BF00079F812E00A9880B1029800EB840000EB9B
:103C000087070998A0EB080849463868884701C724
:103C1000A8F101005FEA0008F6D13148C06980B31D
:103C2000DDE9020700EB840007EB8402CDE9020224
:103C30002B4C361F3046E4692B460299A047FF21E2
:103C40003068B1EB106F02D10298006804E0029A6C
:103C50001268B1EB126F01D1039A1060029806F15D
:103C60000406001D02900398001D03906D1EE7D10D
:103C70000397DAF8000040F00101CAF8001020E0D4
:103C800021E0FFE70798FF2811D0C0F1FF0202985A
:103C900050F82410584600F037FA039941F82400F0
:103CA000DAF8000040F00101CAF8001005E00298BF
:103CB000039950F8240041F82400641C6D1E7FF421
:103CC00060AF03983AE7039941F824B0E8E70000B1
:103CD000B4000020CC00002067570008655700089A
:103CE000600200202DE9F05F0C1E16DD5E680146C3
:103CF00000EB8405082A12DC611E012A26D0022A64
:103D000047D0042A6AD0082A07D1071917F8010DED
:103D1000B04745F8040D641EF8D1BDE8F09F102AA5
:103D2000FBDC5F693FB12246BC46BDE8F04F022391
:103D30005DF804EB604701EB440700BF37F8020D64
:103D4000B04745F8040D641EF8D1E6E700EBE1004A
:103D500001F0070710F801A98146802020FA07F832
:103D6000B5F104050AEA0800C7F10701C840B047E9
:103D700045F804093FB14FEA48604FEA10687F1EDA
:103D8000641EEFD1C9E719F801A907274FF0010810
:103D9000F6E700EBA10001F0030710F801A9814646
:103DA0007900C02020FA01F84FF0060BB5F10405A8
:103DB0000AEA0800ABEB4701C840B04745F80409E0
:103DC0003FB14FEA88604FEA10687F1E641EEFD152
:103DD000A3E7032719F801A9B846F7E700EB61004C
:103DE000012710F801A9A7438146B900F02020FA65
:103DF00001F84FF0040B2D1F0AEA0800ABEB870116
:103E0000C840B04745F804093FB14FEA08704FEA8F
:103E100010687F1E641EEFD17FE719F801A9012702
:103E20004FF00F08F6E700002DE9F047224C064658
:103E30001F46A06990468946002540B90120A0612F
:103E400004F120011D480860084600F0C1F96069CE
:103E500030B91B480068606110B901F020FC606156
:103E600007B138604EB1A06830B960698000FDF7D5
:103E700063FDA06000B901253060B9F1000F0AD0E0
:103E8000E06830B960698000FDF756FDE06000B978
:103E90000125C9F80000B8F1000F0AD0206930B937
:103EA00060698000FDF748FD206100B90125C8F870
:103EB00000002846BDE8F0876002002015C8000811
:103EC000E400002003480068C169087EC97E4843B9
:103ED00070470000B400002073B5124A01A9009891
:103EE0001268904700240090C8B10F490025096866
:103EF000C969496959B10A684AB1019990477CBDBD
:103F00006846FFF7A5FA0546FEF7D0FA0444019883
:103F1000401E0190F4D5284600F032F804442046B3
:103F20007CBD00000C030020B400002073B50D46DA
:103F30000098002490B10A490968C969496959B1D2
:103F40004A684AB1294690477CBD6846FFF780FA27
:103F500020B10A2802D0641CAC42F6DB20467CBDAE
:103F6000B4000020044AB2F9002002600348B0F90E
:103F70000000086070470000F4000020F6000020F8
:103F800038B5002469460094FEF7A2FA00998142F0
:103F900000DD0C1A204638BDB0F90030B1F9002020
:103FA000934200DA0280B0F90230B1F90220934264
:103FB00000DA4280B0F90430B1F90420934200DD08
:103FC0008280B0F90620B1F906108A4200DDC18076
:103FD000704770B5B1F90040B2F900309C4200DD85
:103FE00023460380B1F90250B2F90240A54200DD38
:103FF0002C464480B1F90460B2F90450AE4200DAB4
:1040000035468580B1F90610B2F90620914200DBF1
:104010001146C1809D4201DBA14201DA002070BD42
:10402000012070BD014602480068407C00F002B8E3
:10403000B40000202DE9F8430126894604460228F1
:104040005DDA304F7A6802B190472E4D5FEA090081
:1040500005F1100532D0012803D0B9F1020F4ED17D
:1040600018E055F8240088B92046FDF7BBFF009002
:1040700018B3C0680D21426A6846904702003ED0DE
:1040800049460098904755F824000026401C45F802
:10409000240034E02046FDF7A5FF009068B1C06819
:1040A0000D21426A68469047040028D0386800B164
:1040B000804749460098A047002620E055F8240094
:1040C000A846012812D12046FDF78CFF009068B168
:1040D000C0680D21426A68469047050006D03868DE
:1040E00000B1804749460098A847002658F8241098
:1040F00009B1012200E00022891A48F82410304654
:10410000BDE8F883C801002070B5FF23B3EB116F41
:1041100029D0C3B200F47F4500F47F04060E534358
:10412000554354435643C2F1FF00CAB202FB00326A
:1041300001F47F4303FB005301F47F0505FB0044BA
:10414000090E01FB0065C2F307204FF47F4101EA2D
:104150001322090201EA14214FF07F43104303EABE
:1041600005430843184370BD2DE9F04F0646DDE9CD
:104170000CB915460C4600208046584519D20B9FB5
:104180004FF0FF0A01CE08CCAAEB106202FB09F245
:10419000B2FBFAF1CAB21946FFF7B6FF20F07F4032
:1041A00001C57F1EEED1099804EB800408F10100DF
:1041B000E2E7BDE8F08F0B88134403808B889B1ADD
:1041C00083804B8813444380C988891AC180704713
:1041D00002494A694260486170470000A800002017
:1041E00010B502E000F8011B521E0AB18307F9D195
:1041F000930818D001EB014402F0030204EB0424FD
:1042000006E010C01B1F10C040F8084B40F8044CDB
:10421000042BF6DA01E010C05B1E002BFBD102E09C
:1042200000F8011B521E002AFAD110BD10B58307F9
:1042300002D520F8021B521E530811D001EB014495
:10424000042B09DB10C01B1F10C0042B40F8084BC7
:1042500040F8044CF6DA01E010C05B1E002BFBD1E5
:10426000D20700D0018010BD00F58060AFF3008060
:1042700010B50023C0F30B00B0F5006F02DD012381
:10428000A0F50060B0F5806F01DDC0F50060811120
:104290000C4C00F03F00C0F1400234F811005043D4
:1042A000402A08D0102906DA04EB4101C2F140028D
:1042B000498801FB020020308009002B00D04042D9
:1042C00010BD0000D80F010870B5044600F09EF93B
:1042D00006462546681C10B104480078054400BF16
:1042E00000F094F9801BA842FAD370BD2C00002086
:1042F0002DE9F847034600240020002584460027C6
:1043000000226EE14FF0010808FA02F4D1F80080B3
:1043100008EA0400A0427DD1DFF8D0A2D1F80480E1
:10432000A8EB0A09D0453AD014DCB8F1030F50D0FD
:1043300009DCB8F1000F31D0B8F1010F1CD0B8F191
:10434000020F49D120E0B8F1110F18D0B8F1120FC7
:1043500042D11EE0B9F5881F25D006DCB9F5803FB3
:1043600020D0B9F5801F37D11AE0B9F5001F18D059
:10437000B9F5041F30D117E0D1F80CC02DE0D1F809
:104380000C8008F1040C28E0D1F80C8008F1080C2E
:1043900023E0D1F80C8008F10C0C1EE000BF00BF38
:1043A00000BF00BF00BF00BFD1F80880B8F1000F08
:1043B00002D14FF0040C0BE0D1F80880B8F1010FE6
:1043C00003D14FF0080C1C6102E04FF0080C5C6157
:1043D00003E04FF0000C00E000BF00BFFF2801D851
:1043E000984601E003F104084646FF2802D84FEA48
:1043F000820803E0A2F108084FEA88084746D6F889
:1044000000804FF00F0909FA07F928EA09080CFAA9
:1044100007F900E088E048EA0908C6F80080D1F80A
:10442000048008F08058B8F1805F7DD100BFDFF8CC
:10443000C081D8F8188048F00108DFF8B491C9F8B5
:104440001880C846D8F8188008F00108CDF8008018
:1044500000BF00BF4FEAB9384FEA920958F8295017
:104460004FEA82784FEA18794FF00F0808FA09F8F6
:1044700025EA0805DFF87C81434502D14FF00008AA
:1044800016E0DFF87481434502D14FF001080FE0D8
:10449000DFF86881434502D14FF0020808E0DFF8F9
:1044A0006081434502D14FF0030801E04FF004085A
:1044B0004FEA82794FEA197908FA09F848EA0505BE
:1044C000DFF840814FEA920948F82950D1F804807A
:1044D00008F48038B8F5803F0AD1DFF82C81D8F88D
:1044E000008048EA0008DFF82091C9F8008009E060
:1044F000DFF81481D8F8008028EA0008DFF8089176
:10450000C9F80080D1F8048008F40038B8F5003FFD
:1045100010D1DFF8F48008F10408D8F8008048EAE8
:104520000008DFF8E49000E05AE009F10409C9F856
:1045300000800DE0DFF8D08008F10408D8F8008092
:1045400028EA0008DFF8C09009F10409C9F80080E2
:10455000D1F8048008F48018B8F5801F0ED1DFF878
:10456000A88008F10808D8F8008048EA0008DFF8B9
:10457000989009F10809C9F800800DE0DFF88880FB
:1045800008F10808D8F8008028EA0008DFF87890D9
:1045900009F10809C9F80080D1F8048008F400186E
:1045A000B8F5001F0ED1DFF8608008F10C08D8F8CC
:1045B000008048EA0008DFF8509009F10C09C9F8BA
:1045C00000800DE0DFF8408008F10C08D8F800808A
:1045D00028EA0008DFF8309009F10C09C9F80080DA
:1045E000521C102AFFF48EAEBDE8F88700001110AF
:1045F0000010024000080140000C01400010014082
:104600000014014008000140000401400148006816
:10461000704700002400002070B5044600260025E5
:104620000CB9012070BD94F83D0028B9002084F831
:104630003C00204600F0AEF8242084F83D002068BD
:10464000006820F001002168086000F0FBF90546D1
:104650004C496068884206D84B48854201D2012007
:1046600007E0002005E04948854201D2012000E032
:104670000020012800D1D5E74548B5FBF0F62068B9
:10468000466040496068884201D8701C07E04FF4DA
:10469000967070434FF47A71B0FBF1F0401C2168C2
:1046A000086238496068884214D8681E6168490009
:1046B000B0FBF1F0401CC0F30B00042801D2042031
:1046C0003DE0681E61684900B0FBF1F0401CC0F39A
:1046D0000B0034E0A06838B9681E616801EB410145
:1046E000B0FBF1F0401C0AE0681E616801EBC102FA
:1046F00002EB0111B0FBF1F0401C40F48040C0F32C
:104700000B0008B901201AE0A06848B9681E61686A
:1047100001EB4101B0FBF1F0401CC0F30B000CE0D9
:10472000681E616801EBC10202EB0111B0FBF1F000
:10473000401CC0F30B0040F4804040F4004021686E
:10474000C861D4E90701084321680860D4E903106F
:10475000084321688860D4E9050108432168C860DE
:104760002068006840F00100216808600020206493
:10477000202084F83D000020206384F83E0000BF24
:1047800050E70000A086010080841E0000093D0063
:1047900040420F0010B586B00446002002900390FE
:1047A0000490059016492068884226D100BF15481C
:1047B000806940F00800134988610846806900F06C
:1047C0000800019000BF00BF4FF44060029012202B
:1047D00003900320059002A90B48FFF789FD00BF55
:1047E0000848C06940F480000649C8610846C069AD
:1047F00000F48000019000BF00BF06B010BD0000B3
:104800000058004000100240000C014003480068BE
:1048100003490978084401490860704724000020D2
:104820002C00002010B50848006840F01000064930
:104830000860032000F0CAF8002000F007F800F03C
:1048400049F8002010BD00000020024070B588B07B
:10485000044600250026002221461E2000F077F89D
:104860001E2000F067F800BF1648C06940F0040041
:104870001449C8610846C06900F00400019000BFF7
:1048800000BF02A903A800F0B5F800F0DBF845006E
:104890000D48B5FBF0F0461E0C480D49086040F28B
:1048A000E7310B48C160466000210161816000F082
:1048B000AEF920B9064800F0ECF908B070BD01204F
:1048C000FBE700000010024040420F0000080040DB
:1048D0003C14002008B500BF1448806940F0010076
:1048E000124988610846806900F00100009000BF0D
:1048F00000BF00BF0846C06940F08050C86108464C
:10490000C06900F08050009000BF00BF00220F215E
:10491000901E00F01CF800BF0549486820F0E060D8
:1049200040F00070486000BF08BD00000010024069
:104930000000014000BF00F01F0201219140420928
:10494000920002F1E022C2F8001100BF70472DE989
:10495000F05F80460D461646002701F0F7FD07463A
:1049600039462A46334601F00700C0F1070ABAF17A
:10497000040F02D94FF0040A01E0C0F1070AD14642
:1049800000F1040ABAF1070F02D24FF0000A01E069
:10499000A0F1030AD4464FF0010A0AFA09FAAAF173
:1049A000010A0AEA020A0AFA0CFA4FF0010B0BFAA2
:1049B0000CFBABF1010B0BEA030B4AEA0B0421469B
:1049C000404601F0CBFDBDE8F09F000000BF00F0C5
:1049D0000702064B19684FF6FF031940044B0B43BF
:1049E00043EA0221014B196000BF70470CED00E063
:1049F0000000FA050F2202600D4A526802F003021D
:104A000042600B4A526802F0F0028260084A526823
:104A100002F4E062C260064A526802F46052D208B0
:104A20000261044A126802F007020A60704700003F
:104A3000001002400020024001480068704700005A
:104A40003000002000B5FFF7F7FF04494968C1F3C3
:104A50000221034A515CC84000BD00000010024022
:104A6000C405010800B5FFF7E7FF04494968C1F331
:104A7000C221034A515CC84000BD00000010024042
:104A8000C405010810B504460CB9012010BD002171
:104A9000A16294F8510010B9204600F037F80220C6
:104AA00084F851002068006820F040002168086008
:104AB000D4E901010843E1680843216908436169B9
:104AC0000843218B01F400710843E1690843216A1E
:104AD0000843A16A0843216808600421A06901EA2B
:104AE0001040616A0843216848602168E06A0861F3
:104AF0002068C06920F400602168C86100206065FA
:104B0000012084F851000020C0E7000010B586B0F5
:104B10000446002002900390049005901E492068EE
:104B2000884236D100BF1D48806940F480501B493F
:104B300088610846806900F48050019000BF00BF82
:104B400000BF0846806940F0080088610846806917
:104B500000F00800019000BF00BF28200290022052
:104B600003900320059002A90D48FFF7C1FB102018
:104B7000029000200390049002A90948FFF7B8FBB7
:104B800000BF0849486840F0E06040F0010048601C
:104B900000BF06B010BD0000003001400010024010
:104BA000000C01400000014070477047024600BF02
:104BB00092F83C00012801D102207047012082F8C0
:104BC0003C0000BF022082F83D001068406820F0E1
:104BD000700013685860106840680B6818431368C9
:104BE00058601068806820F0800013689860106832
:104BF00080684B68184313689860012082F83D0074
:104C000000BF002082F83C0000BF00BFD5E710B510
:104C100004460CB9012010BD94F83D0028B90020CD
:104C200084F83C00204600F00DF8022084F83D0096
:104C3000211D206802F09EF9012084F83D0000202B
:104C4000E9E7000008B5094A016891420DD100BFAB
:104C50000749C96941F00201054AD1611146C96994
:104C600001F00201009100BF00BF08BD0004004038
:104C7000001002400146022081F83D0008680068EB
:104C800040F001000A681060012081F83D0000201A
:104C9000704701460868C06840F001000A68D060AB
:104CA0000868006840F001000A6810600020704742
:104CB0002DE9F04104460D46002600BF94F83C0063
:104CC000012802D10220BDE8F081012084F83C00D7
:104CD00000BF022084F83D002068866826F0770631
:104CE00026F47F4620688660286850283BD00CDC7C
:104CF000202860D004DC002853D0102865D155E06E
:104D000030285DD0402860D141E0602835D070283F
:104D10000DD0B0F5805F03D0B0F5005F55D115E040
:104D20002068806820F00700216888604EE0D5E99F
:104D300002136A68206802F065F92068866826F028
:104D4000770646F07706206886603FE0D5E90213D3
:104D50006A68206802F056F92068806840F4804054
:104D60002168886032E0EA686968206802F028FA01
:104D70005021206802F052F928E0EA68696820684A
:104D800002F033FA6021206802F048F91EE0EA6878
:104D90006968206802F014FA4021206802F03EF9A8
:104DA00014E00021206802F039F90FE0102120689A
:104DB00002F034F90AE02021206802F02FF905E022
:104DC0003021206802F02AF900E000BF00BF012076
:104DD00084F83D0000BF002084F83C0000BF00BF05
:104DE00071E7704710B5044620680069C0F34000C1
:104DF000D8B12068C068C0F34000B0B16FF00200C5
:104E000021680861012020772068806900F0030094
:104E100018B12046FFF7E5FF05E0204600F0DAF87C
:104E2000204600F077F90020207720680069C0F361
:104E30008000D8B12068C068C0F38000B0B16FF0C6
:104E4000040021680861022020772068806900F44E
:104E5000407018B12046FFF7C4FF05E0204600F07F
:104E6000B9F8204600F056F9002020772068006944
:104E7000C0F3C000D8B12068C068C0F3C000B0B1B2
:104E80006FF0080021680861042020772068C0695D
:104E900000F0030018B12046FFF7A3FF05E020460D
:104EA00000F098F8204600F035F9002020772068BF
:104EB0000069C0F30010D8B12068C068C0F30010CA
:104EC000B0B16FF0100021680861082020772068D9
:104ED000C06900F4407018B12046FFF782FF05E07A
:104EE000204600F077F8204600F014F900202077E3
:104EF0002068006900F0010058B12068C06800F027
:104F0000010030B16FF0010021680861204600F017
:104F100023F920680069C0F3C01058B12068C06848
:104F2000C0F3C01030B16FF08000216808612046E6
:104F3000FFF73AFE20680069C0F3801058B120687E
:104F4000C068C0F3801030B16FF040002168086184
:104F5000204600F00DF920680069C0F3401058B1F8
:104F60002068C068C0F3401030B16FF020002168A5
:104F700008612046FFF719FE10BD000010B586B08D
:104F80000446002002900390049005900E4920688A
:104F9000884216D100BF0D48806940F004000B49DB
:104FA00088610846806900F00400019000BF00BFDE
:104FB0008020029002200390059002A90448FFF788
:104FC00097F906B010BD0000000400400010024038
:104FD00000080140704770B504460D46164600BFF4
:104FE00094F83C00012801D1022070BD012084F812
:104FF0003C0000BF022084F83D0036B1042E1BD0D7
:10500000082E31D00C2E5ED145E02946206802F0F2
:105010000FF82068806940F00800216888612068E6
:10502000806920F00400216888612068806929690E
:1050300008432168886147E02946206802F02AF881
:105040002068806940F40060216888612068806978
:1050500020F480602168886120688069296940EABD
:105060000120216888612FE02946206802F04AF873
:105070002068C06940F008002168C8612068C069E4
:1050800020F004002168C8612068C06929690843CC
:105090002168C86118E02946206802F069F8206894
:1050A000C06940F400602168C8612068C06920F4CC
:1050B00080602168C8612068C069296940EA0120D0
:1050C0002168C86100E000BF00BF012084F83D00F6
:1050D00000BF002084F83C0000BF00BF85E710B58A
:1050E00004460CB9012010BD94F83D0028B90020F9
:1050F00084F83C00204600F00CF8022084F83D00C3
:10510000211D206801F036FF012084F83D000020B9
:10511000E9E770477047000030B504460D460122AC
:105120002946206801F060FF0A492068884201D1C1
:10513000012000E0002028B12068406C40F40040CD
:10514000216848642068006840F001002168086018
:10515000002030BD002C014010B5044603492068F2
:10516000884201D1FFF752FB10BD0000000800404B
:10517000704710B504460CB9012010BDA06900B1FC
:1051800000E000BF94F8390028B9002084F8380006
:10519000204600F027F8242084F839002068C068F1
:1051A00020F400502168C860204602F035F82068DD
:1051B000006920F49040216808612068406920F06F
:1051C0002A00216848612068C06840F400502168C6
:1051D000C8600020E063202084F8390084F83A0099
:1051E0000020CAE710B586B0044600200290039064
:1051F000049005901A49206888422ED100BF1948B2
:10520000806940F48040174988610846806900F44D
:105210008040019000BF00BF00BF0846806940F099
:10522000040088610846806900F00400019000BF16
:1052300000BF48150290022003900320059002A9A8
:105240000948FFF755F84FF4806002900020039062
:10525000049002A90448FFF74BF806B010BD000007
:1052600000380140001002400008014000BFFEE786
:1052700000218172C17001704170817041710171B2
:1052800041728171C17101727047000002490A6860
:105290000860104670470000080300200449054AD2
:1052A0000968497C52F8211009690968084700001B
:1052B000B4000020CC0000202DE9F04F05468DB051
:1052C0007B48DDF860901A9C00681E4617464FF038
:1052D000000A78B11B9B199ACDF808900593CDE987
:1052E0000324DDE91623CDE90023046833463A465A
:1052F000284680E0DDE9160201EB060805EB070C05
:105300001043A8F10108ACF1010C012806D0C9F145
:1053100008000590002002910990C6E065480268E7
:10532000B2F90A30581A002806DD361A002E63DD5D
:105330001946199B00FB0344B2F90E00A8EB0000CC
:10534000002802DD361A002E56DDB2F90C00ACEB57
:105350000000002800DD3F1AB2F908300020AB42FF
:1053600035DD581B3F1A4B46B9F1080F26D006DC35
:10537000012B0BD0022B11D0042B28D116E0102BBF
:105380001ED0182B1FD0202B21D11CE020F00703AA
:1053900004EBE0041D4400F0070018E020F00303D4
:1053A00004EBA0041D4400F0030010E020F0010312
:1053B00004EB60041D4400F0010008E0044404E034
:1053C00004EB400401E004EB800405440020002FBE
:1053D00012DD1B9BDDF864C0CDE90403CDE9006953
:1053E000CDE902C4527C34483B4650F82200C268E2
:1053F00054680A462946A0470DB0BDE8F08F1799BA
:10540000029808440C902B49401E00900A68B2F99B
:105410000A30834241DCB2F90E10029881423CDB33
:105420004FF0000BD84603950A9434E0BBF1000F0F
:1054300005D10A984FF0080B10F801AB0A900599B6
:10544000ABEB090B3AFA01F00AFA09F101F0FF0A95
:1054500004D118490968097C890716D415490968D7
:10546000C96B0A680B921B9A0AB152F820000860B7
:1054700016990398009B4218521E029900F0A8F852
:105480000C490B980968C96B08600399169808F1D4
:10549000010808440390B845C8DB0998401C0990EE
:1054A0000C980290199804440998B042A7DBA3E72E
:1054B000F0000020B4000020CC000020F0B40C4626
:1054C00012490968B1F90A30A3421CDCB1F90E3067
:1054D000A34218DBB1F90830834200DD1846B1F968
:1054E0000C30934200DA1A4682420CDB4B7C0849AE
:1054F00051F8235013462246E9688E680146284633
:10550000B446F0BC6047F0BC70470000B400002017
:10551000CC0000200A46174930B40968B1F90A30B6
:10552000934225DCB1F90E30934221DBB1F908300A
:1055300083421DDCB1F90C30834219DB0B7C0E4C2D
:10554000DB0709D0497C54F82130D968CC69014681
:10555000A44630BC18466047CB6B497C1B6854F8A6
:105560002140E1688D6901462046AC4630BC604769
:1055700030BC7047B4000020CC000020124B30B487
:105580001B68B3F9084084421CDCB3F90C40844228
:1055900018DBB3F90A408C4200DD2146B3F90E4016
:1055A000944200DA22468A420CDB5C7C074B53F8BB
:1055B0002440E368DD6813460A4601462046AC46AF
:1055C00030BC604730BC7047B4000020CC000020E5
:1055D00038B5134C2468B4F90850854200DD2846DC
:1055E000B4F90C50954200DA2A46824217DBB4F92E
:1055F0000A508D4200DD2946B4F90E509D4200DA72
:105600002B468B420BDB0093647C064B53F8244003
:10561000E3681D6913460A4601462046A84738BD7F
:10562000B4000020CC000020082106F072BC00006D
:1056300002480068C06B006870470000B40000209A
:10564000024809210068407C06F063BCB4000020D9
:10565000092106F05EBC70B500252C462046FCF7FB
:10566000C1FC00B16D1C641C022CF7DB284670BD28
:1056700002480068407C00F003B80000B40000203D
:1056800010B5FCF7AFFC002805D0C168CA6ABDE8B8
:1056900010400221104710BD032106F03ABC032040
:1056A00006F0CBBC042106F034BC00000248012106
:1056B0000068407C06F02DBCB40000200148006862
:1056C000704700002C020020012106F022BC0120BE
:1056D00006F0B3BC024802210068407C06F019BC09
:1056E000B400002001484068704700002C020020F0
:1056F000022106F00EBC022006F09FBCAFF3008032
:105700002DE9F041002809D0876837B10D4E716846
:1057100019B10468B4F5807F02DD0020BDE8F08196
:105720003068844200DD0446002507E057F8250074
:10573000FFF7B4FD716841F825006D1CA542F5DB4B
:105740007068EBE71C0200200449054A0968497C9F
:1057500052F821100969496808470000B400002088
:10576000CC0000207047704710B500F01F01074AB9
:10577000074BC0F34514C0F3C4201B5D105C515CA3
:1057800000EB032000EB014010BD0000780D010884
:10579000980D010810B57849784800F031FD642073
:1057A000FEF792FD7449754800F036FD3220FEF791
:1057B0008BFD112000F0EAFA7820FEF785FDB1207C
:1057C00000F0E4FA052000F0C9FA3C2000F0C6FA27
:1057D0003C2000F0C3FAB22000F0D8FA052000F017
:1057E000BDFA3C2000F0BAFA3C2000F0B7FAB32032
:1057F00000F0CCFA052000F0B1FA3C2000F0AEFA3F
:105800003C2000F0ABFA052000F0A8FA3C2000F0A4
:10581000A5FA3C2000F0A2FAB42000F0B7FA032069
:1058200000F09CFAC02000F0B1FA282000F096FAAF
:10583000082000F093FA042000F090FAC12000F054
:10584000A5FAC02000F08AFAC22000F09FFA0D20CD
:1058500000F084FA002000F081FAC32000F096FAEC
:105860008D2000F07BFA2A2000F078FAC42000F0A6
:105870008DFA8D2000F072FAEE2000F06FFAC5204C
:1058800000F084FA1A2000F069FA362000F07EFA5F
:10589000C02000F063FAE02000F078FA042000F065
:1058A0005DFA222000F05AFA072000F057FA0A2089
:1058B00000F054FA2E2000F051FA302000F04EFA99
:1058C000252000F04BFA2A2000F048FA282000F0AA
:1058D00045FA262000F042FA2E2000F03FFA3A2046
:1058E00000F03CFA002000F039FA012000F036FA0E
:1058F000032000F033FA132000F030FAE12000F02A
:1059000045FA042000F02AFA162000F027FA0620B3
:1059100000F024FA0D2000F021FA2D2000F01EFAEC
:10592000262000F01BFA232000F018FA272000F0B0
:1059300015FA272000F012FA252000F00FFA2D208A
:1059400000F00CFA3B2000F009FA002000F006FA03
:10595000012000F003FA042000F000FA132000F008
:10596000FDF93A2000F012FA052000F0F7F929209D
:1059700000F00CFA10BD000040004004000C014093
:1059800010B50A4C606860B920688000FBF7D4FF4E
:10599000606040B104F10801054808600846FEF760
:1059A00017FC002010BD012010BD00001C020020CB
:1059B00001C800082DE9F047FFF74DFE0746002417
:1059C000DFF860802AE02046FCF70CFB28B3D8F80B
:1059D000000090F8119044742046FFF725FE082837
:1059E00017DC1148114950F824000069884210D092
:1059F0002046FFF72DFE0646002508E0E8B2FFF737
:105A0000A3FE0246E9B2204600F054F96D1CB542EF
:105A1000F4DBD8F8001081F81190641CBC42D2DB92
:105A2000BDE8F087B4000020CC000020D4100108AD
:105A30002DE9FF4F83B01646DDE910408B46C06864
:105A40004769426A7AB1012111A8904705000AD03E
:105A50000698CDE9000433465A4603991198A847A1
:105A600007B0BDE8F08F57480068407CFCF714FD94
:105A70008246082801DC012005E0BAF1100F01DCA4
:105A8000022000E004208046002596E04046B8F160
:105A9000010F05D0022871D0B8F1040F25D17CE0A8
:105AA000BAF1090F21D2DFE80AF08605213F3F59FC
:105AB00059595900039815E001465A461198B847BC
:105AC000C5F1070188404FF67F722178EA40114006
:105AD00001436D1C217004EBE50425F0070005412E
