:020000040800F2
:1000000020060020213F00084501000847010008A4
:100010004B0100084F0100085301000800000000D8
:100020000000000000000000000000005701000870
:1000300059010008000000005B01000845050008A8
:100040003B3F00083B3F00083B3F00083B3F0008A8
:100050003B3F00083B3F00083B3F00083B3F000898
:100060003B3F00083B3F00083B3F00083B3F000888
:100070003B3F00083B3F00083B3F00083B3F000878
:100080003B3F00083B3F00083B3F00083B3F000868
:100090003B3F00083B3F00083B3F00083B3F000858
:1000A0003B3F00083B3F00083B3F00083B3F000848
:1000B0003B3F0008FF0300083B3F00083B3F0008B0
:1000C0003B3F00083B3F00083B3F00083B3F000828
:1000D0003B3F00083B3F00083B3F00083B3F000818
:1000E0003B3F00083B3F00083B3F0008DFF80CD0D7
:1000F00004F004FB0048004701010008200600202E
:1001000000F0D2F900F0A6FA00F0B2FA00F044FCD8
:1001100042F2107000F006FA00F07AFD01F07EF96C
:100120006421042001F090FA41F2883000F0FAF9DD
:1001300001F02EFC01F0F3FB41F2883000F00EF8E4
:1001400000BFFEE7704700BFFEE700BFFEE700BF4D
:10015000FEE700BFFEE77047704770471FB50446D3
:100160000121022002F07BFCB24802F0D3FCADF882
:1001700008404720ADF804000020ADF80A00ADF8B3
:10018000060001A9AB4802F099FD01221146A948D9
:1001900003F00BF91D208DF8000000208DF8010000
:1001A00003208DF8020001208DF80300684601F05D
:1001B00072FD01219F4803F0DDF81FBD9E480068D5
:1001C000401C9D4908600846006864280FD39B487E
:1001D00000789B4908600020984908709948007889
:1001E0009949086000209749087093490860704752
:1001F0002DE9F04786B000F0F1FD9448006804F066
:1002000016F80746924A934B03F064FF054604F044
:1002100035F804469048006804F009F807468C4A0F
:100220008C4B03F057FF054604F028F881468B48B5
:10023000006803F0FCFF0746854A864B03F04AFF3F
:10024000054604F01BF88246854800688549096820
:10025000CDE900108448224649460368504600F024
:10026000E7FD7D48006803F0E2FF0746784A794BD6
:1002700003F030FF054604F001F8044677480068B3
:1002800003F0D5FF0746724A724B03F023FF054681
:1002900003F0F4FF81466D4800687449B1F900101D
:1002A000CDE903940291059000200090034601904F
:1002B0006F4802686F4801686F48006801F091FB61
:1002C00006B0BDE8F08770B5FFF778FF01F066FA79
:1002D0006A480068B0F57A6F05D96448B0F9000043
:1002E0006249088005E065480068800800B25F49FF
:1002F000088062484068A0F5EA40303860490860EC
:100300005E488068A0F5EA4030385E4908605B4886
:10031000C068A0F5EA4030385B49086001205B49BD
:1003200008605B495448006803F064FE054659497B
:1003300003F008FE044603F066FF5749086054497D
:100340004C48006803F056FE0546524903F0FAFD9A
:10035000044603F058FF504948604D49444800683E
:1003600003F048FE05464B4903F0ECFD044603F05C
:100370004AFF4949886047493B48006803F0E2FD6D
:10038000044603F040FF4449C860424935480068CC
:1003900003F0D8FD044603F036FF3F4908613D49AC
:1003A0002F48006803F0CEFD044603F02CFF3A49C5
:1003B000486138492948006803F0C4FD044603F049
:1003C00022FF3549886133492348006803F0BAFDAC
:1003D000044603F018FF3049C8612E491B480068E5
:1003E00003F0B0FD044603F00EFF2B4908622B48D2
:1003F0000088486218212A4801F0EBF870BD10B55A
:1004000001210C4803F07FFA98B10121094803F05B
:100410008BFA24480078401C22490870FFF7E8FE58
:1004200020480078022804D100201E490870FFF7F8
:100430004AFF10BD00040040080000208600002094
:100440000000002087000020040000203C00002065
:100450002877442A3174513F3800002034000020AE
:10046000300000202C000020280000208800002000
:10047000580000205C00002060000020980100204F
:100480008C000020900000209400002098000020A4
:100490000000C8420060EA467001002018000020F9
:1004A000400100200C00002030B528480068284A90
:1004B000B0FBF2F1B1F1807F01D301201DE021F00A
:1004C0007F40401E4FF0E022506150170F2200285D
:1004D00007DA13071D0E1F4B00F00F04241F1D55D4
:1004E00003E013071C0E1C4B1C5400BF00204FF0F0
:1004F000E022906107201061002008B100BFFEE7F4
:100500004FF0E020006920F001004FF0E021086189
:1005100030BD1248006820B110480068401E0F49E5
:10052000086070470D4908604FF0E021096941F00B
:1005300001014FF0E022116100BF0849096800295C
:10054000FBD1704700B5FFF7E4FF00BDB00000200D
:1005500040420F0018ED00E000E400E01000002031
:1005600008B50121084602F060FA01214FF401703C
:1005700002F068FA0120ADF8000000208DF80300B9
:100580006946374801F0A2FF08BD00B591B0354873
:1005900001F012FE3448069034480790002008907D
:1005A0000120099000200A900B904FF480700C906D
:1005B00080000D9020200E9000020F9000201090DF
:1005C00006A9284801F09AFE0121264801F0C1FE43
:1005D0000020019001208DF808008DF809004FF4EB
:1005E000602003900020049001208DF8140001A9E0
:1005F0001D484C3801F0DFFB0523012200211A4879
:100600004C3801F070FC012117484C3801F00AFC0D
:10061000012115484C3801F0FAFB13484C3801F021
:1006200018FC00BF10484C3801F018FC0028F9D124
:100630000D484C3801F01CFC00BF0B484C3801F051
:100640001CFC0028F9D1012107484C3801F01FFC9F
:1006500011B000BD10B5FFF783FFFFF796FF10BD87
:1006600000080140080002404C240140180000200E
:1006700000B587B0012144F2040002F0E3F94FF421
:100680000070ADF8180018208DF81B0003208DF8BD
:100690001A0006A9BC4801F019FF4FF48060ADF8BC
:1006A000180004208DF81B0006A9B74801F00EFFC2
:1006B0004FF4E13002900020ADF80C00ADF80E00D0
:1006C000ADF81000ADF814000C20ADF8120002A92E
:1006D000AE4803F070F925208DF8040003208DF852
:1006E00005008DF8060001208DF8070001A801F033
:1006F000D2FA0121A54803F0EAF907B000BD10B510
:1007000004462146A14803F04FFA00BF40219F480C
:1007100003F0B8FA0128F9D110BD10B5044603E082
:100720002078FFF7ECFF641C20780028F8D110BD7A
:1007300070B50446002C04DA2D20FFF7E0FF60427C
:1007400004B242F2107094FBF0F03030C5B228468B
:10075000FFF7D5FF42F2107094FBF0F100FB11445B
:100760004FF47A7094FBF0F03030C5B22846FFF7B2
:10077000C6FF4FF47A7094FBF0F100FB1144642043
:1007800094FBF0F03030C5B22846FFF7B8FF642084
:1007900094FBF0F100FB11440A2094FBF0F03030A0
:1007A000C5B22846FFF7ABFF0A2094FBF0F100FB2F
:1007B00011403030C5B22846FFF7A1FF70BD70B5BB
:1007C00005467349284603F015FC064603F002FD72
:1007D0000446002C03DA2D20FFF791FF64426D4898
:1007E00094FBF0F03030C6B23046FFF788FF69481E
:1007F00094FBF0F100FB114442F2107094FBF0F016
:100800003030C6B23046FFF77AFF42F2107094FBE8
:10081000F0F100FB11444FF47A7094FBF0F03030AB
:10082000C6B23046FFF76BFF4FF47A7094FBF0F1DD
:1008300000FB1144642094FBF0F03030C6B2304627
:10084000FFF75DFF642094FBF0F100FB11442E20C4
:10085000FFF755FF0A2094FBF0F03030C6B2304667
:10086000FFF74DFF0A2094FBF0F100FB1140303000
:10087000C6B23046FFF743FF70BD10B504462046B0
:10088000FFF73DFF204610BD70B504460025C4F3B8
:100890000720FFF7F2FF2844C5B2E0B2FFF7EDFFF3
:1008A0002844C5B2284670BD2DE9F05F80460D464C
:1008B00016461F46DDE90BABDDF8289000248820A2
:1008C000FFF7DBFF2044C4B2AF20FFF7D6FF204480
:1008D000C4B21C20FFF7D1FF2044C4B24046FFF74A
:1008E000D3FF2044C4B22846FFF7CEFF2044C4B251
:1008F0003046FFF7C9FF2044C4B23846FFF7C4FFB3
:100900002044C4B24846FFF7BFFF2044C4B250465B
:10091000FFF7BAFF2044C4B25846FFF7B5FF2044A2
:10092000C4B20D98FFF7B0FF2044C4B20E98FFF791
:10093000ABFF2044C4B20F98FFF7A6FF2044C4B217
:100940001098FFF7A1FF2044C4B21198FFF79CFF55
:100950002044C4B20020FFF790FF2044C4B200201E
:10096000FFF78BFF2044C4B20020FFF786FF20442E
:10097000C4B20020FFF781FF2044C4B22046FFF735
:100980007CFFBDE8F09F00000008014000380140F6
:100990000000C842A086010008B50121082002F02D
:1009A00051F84FF44060ADF8000010208DF80300BE
:1009B00003208DF802006946944801F087FD08BDC8
:1009C00008B54FF40060ADF8000010208DF803006A
:1009D00003208DF8020069468C4801F077FD08BDC0
:1009E00008B54FF40060ADF8000004208DF8030056
:1009F0006946864801F06AFD08BD08B507200090E9
:100A000002E00098401E009000980028F9D108BD2F
:100A100010B5FFF7D5FF4FF480617C4801F003FE6D
:100A20004FF40061794801F0FEFDFFF7E6FF4FF457
:100A30000061764801F0F9FDFFF7DFFF10BD10B54A
:100A4000FFF7BEFF4FF48061704801F0EEFDFFF745
:100A5000D4FF4FF400616D4801F0E7FDFFF7CDFFD3
:100A60004FF48061694801F0DEFDFFF7C6FF4FF4E7
:100A70000061664801F0D7FDFFF7BFFF10BD10B55C
:100A8000FFF79EFF4FF48061604801F0CEFDFFF755
:100A9000B4FF4FF400615D4801F0C5FDFFF7A0FF12
:100AA000FFF7ABFF4FF48061584801F0BCFDFFF742
:100AB000A4FF4FF40061554801F09BFD30B14FF4A5
:100AC0008061524801F0B1FD002010BD4FF48061FB
:100AD0004E4801F0AAFDFFF790FF0120F5E770B541
:100AE00004460825FFF76CFF1FE04FF4806147487C
:100AF00001F09BFDFFF781FF04F0800028B14FF467
:100B00000061424801F08FFD04E04FF400613F486E
:100B100001F08BFD6006040EFFF76FFF4FF480615C
:100B20003A4801F080FDFFF768FF2800A5F10101B8
:100B3000CDB2DAD14FF48061344801F076FDFFF791
:100B40009EFF00B970BD00BFFCE770B50024FFF741
:100B500047FF002517E06006040E4FF480612B4824
:100B600001F061FDFFF749FF4FF40061274801F0F4
:100B700040FD04434FF48061244801F056FDFFF727
:100B80003CFF681CC5B2082DE5DB204670BD70B582
:100B900006460C461546FFF73BFF3046FFF79FFF22
:100BA0002046FFF79CFF2846FFF799FFFFF747FF16
:100BB00070BD70B504460D46FFF72AFF2046FFF7CB
:100BC0008EFF2846FFF78BFFFFF722FF611CC8B29C
:100BD000FFF785FFFFF7B9FF0646FFF750FFFFF766
:100BE0002EFF304670BD2DE9F04105460C462146EA
:100BF0002846FFF7DEFF0646601CC1B22846FFF715
:100C0000D8FF074647EA0620BDE8F081000C014006
:100C100010B508226B21D220FFF7B9FF04221A2158
:100C2000D220FFF7B4FF04221921D220FFF7AFFF33
:100C300018221B21D220FFF7AAFF08221C21D22054
:100C4000FFF7A5FF10BD70B504462146D220FFF77F
:100C5000B0FF0546601CC1B2D220FFF7AAFF0646CE
:100C600006EB052000B270BD2DE9FC5F06460C4680
:100C700026602768D4F80080D4F8009009251DE08C
:100C800054F82500394603F01FFB02D254F82570B2
:100C900007E054F82500414603F00CFB01D254F85C
:100CA000258054F82510484603F04CF98146681E0B
:100CB00054F8200044F82500681EC5B2002DDFD18D
:100CC0000825AA4605EBDA71481003F075FA394693
:100CD0000190484603F088F94146009003F084F9FA
:100CE0008346019903F02EF98146284603F06DFAF8
:100CF00082465146484603F0AFF981464846BDE872
:100D0000FC9F70B53B20FFF79EFF054603F054FAA9
:100D1000044635480168204603F014F93349086059
:100D2000334932480068FFF79FFF324908603D2091
:100D3000FFF789FF054603F03FFA04462E48016895
:100D4000204603F0FFF82D4908602D492B48006824
:100D5000FFF78AFF2B4908603F20FFF774FF054625
:100D600003F02AFA044628480168204603F0EAF80E
:100D700026490860264925480068FFF775FF254980
:100D8000086070BD70B54320FFF75DFF054603F0B6
:100D900013FA044620480168204603F0D3F81F499F
:100DA00008604520FFF74FFF054603F005FA0446AB
:100DB0001B480168204603F0C5F81A49086047201F
:100DC000FFF741FF054603F0F7F9044616480168AE
:100DD000204603F0B7F81549086070BD10B5FFF75D
:100DE00090FFFFF7CFFF10BD400000201C00002047
:100DF000C80000202800002044000020200000201F
:100E0000F00000202C0000204800002024000020DA
:100E100018010020300000204C0000203400002089
:100E20005000002038000020540000203C0000202A
:100E30000FB59DB0FE480168006803F0DBF815901F
:100E4000FC480168FA48006803F0D4F81490FA48A6
:100E50000168F748006803F0CDF81390F548016881
:100E6000006803F0C7F81290F4480168F148006880
:100E700003F0C0F81190F0480168006803F0BAF878
:100E80001090EE480168EC48006803F0B3F80F904A
:100E9000EA480168006803F0ADF80E90239908460F
:100EA00003F0A8F808902299084603F0A3F80690EA
:100EB0002099084603F09EF80590069903F042F841
:100EC0000790089903F03EF8099003F0B0F9CDE9D6
:100ED0000A0103F0EDFFCDE90C0103F0CFF91C90FE
:100EE0001C99209803F0B8F820901C99229803F0E0
:100EF000B3F822901C99239803F0AEF8239013992D
:100F0000119803F071F84FF080410D9003F072F8E2
:100F10001B900F99149803F015F84FF080410D9035
:100F200003F068F81A901299159803F05DF80C9088
:100F3000109903F059F80D900E9903F003F81990E9
:100F40001A99239803F056F80D901999229803F0F6
:100F500051F80C900D9903F047F8189019992098C2
:100F600003F048F80D901B99239803F043F80C9078
:100F70000D9903F039F817901B99229803F03AF86D
:100F80000D901A99209803F035F80C900D9903F004
:100F90002BF81690AA49189803F02CF80D90A94840
:100FA00001680D9802F0CEFFA6490860A449179881
:100FB00003F020F80D90A44801680D9802F0C2FFDC
:100FC000A14908609E49169803F014F80D909F48B7
:100FD00001680D9802F0B6FF9C4908604FF07E5002
:100FE000189903F007F80C901D9902F0ABFF0D90D3
:100FF000944801680D9802F0A5FF1D904FF07E50B7
:10100000179902F0F7FF0C901E9902F09BFF0D90CC
:101010008D4801680D9802F095FF1E904FF07E50AC
:10102000169902F0E7FF0C901F9902F08BFF0D90CC
:10103000864801680D9802F085FF1F907F481F9930
:10104000006802F0D7FF0B907B481E99006802F001
:10105000D1FF09907748006880F0004007901D9903
:1010600002F0C8FF0890099902F0BEFF0A900B99A0
:1010700002F0BAFF76490C9002F0BCFF0D906C486C
:1010800001680D9802F05EFF694908606B481E997F
:10109000006802F0AFFF0B9067481F99006802F0EC
:1010A000A9FF0990624801681D9802F0A3FF08900B
:1010B000099902F047FF0A900B9902F095FF6449E5
:1010C0000C9002F097FF0D905A4801680D9802F0BD
:1010D00039FF58490860594801681D9802F08AFF95
:1010E0000B9054481F99006802F084FF0990504803
:1010F0001E99006802F07EFF0890099902F074FFC3
:101100000A900B9902F01EFF51490C9002F072FFF9
:101110000D90494801680D9802F014FF4649086097
:10112000084601681D9802F065FF0B9041481E9922
:10113000006802F05FFF09903D481F99006802F0C7
:1011400059FF0890099902F0FDFE0A900B9902F0F0
:101150004BFF3F490C9002F04DFF0D90374801685E
:101160000D9802F0EFFE35490860084601680068F6
:1011700002F040FF089030480168006802F03AFF32
:1011800006902C480168006802F034FF049028485B
:101190000168006802F02EFF0390049902F0D2FE6D
:1011A0000590069902F0CEFE0790089902F0CAFE5B
:1011B000099003F03CF8CDE90A0103F079FECDE98E
:1011C0000C0103F05BF81C9019481C99006802F0B0
:1011D00043FF1749086017481C99006802F03CFF5C
:1011E0001449086014481C99006802F035FF124940
:1011F000086012481C99006802F02EFF0F49086031
:10120000084601684FF0804002F0F4FE01900B4860
:101210000168019802F0EEFE0390074801684FF064
:10122000404002F0E7FE019003480168019811E098
:1012300064000020680000206C0000207000002086
:101240006F12833A74000020780000207C00002098
:101250000AD7233B02F0CEFE0290039902F0C4FEAF
:101260004FF07E51049002F06DFE059002F0DFFF1A
:10127000CDE90801604801684FF0804002F0BAFEF5
:1012800002905E480168029802F0B4FE04905C4847
:1012900001684FF0804002F0ADFE029059480168AD
:1012A000029802F0A7FE0390049902F04BFE05900D
:1012B00002F0BDFFCDE90601DDE9082303F038FDAA
:1012C000514A524BCDE90A0102F004FFCDE90C016D
:1012D00002F0D4FF4E490860474801684FF0804053
:1012E00002F088FE049047480168049802F082FEEC
:1012F0000690434801684FF0404002F07BFE0490A6
:101300003E480168049802F075FE0590069902F0C7
:1013100019FE079002F08BFFCDE9080103F0B8FA3F
:1013200081F00041384A394BCDE90A0102F0D2FE82
:10133000CDE90C0102F0A2FF36490860314801688E
:101340004FF0804002F056FE01902E48016801984F
:1013500002F050FE03902A4801684FF0404002F02E
:1013600049FE019026480168019802F043FE029070
:10137000039902F039FE4FF07E51049002F0E2FD35
:10138000059002F054FFCDE908011B4801684FF0B9
:10139000804002F02FFE029019480168029802F086
:1013A00029FE0490174801684FF0804002F022FEA9
:1013B000029012480168029802F01CFE0390049902
:1013C00002F0C0FD059002F032FFCDE90601DDE933
:1013D000082303F0ADFC81F000410B4A0B4BCDE933
:1013E0000A0102F077FECDE90C0102F047FF0A493D
:1013F000086021B000BD00006400002070000020E3
:10140000680000206C000020295C8FC2F5A84C40C9
:10141000580000205C0000206000002008B5012179
:10142000042001F00FFBB820ADF8000003208DF878
:10143000020010208DF803006946194801F046F8B3
:101440004020ADF8000004208DF8030069461448E0
:1014500001F03CF808BD70B5044600251CE004F01E
:10146000800020B180210E4801F0DDF803E08021EA
:101470000B4801F0DAF86006040E2021084801F05C
:10148000D2F84021064801F0B4F804432021044872
:1014900001F0CBF8681CC5B2082DE0DB204670BD1A
:1014A0000008014070B505460C461021D84801F0EF
:1014B000BCF82846FFF7CFFF06462046FFF7CBFFD4
:1014C0001021D34801F0AFF8304670BD70B5044626
:1014D0001021CF4801F0A9F82046FFF7BCFF0020FB
:1014E000FFF7B9FF05461021C94801F09CF82846CE
:1014F00070BD2DE9F04107460D4616461021C4483F
:1015000001F093F83846FFF7A6FF8046002404E078
:10151000285DFFF7A0FF601CC4B2B442F8DB1021C5
:10152000BB4801F080F84046BDE8F0812DE9F0416C
:1015300007460D4616461021B54801F076F83846A4
:10154000FFF789FF8046002405E00020FFF783FFB6
:101550002855601CC4B2B442F7DB1021AC4801F03E
:1015600062F84046BDE8F0810288120A0A700278EB
:101570004A708288120A8A700279CA700289120A35
:101580000A71027A4A718289120A8A71027BCA71CF
:10159000028A120A0A72027C4A72828A120A8A72C9
:1015A000027DCA72028B120A0A73027E4A73828B10
:1015B000120A8A73027FCA73028C120A0A7490F8A4
:1015C00020204A74828C120A8A7490F82420CA74EB
:1015D000704770B504460D4608218D4801F025F886
:1015E0008C498D48FFF7C0FF03228C492A20FFF762
:1015F00080FF2A462146A020FFF77BFF0821844870
:1016000001F011F870BD1CB585A103C9CDE9000139
:10161000052269463020FFF76CFF0522694610203D
:10162000FFF784FF002406E01DF80400A52800D081
:1016300003E0601CC4B2052CF6DB00BF052C01D012
:1016400001201CBD0020FCE770B504460D460821B2
:101650006F4800F0EAFF032273492A20FFF749FF91
:1016600003226E493020FFF744FF01212120FFF7BC
:1016700019FF01212220FFF715FF1F212420FFF76A
:1016800011FF29462520FFF70DFF0F212620FFF728
:1016900009FF012C08D118213120FFF703FF0F218A
:1016A0002020FFF7FFFE41E0022C08D11821312055
:1016B000FFF7F8FE0E212020FFF7F4FE36E0032CA2
:1016C0001AD1FF21E120FFF7EDFEFF21E220FFF715
:1016D000E9FE0F212020FFF7E5FE5020FFF7BBFEBB
:1016E0007320FFF7B8FE01213C20FFF7DBFE072146
:1016F0003D20FFF7D7FE19E00E212020FFF7D2FE94
:10170000FF21E120FFF7CEFEFF21E220FFF7CAFE16
:101710005020FFF7A0FE7320FFF79DFE01213C2023
:10172000FFF7C0FE07213D20FFF7BCFE0821384827
:1017300000F079FF70BD4A780B7842EA032202601C
:10174000CA788B7842EA032242604A790B7942EAEE
:1017500003228260CA798B7942EA0322C2604A7A04
:101760000B7A42EA03220261CA7A8B7A42EA0322A6
:1017700042614A7B0B7B42EA03228261CA7B8B7BFC
:1017800042EA0322C2614A7C0B7C42EA03220262E3
:10179000CA7C8B7C42EA03224262704770B5072004
:1017A000FFF794FE044604F04000C8B16020FFF744
:1017B0008DFE0546212D0EDA18221C496120FFF707
:1017C000B5FE1A491A48FFF7B6FF1A480078401CC0
:1017D0001849087003E0FF21E220FFF763FE00BF15
:1017E00004F0200020B114480078401C1249087011
:1017F00004F0100030B104F0010018B1FF21E12025
:10180000FFF750FE21462720FFF74CFE70BD000079
:1018100000080140400100207001002080000020ED
:10182000A5A5A5A5A5000000830000205801002063
:1018300098010020860000208700002008B50121C3
:10184000042001F00CF90121082001F0FBF84FF40D
:101850007070ADF8000018208DF8030003208DF89B
:1018600002006946484800F031FE08BDF0B587B077
:1018700007460C4615461E4640F2E730ADF8140008
:101880000020ADF81000ADF81600ADF8120004A964
:101890003E4801F013FA6020ADF800000120ADF8D9
:1018A0000200ADF806700020ADF808006946374820
:1018B00001F041FA0821354801F08CFE0120ADF815
:1018C0000200ADF806406946304801F076FA08217A
:1018D0002E4801F088FE0120ADF80200ADF8065058
:1018E00069462A4801F0B6FA0821284801F088FE26
:1018F0000120ADF80200ADF806606946234801F00A
:10190000F4FA0821214801F084FE01211F4801F06A
:1019100031FE01211D4801F02DFD07B0F0BD10B5CD
:10192000FFF78CFF00231A4619461846FFF79EFF63
:1019300010BD30B5B0F57A7F01DB40F2E730B1F58C
:101940007A7F01DB40F2E731B2F57A7F01DB40F2CA
:10195000E732B3F57A7F01DB40F2E733002800DAA3
:101960000020002900DA0021002A00DA0022002BE2
:1019700000DA0023054D343528802D1D29802D1DCA
:101980002A802D1D2B8030BD000C01400008004036
:101990004FF07E50B249086000208860B14808616D
:1019A000B148B249086000208860B1480861002051
:1019B000B049086088600861704770B506460D46FA
:1019C00014462946304602F07FFC01D2284670BDFD
:1019D0002146304602F06EFC01D22046F7E7304641
:1019E000F5E72DE9F04F87B005460E461C46DDE9C8
:1019F00013ABDDF840900020069005900490039012
:101A00002146284602F09EFA02903146484602F0EE
:101A100099FA0190BDF9487007EBD771481002F0B0
:101A2000CBFB8F498861002288699349FFF7C5FF86
:101A30008B4880698D49886189490868029902F05C
:101A4000D9FA8749486089490868019902F0D2FAB1
:101A5000864948602146204602F0CCFA009002F008
:101A6000E6FB0746854A864B02F0F4FB56D2494610
:101A7000484602F0BFFA009002F0D9FB07467F4AC1
:101A80007F4B02F0E7FB49D22946284602F0B2FA22
:101A900007467C4902F00EFC40D23146304602F047
:101AA000A9FA0746774902F005FC37D2BDF948008C
:101AB000B0F5967F32DD6A498868029902F09AFA99
:101AC00007466748C168384602F03CFA6449C86076
:101AD00066498868019902F08DFA07466348C16833
:101AE000384602F02FFA6149C8605D48806980F08D
:101AF00000475B4A9169D0683A46FFF75EFF584954
:101B0000C8605A48806980F00047584A9169D06897
:101B10003A46FFF752FF5549C86008E0BDF9480052
:101B2000C82804DA00204E49C8605049C8604C49B2
:101B30000869514602F05EFA494948614B49086913
:101B4000594602F057FA49494861454AD1685068F8
:101B500002F0F8F9074642484169384602F0F2F9C6
:101B60003F49C861414AD168506802F0EBF9074625
:101B70003E484169384602F0E5F93C49C861BDF983
:101B80004800C82850DDBDF9480002F015FB009060
:101B90003348C169009802F0D5F980463348C169DD
:101BA000404602F0CFF9074602F014FB0690BDF95B
:101BB000480002F001FB00902948C169009802F03A
:101BC000C1F980462948C169404602F00DFA07462E
:101BD00002F000FB0590BDF9480002F0EDFA00901C
:101BE0001F48C169009802F0FFF980461F48C1698B
:101BF000404602F0F9F9074602F0ECFA0490BDF90C
:101C0000480002F0D9FA00901548C169009802F026
:101C1000EBF980461548C169404602F093F9074642
:101C200002F0D8FA039004E000200690059004909A
:101C300003901548006850B1039803B2049802B2AB
:101C4000059801B2069800B2FFF773FE05E0002385
:101C50001A4619461846FFF76CFE07B0BDE8F08F2C
:101C6000C0010020CDCCCC3D0000C040E0010020F0
:101C7000CDCC4C3F0002002000007A449A999999FB
:101C80009999B93F0000F041980000203149014383
:101C9000314A1160704770B5002100230F22C478CB
:101CA00004B32D4C246804F4E064C4F5E064210A14
:101CB000C1F10403CA40447804FA03F18478144063
:101CC00021430901254C0678A155047804F01F052D
:101CD0000124AC4005786D11AD0005F1E025C5F893
:101CE000004109E0047804F01F050124AC401C4DBC
:101CF0000678761145F8264070BD1A4A0A4002431C
:101D0000154B1B1F1A60704739B1134A121D126818
:101D10000243114B1B1D1A6006E00F4A121D126888
:101D200082430D4B1B1D1A607047042808D14FF0E9
:101D3000E021096941F004014FF0E022116107E060
:101D40004FF0E021096921F004014FF0E022116118
:101D5000704700000000FA050CED00E000E400E030
:101D600080E100E080FFFF1F10B50446FA4884427E
:101D700008D10121401500F07FFE0021601500F020
:101D80007BFE17E0F548844208D10121001500F0E0
:101D900073FE0021201500F06FFE0BE0F048844236
:101DA00008D10121C80300F067FE00214FF4004074
:101DB00000F062FE10BD30B50246002000235068DE
:101DC000E84C20400D790C6844EA0524204350601B
:101DD0009068E54C2040D1E902542C434D7944EA07
:101DE000450420439060D06A20F470000C7C641E8F
:101DF000E4B2234340EA0350D06230BD00210160C9
:101E0000017141718160C16001210174704721B18C
:101E1000826842F00102826003E0826822F00102DF
:101E20008260704721B1826842F48072826003E070
:101E3000826822F480728260704710B50023CBB2B2
:101E40001AB144681C43446002E044689C43446007
:101E500010BD816841F00801816070470146002093
:101E60008A6802F008020AB1012000E000207047F1
:101E7000816841F0040181607047014600208A6852
:101E800002F004020AB1012000E00020704721B1F5
:101E9000826842F4A002826003E0826822F4A00219
:101EA00082607047014600208A6802F480020AB10D
:101EB000012000E00020704710B50A4600210023F1
:101EC000416821F46041531E41EA4331416010BD35
:101ED00021B1426842F40062426003E0426822F4A9
:101EE000006242607047F0B504460D4600200021B4
:101EF000092D11DDE068A5F10A0606EB4607072665
:101F000006FA07F18843A5F10A0606EB460603FA2E
:101F100006F10843E0600CE0206905EB4507072661
:101F200006FA07F1884305EB450603FA06F1084374
:101F30002061072A0FDA606B561E06EB86071F2604
:101F400006FA07F18843561E06EB860605FA06F1E7
:101F50000843606322E00D2A0FDA206BD61F06EBE0
:101F600086071F2606FA07F18843D61F06EB86066A
:101F700005FA06F10843206310E0E06AA2F10D06BD
:101F800006EB86071F2606FA07F18843A2F10D0625
:101F900006EB860605FA06F10843E062F0BD21B1C2
:101FA000826842F48012826003E0826822F4801228
:101FB000826070470146C86C80B2704766484C30FA
:101FC0000068704721B1426842F48062426003E0D9
:101FD000426822F480624260704721B1426842F454
:101FE0008052426003E0426822F4805242607047AF
:101FF0000A460021816821F4E04111438160704765
:1020000021B1826842F40042826003E0826822F4D7
:1020100000428260704721B1826842F402128260FD
:1020200003E0826822F402128260704701460020B9
:102030008A6802F400120AB1012000E00020704713
:10204000F0B504461546002000220026092911DDBE
:10205000E068A1F10A0707EB470C072707FA0CF223
:102060009043A1F10A0707EB470703FA07F2104371
:10207000E0600CE0206901EB410C072707FA0CF245
:10208000904301EB410703FA07F210432061A06B74
:10209000C0F30156EF1C06F1010CA7EB0C0707EB90
:1020A000870C1F2707FA0CF29043EF1C06F1010C76
:1020B000A7EB0C0707EB870701FA07F21043A063B1
:1020C000F0BD10B50A4600210023816B21F44011B8
:1020D000531E41EA0351816310BD08B500230093EC
:1020E0000090009B0B440093009B1A6008BD08B54C
:1020F000024600200090009201F12800009B184445
:1021000000900098006880B208BD0A46002141682E
:10211000164B19401143416070474162826270471B
:102120000A460021416821F01F01114341607047B8
:1021300040B109490831096841F40001064A0832F2
:10214000116007E004490831096821F40001024ADE
:10215000083211607047000000240140002801404F
:10216000003C0140FFFEF0FFFDF7F1FFFFFD3FFFE8
:102170000246002013680B400BB1012000E0002054
:102180007047CA430260704770B5024600200023C2
:1021900000240B125568CEB205EA060415681D40EE
:1021A00015B10CB1012000E0002070BD00220A1220
:1021B000D34303607047000001684FF6FE72114080
:1021C00001600021016041608160C1608D498842E9
:1021D00008D18C490839496841F00F01894A083A09
:1021E00051608AE087491431884208D1854908390D
:1021F000496841F0F001834A083A51607DE0814925
:102200002831884208D17F490839496841F4706112
:102210007C4A083A516070E07A493C31884208D1E2
:1022200078490839496841F47041764A083A516062
:1022300063E074495031884208D1724908394968CD
:1022400041F470216F4A083A516056E06D4964319B
:10225000884208D16B490839496841F47001694ADC
:10226000083A516049E067497831884208D16549A8
:102270000839496841F07061624A083A51603CE0AF
:102280006149884206D1011F096841F00F01021F10
:10229000116032E05C491431884208D15A49091F63
:1022A000096841F0F001584A121F116025E05649B3
:1022B0002831884208D15449091F096841F47061E6
:1022C000514A121F116018E04F493C31884208D131
:1022D0004D49091F096841F470414B4A121F1160B2
:1022E0000BE049495031884207D14749091F096825
:1022F00041F47021444A121F1160704710B500224A
:10230000026847F6F0739A430C6A8B6823430C69A2
:1023100023434C6923438C692343CC6923434C6A90
:1023200023438C6A23431A430260CB6843600B68E3
:1023300083604B68C36010BD002101604160816013
:10234000C160016141618161C1610162416281627B
:10235000704721B1026842F00102026004E00268A5
:102360004FF6FE731A40026070471AB103680B43C0
:10237000036002E003688B4303607047416070476D
:102380000146486880B2704701460020002201F0F3
:1023900080531BB11C4B083B1A6802E0194B083BE9
:1023A0001A6802EA01030BB1012000E00020704727
:1023B00000F0805119B11449091F086002E0114969
:1023C00008394860704701460020002201F0805320
:1023D0001BB10D4B083B1A6802E00A4B083B1A6818
:1023E00002EA01030BB1012000E00020704700F079
:1023F000805119B10449091F086002E001490839F8
:1024000048607047080002400804024010B50446C6
:10241000CC48844208D10121042000F02DFB00218A
:10242000042000F029FB46E0C748844208D101217E
:10243000082000F021FB0021082000F01DFB3AE0FD
:10244000C248844208D10121102000F015FB002170
:10245000102000F011FB2EE0BD48844208D101217C
:10246000202000F009FB0021202000F005FB22E0E5
:10247000B848844208D10121402000F0FDFA002133
:10248000402000F0F9FA16E0B348844208D1012157
:10249000802000F0F1FA0021802000F0EDFA0AE03F
:1024A000AE48844207D10121801500F0E5FA0021F1
:1024B000A01500F0E1FA10BD10B50121084600F0AA
:1024C000DBFA0021012000F0D7FA10BD2DE9F04120
:1024D000024600250026002000230024002791F852
:1024E00003C00CF00F0591F803C00CF0100CBCF108
:1024F000000F03D091F802C04CEA050591F800C026
:10250000BCF1000F31D0146800202BE04FF0010C1B
:102510000CFA00F3B1F800C00CEA03069E4220D189
:1025200083004FF00F0C0CFA03F7BC4305FA03FCD1
:102530004CEA040491F803C0BCF1280F06D14FF017
:10254000010C0CFA00FCC2F814C00AE091F803C0B8
:10255000BCF1480F05D14FF0010C0CFA00FCC2F899
:1025600010C0401C0828D1D31460B1F800C0BCF1E1
:10257000FF0F34DD546800202EE000F1080C4FF00E
:10258000010808FA0CF3B1F800C00CEA03069E42F9
:1025900021D183004FF00F0C0CFA03F7BC4305FA6E
:1025A00003FC4CEA040491F803C0BCF1280F05D1E8
:1025B00000F1080C08FA0CF8C2F8148091F803C076
:1025C000BCF1480F07D100F1080C4FF0010808FAE0
:1025D0000CF8C2F81080401C0828CED35460BDE827
:1025E000F0814FF6FF710180022181700421C170DA
:1025F00070470246002093680B400BB1012000E0B9
:10260000002070470146886880B27047024600206B
:10261000D3680B400BB1012000E000207047014659
:10262000C86880B2704701617047416170470AB164
:10263000016100E041617047C16070474FF4803232
:102640000A438261816182618269826970470246C0
:102650000020434B18684FF68073184040EA021080
:1026600008433F4B186070473E49C8617047F0B55A
:102670000A46002300240021002500F00046B6F1A0
:10268000004F02D1364EF16901E0354E7168C0F35A
:10269000034583B200F44016B6F5401F08D121F07F
:1026A00070612F4E766826F070662D4F7E6012E0C6
:1026B00000F48016B6F5801F06D1032606FA05F44D
:1026C000A14341F0706106E0460D360103FA06F6BB
:1026D000B14341F0706122B1460D360103FA06F6AE
:1026E000314300F00046B6F1004F02D11C4EF161BB
:1026F00001E01B4E7160F0BD30B500228B071C0F4E
:102700000F2303FA04F2164B08338C1053F82430CD
:102710009343134C08348D1044F8253023468C1015
:1027200053F824308C07240F00FA04F423430C4C94
:1027300008348D1044F8253030BD0A49DC3108607A
:102740007047000000080140000C014000100140EB
:102750000014014000180140001C0140002001400D
:102760000000014000002042DF48006840F0010006
:10277000DD49086008464068DC490840DA4948609D
:1027800008460068DA490840D749086008460068EA
:1027900020F4802008600846406820F4FE0048606D
:1027A0004FF41F0088607047CF49096821F48031D9
:1027B000CD4A11601146096821F480211160B0F5FD
:1027C000803F03D0B0F5802F0ED106E0C6490968DE
:1027D00041F48031C44A116007E0C349096841F4FB
:1027E000A021C14A116000E000BF00BF704710B5D2
:1027F00001460022002300204A11012A02D1BA4CCE
:10280000236806E0022A02D1B74C236A01E0B64CE5
:10281000636A01F01F02012494401C400CB10120A6
:1028200000E0002010BD38B50020009000240025F5
:1028300000BF3120FFF7DBFF05460098401C0090E9
:102840000098B0F5A06F01D0002DF2D03120FFF735
:10285000CEFF08B1012400E00024204638BD014627
:102860000020A14A106820F0F80040EAC100106082
:102870007047A04908607047024600209A4B58688C
:1028800020F47C1042EA01031843974B58607047CC
:1028900098490866704701460020934A506820F026
:1028A00003000843506070478F48406800F00C00F8
:1028B0007047014600208C4A506820F0F000084321
:1028C0005060704701460020874A506820F4E0605D
:1028D00008435060704701460020834A506820F446
:1028E000605040EAC1005060704729B17E4A527A78
:1028F00002437D4B5A7204E07B4A527A82437A4B00
:102900005A7270477B49D8310860704701460020F1
:10291000754A506820F440400843506070470021D9
:10292000714A20321170704A82F82010012802D0BA
:1029300004280AD104E001216B4A2032117005E01D
:102940000521694A2032117000E000BF00BF7047C6
:102950006949086070476449096A0143624A116223
:102960007047654944390860704730B5002100223E
:10297000002400235C4D6D6805F00C0121B1042991
:1029800005D0082923D105E05C4D056022E05C4DAF
:1029900005601FE0544D6D6805F47012524D6D686E
:1029A00005F48034022505EB92421CB9554D554380
:1029B00005600BE04C4D6D6805F400351DB1524DBE
:1029C0005543056002E04E4D5543056002E04B4D16
:1029D000056000BF00BF444D6D6805F0F0010909B6
:1029E0004A4D6B5C0568DD4045603F4D6D6805F400
:1029F000E061090A454D6B5C4568DD4085603A4DF4
:102A00006D6805F46051C90A404D6B5C4568DD4056
:102A1000C560354D6D6805F44041890B3C4D6B5CDC
:102A2000C568B5FBF3F5056130BD29B12E4A526981
:102A300002432D4B5A6104E02B4A526982432A4BD0
:102A40005A61704729B1284A92690243264B9A611C
:102A500004E0254A92698243234B9A61704729B169
:102A6000214AD2690243204BDA6104E01E4AD2694E
:102A700082431D4BDA61704729B11B4AD268024379
:102A8000194BDA6004E0184AD2688243164BDA60C8
:102A9000704729B1144A12690243134B1A6104E0CA
:102AA000114A12698243104B1A617047124940392A
:102AB000086070470F49C86470470B49C871704778
:102AC0000948406A40F080700749486270470146F3
:102AD0000020054A92680A400AB1012000E0002067
:102AE0007047014988727047001002400000FFF8EB
:102AF000FFFFF6FE000042428004424200127A00CC
:102B0000001BB70000093D00808D5B009C00002089
:102B1000AC00002010B50446FE48844208D10121D3
:102B2000C014FFF7A9FF0021E014FFF7A5FFC4E0E0
:102B3000B4F1804F08D101210846FFF7AAFF002118
:102B40000120FFF7A6FFB8E0F348844208D1012135
:102B50000220FFF79EFF00210220FFF79AFFACE062
:102B6000EE48844208D101210420FFF792FF0021A2
:102B70000420FFF78EFFA0E0E948844208D101213C
:102B80000820FFF786FF00210820FFF782FF94E06E
:102B9000E448844208D101211020FFF77AFF002188
:102BA0001020FFF776FF88E0DF48844208D101213A
:102BB0002020FFF76EFF00212020FFF76AFF7CE056
:102BC000DA48844208D101214014FFF755FF002163
:102BD0006014FFF751FF70E0D548844209D101210C
:102BE000C804FFF749FF00214FF40020FFF744FF1E
:102BF00063E0D048844209D101210805FFF73CFF7A
:102C000000214FF48010FFF737FF56E0CA48844296
:102C100009D101214805FFF72FFF00214FF40010D3
:102C2000FFF72AFF49E0C548844208D1012140202E
:102C3000FFF72FFF00214020FFF72BFF3DE0C048AA
:102C4000844208D101218020FFF723FF002180204A
:102C5000FFF71FFF31E0BB48844208D101218015F6
:102C6000FFF717FF0021A015FFF713FF25E0B64877
:102C7000844209D101210804FFF7FEFE00214FF430
:102C80008030FFF7F9FE18E0B048844209D10121F5
:102C90004804FFF7F1FE00214FF40030FFF7ECFE8F
:102CA0000BE0AB48844208D101218804FFF7E4FE21
:102CB00000214FF48020FFF7DFFE10BD00220288C4
:102CC000944B98420ED0994B98420BD0B0F1804F64
:102CD00008D0914B984205D0904B984202D0904B2F
:102CE000984204D14FF68F731A404B881A438D4B8C
:102CF000984207D08C4B984204D04FF6FF431A40BD
:102D0000CB881A4302808B8883850B880385814B8F
:102D100098420BD0854B984208D08B4B984205D0F7
:102D20008A4B984202D08A4B984201D10B7A038693
:102D300001238382704770B5002400220023058C94
:102D40004FF6FE7635400584028C8388048B4FF65F
:102D50008F752C40B51E2C400D882C43751E2A40C3
:102D60000D892A434D882A436A4DA8420BD06F4DE6
:102D7000A84208D0744DA84205D0744DA84202D094
:102D8000734DA84213D14FF6F7752A404D892A4357
:102D90004FF6FB752A408D882A434FF6FF652B407E
:102DA0004FF6FF552B408D892B43CD892B438380D4
:102DB0000483CD888586028470BD70B5002400220E
:102DC0000023058C4FF6EF7635400584028C83880E
:102DD000048B48F6FF752C404FF6FF452C400D88BC
:102DE0004FF6FF7606EA05252C434FF6DF752A409D
:102DF0000D8906EA05152A434D8806EA05152A437A
:102E0000444DA84202D0494DA8421DD14FF67F75CE
:102E10002A404D894FF6FF7606EA05152A434FF6FC
:102E2000BF752A408D8806EA05152A434FF6FF35FF
:102E30002B404FF2FF752B408D8906EA85052B4309
:102E4000CD8906EA85052B4383800483CD880587D9
:102E5000028470BD70B5002400220023058C4FF65B
:102E6000FF6635400584028C8388848B4FF68F750E
:102E70002C404FF6FC752C400D882C434FF6FF5527
:102E80002A400D894FF6FF7606EA05252A434D882C
:102E900006EA05252A431F4DA84202D0234DA84229
:102EA0001DD14FF2FF752A404D894FF6FF7606EA95
:102EB00005252A434FF6FF352A408D8806EA052569
:102EC0002A434EF6FF752B404DF6FF752B408D893A
:102ED00006EA05152B43CD8906EA05152B438380A9
:102EE0008483CD888587028470BD70B5002200235D
:102EF0000024058C4EF6FF7635400584038C8488CB
:102F0000828B48F6FF752A404FF6FF452A400D8810
:102F100020E00000002C01400004004000080040B8
:102F2000000C00400010004000140040003401403C
:102F3000004C014000500140005401400018004086
:102F4000001C0040002000400040014000440140BF
:102F5000004801404FF6FF7606EA05252A434DF664
:102F6000FF752B400D8906EA05352B434D8806EA8F
:102F700005352B43FA4DA84202D0FA4DA84208D19C
:102F80004BF6FF752C408D894FF6FF7606EA8515C6
:102F90002C4384808283CD88A0F84050038470BD88
:102FA000828B4FF2FF331A408283828B4FF6FF737E
:102FB00003EA01231A4382837047F0B50C46154695
:102FC000002200210026078C4EF6FF7C07EA0C0742
:102FD0000784828B018C4FF6FF7707EA043640F6B0
:102FE000FF473A404FF6FF7707EA05273A434FF687
:102FF000FF7707EA03373A43D94FB8420ED0D94F8B
:10300000B8420BD0B0F1804F08D0D74FB84205D0AE
:10301000D64FB84202D0D64FB84206D14DF6FF7710
:10302000394046F48057394305E047F6FF573940A9
:1030300044F48057394382830184F0BD828B4FF67C
:10304000F3731A408283828B0A4382837047F0B500
:103050000C461546002200210026078C4FF6FF6C17
:1030600007EA0C070784828B018C4FF6FF7707EA8B
:1030700004264FF60C773A404FF6FF7707EA03171E
:103080002F433A43B64FB8420ED0B64FB8420BD09A
:10309000B0F1804F08D0B44FB84205D0B34FB8421A
:1030A00002D0B34FB84206D14FF6FF57394046F42D
:1030B0008077394305E04FF2FF57394044F4807779
:1030C000394382830184F0BD028B4FF2FF331A40F3
:1030D0000283028B4FF6FF7303EA01231A43028334
:1030E0007047F0B50C461546002200210026078CDB
:1030F0004FF6EF7C07EA0C070784028B018C4FF632
:10310000FF7707EA041640F6FF473A404FF6FF778D
:1031100007EA03373A434FF6FF7707EA05273A43B2
:103120008F4FB8420ED08F4FB8420BD0B0F1804FC6
:1031300008D08D4FB84205D08C4FB84202D08C4F8A
:10314000B84206D14FF6DF77394046F010073943D1
:1031500005E04FF65F77394044F0100739430283AA
:103160000184F0BD028B4FF6F3731A400283028B89
:103170000A4302837047F0B50C4615460022002131
:10318000068C4FF6FE773E400684028B018C4FF68C
:103190000C7632407E1C06EA03162E433243704EF4
:1031A000B0420ED06F4EB0420BD0B0F1804F08D07D
:1031B0006D4EB04205D06D4EB04202D06C4EB04262
:1031C00006D14FF6FD76314044F00106314305E06B
:1031D0004FF6F576314044F0010631430283018415
:1031E000F0BD70B505460C465D4885420ED05D4881
:1031F00085420BD0B5F1804F08D05B48854205D0A1
:103200005A48854202D05A48854200D100E000BFAA
:10321000208850B92389A28861882846FFF7ABFF30
:10322000E1882846FFF79EFF25E0208804280AD180
:103230002389A28861882846FFF753FFE188284642
:10324000FFF742FF17E0208808280AD12389A288C7
:1032500061882846FFF7FBFEE1882846FFF7EEFE6F
:1032600009E02389A28861882846FFF7A6FEE18845
:103270002846FFF795FE70BD2DE9F04105460C4646
:1032800000260127608808B9022600E00026A088F1
:10329000012801D1022700E001272088A0B9238955
:1032A000A28861882846FFF766FFE1882846FFF775
:1032B00059FF23893A4631462846FFF712FFE18835
:1032C0002846FFF701FF13E02389A288618828467A
:1032D000FFF707FFE1882846FFF7F6FE23893A4605
:1032E00031462846FFF747FFE1882846FFF73AFFB7
:1032F000BDE8F0810A884B881A438B881A43CB8833
:103300001A430B891A434B891A438B891A43A0F835
:10331000442070474FF6FF71818000210180C180F9
:103320004180017270470021018041808180C1800D
:10333000018141818181C1817047002101804180EB
:10334000012181800021C18001817047002101801D
:1033500041808180C180018141818181704700006D
:10336000002C0140003401400004004000080040EF
:10337000000C004021B1028842F00102028004E00A
:1033800002884FF6FE731A400280704731B1B0F8E0
:10339000442042F40042A0F8442005E0B0F8442064
:1033A000C2F30E02A0F8442070471AB183890B4380
:1033B000838102E083898B438381704781827047D8
:1033C00041EA0203A0F8483070471AB183890B43E1
:1033D000838102E083898B438381704701894FF6A3
:1033E000F8721140018170470A46002101894FF6A9
:1033F0008F73194011430181704730B504460D4663
:1034000029462046FFF7F0FF208940F00700208181
:1034100030BD2DE9F04104460D4616461F46602D8D
:1034200006D13B46012231462046FFF75AFE05E011
:103430003B46012231462046FFF79DFE29462046A5
:10344000FFF7D2FF208940F007002081BDE8F0811E
:1034500030B50C4600210189C9B24FF6FF7505EA67
:103460000325154325432943018130BD2DE9F04152
:1034700005460E4617469846002443463A463146CE
:103480002846FFF7E5FF2C894FF6F870044044F01A
:1034900007044FF68F70044044F070042C81BDE89F
:1034A000F081F0B504460D4616461F463B463246AF
:1034B00029462046FFF7CCFF208940F48040208138
:1034C000F0BD0185828270470A46002101884FF6CF
:1034D0008F731940114301807047F0B50C461546B3
:1034E0001E460021002200230189028B038C4FF627
:1034F000F877394021434FF6FC473A4040F2011734
:103500003A434FF6DD773B404FF6FF7707EA061761
:103510002F433B43018102830384F0BD0A4600210F
:10352000018B4FF68F7319401143018370470A4690
:103530000021018B48F6FF7319404FF6FF7303EA31
:1035400002231943018370470A460021818B4FF6FD
:103550008F7319401143818370470A460021818B84
:1035600048F6FF7319404FF6FF7303EA022319432D
:103570008183704721B1028842F08002028004E01A
:1035800002884FF67F731A400280704721B182880B
:1035900042F00402828004E082884FF6FB731A40F6
:1035A0008280704721B1828842F00802828004E064
:1035B00082884FF6F7731A408280704721B1828863
:1035C00042F00102828004E082884FF6FE731A40C6
:1035D000828070470A460021018B4FF6F77319402D
:1035E0001143018370470A460021018B4FF2FF739C
:1035F00019404FF6FF7303EA022319430183704712
:103600000A460021818B4FF6F773194011438183DD
:1036100070470A460021818B4FF2FF7319404FF625
:10362000FF7303EA02231943818370470A4600218E
:10363000018B4FF6FB7319401143018370470A4613
:103640000021018B4FF6FF3319404FF6FF7303EA59
:1036500002231943018370470A460021818B4FF6EC
:10366000FB7319401143818370470A460021818B07
:103670004FF6FF3319404FF6FF7303EA0223194355
:10368000818370470A460021018B4FF67F731940F2
:103690001143018370470A460021018BC1F30E01DB
:1036A0004FF6FF7303EA02231943018370470A466A
:1036B0000021818B4FF67F7319401143818370473E
:1036C0000A460021818BC1F30E014FF6FF7303EA16
:1036D00002231943818370470A460021018C4FF66B
:1036E000FD7319401143018470470A460021018C83
:1036F0004FF6F77319401143018470470A460021C1
:10370000018C4FF6DF7319404FF6FF7303EA021383
:103710001943018470470A460021018C4FF67F73DC
:1037200019404FF6FF7303EA0213194301847047EF
:103730000A460021018C4FF6FF5319404FF6FF73E4
:1037400003EA02231943018470470A460021018CD1
:103750004FF2FF7319404FF6FF7303EA0223194338
:10376000018470470A460021018C4DF6FF73194011
:103770004FF6FF7303EA023319430184704730B5F3
:10378000002301248C40A3B2048C9C430484048C49
:1037900002FA01F5ADB22C43048430BD30B50023EC
:1037A00004248C40A3B2048C9C430484048C02FA4D
:1037B00001F5ADB22C43048430BD70B50346002042
:1037C00000241846183001258D40ACB21D8CA5434D
:1037D0001D8409B1082909D100EB6100056825F0B5
:1037E000700505600568154305600EE00D1FC5F303
:1037F0004E052844056825F4E045056005684FF648
:10380000FF7606EA02263543056070BD21B10288C5
:1038100042F00202028004E002884FF6FD731A4073
:103820000280704721B1028842F00402028004E065
:1038300002884FF6FB731A400280704721B18288DC
:1038400042F08002828004E082884FF67F731A4043
:103850008280704702884FF6F7731A400280028810
:103860000A430280704782884FF68F731A40828025
:1038700082880A438280704702894FF6F8731A40A3
:10388000028102890A430281704702894FF67F73E1
:103890001A40028102890A4302817047818470477D
:1038A000818570478186704701877047818770479F
:1038B000A0F84010704702884FF6FF431A4002807C
:1038C00002880A43028070470146888E704701468D
:1038D000088F70470146888F70470146B1F8400055
:1038E00070470146888C70470146088D7047024634
:1038F0000020138A0B400BB1012000E0002070472C
:10390000CA430282704730B50246002000230024DB
:10391000158A05EA0103958905EA010413B10CB182
:10392000012000E0002030BDCA4302827047000041
:1039300010B50446FB48844209D101218803FFF7F2
:103940009BF800214FF48040FFF796F832E0F648EC
:10395000844209D101214804FFF79BF800214FF46C
:103960000030FFF796F825E0F048844209D10121A4
:103970008804FFF78EF800214FF48020FFF789F8C4
:1039800018E0EB48844209D10121C804FFF781F80F
:1039900000214FF40020FFF77CF80BE0E54884425B
:1039A00008D101210805FFF774F800214FF48010B9
:1039B000FFF76FF810BD2DE9F04786B005460E46BB
:1039C0000024A24600BFA1460027B08900B100BF75
:1039D0002F462C8A4CF6FF700440F08804432C825A
:1039E000AC894EF6F3100440B088318908437189E0
:1039F00008430443AC81AC8A4FF6FF400440B089D1
:103A00000443AC8201A8FEF7B0FFC648874202D14A
:103A1000DDF810A001E0DDF80CA0A88900F400405A
:103A200040B10AEBCA0000EB0A1031684900B0FB54
:103A3000F1F807E00AEBCA0000EB0A1031688900D0
:103A4000B0FBF1F86420B8FBF0F004012009642118
:103A500001FB1089A88900F4004040B1322000EB3E
:103A6000C900B0FBF1F000F00700044308E0322089
:103A700000EB09106421B0FBF1F000F00F000443EB
:103A80002C8106B0BDE8F0874FF41651016000218B
:103A90008180C18001810C21418100218181704799
:103AA00010B502460020108A4FF2FF0318400B8821
:103AB0004C8823438C882343CC88234318431082AB
:103AC00010BD0021018041808180C180704721B1FB
:103AD000828942F40052828104E082894DF6FF73AC
:103AE0001A4082817047F0B5034600240026002565
:103AF000002040F66A17B94200D100BF1846C1F352
:103B0000421401F01F06012707FA06F5012C01D126
:103B10000C3004E0022C01D1103000E014301AB156
:103B200007682F43076002E00768AF430760F0BDF6
:103B30001AB1838A0B43838202E0838A8B43838298
:103B40007047028A4FF6F0731A400282028A0A43D3
:103B50000282704782894FF2FF731A408281828904
:103B60000A438281704721B1828942F00202828138
:103B700004E082894FF6FD731A4082817047028A01
:103B80004FF6DF731A400282028A0A4302827047AC
:103B900021B1028A42F48042028204E0028A4BF69A
:103BA000FF731A4002827047C1F308028280704797
:103BB00001468888C0F308007047818941F00101FF
:103BC00081817047028BD2B20283028B42EA0122CA
:103BD00002837047028B02F47F420283028B0A4306
:103BE0000283704721B1828A42F02002828204E07F
:103BF000828A4FF6DF731A408282704721B1828A2F
:103C000042F01002828204E0828A4FF6EF731A407B
:103C10008282704721B1828A42F00802828204E0E7
:103C2000828A4FF6F7731A408282704721B18289E7
:103C300042F40042828103E08289C2F30E02828153
:103C4000704721B1828A42F40062828204E0828A53
:103C50004FF2FF731A4082827047828A4FF6FB73DD
:103C60001A408282828A0A438282704721B1828A04
:103C700042F00202828204E0828A4FF6FD731A400B
:103C80008282704702460020B1F5007F00D100BF5C
:103C900013880B400BB1012000E00020704701F4B5
:103CA0000072B2F5007F00D100BFCA4302807047A6
:103CB00070B50246002400230025002040F66A1655
:103CC000B14200D100BFC1F3421501F01F0301262C
:103CD00006FA03F3012D02D19689334006E0022D46
:103CE00002D1168A334001E0968A33400C12012635
:103CF00006FA04F41688344013B10CB1012000E038
:103D0000002070BD10B50022002340F66A14A142C5
:103D100000D100BF0A1201249440A3B2DC43048006
:103D200010BD000000380140004400400048004041
:103D3000004C0040005000400CB500200190009065
:103D40006C48006840F480306A49086000BF6948E8
:103D5000006800F4003000900198401C0190009829
:103D600018B90198B0F5A06FF1D16248006800F46D
:103D7000003010B10120009001E000200090009878
:103D8000012843D15C48006840F010005A4908609F
:103D90000846006820F0030008600846006840F00C
:103DA000020008605348406852494860084640682D
:103DB00048600846406840F48060486008464068B3
:103DC00020F47C1048600846406840F48810486041
:103DD0000846006840F08070086000BF45480068F1
:103DE00000F000700028F9D04248406820F003003D
:103DF000404948600846406840F00200486000BF03
:103E00003C48406800F00C000828F9D10CBD10B502
:103E1000FFF792FF10BD10B53648006840F0010072
:103E200034490860084640683449084031494860D0
:103E300008460068324908402E4908600846006874
:103E400020F4802008600846406820F4FE004860A6
:103E50004FF41F008860FFF7DAFF4FF00060294938
:103E6000086010BD10B5002100200022214B5B68C6
:103E700003F00C0121B1042906D0082928D107E05C
:103E8000214B224C236027E0214B204C236023E070
:103E9000184B5B6803F47010164B5B6803F48032B8
:103EA000022303EB904022B91A4B4343174C236083
:103EB0000DE0104B5B6803F4003323B1164B434312
:103EC000124C236003E0124B4343104C236003E089
:103ED0000D4B0E4C236000BF00BF064B5B68C3F365
:103EE00003130E4CE15C094B1B68CB40074C23606D
:103EF00010BD000000100240002002400000FFF84A
:103F0000FFFFF6FE08ED00E000127A00B00000208E
:103F1000001BB70000093D00808D5B00B40000204D
:103F20000648804706480047FEE7FEE7FEE7FEE753
:103F3000FEE7FEE7FEE7FEE7FEE7FEE7173E0008C6
:103F4000ED000008F0B480EA0102D40F4200B2EBA9
:103F5000410F02D20246084611464A0042D0C30D24
:103F6000DDB2C1F3C752AD1A202D35DAC1F3160107
:103F700041F4000204B15242C5F1200602FA06F1F2
:103F80002A411044B3EBD05F23D0C4B1012DA0EB84
:103F9000C35009DCF0BC4FF0004202EAC352DBB26E
:103FA00000F5000000F0A3B9400000F1807000EBC4
:103FB000C350A0F1807040EAD170490009E049087F
:103FC00041EAC071A0EBC35000F50000400800EBCF
:103FD000C350F0BC00F082B96142012202EB410102
:103FE000001BF6E7F0BC704781F00041AAE780F0C3
:103FF0000040A7E780EA010210B502F0004340004C
:1040000022D04A001FD0010E01EB1261C0F356000E
:10401000C2F3560240F4000042F40002A0FB02206A
:1040200000047F39140400D0401C50EA124001D42F
:104030004000491EC2B20C0604EBD010401C4008E0
:10404000802A02D003E0002010BD20F001000029EA
:1040500000DA0020184310BD30B480EA010202F0FB
:10406000004530F0004221F0004013D090B1C30D64
:10407000D40DC2F31601C0F31600E41A41F4000196
:1040800040F400027D34914201D3641C00E04900F9
:10409000002C02DA30BC002070474FF400000023EF
:1040A000914201D3891A034340084FEA4101F7D1F5
:1040B00051B1914202D14FF0004105E002D24FF0E0
:1040C000010101E06FF0010103EBC450284430BC52
:1040D00000F004B92DE9FE4F81EA030404F0004426
:1040E00021F0004100944FF0000B23F0004350EA10
:1040F00001045ED052EA03045BD0C3F30A54C1F357
:104100000A552C44A4F2F3340194A0FB0254C1F3E9
:10411000130141F48011C3F3130343F4801301FB33
:10412000024400FB034E840A970A44EA815447EA9A
:104130008357A4FB076802958D0A05FB07854FEAA4
:10414000932C04FB0C542705029D4FEA065847EABE
:104150001637B5EB08056EEB070C870E920E47EA93
:10416000811742EA8312A7FB0201B6EB0B0164EB55
:1041700000042B0D43EA0C335E1844EB1C50DA4666
:104180005146E7FB0201C5F313044FEA0B3343EA40
:1041900014534FEA0432019C43EA0603A4F10C04D1
:1041A0000294009CCDE900B400F0DCF803B0BDE857
:1041B000F08F00200146F9E7C10F80EAE070084463
:1041C000CA079623002100F092B8962300221146D8
:1041D00000F08DB800F0004220F00040C10DC0F3A7
:1041E000160040F400007F2901DA0020704796296C
:1041F00003DCC1F19601C84001E096398840002AED
:10420000F4D04042704720F00040C10DC0F31600CA
:1042100040F400007F2901DA00207047962903DC72
:10422000C1F19601C840704796398840704700F048
:10423000004230F000400AD0C10D01F56071C0F3BA
:10424000160042EA0151C20840071143704700209E
:104250000146704730B5002904DB4FF0004440426E
:1042600064EB0101002B04DB4FF00044524264EB8D
:1042700003038B4208BF824230BD000001F00043BF
:1042800030B421F0004150EA010206D00A0DA2F537
:104290006072C1F31301002A02DC30BC00207047B9
:1042A000440F44EAC104C100E01830BC00EBC25026
:1042B00000F014B8002801DBC0F10040002901DB48
:1042C000C1F1004181427047002801DBC0F100408C
:1042D000002901DBC1F10041884270470029A8BFD5
:1042E0007047401C490008BF20F00100704710B41F
:1042F000B0FA80FC00FA0CF050EA010404BF10BCD4
:10430000704749B1CCF1200421FA04F411FA0CF100
:1043100018BF012121430843A3EB0C01CB1D4FEA39
:1043200000614FEA102042BF002010BC704700EB34
:10433000C35010440029A4BF10BC7047401C490062
:1043400008BF20F0010010BC704710B5002B08DA40
:10435000401C41F1000192185B411A4301D120F049
:10436000010010BD2DE9F04D92469B4611B1B1FA06
:1043700081F202E0B0FA80F22032904600F0D0F9EB
:1043800004460F4640EA0A0041EA0B0153465A46EA
:10439000084313D0114653EA010019D0C8F1400276
:1043A000504600F0CCF905460E4650465946424666
:1043B00000F0B6F9084305D0012004E02046394654
:1043C000BDE8F08D0020054346EAE0762C433743F4
:1043D0000A986305E40AA0EB08000022FD0A44EAFB
:1043E00047540A3002D500200146E9E701051019BB
:1043F0006941DDE9084500196941BDE8F04DA4E7D0
:104400002DE9FE4F804681EA0300C00F0C46009064
:1044100021F0004123F00045B8EB0200A94105D28C
:104420004046214690461C460B46024623F000407B
:10443000104347D0270DC7F30A00C3F30A51029077
:10444000401A019040286BDAC3F3130040F4801B3C
:104450000098924620B10023D2EB030A63EB0B0BCA
:1044600001985946C0F14002504600F059F90646FD
:104470000D4650465946019A00F071F910EB0800BC
:104480006141002487EA115284EAE7731A4340D05D
:10449000009A62B3019A012A4FEA075215DC001B09
:1044A00061EB02014FF0004202EA0752CDE90042FF
:1044B000001C41F5801132462B46FFF753FF03B035
:1044C000BDE8F08F40462146F9E7001B61EB020191
:1044D000001C41F5801300185B412018A2F500175D
:1044E00047EB030140EAD570B6196D4111E06D0844
:1044F0004FEA360645EAC0754FEA0752001B61EBEA
:104500000201001C41F5801149084FEA30000019F2
:10451000514132462B4603B0BDE8F04FFFF715BFBF
:104520000098012240000023D0EB020263EBE0730D
:10453000009821464FEAE074B8EB000061EB0401FB
:10454000E9E783F000435BE781F0004158E72DE99C
:10455000F04D81EA030404F0004B21F000451446BD
:104560004FF0000A23F0004150EA050220D054EA3F
:1045700001021DD0C5F30A570246C5F31303C1F368
:104580001300C1F30A5640F4801543F48013A7EBDF
:104590000608101BD64608F2FD3873EB050002D35F
:1045A00008F1010801E092185B41B8F1000F03DA4D
:1045B00000200146BDE8F08D00204FF48011064632
:1045C00084460EE0171B73EB050705D3121B63EB44
:1045D000050306434CEA010C49084FEA30009218E3
:1045E0005B4150EA0107EDD152EA030012D082EAA2
:1045F000040083EA0501084305D0101BAB4106D235
:104600000122002306E000224FF0004302E06FF099
:10461000010253101AEB06004CEB085110EB0A0094
:1046200041EB0B01BDE8F04DFFF78FBE70B521F0F7
:10463000004303430CD0C1F30A550024D5EB040515
:1046400064EB0403D617AD1AB34102DB0020014628
:1046500070BD201841EB025170BD2DE9F04D0023D3
:104660001A461B1A8A4103DB00200146BDE8F08D83
:10467000C1F30A52C1F3130141F480154FF0000B4E
:10468000D10702D100186D41521E0027044640F2A6
:10469000FF11384601EB620A3E4680460246002082
:1046A0004FF4801100F04BF8C2197141BB1846EB72
:1046B0000100B4EB030C75EB000C04D3E41A65EBBA
:1046C000000517460E46241908F101006D41804689
:1046D0003428E3DDF91946EB0600091BA84103D293
:1046E0004FF0FF32134601E0002213461BEB070098
:1046F00046EB0A51BDE8F04DFFF727BE064C074DCB
:1047000006E0E06840F0010394E8070098471034A1
:10471000AC42F6D3FBF7EEFCF04F00081050000857
:10472000202A04DB203A00FA02F100207047914071
:10473000C2F1200320FA03F3194390407047202A66
:1047400004DB203A21FA02F00021704721FA02F33B
:10475000D040C2F120029140084319467047202AF8
:1047600006DBCB17203A41FA02F043EAE07306E099
:1047700041FA02F3D040C2F12002914008431946A9
:104780007047490050EAC12018BF04204A0D18BFE5
:1047900040F0010040F2FF72B2EB515F08BF40F001
:1047A0000200012808BF052070472DE9F0414F1E87
:1047B00000EBC7010446D1E9000115461E4637F05B
:1047C00006020DD02A463346FFF784FC7F1E04EB19
:1047D000C703D3E90023FFF713FE37F00602F1D138
:1047E000022F25D0042F13D0062F18BFBDE8F0816B
:1047F0002A463346FFF76EFCD4E90A23FFF700FE92
:104800002A463346FFF766FCD4E90823FFF7F8FD94
:104810002A463346FFF75EFCD4E90623FFF7F0FD96
:104820002A463346FFF756FCD4E90423FFF7E8FD98
:104830002A463346FFF74EFCD4E90223FFF7E0FD9A
:104840002A463346FFF746FCD4E90023BDE8F04191
:10485000FFF7D6BD024A00201107FFF7E7BE0000B0
:1048600001FDFFFF02E008C8121F08C1002AFAD1AB
:1048700070477047002001E001C1121F002AFBD1E0
:10488000704700000149086070470000C400002024
:104890002DE9F04D904F21F0004A86B005460C46B8
:1048A000BA4530DBAAEB070028430CD08B48824581
:1048B00001DC1CD1DDB106B02846BDE8F04D4FF05B
:1048C0000102FFF7B3BE864A864B2846FFF702FC7B
:1048D00007460E46844A854B28462146FFF7FAFBD9
:1048E00006B03A463346BDE8F04DFFF789BD0120DA
:1048F000FFF7C8FF06B00022BDE8F04D1346104692
:104900001146FFF724BE7A48824542DABAF1795F50
:104910000BDA2846FFF735FF042808BFFFF79AFF98
:10492000284606B02146BDE8F08D2A460B461046C3
:10493000FFF7D0FB834602466E480E460B46062123
:104940007844FFF732FF5A463346FFF7C3FB8046F1
:1049500069488A465A46334604217844FFF725FFC2
:104960005A463346FFF7B6FB00223B46FFF748FDA9
:1049700002460B4640465146FFF7E9FD2A462346CC
:10498000FFF7A8FB06B02A462346BDE8F04DFFF727
:1049900037BD284624F0004100223D463B46FFF744
:1049A000D3FD4FF0FF32FFF741FE06460246534863
:1049B0000F460B4606217844FFF7F7FE32463B468A
:1049C000FFF788FBCDE900014D4832463B46042104
:1049D0007844FFF7EAFE32463B46FFF77BFB0022B6
:1049E0002B46FFF70DFD834602913046394600F015
:1049F0005FFA804643480D46504517DCDDE900016B
:104A00005A46029BFFF7A3FD42462B46FFF762FB87
:104A100042462B46FFF7F4FC0122FFF707FE304A1F
:104A2000304BFFF78EFD304A304B4CE04FF0000A20
:104A300052460B464046FFF7E3FCCDE903105246D1
:104A40002B4610461946FFF745FB32463B46FFF71B
:104A50007BFDDDE90332FFF77AFD06460F46DDE90F
:104A600000015A46029BFFF772FD83460091012226
:104A700030463946FFF7DAFD194A1A4BFFF764FD55
:104A800006460F46012240462946FFF7CFFD5A460B
:104A9000009BFFF71FFB32463B46FFF752FD0746E0
:104AA0000E46012250462946FFF7C0FD0E4DDFF8A5
:104AB00058802A464346FFF747FD3A463346FFF7FC
:104AC00043FD2A464346FFF73FFD002CD8BF81F047
:104AD000004106B0BDE8F08D0000F03F0000F07F1F
:104AE000075C143326A6913C182D4454FB21F93F52
:104AF0000000E03FBC050000D205000046050000B4
:104B00005C0500003333EF3FFB21E93F2DE9F84F0F
:104B100004460D4621F0004000917449814213DCA7
:104B20007349884201DC08D13CB120462946BDE8E2
:104B3000F84F4FF00102FFF779BD6E48002DCCBF52
:104B40006D496E49BDE8F88F6D49814211DD6D49AF
:104B50008142D8BF4FF0FF366DDD20462946FFF772
:104B600010FE042808BFFFF775FE20462946BDE861
:104B7000F88F6549654F25F00045814233DD644972
:104B8000814219DD002632464FF0804320462946F7
:104B9000FFF736FC80468A46012220462946FFF769
:104BA00045FD00223B46FFF7CCFC42465346FFF74B
:104BB000CEFC04460D463EE001260022BA463B46A6
:104BC00020462946FFF71CFC80460F46002253462C
:104BD00020462946FFF7B5FC42463B46FFF7B7FCA7
:104BE00004460D4627E04B4981421BDDDFF8288152
:104BF00002260022434620462946FFF76BFA002290
:104C00003B46FFF7FDFB07468A4600224346204607
:104C10002946FFF796FC3A465346FFF798FC0446B0
:104C20000D4608E0032622462B4600203B49FFF7AD
:104C30008EFC04460D4622462B4610461946FFF7C9
:104C400049FA8B46824602460B46FFF743FA07466F
:104C50000246334888460B4606217844FFF7A5FDF7
:104C600052465B46FFF736FA82462E488B463A4656
:104C7000434605217844FFF798FD3A464346FFF73F
:104C800029FA02460B46002E504659460CDAFFF729
:104C9000B7FB22462B46FFF71DFA01B022462B46F2
:104CA000BDE8F04FFFF750BCFFF7AAFB22462B46AA
:104CB000FFF710FA1C4A7A4402EBC603D3E900233B
:104CC000FFF73FFC22462B46FFF73BFC174A7A448E
:104CD00002EBC603D3E90023FFF736FC009A002A53
:104CE000B8BF81F00041BDE8F88F0000000010441B
:104CF0000000F07F182D4454FB21F93FFB21F9BF40
:104D00000000DC3F0000203E0000F33F0000F03FC9
:104D10000000E63F008003400000F83F0000F0BFC5
:104D20005A03000018030000B60200007E020000D3
:104D30002DE9F04D9446CCF1000423F000464CEAF6
:104D40000404524F46EAD4749A46884621F0004241
:104D5000BC4206D8454240EA050442EAD474BC424B
:104D600004D9BDE8F04D6246FFF74ABBAAF14055B1
:104D7000A5F17F6555EA0C040BD0022404EAAA745D
:104D8000434DDFF810E144EAD87452EA000B04D036
:104D90000CE0BDE8F04DFFF7B9BE002C14BF012CAC
:104DA000BDE8F08D022C30D0032C32D056EA0C0B2B
:104DB0000AD0BE4220D1BA4209D126F0804622F064
:104DC00080423346114617E000291ADB25E0DFF860
:104DD000C8B0FB44002C04BFDBE90001BDE8F08D46
:104DE000012C02BFDBE9000181F00041BDE8F08D3C
:104DF000022C0AD0032C0CD0BA4212D1B8F1000F09
:104E00000BDA23482549BDE8F08D28462449BDE842
:104E1000F08D28467146BDE8F08D1D482149BDE85A
:104E2000F08D921B12153C2AC4BF19481D490EDC97
:104E3000BAF1000FBEBF12F13C0F0020014606DBA5
:104E40006246FFF784FB21F00041FFF75FFE002C74
:104E500008BFBDE8F08D012C04BF81F00041BDE822
:104E6000F08D114A114B022C07D0FFF76AFB2A463E
:104E7000BDE8F04D0A4BFFF764BBFFF762FB2A4623
:104E8000BDE8F04D064BFFF75FBB00000000F07F70
:104E9000182D4454FB2109C012020000FB21F9BF68
:104EA000FB210940FB21F93F075C143326A6A13CF6
:104EB0002DE9F04106460F46FFF7CFFB04000D46F3
:104EC00018BF0120284320F00040C0F17F6000F1AE
:104ED000E040C00F0ED0301C18BF0120384320F036
:104EE0000040C0F17F6000F1E040C00F04BF01202E
:104EF000FFF7C8FC20462946BDE8F081000000000D
:104F0000555555555555C53F7D6FEB0312D6D4BF4A
:104F10005544880E55C1C93F3B8F68B52882A4BF50
:104F200088B20175E0EF493F09F7FD0DE13D023F11
:104F30004B2D8A1C273A03C0C88A599CE52A004099
:104F400059018D1B6C06E6BF82922EB1C5B8B33FE6
:104F50004FBB610567ACDD3F182D4454FB21E93F91
:104F60009BF681D20B73EF3F182D4454FB21F93F80
:104F7000E2652F227F2B7A3C075C143326A6813C06
:104F8000BDCBF07A8807703C075C143326A6913CB1
:104F9000C4EB98999999C9BF711623FEC671BCBF1D
:104FA0006D9A74AFF2B0B3BF9AFDDE522DDEADBF85
:104FB0002F6C6A2C44B4A2BF0D5555555555D53F9D
:104FC000FF8300922449C23F6E204CC5CD45B73FB8
:104FD000513DD0A0660DB13FEB0D76244B7BA93F30
:104FE00011DA22E33AAD903F00000000000000001B
:104FF0001050000800000020C800000064480008AD
:10500000D8500008C8000020580500007448000867
:105010000000000000000000000000000000000090
:105020000000000000000000000000000000000080
:105030000000000000000000000000000000000070
:105040000000000000000000000000000000000060
:10505000000000000000000000000000000050C13F
:105060000000C8C100002442000000000000000051
:10507000000000000000803F000000000000000071
:105080000000000000000000000000000000000020
:10509000012345012345000000000000000000003E
:1050A0000000000000000000000000000000000000
:1050B00001020304010203040607080902040608AA
:1050C00000A24A04000000000000000001020304E6
:0850D0000607080900000000BA
:04000005080000ED02
:00000001FF
