:020000040800F2
:1000000070430020C5040008C1020008C3020008B4
:10001000C7020008CB020008CF0200080000000061
:10002000000000000000000000000000D3020008F3
:10003000D502000800000000FB250008D7020008D8
:10004000DF040008DF040008DF040008DB0200080A
:10005000DF040008DF040008D9020008DF040008FC
:1000600011500008DF040008DF040008DF04000866
:10007000DF040008DF040008DF040008DF040008D4
:10008000DF040008DF040008DF040008DF040008C4
:10009000DF040008DF040008DF040008DF040008B4
:1000A000DF040008DF040008DF040008DF040008A4
:1000B000DF040008DF040008DF040008DF04000894
:1000C000DF040008DF040008DF040008DF04000884
:1000D000DF040008D75A0008F75A0008DF040008B8
:1000E000754F0008DF040008DF040008DF04000883
:1000F000DF040008DF040008DF040008DF04000854
:10010000DF040008DF040008DF040008DF04000843
:10011000DF040008DF040008E55C0008095D000852
:10012000DF040008DF040008DF040008DF04000823
:1001300000F002F800F0B4F80AA090E8000C824445
:100140008344AAF10107DA4501D100F0A9F8AFF222
:10015000090EBAE80F0013F0010F18BFFB1A43F0A5
:100160000103184790D70000B0D700000A444FF0B1
:10017000000C10F8013B13F0070408BF10F8014B06
:100180001D1108BF10F8015B641E05D010F8016B4B
:10019000641E01F8016BF9D113F0080F1EBF10F8AF
:1001A000014BAD1C0C1B09D16D1E58BF01F801CBD2
:1001B000FAD505E014F8016B01F8016B6D1EF9D555
:1001C0009142D6D37047000000230024002500266A
:1001D000103A28BF78C1FBD8520728BF30C148BFAA
:1001E0000B6070476E290AF0E08370290AF02F80B7
:1001F00066290DF0CF8165290DF0CC8167290DF0BE
:10020000C9816129AFF3008003681B0A28BF41F050
:100210008001692909F0A287642909F09F8775295F
:1002200009F09C876F290AF0B986782909F0FB87C5
:10023000E9290AF05586E4290AF05286F5290AF0E0
:100240004F86EF290AF0B686F82909F0FA87036885
:10025000DB0928BF41F0800163290AF0A9877329CF
:100260000AF0AE87E3290AF0B987F3290AF0BE87BE
:10027000002070471FB59DE803000AF0C1FA0AF09C
:10028000E5FE0400002000210CF0BEFA401C606076
:10029000002000210CF0CEFAE0601FBD10B510BDAB
:1002A0000BF03CF81146FFF7E5FF06F0D4FF0BF02A
:1002B0005AF803B4FFF7F2FF03BC0BF0C7F80000D5
:1002C000704700BFFEE700BFFEE700BFFEE700BFCC
:1002D000FEE7704770477047704770470CB50020C5
:1002E000019000906C48006840F480306A490860D2
:1002F00000BF6948006800F4003000900198401C7D
:100300000190009818B90198B0F5A06FF1D162483A
:10031000006800F4003010B10120009001E00020DE
:1003200000900098012843D15C48006840F010001C
:100330005A4908600846006820F003000860084633
:10034000006840F002000860534840685249486025
:100350000846406848600846406840F4806048604D
:100360000846406820F47C1048600846406840F425
:10037000881048600846006840F08070086000BF40
:100380004548006800F000700028F9D042484068F5
:1003900020F00300404948600846406840F00200F1
:1003A000486000BF3C48406800F00C000828F9D1C4
:1003B0000CBD10B5FFF792FF10BD10B536480068B0
:1003C00040F001003449086008464068344908405C
:1003D0003149486008460068324908402E490860A3
:1003E0000846006820F4802008600846406820F431
:1003F000FE0048604FF41F008860FFF7DAFF4FF0FF
:1004000000602949086010BD10B5002100200022BD
:10041000214B5B6803F00C0121B1042906D00829A7
:1004200028D107E0214B224C236027E0214B204CB0
:10043000236023E0184B5B6803F47010164B5B6875
:1004400003F48032022303EB904022B91A4B43435A
:10045000174C23600DE0104B5B6803F4003323B1AD
:10046000164B4343124C236003E0124B4343104CA2
:10047000236003E00D4B0E4C236000BF00BF064B12
:100480005B68C3F303130E4CE15C094B1B68CB4064
:10049000074C236010BD0000001002400020024005
:1004A0000000FFF8FFFFF6FE08ED00E000127A0002
:1004B00000000020001BB70000093D00808D5B009C
:1004C000040000200948804709480047FEE7FEE78E
:1004D000FEE7FEE7FEE7FEE7FEE7FEE7FEE7FEE7F4
:1004E00004480549054A064B70470000BB03000855
:1004F00031010008703D002070430020703F002053
:10050000703F00207CB5002514E06946284601F0C4
:1005100013FE064666B9F74850F8254044B1012C51
:1005200006D0D4E9020100EB810060640198A06468
:10053000681CC5B23F2DE8D97CBD002400BF02E095
:10054000282001F003FFEC4800780028F8D0EB48A1
:1005500000686421B0FBF1F0E849086008460068D3
:1005600028B90020E6490870FF2001F027FE00BFEF
:1005700002F01CF80446E3480068E34908600020E4
:10058000E0490860204602F015F8DF480068DB49C2
:100590000968B0FBF1F0C0F16400D949087001F0BE
:1005A000B2FFFFF7AFFF142001F0D0FEE0E700B587
:1005B00087B0032000218022D44BCDE90132CDE960
:1005C00003104FF6FE703E23D14A0090AFF2950023
:1005D00001F0CBFB06AACFA13E2001F02FFD07B012
:1005E00000BD002400BF00BF01F0E0FF0446C54885
:1005F0000068401CC3490860204601F0DBFF01F0A1
:1006000081FFF1E700B587B0032000218022C54BB0
:10061000CDE90132CDE903104FF6FF703F23C24A06
:100620000090AFF2410001F0A0FB06AABFA13F205D
:1006300001F004FD07B000BD04E0002200F8012B2A
:100640004A1E91B20029F8D1704770B54FF4C871B5
:10065000BA48FFF7F1FF00230FE0581C85B203EB07
:100660008300B64901EB800405EB850001EB8006B1
:10067000002020706660581C83B2132BEDD303EB6F
:100680008300AE4901EB80040020207060600846C2
:10069000AB49086070BD70B54FF49361A948FFF78E
:1006A000CBFF4FF480719348FFF7C6FF002413E09F
:1006B000601CC5B2C4EBC40000EB4000A14901EBD3
:1006C0008003C5EBC50000EB400001EB80065E61D6
:1006D0009DA0D864601CC4B20D2CE9D3C4EBC40047
:1006E00000EB4000974901EB80030020586196A081
:1006F000D86400209549086092489549086070BD0B
:100700000021944A1170002004E00021924A115403
:10071000411CC8B20828F8D30021904A1170904AB1
:100720001170904A1160904A1160704700208F4903
:1007300008608F4908708F4908708F4908708F4989
:1007400008708F4908606F4908606F4908606B49FD
:10075000086069490870704710B501F0CFFEFFF7D7
:10076000E5FFFFF7CDFFFFF796FFFFF76EFF00F005
:10077000E9FE01F0E0F9FFF745FFFFF718FF01F090
:10078000BEFE10BD7D480078012808D17848007869
:10079000FF2804D276480078401C754908707047DD
:1007A00078496C4A1278885C6B49095C754A515CDF
:1007B00001EBC0016A4A1170704710B500246F4800
:1007C0000078012830D101F0F1FE04466848007835
:1007D00020B167480078401E654908706448007879
:1007E000F8B964480078E0B9FFF7DAFF41485C499E
:1007F000097850F821005B4908605948007857494A
:10080000097888420DD057480068806B401C5549D4
:10081000096888635A480068401C5949086001F01B
:10082000E4FE204601F0C6FE10BD10B5002453487A
:100830000078012811D101F0B9FE04464C48007837
:1008400040B94C480078FF2804D24A480078401C40
:1008500048490870204601F0ADFE10BD10B50024D7
:1008600001F0A4FE044642480078F8B941480078F7
:10087000E0B9FFF795FF1F483949097850F8210082
:1008800038490860364800783449097888420DD0E4
:1008900034480068806B401C3249096888633848D6
:1008A0000068401C3649086001F098FE204601F0BF
:1008B00081FE10BD10B500243048007801286ED1AB
:1008C00001F074FE04462B48007880B12948007876
:1008D000401E284908700846007848B92448007826
:1008E00038B9204601F066FEFFF7B8FF57E053E045
:1008F0004EE049E02C0700202C00002024000020BE
:10090000200000203C000020280000202C030020B4
:100910002805002075432F4F532D494920537461FA
:10092000740000002C0500202807002075432F4F7D
:10093000532D49492049646C650000004C0100209A
:10094000180000202C0800203F0000004C00002070
:100950004400002031000020320000202F00002041
:1009600030000020480000204000002058000020F7
:100970002D0000202E0000203B0000203A00002027
:100980001400002088D60008204601F013FE06E07F
:10099000204601F00FFE02E0204601F00BFE10BDE4
:1009A00010B5EB48007890B9FFF7FAFEE9480078F7
:1009B000E9490870E948E749097850F82100E84911
:1009C000086008460068E749086001F0F6FD10BDC0
:1009D00010B50024022001F0B9FC01F0E7FD044647
:1009E0000020E1490860204601F0E4FD142001F0F8
:1009F000ADFC01F0DBFD0446DB480068DB49086024
:100A00000120DB490870204601F0D4FD10BD70B50F
:100A1000002601F0C8FD01F0C9FD0646D548006872
:100A2000401CD4490860304601F0C4FDC848007835
:100A3000012853D1D048007820B1012804D00228E1
:100A400009D103E001250BE0002509E00125012083
:100A5000C949087004E001250020C749087000BF9B
:100A600000BF05B970BDC548046833E001F09EFDC4
:100A70000646E06A50B3E06A401EE062E06A28BBC6
:100A800094F8300000F0370040B114F8300F00F057
:100A9000C800207001206070303C02E0002084F823
:100AA000310094F8300000F0080078B93434A078B0
:100AB000B34909780843B24908702078B149085C05
:100AC0006178084314F83419AE4A505464693046CA
:100AD00001F070FD94F832003F28C7D100BFC1E794
:100AE00040F223107047704710B590F8342001F1A0
:100AF0000B039B5C90F83540A34301F10B04A35416
:100B000023469B5C23B98B7A90F83640A3438B72C3
:100B100010BD2DE9F04F05460F4690469946A87A3C
:100B200099490E5C05F10B00805D11F800B00BEBEC
:100B3000C60000F0FF0A894850F82A4000202034FF
:100B4000E0602760207C20EA0800207484F811907F
:100B5000207C203C00F0080068B994F836008849F1
:100B600009780843864908708648805D94F83510F6
:100B700008438449885529462046FFF7B5FF50466B
:100B8000BDE8F08F10B5774A1268D061754A1268D7
:100B900092F8343000F10B02D25C724B1B6893F870
:100BA00035301A436F4B1B6893F8344000F10B0348
:100BB0001A55827A6B4B1B6893F836301A4382724F
:100BC000684A126892F834106E4A525C654B1B6892
:100BD00093F835309A436B4B5A541A46525C42B9DB
:100BE000604A126892F83630654A12789A43644B2C
:100BF0001A7010BD014600228A72002005E0002311
:100C000001F10B021354421CD0B20828F7D37047ED
:100C100005E011F8013B00F8013B531E9AB2002A8F
:100C2000F7D170470146002002E0491C421CD0B2B7
:100C30000A78002AF9D170472DE9F84F05460F468A
:100C400090469946DDE90AAB0020009001F0AEFC29
:100C500000904E480468002C75D0183454F8040CE9
:100C60004A490860009801F0A5FC44F8187CA57674
:100C7000002020766076606144F814BC44F80CAC27
:100C800044F8108C0C9824F8080C24F8069C0020DA
:100C9000E077E810207705F00700E076217F01205B
:100CA0008840A077E17E0120884060770020606066
:100CB000E060A0602062A0626062E0622063AFF248
:100CC00078306063183C002606E0002104F15000F3
:100CD00040F82610701CC6B2002EF6D0204601F057
:100CE00061FC204601F00CFC01F060FC00901B4808
:100CF00040F825402148006860610020A0611F483D
:100D0000006810B11D48006884611C4804603434D8
:100D1000A0781B49097808431949087020781949B7
:100D2000085C6178084314F83419164A505418487E
:100D30000078401C16490870009801F03BFC002028
:100D4000BDE8F88FFFE7009801F034FC4220F7E798
:100D50003A000020300000202F0000202C07002047
:100D600048000020400000203C000020240000201B
:100D70002C00002058000020500000204C000020D3
:100D8000310000203200002088D6000844000020F6
:100D90003B0000202DE9F05F04460F4691461E46B9
:100DA0004FF0000B2078052804D00120307000207F
:100DB000BDE8F09F09F0800ABAF1000F04D029F0D5
:100DC00080094FF0010801E04FF00008002030706A
:100DD00001F0ECFB8346B9F1000F2CD0B9F1010F03
:100DE0003BD0B9F1020F03D0B9F1030F46D111E0A6
:100DF000208900EA0705BD4206D1B8F1010F05D1EF
:100E00002089A843208101E070203070584601F00D
:100E1000D1FB3AE0208900EA070535B1B8F1010FAE
:100E200005D12089A843208101E070203070584608
:100E300001F0C0FB29E0208927EA0005BD4206D168
:100E4000B8F1010F05D120892843208101E07020ED
:100E50003070584601F0AEFB17E0208927EA000504
:100E600035B1B8F1010F05D120892843208101E077
:100E700070203070584601F09DFB06E0584601F0A6
:100E800099FB00256F20307000BF00BF28468FE718
:100E90002DE9F04106460D460027FA48007820B1BA
:100EA000102028700020BDE8F08101F07FFB07468C
:100EB000F548046884B100684068F349086005207B
:100EC0002070268100206060F0A0E060384601F0CC
:100ED00071FB0020287004E0384601F06BFB7220A3
:100EE00028702046DFE730B501464A6808682AB90D
:100EF000CC68606028B10025456002E0106000B158
:100F000042608B6800255D6230BDF0B506460F4635
:100F1000B4680020283460602780207A00F0DF0069
:100F2000207200206072207A283C88B93434A0787E
:100F3000D74909780843D64908702078D549085C14
:100F40006178084314F83419D24A5054012500E05E
:100F500000253046FFF7C7FF2846F0BD2DE9F047D2
:100F60000446894615464FF0000AC648007820B16D
:100F70000F2028702046BDE8F0872078052803D090
:100F8000012028702046F6E701F010FB82466068D9
:100F900008B1012700E00027B9F1000F03D0B9F133
:100FA000010F3CD119E08FB9B8A0E060002020709B
:100FB000B5480068606000202081B3480460504656
:100FC00001F0F8FA00202870002605E0504601F0F4
:100FD000F1FA49202870264628E0D4F8048005E07C
:100FE00000214046FFF791FFD8F80080B8F1000FCC
:100FF000F6D1A6A0E06000202070A34800686060E1
:1010000000202081A0480460504601F0D3FA012F4F
:1010100001D1FFF723FC00202870002606E050468F
:1010200001F0C8FA07202870264600BF00BF3046EE
:10103000A1E72DE9F04105460E46144600279148E8
:10104000007820B1112020700020BDE8F08101F06F
:10105000ADFA07462878052806D0384601F0AAFAE6
:10106000012020700020F0E7E86830603068FFF76A
:10107000D9FD8046384601F09DFA00202070404698
:10108000E3E72DE9F04105460E46144600277D486A
:10109000007818B112202070BDE8F08101F086FAC6
:1010A00007462878052805D0384601F083FA012044
:1010B0002070F1E7EE60384601F07CFA00202070E5
:1010C00000BFE9E7F0B51446059E734F3F6897F8F7
:1010D000307047F02007DFF8C0C1DCF800C08CF8A2
:1010E00030700027DFF8B0C1DCF800C08CF8317038
:1010F000694F3F68FE62684F3F6879620C828B746B
:10110000654F3F688F6047680F6000274F60C86079
:10111000456805B1696041605F4F3F6897F83420CA
:101120005C4FBF5CDFF870C1DCF800C09CF835C0D4
:1011300027EA0C07DFF85CC10CF802706746BF5C59
:101140005FB9554F3F6897F836C0514F3F7827EA4F
:101150000C07DFF83CC18CF80070F0BD2DE9F04FB2
:1011600089B005460F4691469A46129E002002908D
:101170004448007828B102203070002009B0BDE852
:10118000F08F4648007818B10D2030700020F5E748
:101190002878052803D0012030700020EEE709F000
:1011A000800BBBF1000F04D009F07F094FF001085C
:1011B00001E04FF0000801F0F9F90290B9F1000FD9
:1011C0004AD0B9F1010F78D0B9F1020F03D0B9F1CB
:1011D000030F71D120E0288900EA0704BC420FD137
:1011E000B8F1010F02D12889A04328812A4800685C
:1011F0000485029801F0DEF9002030702046BDE73A
:101200004B463A4604A92846CDF800A0FFF75AFFFE
:10121000029801F0CFF978E0288900EA07047CB150
:10122000B8F1010F02D12889A04328811A4800682B
:101230000485029801F0BEF90020307020469DE739
:101240004B463A4604A92846CDF800A0FFF73AFFDE
:10125000029801F0AFF958E0288927EA0004BC425F
:101260001ED1B8F1010F02D12889204328810A48F4
:1012700000680485029801F09DF900203070204636
:101280007CE71AE02D0000201C0000203F00000039
:101290003100002032000020400000202E000020FD
:1012A0004B463A4604A92846CDF800A0FFF70AFFAE
:1012B000029801F07FF928E01FE0288927EA00045E
:1012C0007CB1B8F1010F02D1288920432881B148AF
:1012D00000680485029801F06DF900203070204606
:1012E0004CE74B463A4604A92846CDF800A0FFF744
:1012F000E9FE029801F05EF907E0029801F05AF960
:1013000000246F203070204638E700BFFFF7A6FAB0
:1013100001F04CF902909F48006890F8310020B32A
:101320009C48006890F831000390002099490968B2
:1013300081F8310004A8FFF7D6FD0020954909681F
:1013400081F83000029801F035F900240398012853
:1013500005D0022802D10E20307003E000BF0A2021
:10136000307000BF00BF204608E78A480068048D3F
:10137000B8F1010F1ED1B9F1000F0ED0B9F1010F74
:101380000CD0B9F1020F03D0B9F1030F0AD100E07C
:1013900000BF2889A04328810BE000BF2889204393
:1013A000288106E0029801F005F96F2030700020D6
:1013B000E4E600BF029801F0FDF8002030702046FE
:1013C000DCE670B5002501F0F1F8054671480068CB
:1013D000048D284601F0EEF8204670BD2DE9FC5F33
:1013E0000446894692461E46002000902078052833
:1013F00004D0012030700020BDE8FC9F01F0D6F839
:101400000090BAF1000F03D0BAF1010F0AD104E045
:10141000208920EA090020810BE0208940EA0900A8
:10142000208106E0009801F0C5F87120307000209E
:10143000E2E700BF4FF0000B656855E0A87C40B3C1
:10144000012838D0022802D0032844D111E0208995
:10145000298A00EA0107288AB84209D13946284674
:10146000FFF753FD8046B8F1010F01D14FF0010B9A
:1014700038E02089298A00EA01074FB13946284619
:10148000FFF743FD8046B8F1010F01D14FF0010B8A
:1014900028E0288A218920EA0107288AB84209D150
:1014A00039462846FFF731FD8046B8F1010F01D1DA
:1014B0004FF0010B16E0288A218920EA01074FB17D
:1014C00039462846FFF721FD8046B8F1010F01D1CA
:1014D0004FF0010B06E0009801F06CF86F203070BF
:1014E000002089E700BF2D68002DA7D1009801F0EA
:1014F00061F8BBF1010F01D1FFF7B0F901F056F827
:10150000009020890190009801F054F8002030707C
:10151000019871E72DE9F04104460D460027207837
:10152000052804D0012028700020BDE8F08101F0DA
:101530003DF807462689384601F03CF8002028701F
:101540003046F2E72DE9F04150211348FFF774F8D7
:1015500000250EE0681C86B20F4800EB051400EB76
:101560000617002020706760AFF2E020E060681C82
:1015700085B2042DEED3084800EB0514002020703E
:101580006060AFF2F820E060034804490860BDE8FD
:10159000F081000040000020DC0200201C00002040
:1015A0002DE9F04106460D464FF00008307802283C
:1015B00004D0012028700020BDE8F08100F0F6FF83
:1015C00080467468E08A78B12169081D20610F683F
:1015D000E08A401EE082A1682069884201D16068EB
:1015E00020610020287002E01F202870002740465C
:1015F00000F0E0FF3846DFE72DE9F04106460F46F0
:101600004FF00008F748007810B10020BDE8F081E5
:1016100000F0CCFF8046F4480568006820B1F2482D
:1016200000684068F0490860404600F0C3FF3DB3E1
:1016300000F0BCFF8046ED480468C4B10068006853
:10164000EA490860404600F0B5FF666006EB870097
:10165000A060E6602661A7820020E0820220287058
:10166000002028816C602846FFF7C4FA08E0DE48B5
:1016700000686860DC480560404600F09BFF00257C
:101680002846C3E72DE9F0470446894615464FF042
:10169000000A2078022804D0012028702046BDE8E6
:1016A000F087D048007818B10F2028702046F6E760
:1016B00000F07CFF8246A07A10B14FF0010801E0F3
:1016C0004FF00008B9F1000F03D0B9F1010F45D177
:1016D0001FE0B8F1000F15D16668C448006830609B
:1016E000C248066000202070BF480068606000208B
:1016F0002081BD480460504600F05CFF0020287047
:10170000002705E0504600F055FF49202870274685
:101710002BE005E00023042219462046FFF7F9F9E3
:10172000A07A0028F6D16668B04800683060AF48FB
:10173000066000202070AC480068606000202081B6
:10174000A9480460504600F035FFB8F1010F01D1FF
:10175000FFF784F800202870002706E0504600F0CC
:1017600029FF07202870274600BF00BF384696E7AC
:1017700070B50546002600F019FF06466C686068E3
:10178000E060606820610020E082304600F012FFD7
:10179000002070BD2DE9F0470746884615464FF0FA
:1017A00000093878022804D0012028700020BDE804
:1017B000F0878C48007818B1022028700020F6E7E6
:1017C0008B48007818B10D2028700020EFE700F05A
:1017D000EDFE81467C68E08A98B12169081D206190
:1017E0000E68E08A401EE082A1682069884201D12B
:1017F00060682061484600F0DDFE00202870304619
:10180000D5E77C48006890F8300040F00400794942
:10181000096881F8300000207649096881F83100B4
:1018200074480068C0F82C803846FFF7ABF948468A
:1018300000F0C0FEFFF712F800F0B8FE81466D48D8
:10184000006890F8310020B101280DD002280AD19B
:1018500005E068480068066A002028700DE0002650
:101860000E20287009E000BF394662480068FFF783
:101870003BF900260A20287000BF00BF00205D4908
:10188000096881F830005B49096881F831005949DD
:101890000968C861574909680862484600F08AFE2D
:1018A000304684E72DE9F04104460F4615464FF0D7
:1018B00000082078022804D0012028700020BDE80C
:1018C000F08100F073FE8046A07A20B300267FB13D
:1018D000012F0CD107E00223042200212046FFF74C
:1018E00018F9701CC6B2A07A0028F4D109E000BF34
:1018F0000223042200212046FFF70BF9701CC6B218
:1019000000BF00BF404600F055FEFEF7A7FF0E20C7
:1019100028703046D3E7404600F04CFE0020287087
:1019200000BFCCE72DE9F04105460E460027287898
:10193000022802D00120BDE8F08100F037FE074602
:10194000A87A60B10023042231462846FFF7E1F867
:10195000384600F02FFEFEF781FF0020EBE76C68B1
:10196000E08AA18A884204DB384600F023FE1E206C
:10197000E1E7E168081DE0600E60E08A401CE0825B
:10198000D4E90210884201D16068E060384600F076
:1019900011FE0020CFE72DE9F04105460E46002755
:1019A0002878022802D00120BDE8F08100F0FEFD79
:1019B0000746A87A60B10023042231462846FFF783
:1019C000A8F8384600F0F6FDFEF748FF0020EBE7E8
:1019D0006C68E08AA18A88420EDB384600F0EAFD96
:1019E0001E20E1E72D0000201800002054000020F8
:1019F0002E0000204000002061682069884201D14B
:101A0000A06820612069001F206120690660E08ACB
:101A1000401CE082384600F0CDFD0020C4E72DE9EF
:101A2000F04105460F4616464FF000082878022878
:101A300002D00120BDE8F08100F0B8FD8046A87A10
:101A4000E8B106F0010050B105E000230422394658
:101A50002846FFF75EF8A87A0028F6D105E00023B3
:101A6000042239462846FFF754F8404600F0A2FD0C
:101A700006F0040008B9FEF7F1FE0020DAE76C6812
:101A8000E08AA18A884204DB404600F093FD1E20D4
:101A9000D0E706F0020058B161682069884201D1A0
:101AA000A06820612069001F20612069076009E0AB
:101AB000E168081DE0600F60D4E90210884201D19E
:101AC0006068E060E08A401CE082404600F072FD01
:101AD0000020AFE72DE9F04705460C464FF0000A1D
:101AE0002878022802D00120BDE8F08700F05EFDD2
:101AF0008246A87A207405F10B0804F10809002732
:101B000005E018F8010B09F8010B781CC7B2082F83
:101B1000F7D36E68F08A18B130690068206001E080
:101B200000202060F08AA080B08AE080504600F05B
:101B300041FD0020D8E72DE9F04178211048FEF75B
:101B40007BFD00240DE0601C86B204EB44000C49D0
:101B500001EBC00506EB460001EBC0072F60601CDF
:101B600084B2042CEFD304EB4400054901EBC0051B
:101B700000202860084603490860BDE8F0810000A5
:101B8000C40C0020540000202DE9FF5F81468846E8
:101B90000020009000F00AFD0090F94850F828005D
:101BA00030B1009800F006FD282004B0BDE8F09F99
:101BB000B9F1FF0F03D1F348006890F83290F04874
:101BC00050F8294024B9009800F0F4FC2920ECE7F3
:101BD000012C04D1009800F0EDFC4320E5E74FEA2A
:101BE000E80708F0070003900120B84000F0FF0A62
:101BF00001210398814001F0FF0B0020E04941F8EA
:101C00002900084640F8284014F8346FA078029064
:101C10006078343C0190DC48815D01980140D1B18D
:101C2000D948805D01998843D74988550846805D29
:101C300028B9D648007802998843D4490870D34817
:101C4000007840EA0A00D1490870CF48C05D40EAF8
:101C50000B00CD49C855E569D5B105F10B00805D94
:101C60000199884305F10B0188550846805D18B934
:101C7000A87A02998843A872A87A40EA0A00A87252
:101C800005F10B00C05D40EA0B0005F10B01C855E2
:101C900084F8328084F83470039884F8330084F830
:101CA00036A084F835B0009800F084FCB84800787D
:101CB000012801D1FEF7D2FD002076E72DE9FE4F85
:101CC00006460F4690461C464FF0000900F06EFC99
:101CD0008146B048007828B1484600F06BFC3C20B3
:101CE000BDE8FE8FA64850F8240060BB0120A4493F
:101CF00041F82400484600F05DFC00234246394686
:101D0000304600F001FC824600200090019003461E
:101D10000246514602902046FEF78EFF054635B931
:101D20009B48007801280CD1FEF798FD09E000F0EF
:101D30003DFC81460020924941F82400484600F0CD
:101D400039FC2846CCE7484600F034FC2820C7E799
:101D500002F0010343B102F002032BB102E0491E7D
:101D6000002308C00029FAD170472DE9F04F85B053
:101D700081468A4693461C46DDE90F78129D002075
:101D8000039000F013FC03908248007830B1039870
:101D900000F010FC3C2005B0BDE8F08F784850F80A
:101DA000240088BB0120764941F82400039800F004
:101DB00001FC2A4641463846FFF7CAFF2B465A46E1
:101DC0005146484600F0A0FB04901198CDE90080F0
:101DD00002953A4620460E9B0499FEF72DFF0646D3
:101DE00036B96B48007801280CD1FEF737FD09E0C1
:101DF00000F0DCFB03900020614941F824000398C7
:101E000000F0D8FB3046C6E7FFE7039800F0D2FBAE
:101E10002820C0E72DE9F041054600275D480078FD
:101E200010B14020BDE8F0813F2D01D13E20F9E7FF
:101E300000F0BCFB0746FF2D03D15248006890F824
:101E400032504F4850F8254024B9384600F0B2FBD4
:101E50004320E7E7012C04D1384600F0ABFB3D20DE
:101E6000E0E714F8340F4849085C6178884321782A
:101E7000454A505414F834091146085C30B994F8B6
:101E8000361042480078884340490870E06918B12C
:101E90002046E169FEF728FE666A16B13046FFF774
:101EA00022F80020E06284F8300084F831003A48DB
:101EB0000078FF2804D238480078401C3649087062
:101EC000384600F077FBFEF70EFE00F06FFB07468A
:101ED0003148007820B130480078401E2E49087003
:101EE000204600F00EFB2D480078401E2B4908705C
:101EF0000020234941F82500A06930B9002061691C
:101F0000886127496069086005E0D4E905014861F6
:101F1000D4E90510886123480068606121480460A5
:101F200021A0E064384600F045FB194800780128FC
:101F300001D1FEF793FC002074E72DE9F04104463F
:101F400000273F2C02D13E20BDE8F081FF2C0BD1B1
:101F500000F02CFB07460B48006890F837603846C5
:101F600000F028FB3046EFE700F020FB074604486E
:101F700050F82450D5B9384600F01CFB4320E3E765
:101F80002C070020400000203200002031000020FB
:101F90003A0000202D0000202E0000203B000020F1
:101FA0004C000020440000203F000000012D04D11F
:101FB000384600F0FFFA3D20C6E73F2085F837009D
:101FC000384600F0F7FA0020BEE72DE9F047064654
:101FD0000F4614464FF00008D648007820B1112073
:101FE00020700020BDE8F08700F0E0FA8046FF2E68
:101FF00003D1D148006890F83260D04850F826509C
:1020000035B9404600F0D6FA432020700020E9E7B9
:10201000012D06D1404600F0CDFA4320207000206B
:10202000E0E7E86C38603868FEF7FCFD8146404622
:1020300000F0C0FA002020704846D3E72DE9F041B7
:1020400006460F4614464FF00008BA48007818B10B
:1020500012202070BDE8F08100F0A8FA8046FF2E23
:1020600003D1B548006890F83260B44850F8265063
:102070002DB9404600F09EFA43202070EAE7012D7A
:1020800005D1404600F096FA43202070E2E7EF6465
:10209000404600F08FFA0020207000BFDAE770B5EC
:1020A0000546002600F082FA0646A44850F825406E
:1020B00024B9304600F07EFA462070BD012C04D1D0
:1020C000304600F077FA4320F7E794F8300000F04C
:1020D000080060B314F8300F00F0F700207014F817
:1020E0003009F8B9E06AC8B93434A078944909785D
:1020F00008439349087020789249085C6178084346
:1021000014F834198F4A5054304600F053FA8E4870
:102110000078012809D1FEF7A1FB06E0304600F067
:1021200049FA02E0304600F045FA0020C5E73046A3
:1021300000F040FA4420C0E72DE9F04707460D467D
:102140004FF0000A00202860686000F02FFA8246F5
:10215000FF2F03D17848006890F83270774850F824
:1021600027402CB9504600F025FA4320BDE8F087FF
:10217000012C04D1504600F01DFA4320F6E7207CE4
:1021800000F0010020B9504600F014FA4520EDE7B8
:102190000026D4F80C90D4F80880504600F00AFAD3
:1021A00000E0761C58F8041B0029FAD0B000286023
:1021B000A9EB0600800068600020D7E72DE9F04118
:1021C00005464FF0000800F0F1F98046FF2D05D1DB
:1021D0005948006890F83250012608E056480068D7
:1021E00090F83200A84201D1012600E000265348B1
:1021F00050F825402CB9404600F0DCF94820BDE8F5
:10220000F081012C04D1404600F0D4F94320F6E7D8
:1022100094F834704B48C05D94F8351088434949B0
:10222000C8550846C05D30B994F836104448007867
:1022300088434349087094F8300040F0080084F85F
:102240003000404600F0B6F9012E01D1FEF706FB42
:102250000020D4E72DE9F04105460E46002700F0A6
:10226000A5F90746FF2D03D13348006890F8325096
:10227000324850F825402CB9384600F09BF9292007
:10228000BDE8F081012C04D1384600F093F94320D9
:10229000F6E7542221463046FEF7BAFC384600F0F5
:1022A00089F90020ECE72DE9F04704460E46174671
:1022B0004FF0000900F07AF98146FF2C02D11E4848
:1022C000056802E01D4850F8245005F1500050F810
:1022D0002680484600F06EF9002038704046BDE880
:1022E000F0872DE9F04704460E46174698464FF012
:1022F000000900F05BF98146FF2C02D10E48056809
:1023000002E00E4850F8245005F1500040F82670C5
:10231000484600F04FF9002088F80000BDE8F0873B
:1023200010B50548006800F03FF9FF20FFF772FD87
:1023300010BD00002D000020400000202C070020D0
:1023400031000020320000203A00002070B5054620
:1023500000266348007800B170BD6248007800B183
:10236000FAE71DB300F022F906465F48006890F8CE
:1023700034405E48005D5C49096891F83510884337
:102380005A4908550846005D40B95748006890F81A
:1023900036105748007888435549087052480068FD
:1023A000C562304600F006F9FEF758FA00BFD3E7E1
:1023B0002DE9F04104460D4616461F464848007870
:1023C00010B15520BDE8F0814648007808B13220B0
:1023D000F8E7B81CC82148434FF47A71B0FBF1F11B
:1023E0004FF461606043C5EB051200EB820030449E
:1023F00000EBC00202EB001001EBC0084046FFF703
:10240000A5FF0020DEE770B5054600263F2D01D36D
:102410002A2070BD00F0CAF80646364850F825401C
:1024200024B9304600F0C6F84320F2E7012C04D16D
:10243000304600F0BFF84320EBE7E06A20B93046B1
:1024400000F0B8F85020E4E70020E06294F8300093
:1024500000F0370040B114F8300F20F03700207042
:1024600001206070303C02E0002084F8310094F8D4
:10247000300000F00800A8B93434A0781C4909786D
:1024800008431B49087020781849085C61780843A4
:1024900014F83419154A5054304600F08BF8FEF702
:1024A000DDF902E0304600F085F80020B1E770B5B4
:1024B000002500F07BF805460F480468284600F028
:1024C00079F8204670BD70B50446002500F06EF81E
:1024D000054609480460284600F06CF870BD00000D
:1024E0002D0000202E00002040000020320000209F
:1024F000310000202C070020580000207047704752
:10250000704770477047704770B5044610464FF0EB
:1025100080750560051F28462C606FF00106051FB9
:1025200028462E604FF01236051F28462E604FF0C9
:102530000336051F28462E604FF00236051F284639
:102540002E607610051F28462E60051F284629603C
:102550004FF01136051F28462E604FF01036051F2C
:1025600028462E604FF00936051F28462E604FF092
:102570000836051F28462E604FF00736051F2846EF
:102580002E604FF00636051F28462E604FF00536A8
:10259000051F28462E604FF00436051F28462E6082
:1025A00070BD70477047704770470000EFF31080B0
:1025B00072B6704780F310887047204C204D25601C
:1025C0004FF0000484F309881E4C4FF0010525707C
:1025D0001D4C4FF08055256062B6FEE730B41A4CB2
:1025E0004FF08055256030BC704730B4164C4FF02A
:1025F0008055256030BC704700BF72B6EFF309808C
:1026000028B1203880E8F00F10490968086000B54B
:102610000F4880475DF804EB0E480F490A780270B6
:102620000A480E490A680260106890E8F00F2030EE
:1026300080F309884EF0040E62B6704720ED00E08A
:102640000000FFFF3A00002004ED00E04000002001
:10265000A32500082F0000203000002048000020A3
:1026600031490143314A1160704770B500210023A0
:102670000F22C47804B32D4C246804F4E064C4F53C
:10268000E064210AC1F10403CA40447804FA03F16A
:102690008478144021430901254C0678A15504781B
:1026A00004F01F050124AC4005786D11AD0005F163
:1026B000E025C5F8004109E0047804F01F05012475
:1026C000AC401C4D0678761145F8264070BD1A4A7C
:1026D0000A400243154B1B1F1A60704739B1134A59
:1026E000121D12680243114B1B1D1A6006E00F4AAF
:1026F000121D126882430D4B1B1D1A60704704287F
:1027000008D14FF0E021096941F004014FF0E022C7
:10271000116107E04FF0E021096921F004014FF059
:10272000E0221161704700000000FA050CED00E0A6
:1027300000E400E080E100E080FFFF1F10B50446E8
:10274000CC48844208D10121042000F02DFB002157
:10275000042000F029FB46E0C748844208D101214B
:10276000082000F021FB0021082000F01DFB3AE0CA
:10277000C248844208D10121102000F015FB00213D
:10278000102000F011FB2EE0BD48844208D1012149
:10279000202000F009FB0021202000F005FB22E0B2
:1027A000B848844208D10121402000F0FDFA002100
:1027B000402000F0F9FA16E0B348844208D1012124
:1027C000802000F0F1FA0021802000F0EDFA0AE00C
:1027D000AE48844207D10121801500F0E5FA0021BE
:1027E000A01500F0E1FA10BD10B50121084600F077
:1027F000DBFA0021012000F0D7FA10BD2DE9F041ED
:10280000024600250026002000230024002791F81E
:1028100003C00CF00F0591F803C00CF0100CBCF1D4
:10282000000F03D091F802C04CEA050591F800C0F2
:10283000BCF1000F31D0146800202BE04FF0010CE8
:102840000CFA00F3B1F800C00CEA03069E4220D156
:1028500083004FF00F0C0CFA03F7BC4305FA03FC9E
:102860004CEA040491F803C0BCF1280F06D14FF0E4
:10287000010C0CFA00FCC2F814C00AE091F803C085
:10288000BCF1480F05D14FF0010C0CFA00FCC2F866
:1028900010C0401C0828D1D31460B1F800C0BCF1AE
:1028A000FF0F34DD546800202EE000F1080C4FF0DB
:1028B000010808FA0CF3B1F800C00CEA03069E42C6
:1028C00021D183004FF00F0C0CFA03F7BC4305FA3B
:1028D00003FC4CEA040491F803C0BCF1280F05D1B5
:1028E00000F1080C08FA0CF8C2F8148091F803C043
:1028F000BCF1480F07D100F1080C4FF0010808FAAD
:102900000CF8C2F81080401C0828CED35460BDE8F3
:10291000F0814FF6FF710180022181700421C170A6
:1029200070470246002093680B400BB1012000E085
:10293000002070470146886880B270470246002038
:10294000D3680B400BB1012000E000207047014626
:10295000C86880B2704701617047416170470AB131
:10296000016100E041617047C16070474FF48032FF
:102970000A4382618161826182698269704702468D
:102980000020434B18684FF68073184040EA02104D
:1029900008433F4B186070473E49C8617047F0B527
:1029A0000A46002300240021002500F00046B6F16D
:1029B000004F02D1364EF16901E0354E7168C0F327
:1029C000034583B200F44016B6F5401F08D121F04C
:1029D00070612F4E766826F070662D4F7E6012E093
:1029E00000F48016B6F5801F06D1032606FA05F41A
:1029F000A14341F0706106E0460D360103FA06F688
:102A0000B14341F0706122B1460D360103FA06F67A
:102A1000314300F00046B6F1004F02D11C4EF16187
:102A200001E01B4E7160F0BD30B500228B071C0F1A
:102A30000F2303FA04F2164B08338C1053F824309A
:102A40009343134C08348D1044F8253023468C10E2
:102A500053F824308C07240F00FA04F423430C4C61
:102A600008348D1044F8253030BD0A49DC31086047
:102A70007047000000080140000C014000100140B8
:102A80000014014000180140001C014000200140DA
:102A90000000014000002042DF48006840F00100D3
:102AA000DD49086008464068DC490840DA4948606A
:102AB00008460068DA490840D749086008460068B7
:102AC00020F4802008600846406820F4FE0048603A
:102AD0004FF41F0088607047CF49096821F48031A6
:102AE000CD4A11601146096821F480211160B0F5CA
:102AF000803F03D0B0F5802F0ED106E0C6490968AB
:102B000041F48031C44A116007E0C349096841F4C7
:102B1000A021C14A116000E000BF00BF704710B59E
:102B200001460022002300204A11012A02D1BA4C9A
:102B3000236806E0022A02D1B74C236A01E0B64CB2
:102B4000636A01F01F02012494401C400CB1012073
:102B500000E0002010BD38B50020009000240025C2
:102B600000BF3120FFF7DBFF05460098401C0090B6
:102B70000098B0F5A06F01D0002DF2D03120FFF702
:102B8000CEFF08B1012400E00024204638BD0146F4
:102B90000020A14A106820F0F80040EAC10010604F
:102BA0007047A04908607047024600209A4B586859
:102BB00020F47C1042EA01031843974B5860704799
:102BC00098490866704701460020934A506820F0F3
:102BD00003000843506070478F48406800F00C00C5
:102BE0007047014600208C4A506820F0F0000843EE
:102BF0005060704701460020874A506820F4E0602A
:102C000008435060704701460020834A506820F412
:102C1000605040EAC1005060704729B17E4A527A44
:102C200002437D4B5A7204E07B4A527A82437A4BCC
:102C30005A7270477B49D8310860704701460020BE
:102C4000754A506820F440400843506070470021A6
:102C5000714A20321170704A82F82010012802D087
:102C600004280AD104E001216B4A2032117005E0EA
:102C70000521694A2032117000E000BF00BF704793
:102C80006949086070476449096A0143624A1162F0
:102C90007047654944390860704730B5002100220B
:102CA000002400235C4D6D6805F00C0121B104295E
:102CB00005D0082923D105E05C4D056022E05C4D7C
:102CC00005601FE0544D6D6805F47012524D6D683B
:102CD00005F48034022505EB92421CB9554D55434D
:102CE00005600BE04C4D6D6805F400351DB1524D8B
:102CF0005543056002E04E4D5543056002E04B4DE3
:102D0000056000BF00BF444D6D6805F0F001090982
:102D10004A4D6B5C0568DD4045603F4D6D6805F4CC
:102D2000E061090A454D6B5C4568DD4085603A4DC0
:102D30006D6805F46051C90A404D6B5C4568DD4023
:102D4000C560354D6D6805F44041890B3C4D6B5CA9
:102D5000C568B5FBF3F5056130BD29B12E4A52694E
:102D600002432D4B5A6104E02B4A526982432A4B9D
:102D70005A61704729B1284A92690243264B9A61E9
:102D800004E0254A92698243234B9A61704729B136
:102D9000214AD2690243204BDA6104E01E4AD2691B
:102DA00082431D4BDA61704729B11B4AD268024346
:102DB000194BDA6004E0184AD2688243164BDA6095
:102DC000704729B1144A12690243134B1A6104E097
:102DD000114A12698243104B1A61704712494039F7
:102DE000086070470F49C86470470B49C871704745
:102DF0000948406A40F080700749486270470146C0
:102E00000020054A92680A400AB1012000E0002033
:102E10007047014988727047001002400000FFF8B7
:102E2000FFFFF6FE000042428004424200127A0098
:102E3000001BB70000093D00808D5B005C00002096
:102E40006C000020002044490860091D0860091D2D
:102E50000860091D086041483F4914310860704707
:102E600000213D498279002A3AD00A461268036857
:102E70009A430B461A600A1D126803689A430B1D99
:102E80001A60027911440A6803681A430A60324AD8
:102E90000832126803689A432F4B08331A601A1DD0
:102EA000126803689A432C4B0C331A604279102A3B
:102EB0000ED11A1F126803681A43274B08331A6091
:102EC0001A1D126803681A43234B0C331A600DE075
:102ED0002149427911440A6803681A430A6005E0EF
:102EE000027911440A6803689A430A607047002116
:102EF000016001710C2141710021817170471649F7
:102F0000103109680143144A1032116070470146BC
:102F10000020114A143212680A400AB1012000E070
:102F2000002070470C4914310860704701460020AA
:102F30000022094B1B6803EA0102074B14331B688C
:102F40000B4013B10AB1012000E000207047024994
:102F5000143108607047000000040140FFFF0F00BB
:102F600010B50446FB48844209D101218803FFF7CC
:102F70001BFF00214FF48040FFF716FF32E0F648B8
:102F8000844209D101214804FFF71BFF00214FF4BF
:102F90000030FFF716FF25E0F048844209D10121F7
:102FA0008804FFF70EFF00214FF48020FFF709FF90
:102FB00018E0EB48844209D10121C804FFF701FF62
:102FC00000214FF40020FFF7FCFE0BE0E5488442AF
:102FD00008D101210805FFF7F4FE00214FF480100D
:102FE000FFF7EFFE10BD2DE9F04786B005460E460F
:102FF0000024A24600BFA1460027B08900B100BF4F
:103000002F462C8A4CF6FF700440F08804432C8233
:10301000AC894EF6F3100440B088318908437189B9
:1030200008430443AC81AC8A4FF6FF400440B089AA
:103030000443AC8201A8FFF730FEC648874202D1A4
:10304000DDF810A001E0DDF80CA0A88900F4004034
:1030500040B10AEBCA0000EB0A1031684900B0FB2E
:10306000F1F807E00AEBCA0000EB0A1031688900AA
:10307000B0FBF1F86420B8FBF0F0040120096421F2
:1030800001FB1089A88900F4004040B1322000EB18
:10309000C900B0FBF1F000F00700044308E0322063
:1030A00000EB09106421B0FBF1F000F00F000443C5
:1030B0002C8106B0BDE8F0874FF416510160002165
:1030C0008180C18001810C21418100218181704773
:1030D00010B502460020108A4FF2FF0318400B88FB
:1030E0004C8823438C882343CC8823431843108285
:1030F00010BD0021018041808180C180704721B1D5
:10310000828942F40052828104E082894DF6FF7385
:103110001A4082817047F0B503460024002600253E
:10312000002040F66A17B94200D100BF1846C1F32B
:10313000421401F01F06012707FA06F5012C01D100
:103140000C3004E0022C01D1103000E014301AB130
:1031500007682F43076002E00768AF430760F0BDD0
:103160001AB1838A0B43838202E0838A8B43838272
:103170007047028A4FF6F0731A400282028A0A43AD
:103180000282704782894FF2FF731A4082818289DE
:103190000A438281704721B1828942F00202828112
:1031A00004E082894FF6FD731A4082817047028ADB
:1031B0004FF6DF731A400282028A0A430282704786
:1031C00021B1028A42F48042028204E0028A4BF674
:1031D000FF731A4002827047C1F308028280704771
:1031E00001468888C0F308007047818941F00101D9
:1031F00081817047028BD2B20283028B42EA0122A4
:1032000002837047028B02F47F420283028B0A43DF
:103210000283704721B1828A42F02002828204E058
:10322000828A4FF6DF731A408282704721B1828A08
:1032300042F01002828204E0828A4FF6EF731A4055
:103240008282704721B1828A42F00802828204E0C1
:10325000828A4FF6F7731A408282704721B18289C1
:1032600042F40042828103E08289C2F30E0282812D
:10327000704721B1828A42F40062828204E0828A2D
:103280004FF2FF731A4082827047828A4FF6FB73B7
:103290001A408282828A0A438282704721B1828ADE
:1032A00042F00202828204E0828A4FF6FD731A40E5
:1032B0008282704702460020B1F5007F00D100BF36
:1032C00013880B400BB1012000E00020704701F48F
:1032D0000072B2F5007F00D100BFCA430280704780
:1032E00070B50246002400230025002040F66A162F
:1032F000B14200D100BFC1F3421501F01F03012606
:1033000006FA03F3012D02D19689334006E0022D1F
:1033100002D1168A334001E0968A33400C1201260E
:1033200006FA04F41688344013B10CB1012000E011
:10333000002070BD10B50022002340F66A14A1429F
:1033400000D100BF0A1201249440A3B2DC430480E0
:1033500010BD00000038014000440040004800401B
:10336000004C00400050004010B50446FE48844226
:1033700008D10121C014FFF717FD0021E014FFF769
:1033800013FDC4E0B4F1804F08D101210846FFF7D6
:1033900018FD00210120FFF714FDB8E0F348844236
:1033A00008D101210220FFF70CFD00210220FFF7C8
:1033B00008FDACE0EE48844208D101210420FFF76B
:1033C00000FD00210420FFF7FCFCA0E0E948844256
:1033D00008D101210820FFF7F4FC00210820FFF7A5
:1033E000F0FC94E0E448844208D101211020FFF76A
:1033F000E8FC00211020FFF7E4FC88E0DF4884426D
:1034000008D101212020FFF7DCFC00212020FFF75C
:10341000D8FC7CE0DA48844208D101214014FFF74F
:10342000C3FC00216014FFF7BFFC70E0D548844264
:1034300009D10121C804FFF7B7FC00214FF4002097
:10344000FFF7B2FC63E0D048844209D101210805AE
:10345000FFF7AAFC00214FF48010FFF7A5FC56E00F
:10346000CA48844209D101214805FFF79DFC00218B
:103470004FF40010FFF798FC49E0C548844208D19A
:1034800001214020FFF79DFC00214020FFF799FC1F
:103490003DE0C048844208D101218020FFF791FC23
:1034A00000218020FFF78DFC31E0BB48844208D129
:1034B00001218015FFF785FC0021A015FFF781FC95
:1034C00025E0B648844209D101210804FFF76CFCCD
:1034D00000214FF48030FFF767FC18E0B0488442C9
:1034E00009D101214804FFF75FFC00214FF40030AF
:1034F000FFF75AFC0BE0AB48844208D10121880455
:10350000FFF752FC00214FF48020FFF74DFC10BD67
:1035100000220288944B98420ED0994B98420BD0CF
:10352000B0F1804F08D0914B984205D0904B984213
:1035300002D0904B984204D14FF68F731A404B88BB
:103540001A438D4B984207D08C4B984204D04FF6CB
:10355000FF431A40CB881A4302808B8883850B88EF
:103560000385814B98420BD0854B984208D08B4BFA
:10357000984205D08A4B984202D08A4B984201D19A
:103580000B7A038601238382704770B500240022E2
:103590000023058C4FF6FE7635400584028C838827
:1035A000048B4FF68F752C40B51E2C400D882C4394
:1035B000751E2A400D892A434D882A436A4DA84228
:1035C0000BD06F4DA84208D0744DA84205D0744D61
:1035D000A84202D0734DA84213D14FF6F7752A4086
:1035E0004D892A434FF6FB752A408D882A434FF6B2
:1035F000FF652B404FF6FF552B408D892B43CD891E
:103600002B4383800483CD888586028470BD70B58A
:10361000002400220023058C4FF6EF763540058408
:10362000028C8388048B48F6FF752C404FF6FF45CB
:103630002C400D884FF6FF7606EA05252C434FF601
:10364000DF752A400D8906EA05152A434D8806EAEA
:1036500005152A43444DA84202D0494DA8421DD128
:103660004FF67F752A404D894FF6FF7606EA05151D
:103670002A434FF6BF752A408D8806EA05152A436E
:103680004FF6FF352B404FF2FF752B408D8906EA30
:1036900085052B43CD8906EA85052B43838004836A
:1036A000CD880587028470BD70B5002400220023F8
:1036B000058C4FF6FF6635400584028C8388848B29
:1036C0004FF68F752C404FF6FC752C400D882C431F
:1036D0004FF6FF552A400D894FF6FF7606EA05257D
:1036E0002A434D8806EA05252A431F4DA84202D0E9
:1036F000234DA8421DD14FF2FF752A404D894FF648
:10370000FF7606EA05252A434FF6FF352A408D88C5
:1037100006EA05252A434EF6FF752B404DF6FF7548
:103720002B408D8906EA05152B43CD8906EA051540
:103730002B4383808483CD888587028470BD70B5D8
:10374000002200230024058C4EF6FF7635400584C8
:10375000038C8488828B48F6FF752A404FF6FF451C
:103760002A400D8820E00000002C014000040040A9
:1037700000080040000C0040001000400014004011
:1037800000340140004C0140005001400054014011
:1037900000180040001C0040002000400040014094
:1037A00000440140004801404FF6FF7606EA052537
:1037B0002A434DF6FF752B400D8906EA05352B434C
:1037C0004D8806EA05352B43FA4DA84202D0FA4D42
:1037D000A84208D14BF6FF752C408D894FF6FF7635
:1037E00006EA85152C4384808283CD88A0F840505A
:1037F000038470BD828B4FF2FF331A408283828B29
:103800004FF6FF7303EA01231A4382837047F0B532
:103810000C461546002200210026078C4EF6FF7C40
:1038200007EA0C070784828B018C4FF6FF7707EAC3
:10383000043640F6FF473A404FF6FF7707EA052780
:103840003A434FF6FF7707EA03373A43D94FB84276
:103850000ED0D94FB8420BD0B0F1804F08D0D74F1F
:10386000B84205D0D64FB84202D0D64FB84206D1A2
:103870004DF6FF77394046F48057394305E047F667
:10388000FF57394044F48057394382830184F0BDA7
:10389000828B4FF6F3731A408283828B0A438283B2
:1038A0007047F0B50C461546002200210026078C13
:1038B0004FF6FF6C07EA0C070784828B018C4FF6EA
:1038C000FF7707EA04264FF60C773A404FF6FF776A
:1038D00007EA03172F433A43B64FB8420ED0B64F0C
:1038E000B8420BD0B0F1804F08D0B44FB84205D0E9
:1038F000B34FB84202D0B34FB84206D14FF6FF578C
:10390000394046F48077394305E04FF2FF5739409C
:1039100044F48077394382830184F0BD028B4FF2F7
:10392000FF331A400283028B4FF6FF7303EA012331
:103930001A4302837047F0B50C4615460022002159
:103940000026078C4FF6EF7C07EA0C070784028BF2
:10395000018C4FF6FF7707EA041640F6FF473A401E
:103960004FF6FF7707EA03373A434FF6FF7707EA48
:1039700005273A438F4FB8420ED08F4FB8420BD035
:10398000B0F1804F08D08D4FB84205D08C4FB8426F
:1039900002D08C4FB84206D14FF6DF77394046F05F
:1039A0001007394305E04FF65F77394044F01007C0
:1039B000394302830184F0BD028B4FF6F3731A4042
:1039C0000283028B0A4302837047F0B50C4615460A
:1039D00000220021068C4FF6FE773E400684028BC3
:1039E000018C4FF60C7632407E1C06EA03162E43FD
:1039F0003243704EB0420ED06F4EB0420BD0B0F199
:103A0000804F08D06D4EB04205D06D4EB04202D00E
:103A10006C4EB04206D14FF6FD76314044F00106BF
:103A2000314305E04FF6F576314044F0010631436D
:103A300002830184F0BD70B505460C465D488542A1
:103A40000ED05D4885420BD0B5F1804F08D05B4861
:103A5000854205D05A48854202D05A48854200D155
:103A600000E000BF208850B92389A28861882846D9
:103A7000FFF7ABFFE1882846FFF79EFF25E020888F
:103A800004280AD12389A28861882846FFF753FFBA
:103A9000E1882846FFF742FF17E0208808280AD16E
:103AA0002389A28861882846FFF7FBFEE188284623
:103AB000FFF7EEFE09E02389A28861882846FFF718
:103AC000A6FEE1882846FFF795FE70BD2DE9F0417E
:103AD00005460C4600260127608808B9022600E04A
:103AE0000026A088012801D1022700E001272088B4
:103AF000A0B92389A28861882846FFF766FFE1887C
:103B00002846FFF759FF23893A4631462846FFF7F2
:103B100012FFE1882846FFF701FF13E02389A288FE
:103B200061882846FFF707FFE1882846FFF7F6FE81
:103B300023893A4631462846FFF747FFE188284661
:103B4000FFF73AFFBDE8F0810A884B881A438B885B
:103B50001A43CB881A430B891A434B891A438B8922
:103B60001A43A0F8442070474FF6FF71818000216E
:103B70000180C18041800172704700210180418035
:103B80008180C180018141818181C1817047002193
:103B900001804180012181800021C1800181704725
:103BA0000021018041808180C1800181418181812A
:103BB00070470000002C0140003401400004004028
:103BC00000080040000C004021B1028842F00102D0
:103BD000028004E002884FF6FE731A4002807047AC
:103BE00031B1B0F8442042F40042A0F8442005E08E
:103BF000B0F84420C2F30E02A0F8442070471AB176
:103C000083890B43838102E083898B4383817047DF
:103C10008182704741EA0203A0F8483070471AB128
:103C200083890B43838102E083898B4383817047BF
:103C300001894FF6F8721140018170470A46002150
:103C400001894FF68F73194011430181704730B5D8
:103C500004460D4629462046FFF7F0FF208940F034
:103C60000700208130BD2DE9F04104460D4616467F
:103C70001F46602D06D13B46012231462046FFF704
:103C80005AFE05E03B46012231462046FFF79DFEE5
:103C900029462046FFF7D2FF208940F00700208107
:103CA000BDE8F08130B50C4600210189C9B24FF65C
:103CB000FF7505EA0325154325432943018130BDDE
:103CC0002DE9F04105460E46174698460024434626
:103CD0003A4631462846FFF7E5FF2C894FF6F87043
:103CE000044044F007044FF68F70044044F0700421
:103CF0002C81BDE8F081F0B504460D4616461F46FE
:103D00003B46324629462046FFF7CCFF208940F447
:103D100080402081F0BD0185828270470A460021E3
:103D200001884FF68F731940114301807047F0B539
:103D30000C4615461E460021002200230189028BF5
:103D4000038C4FF6F877394021434FF6FC473A4051
:103D500040F201173A434FF6DD773B404FF6FF77CD
:103D600007EA06172F433B43018102830384F0BD1A
:103D70000A460021018B4FF68F73194011430183CE
:103D800070470A460021018B48F6FF7319404FF631
:103D9000FF7303EA02231943018370470A46002197
:103DA000818B4FF68F7319401143818370470A4608
:103DB0000021818B48F6FF7319404FF6FF7303EA29
:103DC000022319438183704721B1028842F08002A7
:103DD000028004E002884FF67F731A400280704729
:103DE00021B1828842F00402828004E082884FF68A
:103DF000FB731A408280704721B1828842F008022A
:103E0000828004E082884FF6F7731A408280704700
:103E100021B1828842F00102828004E082884FF65C
:103E2000FE731A40828070470A460021018B4FF6CC
:103E3000F77319401143018370470A460021018B33
:103E40004FF2FF7319404FF6FF7303EA0223194341
:103E5000018370470A460021818B4FF6F7731940A2
:103E60001143818370470A460021818B4FF2FF7313
:103E700019404FF6FF7303EA022319438183704709
:103E80000A460021018B4FF6FB7319401143018351
:103E900070470A460021018B4FF6FF3319404FF659
:103EA000FF7303EA02231943018370470A46002186
:103EB000818B4FF6FB7319401143818370470A468B
:103EC0000021818B4FF6FF3319404FF6FF7303EA51
:103ED00002231943818370470A460021018B4FF664
:103EE0007F7319401143018370470A460021018BFB
:103EF000C1F30E014FF6FF7303EA02231943018356
:103F000070470A460021818B4FF67F731940114399
:103F1000818370470A460021818BC1F30E014FF661
:103F2000FF7303EA02231943818370470A46002185
:103F3000018C4FF6FD7319401143018470470A4606
:103F40000021018C4FF6F77319401143018470472B
:103F50000A460021018C4FF6DF7319404FF6FF73BC
:103F600003EA02131943018470470A460021018CB9
:103F70004FF67F7319404FF6FF7303EA021319439C
:103F8000018470470A460021018C4FF6FF53194007
:103F90004FF6FF7303EA02231943018470470A4670
:103FA0000021018C4FF2FF7319404FF6FF7303EAB3
:103FB00002231943018470470A460021018C4DF603
:103FC000FF7319404FF6FF7303EA0233194301846C
:103FD000704730B5002301248C40A3B2048C9C436D
:103FE0000484048C02FA01F5ADB22C43048430BD84
:103FF00030B5002304248C40A3B2048C9C43048479
:10400000048C02FA01F5ADB22C43048430BD70B5C6
:104010000346002000241846183001258D40ACB21C
:104020001D8CA5431D8409B1082909D100EB61004D
:10403000056825F0700505600568154305600EE00C
:104040000D1FC5F34E052844056825F4E0450560BD
:1040500005684FF6FF7606EA02263543056070BD17
:1040600021B1028842F00202028004E002884FF689
:10407000FD731A400280704721B1028842F00402A9
:10408000028004E002884FF6FB731A4002807047FA
:1040900021B1828842F08002828004E082884FF65B
:1040A0007F731A408280704702884FF6F7731A4078
:1040B000028002880A430280704782884FF68F731D
:1040C0001A40828082880A438280704702894FF6B4
:1040D000F8731A40028102890A43028170470289FB
:1040E0004FF67F731A40028102890A4302817047AA
:1040F000818470478185704781867047018770474A
:1041000081877047A0F84010704702884FF6FF4340
:104110001A40028002880A43028070470146888E56
:1041200070470146088F70470146888F70470146E7
:10413000B1F8400070470146888C70470146088DF1
:10414000704702460020138A0B400BB1012000E0AB
:1041500000207047CA430282704730B502460020F3
:1041600000230024158A05EA0103958905EA010464
:1041700013B10CB1012000E0002030BDCA4302821F
:104180007047000010B50446F748844209D1012168
:104190004805FEF716FE00214FF40010FEF711FE51
:1041A00008E001218805FEF70CFE00214FF4800095
:1041B000FEF707FE10BD2DE9F04385B004460D461D
:1041C0000026B1460427DFF8A483A6884FF6C07006
:1041D00006406846FEF761FDDDF80880E448B8FB5C
:1041E000F0F01FFA80F946EA0906A68020884FF60B
:1041F000FE71084020800026DE49286888420CD8DD
:1042000028684000B8FBF0F087B2042F00DA0427DA
:104210003E4309F10100208427E0E8884BF6FF7156
:10422000884206D1286800EB4000B8FBF0F087B266
:1042300009E0286800EBC00101EB0010B8FBF0F0CA
:1042400087B247F48047C7F30B0008B947F001076E
:1042500047F4004006434FF4967009FB00F04FF41A
:104260007A7190FBF1F0401C2084A683208840F0F6
:104270000100208026884FF6F5300640A88869891D
:10428000084306432680A88929890843208105B070
:10429000BDE8F08341F288310160002181804BF656
:1042A000FF71C1800021018141814FF480418181F2
:1042B000704721B1028842F00102028004E00288C6
:1042C0004FF6FE731A400280704721B1828842F493
:1042D0000062828004E082884FF2FF731A4082807D
:1042E000704721B1828842F48052828004E0828843
:1042F0004EF6FF731A408280704721B1028842F463
:104300008072028004E002884FF6FF631A40028048
:10431000704721B1028842F40072028004E00288F2
:104320004FF6FF531A400280704721B1028842F4D1
:104330008062028004E002884FF6FF331A40028058
:1043400070470A46002181894FF60173194002F037
:10435000FE0319438181704721B1828942F0010235
:10436000828104E082894FF6FE731A408281704791
:1043700021B1028842F04002028004E002884FF638
:10438000BF731A40028070471AB183880B43838041
:1043900002E083888B438380704701827047014627
:1043A000088AC0B2704712B141F0010102E04FF635
:1043B000FE7319400182704708B502460020009044
:1043C00000920098084400900098008808BD21B130
:1043D000028842F40042028003E00288C2F30E0227
:1043E00002807047B1F5006F04D1028842F4006288
:1043F000028004E002884FF2FF731A400280704787
:10440000B1F5005F04D1028842F40052028004E05A
:1044100002884DF6FF731A400280704721B102886E
:1044200042F48052028004E002884EF6FF731A4084
:1044300002807047B1F5006F04D1028842F4006237
:10444000028004E002884FF2FF731A400280704736
:1044500021B1028842F02002028004E002884FF677
:10446000DF731A40028070470146088B00127047C4
:1044700021B1028842F01002028004E002884FF667
:10448000EF731A400280704721B9028842F080021F
:10449000028004E002884FF67F731A400280704762
:1044A000B1F5804F05D0828B4BF6FF731A408283A3
:1044B00003E0828B42F480428283704770B50246EB
:1044C0000024002500230020958A138B1B0445EA55
:1044D000030626F07F4404EA01068E4201D1012042
:1044E00000E0002070BD10B501460020002300222E
:1044F0008B8A0A8B120443EA020424F07F4010BD29
:104500000CB50246002000230193009300920B0F8C
:10451000019321F07F41019B1BB1009B1433009359
:1045200003E0090C009B18330093009B1B680B40B1
:104530000BB1012000E000200CBD002221F07F42E1
:10454000D3438382704730B502460020002394880D
:1045500001F0E06504EA154321F07F41948A0C40A4
:1045600054B14BB1012008E00054004000127A0021
:1045700040420F00A0860100002030BD002221F043
:104580007F42D343838270470E49086070470D49CC
:10459000486070470B49886070474AF6AA2009496D
:1045A000086070474CF6CC400649086070470146E9
:1045B0000020044AD2680A400AB1012000E000202D
:1045C000704700000030004001460020FE4A10689D
:1045D00000F03800084310607047FB49096821F07B
:1045E0000801F94A116011460968014311607047DA
:1045F000F549096821F01001F34A11601146096874
:10460000014311607047F148EF494860F048486045
:104610007047EE48EC494860ED4848607047EA480A
:10462000006940F08000E84908617047E648006989
:1046300040F08000E449086170470420E249C968FD
:1046400001F0010109B101200EE0DF49C96801F064
:10465000040109B1022007E0DB49C96801F010013B
:1046600009B1032000E00420704700B5024604238E
:10467000FFF7E3FF034603E0FFF7DFFF0346521EA9
:10468000012B01D1002AF7D102B90523184600BD3C
:1046900030B5044604254FF43020FFF7E6FF054609
:1046A000042D17D1C848006940F00200C6490861CE
:1046B00008464461006940F0400008614FF4302032
:1046C000FFF7D3FF0546C048006941F6FD71084079
:1046D000BD490861284630BD10B504244FF4302090
:1046E000FFF7C3FF0446042C16D1B748006940F019
:1046F0000400B54908610846006940F040000861BF
:104700004FF43020FFF7B1FF0446AF48006941F68F
:10471000FB710840AC490861204610BD00B5024657
:104720000423FFF78AFF034603E0FFF786FF0346F3
:10473000521E012B01D1002AF7D102B905231846D8
:1047400000BD10B504244FF43020FFF7E7FF044606
:10475000042C16D19C48006940F004009A49086175
:104760000846006940F0400008614FF43020FFF730
:10477000D5FF04469448006941F6FB710840924910
:104780000861204610BD00208F49C96901F002016F
:1047900009B1012000E00020704730B5A5250424B0
:1047A000FFF7F1FF00B100254FF43020FFF75DFF68
:1047B0000446042C3AD1854883498860844888603F
:1047C0000846006940F0200008610846006940F092
:1047D000400008614FF43020FFF747FF0446042CE7
:1047E0001BD17948006941F6DF71084076490861BC
:1047F0000846006940F01000086176480580E00234
:10480000FFF733FF0446052C10D06F48006941F6CE
:10481000EF7108406C49086108E0052C06D06A4831
:10482000006941F6EF71084067490861204630BDD4
:1048300078B506460C46042500200090E802FFF7F4
:1048400014FF0546042D24D15F48006940F00100A3
:104850005D4908613480E802FFF707FF0546042D33
:1048600010D1B01C0090200C00990880E802FFF7DE
:10487000FCFE05465448006941F6FE710840524965
:10488000086106E05048006941F6FE7108404E4953
:104890000861284678BD70B504460D460426F0022E
:1048A000FFF7E3FE0646042E11D14748006940F0A9
:1048B0000100454908612580F002FFF7D6FE064653
:1048C0004148006941F6FE7108403F4908613046A1
:1048D00070BD70B505460E460424E002FFF7C5FE24
:1048E0000446042C17D13948374988603848886015
:1048F0000846006940F0100008612E80E002FFF7D2
:10490000B4FE0446052C06D02F48006941F6EF712D
:1049100008402D490861204670BD2DE9F04304464A
:104920004FF6FF763746B046B1460425E443E6B27B
:10493000C4F30727C4F307484FEA1469E802FFF7F6
:1049400094FE0546042D49D120481F49886020481F
:1049500088600846006940F010000861FF2E06D00C
:104960001C4808300680E802FFF77FFE0546042D4C
:1049700008D1FF2F06D017480A300780E802FFF75A
:1049800074FE0546042D0AD1B8F1FF0F07D0114877
:104990000C30A0F80080E802FFF767FE0546042D02
:1049A0000AD1B9F1FF0F07D00A480E30A0F80090E5
:1049B000E802FFF75AFE0546052D0FD002480069B0
:1049C00041F6EF71084007E00020024023016745EF
:1049D000AB89EFCD00F8FF1F664908612846BDE8A6
:1049E000F08330B5054604244FF43020FFF73DFE38
:1049F0000446042C41D160485E4988605F48886065
:104A00000846006940F0200008610846006940F04F
:104A1000400008614FF43020FFF727FE0446042CC5
:104A200022D15448006941F6DF71084051490861BC
:104A30000846006940F0100008611DB1002050498F
:104A4000088002E0A5204E4908804FF43020FFF78F
:104A50000CFE0446052C10D04648006941F6EF7163
:104A600008404449086108E0052C06D04148006927
:104A700041F6DF7108403F490861204630BDF0B57E
:104A800005460E46174604243B483A4988603B4891
:104A90008860E002FFF7E9FD0446042C19D135488F
:104AA000006940F010003349086147F0F8003043D6
:104AB00028433349891C0880E002FFF7D6FD0446ED
:104AC000052C06D02B48006941F6EF7108402949B2
:104AD00008612046F0BD2748C06980087047254816
:104AE000006A704700202349096801F0200109B1DC
:104AF000012000E00020704729B11E4A12690243DC
:104B00001C4B1A6104E01B4A12698243194B1A615B
:104B1000704701460020012908D1164AD26902F0E7
:104B200001020AB1012008E0002006E0114AD26823
:104B30000A400AB1012000E0002070470D49C8601A
:104B4000704704200B49C96801F0010109B1012037
:104B50000EE00849C96801F0040109B1022007E02C
:104B60000449C96801F0100109B1032000E00420E4
:104B7000704700000020024023016745AB89EFCD5C
:104B800000F8FF1F08B501211420FEF7F3F81020EC
:104B90008DF803008001ADF8000003208DF80200BD
:104BA00069462D48FDF72AFE4FF48050ADF800000D
:104BB00069462A48FDF722FE08BD10B50446224684
:104BC00080212548FDF7CBFE10BD10B5802122487D
:104BD000FDF7A7FE08B1012010BD0020FCE710B5CD
:104BE000044622464FF480711B48FDF7B8FE10BD05
:104BF00010B54FF480711848FDF793FE08B10120FD
:104C000010BD0020FCE710B5044622464FF4806139
:104C10001148FDF7A4FE10BD10B54FF480610E4899
:104C2000FDF77FFE08B1012010BD0020FCE710B5A4
:104C3000044622464FF480510848FDF790FE10BD0F
:104C400010B54FF480510548FDF76BFE08B1012007
:104C500010BD0020FCE700000010014000080140EA
:104C60004FF0E020006920F004004FF0E0210861DF
:104C70000920364908700846007800EB4001C1EB76
:104C8000C0104FF6FF7101EAC0003149088070473B
:104C9000002120F07F402D4A127842434FF0E0235C
:104CA0005A6100229A6101221A6100BF4FF0E0228E
:104CB000116901F001021AB101F48032002AF5D025
:104CC00000224FF0E0231A619A617047002100B979
:104CD000704720F07F401E4A128842434FF0E02385
:104CE0005A6100229A6101221A6100BF4FF0E0224E
:104CF000116901F001021AB101F48032002AF5D0E5
:104D000000224FF0E0231A619A6100BFE0E770B51E
:104D10000446002600254FF4FA7094FBF0F0C6B26A
:104D20004FF4FA7094FBF0F100FB114085B205E0FE
:104D30004FF4FA70FFF7CAFF701EC6B2002EF7D10B
:104D400015B12846FFF7C2FF70BD000070000020BB
:104D50007200002008B501213020FEF70BF8012178
:104D60000846FEF707F848208DF803004FF460501E
:104D7000ADF8000003208DF802006946B248FDF747
:104D80003DFD0420ADF800006946B048FDF736FD52
:104D900008BD70B504460D46AB48844207D1A9B2A0
:104DA000FDF7BFFD08B9012070BD0020FCE7A74852
:104DB000844207D1A9B2FDF7B4FD08B90120F3E799
:104DC0000020F1E70020EFE710B54FF400619E48A6
:104DD000FFF7DFFF012815D19D48006820F0010092
:104DE00080B99C48007808B90A2010BD984800682E
:104DF00040F0010096490860002096490870084676
:104E00000078F2E74FF400618F48FFF7C2FF70B9F6
:104E10009048007858B98E48006820F001008C490D
:104E2000086001208B49087008460078DDE74FF4E0
:104E300000518548FFF7ADFF012816D1844800686E
:104E400020F0020088B983480078022801D10B20A5
:104E5000CBE77F48006840F002007D4908600220EF
:104E60007C49087008460078BFE74FF40051764847
:104E7000FFF78FFF78B97748007802280BD1744884
:104E8000006820F002007249086003207149087030
:104E900008460078A9E74FF480516B48FFF779FF87
:104EA000012816D16A48006820F0040088B96948D2
:104EB0000078042801D10C2097E76548006840F08D
:104EC00004006349086004206249087008460078BD
:104ED0008BE74FF480515C48FFF75BFF78B95D4882
:104EE000007804280BD15A48006820F00400584983
:104EF00008600520574908700846007875E70421C6
:104F00005248FFF746FF012816D15148006820F0AB
:104F1000080088B94F480078062801D10D2064E7C1
:104F20004B48006840F0080049490860062049499C
:104F300008700846007858E704214448FFF729FF25
:104F400078B94448007806280BD14148006820F021
:104F500008003F49086007203E490870084600786D
:104F600043E700203A490860FF203A4908700846A4
:104F700000783AE710B54FF40060FDF7D7FF01283D
:104F800012D10F20FFF7A2FE4FF400612E48FDF76B
:104F9000C8FC48B9FFF719FE18B10020FFF70DFE55
:104FA00002E00120FFF709FE4FF48050FDF7BEFF3D
:104FB000012812D10F20FFF789FE4FF480512248BB
:104FC000FDF7AFFC48B9FFF713FE18B10020FFF75B
:104FD00006FE02E00120FFF702FE4FF40050FDF74D
:104FE000A5FF012807D10F20FFF770FE4FF40051F5
:104FF0001548FDF796FC4FF40060FDF7A8FF4FF44D
:105000008050FDF7A4FF4FF40050FDF7A0FF10BD46
:1050100010B50420FDF78AFF012811D10F20FFF7FA
:1050200055FE04210948FDF77CFC48B9FFF7F4FD63
:1050300018B10020FFF7E7FD02E00120FFF7E3FDD4
:105040000420FDF784FF10BD001001400014014052
:10505000780000207400002010B59F48006840F4DC
:1050600040709D4908600846006820F44060086070
:1050700040219948FDF771FC4FF400619748FDF716
:105080006AFC08219448FDF766FC00BF04219248A1
:10509000FDF754FC0128F9D008218F48FDF75DFC8D
:1050A0008D48006820F440708B490860084600680D
:1050B00020F4406008600846006840F40060086022
:1050C00010BD70B5054600248548FDF740FC044638
:1050D00024F4787405F01F0044EA40142146804807
:1050E000FDF742FC7C48FDF732FC044624F007043F
:1050F00044EA551421467848FDF736FC0A20FFF7AC
:10510000C7FD70BD10B5044640217348FDF725FC6E
:105110004FF400617148FDF720FC2046FFF7D1FFF6
:1051200008216D48FDF717FC1420FFF7B1FD082199
:105130006948FDF712FC0520FFF7AAFD10BD10B568
:1051400004460A20FFF7C2FD40216348FDF705FC35
:105150004FF400616148FDF700FC2046FFF7B1FF06
:1051600008215D48FDF7F7FB1420FFF791FD0821AA
:105170005948FDF7F2FB0520FFF78AFD10BD10B579
:10518000044640215448FDF7E6FB4FF400615348C4
:10519000FDF7E3FB2046FFF794FF08214E48FDF79B
:1051A000DAFB1420FFF774FD08214B48FDF7D5FB0F
:1051B0000520FFF76DFD10BD08B501211C20FDF78E
:1051C000D9FD10208DF803004FF47870ADF8000081
:1051D00003208DF8020069464148FDF70FFB4F2080
:1051E000ADF8000069463C48FDF708FB4FF400604D
:1051F000ADF8000069463948FDF700FB0F20FFF7C6
:1052000065FD3820FFF77EFF0520FFF75FFD3820A2
:10521000FFF778FF0520FFF759FD3820FFF772FFF1
:105220003820FFF78CFF0820FFF789FF0120FFF7E8
:1052300086FF0620FFF783FF0C20FFF780FF082181
:105240002548FDF78AFB08BD0FB470B58AB0044647
:10525000002601AD10A8009001A8009A0F9904F053
:105260002DFF002000902046FFF769FF13E015F89E
:10527000010BFFF784FF701CC0B206460F280ADD41
:10528000802C08D1002604F14001C8B2FFF757FF77
:105290000120FFF71BFD28780028E8D10AB070BC78
:1052A0005DF814FB10B50446802C04D0C02C07D048
:1052B000FF2C0ED109E00BA18020FFF7C5FF08E00D
:1052C00008A1C020FFF7C0FF03E00120FFF737FF70
:1052D00000BF00BF10BD00000010014000080140E9
:1052E000000C0140202020202020202020202020F1
:1052F00020202020000000002DE9F04104460D464A
:10530000C826204605F0B2F887B23A462146F94849
:1053100000F08BFB19E0F84800F0C2FBF64840783B
:1053200001280DD10020F44948702946F2480A307E
:1053300005F066F820B100F004FB0020BDE8F08124
:105340000A20FFF7C3FC01F08BFB3000A6F1010639
:10535000E1D10120F2E710B500BFE648008800F077
:1053600040000028F9D02B20E249091D08800F20B9
:10537000FFF7ACFC00BFDF48008800F040000028C9
:10538000F9D02B20DB49091D08800F20FFF79EFC78
:1053900000BFD848008800F040000028F9D02B203A
:1053A000D449091D08804FF4FA70FFF78FFC01F013
:1053B00057FBD2A1D2A0FFF79FFF10BD00B593B05D
:1053C000FFF7C9FF0A20FFF7A2FCCCA1D0A0FFF78E
:1053D00093FFCAA1D0A0FFF78FFFC8A1D2A0FFF70B
:1053E0008BFF4FF4FA70FFF792FC01F039FB482174
:1053F00001A805F08CF9CFA101A805F013F8D04958
:1054000001A805F09DF8CFA101A805F099F8CC49B5
:105410001E3101A805F094F8CBA101A805F090F881
:10542000B6A101A8FFF768FF482101A805F06FF9B0
:10543000C8A101A804F0F6FFC149223901A805F06E
:105440007FF8C9A101A805F07BF8BD49323101A858
:1054500005F076F8ADA101A805F072F811E0012081
:10546000FFF7E5FB4FF4FA70FFF751FC01F0F8FA93
:105470000020FFF7DCFB4FF4FA70FFF748FC01F067
:10548000EFFA9EA101A8FFF737FF0028E7D19BA103
:10549000B6A0FFF731FFB9A1B9A0FFF72DFFA848CB
:1054A000763890F8B20020F00100A549763981F8ED
:1054B000B20013B000BD10B592B00024FFF74BFF4F
:1054C0000A20FFF724FC8DA191A0FFF715FF8BA107
:1054D000AFA0FFF711FF89A193A0FFF70DFF4FF4D5
:1054E000FA70FFF714FC01F0BBFA84A1ACA0FFF73F
:1054F00003FF4821684605F00AF9ACA1684604F0AC
:1055000091FF8F495439684605F01AF88DA1684615
:1055100005F016F88A494039684605F011F8A6A149
:10552000684605F00DF819E00120FFF780FB4FF405
:10553000FA70FFF7ECFB01F093FA0020FFF777FB1E
:105540004FF4FA70FFF7E3FB01F08AFA601CC0B277
:105550000446052802DB012012B010BD67A1684691
:10556000FFF7CAFE0028DFD118E00120FFF74BFB50
:105570004FF4FA70FFF7CBFB01F072FA0020FFF74F
:1055800042FB4FF4FA70FFF7C2FB01F069FA601CAE
:10559000C0B20446052801DB0220DDE757A188A040
:1055A000FFF7AAFE0028E0D154A170A0FFF7A4FEE7
:1055B00072A173A0FFF7A0FE6148763890F8B200A0
:1055C00020F00100401C5E49763981F8B2000020CD
:1055D000C2E710B5FF20FFF765FE83A18020FFF72B
:1055E00033FEFFF768FF5649763991F8B21060F341
:1055F00046115348763880F8B21090F8B200C0F3E4
:105600004110012814D1FF20FFF74CFE7BA1802020
:10561000FFF71AFE7DA1C020FFF716FEFFF7CEFEB2
:10562000FF20FFF73FFE7DA18020FFF70DFE20E069
:105630004348763890F8B200C0F34110022814D1E4
:10564000FF20FFF72FFE7AA18020FFF7FDFD6FA15D
:10565000C020FFF7F9FDFFF7B1FEFF20FFF722FEA4
:105660006EA18020FFF7F0FD03E075A18020FFF719
:10567000EBFD40F2DC50FFF74AFB01F0F1F910BD01
:1056800010B501240E2273A11A4800F0CEF901E1F1
:10569000194800F005FA18484078012828D1002060
:1056A000154948706FA114480A3004F0A9FE08B1EA
:1056B000012416E06EA110480A3004F0A1FE08B1E2
:1056C00000240EE06DA10C480A3004F099FE08B1E8
:1056D000012406E06CA108480A3004F091FE00B1F4
:1056E00001244FF4967104480A3004F0EEFFD2E032
:1056F000D0E0000000440040480D00204F4B000067
:1057000041542B4349504D4F44453D300D0A000054
:1057100041540D0A0000000041542B43574D4F44A3
:10572000453D320D0A00000041542B5253540D0ADE
:105730000000000041542B43575341503D220000CC
:10574000F2000020222C2200222C312C340D0A22BF
:105750000000000041542B43495053544152543DE2
:1057600022544350222C2200222C000041542B436F
:1057700049504D4F44453D310D0A00003E000000A8
:1057800041542B43495053454E440D0A000000003C
:1057900041542B43574D4F44453D310D0A00000005
:1057A00041542B43494653520D0A000041542B43A8
:1057B000574A41503D220000220D0A2200000000FD
:1057C00041542B43495053544152543D2254435069
:1057D000222C223138332E3233302E34302E3339CE
:1057E000222C3837360D0A00576169742045535012
:1057F000383236362053544100000000576966693C
:1058000020696E666F204572726F72005573652055
:10581000415050202D3E2038323636004553503806
:10582000323636204150204F4B202020000000000F
:10583000505420696E666F204572726F72000000CE
:105840004553503832363620535441204F4B202098
:105850000000000041542B434950535441545553C8
:105860000D0A00005354415455533A3200000000D1
:105870005354415455533A3300000000535441549B
:1058800055533A34000000005354415455533A35AF
:1058900000000000FCE600BF204610BD10B586B039
:1058A000044601210420FDF765FA01218803FDF774
:1058B00061FA18208DF817004FF40070ADF814004D
:1058C00003208DF8160005A9B648FCF797FF0420C1
:1058D0008DF817000002ADF8140003208DF81600B3
:1058E00005A9B048FCF78AFF01940020ADF810002C
:1058F0000C20ADF80E000020ADF80C00ADF80A0049
:10590000ADF8080001A9A848FDF76DFB0121A648E4
:10591000FDF7F5FB012240F22551A348FDF7FBFB03
:1059200025208DF8000001208DF8030000208DF85F
:10593000010002208DF802006846FCF796FE06B0D2
:1059400010BD10B59948007820F001009749087003
:105950000846007820F00200087000204880C880C7
:1059600008814FF4967191480A3004F0AEFE64212C
:105970008F4804F0AAFE1E218D48643004F0A5FE75
:1059800010BD10B586B0044601210420FDF7F2F9E0
:1059900001214804FDF7FBF918208DF817000420B9
:1059A000ADF8140003208DF8160005A97D48FCF71A
:1059B00025FF04208DF817000820ADF814000320FF
:1059C0008DF8160005A97748FCF718FF0194002010
:1059D000ADF810000C20ADF80E000020ADF80C0062
:1059E000ADF80A00ADF8080001A97248FDF7FBFA0E
:1059F00001217048FDF783FB012240F225516D48DB
:105A0000FDF789FB26208DF8000001208DF80300AA
:105A100000208DF8010002208DF802006846FCF796
:105A200024FEFFF78EFF06B010BD2DE9F0410746BA
:105A30000C46154600260DE014F8011B3846FDF70C
:105A4000CBFB00BF40213846FDF734FC0028F9D0DD
:105A5000701C86B2AE42EFDBBDE8F0810FB430B50A
:105A6000FFB0054602AC84A8019002A8019A839970
:105A700004F024FB002001900BE014F8011B2846E1
:105A8000FDF7AAFB00BF40212846FDF713FC0028C4
:105A9000F9D020780028F0D17FB030BC5DF814FB3D
:105AA00010B5044614E0608800B912E000F044FD2F
:105AB0006088A188884206D1012060700020608043
:105AC00000F034FD05E06088A0800120FFF7FEF8BB
:105AD000E9E700BF10BD10B5FAF754FE40F22551BA
