:020000040800F2
:10000000F004002001010008B30F0008590E000899
:10001000B10F00086D010008111300080000000076
:10002000000000000000000000000000D70F0008E2
:100030006F01000800000000D50F0008190100083A
:100040001B0100081B0100081B0100081B01000820
:100050001B0100081B0100081B0100081B01000810
:100060001B0100081B0100081B0100081B01000800
:100070001B0100081B0100081B0100081B010008F0
:100080001B0100081B0100081B0100081B010008E0
:100090001B0100081B0100081B0100081B010008D0
:1000A0001B0100081B0100081B0100081B010008C0
:1000B0001B0100081B0100081B0100081B010008B0
:1000C0001B0100081B0100081B0100081B010008A0
:1000D0001B0100081B010008051300081B01000894
:1000E0001B0100081B0100081B010008DFF80CD0F1
:1000F00000F02AF80048004731130008F0040020FF
:100100000648804706480047FEE7FEE7FEE7FEE7B1
:10011000FEE7FEE7FEE7FEE7FEE7FEE72510000844
:10012000ED000008D2B201E000F8012B491EFBD21D
:1001300070470022F6E710B513460A4604461946F2
:10014000FFF7F0FF204610BD064C074D06E0E068C3
:1001500040F0010394E8070098471034AC42F6D30E
:10016000FFF7C8FF7813000898130008FEE77047F0
:10017000704710B5040002D0607910B106E001208C
:1001800010BD00202071204600F004F801206071AD
:10019000002010BD08B500680649884208D106480D
:1001A000416941F040014161406900F04000009028
:1001B00008BD0000003002400010024010B590F869
:1001C00021100024022903D00421816301243DE091
:1001D00001680A6822F00E020A6001680A6822F0CB
:1001E00001020A601A4A0168914201D1012121E00D
:1001F000174A1432914201D110211BE0144A2832CF
:10020000914201D1891515E0114A3C32914201D148
:1002100089140FE00E4A5032914202D14FF48031DE
:1002200008E00B4A6432914202D14FF4801101E0A0
:100230004FF08071064A083A5160012180F8211080
:10024000002180F82010416B01B18847204610BD85
:10025000080002402DE9F84FDFF890A100220AF1D2
:10026000040B144601274FF00F090BF1040E00BFD9
:100270000B6807FA04F52B40AB4274D1DFF870C16C
:100280004E68A6EB0C0866452BD00DDC032E34D04F
:1002900005DC36B3012E19D0022E2FD11BE0112E12
:1002A00016D0122E2AD119E0B8F5881F19D006DC15
:1002B000B8F5803F15D0B8F5801F1FD111E0B8F513
:1002C000001F0ED0B8F5041F18D10AE0CA6815E067
:1002D000CA68121D12E0CA6808320FE0CA680C3200
:1002E0000CE08A682AB1012A4FF0080203D0456168
:1002F00004E0042202E0056100E00022FF2B01D8A7
:10030000064601E000F104064FEA840501D9A5F193
:100310002005D6F800C009FA05F82CEA080C02FA04
:1003200005F54CEA050CC6F800C04D68ED0057D540
:10033000304DAE6946F00106AE61AD6924F00306AA
:1003400005F0010500952C4D06EB050CDCF8085076
:10035000A6074FEA167809FA08F6B543274EB042C9
:1003600002D1002610E03BE0254EB04201D101262B
:100370000AE0244EB04201D1022605E0224EB042EE
:1003800001D1032600E0042606FA08F62E43CCF835
:1003900008604D68DAF80060ED03554601D51E434C
:1003A00000E09E432E604D68DBF80060AD035D46C3
:1003B00001D51E4300E09E432E604D68DEF80060CC
:1003C000ED02754601D51E4300E09E432E604D6848
:1003D000AD020E4D2E6801D51E4300E09E432E60F7
:1003E000641C102CFFF444AFBDE8F88F00040140FA
:1003F0000000111000100240000001400008014000
:10040000000C014000100140001401400C040140A8
:100410000AB1016170470904FBE7000001488068E8
:10042000704700000800002070B504001BD094F84D
:100430003D00002520B984F83C50204600F094F897
:10044000242084F83D002068016821F0010101604A
:1004500000F0FEF9404A6168914201D83F4900E04E
:100460003F49884201D2012070BD3E492368B0FB5C
:10047000F1F159606368934206D94FF4967359437A
:100480004FF47A73B1FBF3F12368491C1962616878
:10049000914210D84900401EB0FBF1F2521CC2F349
:1004A0000B02042A01D2042022E0B0FBF1F0401C30
:1004B000C0F30B001CE0A368CBB301EBC10202EB5D
:1004C0000116421EB2FBF6F2521C42F480421205A3
:1004D00036D06BB301EBC10202EB0111401EB0FB41
:1004E000F1F0401CC0F30B0040F4804040F40040A9
:1004F0002168C861D4E90701084321680860D4E98C
:100500000310084321688860D4E905010843216885
:10051000C8602068016841F0010101602564202065
:1005200084F83D00256384F83E50002070BD00E053
:1005300008E001EB4106421EB2FBF6F2521CC6E790
:100540000120D5E701EB4101401EB0FBF1F0401C5A
:10055000C0F30B00CAE70000A086010080841E00E3
:1005600000093D0040420F0010B586B00021009107
:100570000191029103910068104988421BD1104CEF
:10058000A06940F00800A061A069694600F0080079
:1005900004904FF4406000901220019003200390DB
:1005A0000848FFF757FEE06940F48000E061E06929
:1005B00000F48000049006B010BD00000058004018
:1005C00000100240000C0140074810B5016841F0DE
:1005D00010010160032000F073F8002000F006F81D
:1005E00000F024F8002010BD0020024070B50D4D31
:1005F00004464FF47A712878B1FBF0F00A49096893
:10060000B1FBF0F000F000FB48B9102C07D200223B
:100610002146501E00F034F800206C6070BD0120AF
:1006200070BD000008000020140000200C4808B530
:10063000816941F001018161816901F0010100914D
:10064000C16941F08051C161C06900F080500090E3
:100650000448416821F0E06141F00071416008BD4B
:10066000001002400000014000F01F0201219140F3
:100670004009800000F1E020C0F800117047000040
:10068000F0B40E4B1B680C46C3F30223C3F10705FD
:10069000042D00D90425191D072901D2002300E0EB
:1006A000DB1E012606FA05F1491E214099409E40B5
:1006B000761E16403143F0BC00F07CBC0CED00E02F
:1006C000064900F0070208684FF6FF03184040EAA9
:1006D0000220034A10430860704700000CED00E060
:1006E0000000FA052DE9F047DFF8548105460E4673
:1006F000D8F8000000F00700B0420CD2D8F8001083
:1007000021F007013143C8F80010D8F8000000F0CC
:100710000700B0426FD128684A4C810712D54007C4
:1007200003D5606840F4E06060602878000703D576
:10073000606840F4605060606068A96820F0F00074
:10074000084360602878C00744D06868012816D044
:100750002168022816D0890700294CDA616821F047
:10076000030101436160FFF759FE6968074641F2E2
:10077000883001290ED00229814618D026E0216850
:100780008903E9E78901E7E7FFF748FEC11B49450F
:1007900001D918E081466068C0F381000128F3D1D7
:1007A00018E000BFFFF73AFEC11B49450BD860684F
:1007B000C0F381000228F5D10CE000BFFFF72EFE48
:1007C000C11B494502D90320BDE8F087606810F0DD
:1007D0000C0FF3D1D8F80010404601F00701B142E8
:1007E0000BD9016821F0070131430160006800F076
:1007F0000700B04201D00120E6E72878400705D580
:100800006068E96820F4E0600843606028780007C9
:1008100006D56068296920F4605040EAC100606034
:1008200000F036F86168084AC1F30311515CC84012
:10083000064908600020FFF7D9FE0020C4E7000049
:1008400000200240001002405E1300081400002047
:100850000448054900684968044AC1F30221515C13
:10086000C840704714000020001002406E130008BA
:100870000448054900684968044AC1F3C221515C33
:10088000C840704714000020001002406E1300089A
:1008900013A185B00FC98DE80F0015A0154A006897
:1008A0000490516801F00C00042804D0082804D0FA
:1008B000114805B070471148FBE7C1F38343C903F2
:1008C0001DF8030009D5516804AAC1F34041515CE9
:1008D0000A4A5043B0FBF1F0EBE709494843E8E727
:1008E00002030405060708090A0B0C0D0E0F101071
:1008F000010200000010024000127A00001BB70045
:1009000000093D002DE9F84F04460078B94DC007B5
:1009100048D06868C0F38100012807D06868C0F338
:100920008100022809D16868C00306D528688003C1
:1009300038D5606800286FD034E06068B0F5803F3B
:100940000BD010B1B0F5A02F11D0286820F4803062
:100950002860286820F4802002E0286840F4803075
:100960002860606888B1FFF759FD064609E02868ED
:1009700040F480202860F0E7FFF750FD801B6428DA
:1009800075D828688003F7D50CE0FFF747FD0646C9
:1009900005E000BFFFF742FD801B6428F0D82868FF
:1009A0008003F7D42078944E80074FF001094FF070
:1009B00000083BD5686810F00C0F07D06868C0F3DA
:1009C0008100022809D16868C00306D4286880071E
:1009D00014D5206901281FD110E02069B0B1C6F8F4
:1009E0000090FFF71BFD074605E000BFFFF716FD6F
:1009F000C01B0228C4D828688007F7D52868616919
:100A000020F0F80040EAC10028600FE0C6F800803E
:100A1000FFF704FD074606E0E9E000BFFFF7FEFC34
:100A2000C01B022823D828688007F7D42078000745
:100A30002CD57248A169D9B1C0F80090FFF7EEFC3F
:100A4000074604E0FFF7EAFCC01B02280FD8686ADB
:100A50008007F7D56A484FF4FA510068B0FBF1F00F
:100A6000009000BF0098411E0091FAD20EE080E095
:100A7000C0F80080FFF7D2FC074604E0FFF7CEFC89
:100A8000C01B022875D8686A8007F7D42078400711
:100A900060D5E8690027C00008D4E86940F08050BC
:100AA000E861E869012700F080500090554801682E
:100AB000C90513D40168834641F480710160FFF7D2
:100AC000ADFC824606E000BFFFF7A8FCA0EB0A00E1
:100AD00064284ED8DBF80000C005F5D5E068012891
:100AE0000AD008B1052813D0286A20F00100286236
:100AF000286A20F0040002E0286A40F00100286221
:100B0000E06841F2883B98B1FFF788FC82460BE031
:100B1000286A40F004002862EEE700BFFFF77EFC81
:100B2000A0EB0A0159455AD8286A8007F6D50CE08F
:100B3000FFF774FC824605E0FFF770FCA0EB0A01AA
:100B400059454CD8286A8007F6D41FB1E86920F0CF
:100B50008050E861E06988B36968C1F381010229C6
:100B600045D00228C6F8608004D0FFF757FC044641
:100B700038E034E0FFF752FC074604E0FFF74EFC94
:100B8000C01B02282BD828688001F7D4206AB0F552
:100B9000803F05D16868A16820F400300843686090
:100BA000D4E908010843696821F4741108436860B6
:100BB000C6F86090FFF732FC044606E015E000BF7F
:100BC000FFF72CFC001B022809D828688001F7D504
:100BD0000BE000BFFFF722FC001B022802D9032014
:100BE000BDE8F88F28688001F4D40020F8E70120E0
:100BF000F6E700000010024000004242800442423A
:100C0000140000200070004010B5401EB0F1807F3D
:100C100001D3012010BD4FF0E02460610F21601767
:100C200000F0C8F90020A06107202061002010BD5D
:100C30007047000070B5026804461068D1685369B7
:100C400010F00F0F50D003F0010501F490763543FA
:100C50005DD0C20705D0CA0503D5E26B42F00102A0
:100C6000E263420705D5DA0703D0E26B42F00202E5
:100C7000E263820705D5DA0703D0E26B42F0040293
:100C8000E263020705D5DA0703D0E26B42F00802FF
:100C9000E263E26B002A33D0800604D5880602D5D1
:100CA000204600F0F9F920684069E16BC0F380103C
:100CB000090700D428B3204600F0E0F92068416914
:100CC00049061AD5416921F040014161606BA0B12C
:100CD0001B494163606BFFF771FA002810D0606B0D
:100CE000416BBDE870400847830610D58B060ED5D2
:100CF0002046BDE8704000F0CFB92046FFF798FFCE
:100D000070BD2046FFF794FF0020E06370BD03062E
:100D100006D50B0604D52046BDE8704000F0C0BAE9
:100D20004006F3D54806F1D5D168204621F04001B0
:100D3000D160202184F8391000F08DF870BD0000DA
:100D40006D10000870B5040004D094F83900002537
:100D500010B106E0012070BD84F83850204600F044
:100D600023F8242084F839002068C16821F4005158
:100D7000C160204600F0DCF92068016921F490414F
:100D800001612068416921F02A0141612068C16840
:100D900041F40051C160E563202084F8390084F8F3
:100DA0003A00002070BD000070B586B000240094A9
:100DB000019402940394234E0368234902200322E2
:100DC000224DB34219D18B6943F480438B618B6907
:100DD00003F4804304938B6943F004038B618969B6
:100DE000039201F0040104910102CDE9001069466B
:100DF0002846FFF72FFA28151BE0154EB3421FD1E6
:100E0000CB6943F40033CB61CB6903F40033049323
:100E10008B6943F004038B618969039201F004013B
:100E200004910421CDE9001069462846FFF712FA23
:100E30000820CDE90004694628460294FFF70AFA23
:100E400006B070BD003801400010024000080140AB
:100E50000044004070477047FEE70000074910B5A6
:100E6000054808600846FFF784F9002803D0BDE86C
:100E70001040FFF77DB910BD003002400000002097
:100E800070B586B000241C48009401940294039429
:100E9000816941F010018161816901F010010491C3
:100EA000816941F020018161816901F02001049193
:100EB000816941F004018161816901F004010491BB
:100EC000816941F00801816180690C4E00F00800E1
:100ED0004FF478750490012229463046FFF798FABE
:100EE00001200095CDE901040320039069463046B6
:100EF000FFF7B0F906B070BD00100240000C0140D1
:100F00000D4810B50B4901600C49416000214FF4B8
:100F100080428160C0E9031241618161C161016267
:100F2000FFF782FA002803D0BDE81040FFF720B990
:100F300010BD00000058004018000020801A060074
:100F40000C4810B50A4901604FF4E13141600021BD
:100F500081600C22C160C0E904128161C161FFF7A8
:100F6000F1FE002803D0BDE81040FFF701B910BD25
:100F7000003801406C0000200C4810B50A4901609F
:100F80004FF4E1314160002181600C22C160C0E971
:100F900004128161C161FFF7D5FE002803D0BDE8CE
:100FA0001040FFF7E5B810BD00440040AC00002041
:100FB000FEE770470907090E002806DA00F00F0067
:100FC00000F1E02080F8141D704700F1E02080F867
:100FD000001470477047704730B58FB028216846BD
:100FE000FFF7A7F814210AA8FFF7A3F801210804C6
:100FF000CDE900100024029402250491CDE90750A8
:10100000000109906846FFF77DFC0F20CDE90A0535
:101010006802CDE90C4002210AA80E94FFF762FB9A
:101020000FB030BD0D48016841F001010160416819
:101030000B4A1140416001680A4A11400160016891
:1010400021F480210160416821F4FE0141604FF4E8
:101050001F0181600449C00308607047001002400E
:101060000000FFF8FFFFF6FE08ED00E010B5406A53
:101070000021C185C184FFF7DBFD10BD0168CA688E
:1010800022F49072CA6001684A6922F001024A6142
:10109000202180F83A10704710B590F83A102229B4
:1010A00001D0022010BD8168B1F5805F11D00169C7
:1010B000002901681FD0496801F07F03816A4A1C3A
:1010C00082620B70C18D491E0904090CC18518D0BC
:1010D0002BE00269816A002A0268526805D0D2B208
:1010E0000A80816A491C8162ECE7C2F308020A8027
:1010F000816A891CF7E74A68816A4B1C83620A701F
:10110000E0E70168CA6822F02002CA600168CA6884
:1011100022F48072CA6001684A6922F001024A61C1
:10112000202180F83A10FFF795FE002010BD000046
:101130002DE9F041044600680169E26821F440515C
:10114000114301612169A06808436169084321686E
:10115000CA6841F20C639A430243CA60206841693D
:10116000A26921F44071114341614C492068642512
:10117000322688423CD1FFF77BFB00EBC00101EB3C
:10118000001061688900B0FBF1F7FFF771FB00EB1D
:10119000C00101EB00106168B0468900B0FBF1F0BE
:1011A000B0FBF5F06FF01801484307EB800106EB48
:1011B0000110B0FBF5F000F0F006FFF759FB00EB73
:1011C000C00101EB001061688900B0FBF1F0B0FBD9
:1011D000F5F006EB0016FFF74BFB00EBC00101EB4F
:1011E000001061688900B0FBF1F7FFF741FB3BE0BD
:1011F000FFF72EFB00EBC00101EB001061688900D6
:10120000B0FBF1F7FFF724FB00EBC00101EB00108E
:101210006168B0468900B0FBF1F0B0FBF5F06FF00B
:101220001801484307EB800106EB0110B0FBF5F015
:1012300000F0F006FFF70CFB00EBC00101EB001023
:1012400061688900B0FBF1F0B0FBF5F006EB001629
:10125000FFF7FEFA00EBC00101EB001061688900A6
:10126000B0FBF1F7FFF7F4FA00EBC00101EB00105F
:1012700061688900B0FBF1F0B0FBF5F06FF0180188
:10128000484307EB800108EB0110B0FBF5F0216843
:1012900000F00F0030448860BDE8F0810038014064
:1012A00090F83910212901D0022070478168B1F5EA
:1012B000805F016A0BD04A1C0262026809785160A3
:1012C000C18C491E0904090CC1840ED017E009889D
:1012D0000268C1F30801516001690029016A02D066
:1012E000491C0162ECE7891CFBE70168CA6822F02F
:1012F0008002CA600068C16841F04001C1600020FE
:10130000704700000148FFF795BC0000AC000020CA
:10131000FEE702E008C8121F08C1002AFAD1704790
:101320007047002001E001C1121F002AFBD1704765
:10133000FFF74AF9FFF750FEFFF7A2FDFFF71CFE8B
:10134000FFF7DEFDFFF7FCFDFFF788FD002205211A
:101350002620FFF795F92620FFF786F9FEE7000023
:101360000000000000000102030406070809000055
:101370000000010203040000981300080000002090
:101380001800000012130008B01300081800002015
:10139000D804000022130008000000000000000034
:1013A00001000000100000000000000000A24A043C
:04000005080000ED02
:00000001FF
