:020000040800F2
:10000000801400209D010008BB170008FD140008A3
:10001000B9170008850200089D1B000800000000B9
:10002000000000000000000000000000E1170008D0
:100030001103000800000000DF170008E3170008A4
:10004000B7010008B7010008B7010008B7010008B0
:10005000B7010008B7010008B7010008B7010008A0
:10006000B7010008B7010008B7010008B701000890
:10007000B7010008B7010008B7010008B701000880
:10008000B7010008B7010008B7010008B701000870
:10009000B7010008B7010008B7010008B701000860
:1000A000B7010008B7010008B7010008B701000850
:1000B000B7010008B7010008B7010008B701000840
:1000C000B7010008B7010008B7010008B701000830
:1000D000B7010008B7010008B7010008B701000820
:1000E000B7010008B7010008B7010008B701000810
:1000F000B7010008B7010008B7010008B701000800
:10010000B7010008B7010008B7010008B7010008EF
:10011000B7010008B7010008B7010008B7010008DF
:10012000B701000889020008B7010008B7010008FC
:10013000B7010008B7010008B7010008B7010008BF
:10014000B7010008B7010008B7010008B7010008AF
:10015000B7010008B7010008B7010008B70100089F
:10016000B7010008B7010008B7010008B70100088F
:10017000B7010008B7010008B7010008000000003F
:10018000B7010008B7010008DFF80CD000F068F8EC
:1001900000480047C11B0008801400200648804723
:1001A00006480047FEE7FEE7FEE7FEE7FEE7FEE75C
:1001B000FEE7FEE7FEE7FEE79D180008890100085C
:1001C0002DE9F05F0546002092469B46884606468C
:1001D000814640241BE0284641464746224600F01F
:1001E0002FF853465A46C01A914110D3114618466B
:1001F000224600F016F82D1A67EB01084F462246FA
:100200000120002100F00DF817EB00094E41201EDF
:10021000A4F10104DFDC484631462A464346BDE8E6
:10022000F09F202A04DB203A00FA02F100207047F8
:100230009140C2F1200320FA03F319439040704724
:10024000202A04DB203A21FA02F00021704721FA2B
:1002500002F3D040C2F12002914008431946704792
:10026000064C074D06E0E06840F0010394E8070003
:1002700098471034AC42F6D3FFF78AFF301C0008D1
:10028000501C0008FEE70000014800F08FB9000094
:100290002002002001681823CAB2103AB2FBF3F220
:1002A000054B6FF30901032A9B5CC36500D9091D47
:1002B0008165084670470000101C000810B5014613
:1002C00000208B698A6A4FF0C07453B1B3F5005FA8
:1002D00015D072B1012A0CD0022A0AD0032A09D102
:1002E00004E01AB1012A06D0022A03D1C96AC90161
:1002F00000D5012010BDC96AA142FAD010BD002A64
:10030000F7D0012AF2D0022AF3D0032AF3D010BD8D
:100310007047000070B5B3F5804F05D06FF07041A5
:1003200040F82210002070BD50F82240084B8E8902
:100330001C40D1E9003543EA05138D6889692D0217
:1003400045EA06452B430B43234340F82230E9E7B7
:100350000000F0CFF0B50C6850F82430114A13407B
:10036000D1E90125D1E903672A433E4332434E696F
:1003700032438E693243CE6932430E6A32434E6A4B
:1003800032438E6A3243CE6A3243CE6B096B3243BC
:100390000A431A43082D01D142F0400240F82420BC
:1003A0000020F0BD8000F0FF30B500EB8202506805
:1003B0008D8900F04043D1E9000440EA04108C68C4
:1003C000240244EA054420430C8A074D05EB0454FB
:1003D00020430C7D6D0105EB0464896920430843CB
:1003E00018435060002030BD0000F0FF10B504003D
:1003F00002D0607910B106E0012010BD002020710C
:10040000204600F007F80220607101206071002092
:1004100010BD000008B500680649884208D10648AA
:10042000016841F480510160006800F48050009040
:1004300008BD0000003002403038024010B5040012
:1004400003D094F8250010B104E0012010BD20462F
:1004500000F030F8022084F825002068016840F69A
:10046000F87291430160616960680843D4E903123E
:1004700011430843A1680843A1690843216A08435E
:1004800021680A68104308606068102805D1E17F80
:10049000E06961F31F60216888612068C16841F0EC
:1004A0001E01C1600020E063012084F825000020C7
:1004B00010BD00002DE9F041064600682C4986B0C9
:1004C000884251D12B480025016841F001010160AB
:1004D0000068022400F00100059073208DE83100CF
:1004E0000D27CDE903576946234800F0CFF9502086
:1004F0008DE83100CDE903576946204800F0C6F980
:100500004FF0C008CDF80080CDE90145CDE9035793
:1005100069461B4800F0BAF9CDF80080CDE90145E5
:10052000CDE903576946174800F0B0F9174C164853
:1005300020604FF00070C4E90105C013C4E9035006
:10054000800060618000A0618011E0614FF4403064
:10055000C4E90805204600F0F9F818B1C3210CA041
:1005600001F01DFBB463A66306B0BDE8F081000096
:1005700000000550343802400010024000000240E4
:1005800000080240000402402864024020020020CB
:100590002E2E2F5372632F73746D33326634787836
:1005A0005F68616C5F6D73702E6300002DE9F84326
:1005B00004464FF00009CDF8009063484FF41651FF
:1005C000A56D0068B0FBF1F72E6894F85C10082068
:1005D00000FA01F131420FD021680A6852070BD5A9
:1005E0000A6822F004020A6094F85C108840A8604F
:1005F000606D40F00100606594F85C104FF00108F8
:1006000008FA01F0304208D021684969090604D58A
:10061000A860606D40F00200606594F85C100420F2
:100620008840304208D021680968890704D5A8604D
:10063000606D40F00400606594F85C101020884004
:10064000304218D021680968090714D5A8602068CD
:100650000168490304D50068000308D5A16C07E0D0
:100660000168C90503D4016821F008010160216C0B
:1006700009B12046884794F85C1020208840304219
:1006800031D021680968C9062DD5A86094F83500D5
:1006900005282068016806D0490347D50068000393
:1006A0001DD4616C1CE021F01601016020684169D5
:1006B00021F080014161206C08B9A06C20B1206854
:1006C000016821F00801016094F85C103F20884027
:1006D000A86084F8349084F83580216D1FE0E16BC8
:1006E00009B120468847606D00282BD0606DC00797
:1006F00014D0052084F835002068016821F001013C
:1007000001600098401C0090B84203D8206800683F
:10071000C007F6D184F8349084F83580E16C002964
:1007200010D001B02046BDE8F04308470168C90574
:10073000D5D4016821F01001016084F8349084F868
:100740003580CCE7BDE8F8831C0000202DE9F0419E
:10075000044600F079F906465CB1002584F834506F
:10076000022084F835002068016821F00101016051
:100770000DE00120BDE8F08100F066F9801B05283E
:1007800005D920206065032084F83500F2E7206851
:100790000068C007F0D12268116820480140D4E900
:1007A00001031843D4E903363343184363691843FC
:1007B000A3691843E3691843236A18430843616A2D
:1007C000042903D1D4E90B131943084310602068AE
:1007D0004069666A20F0070130460E43012704286D
:1007E0000CD1A06A0643E06A40B12046FFF766FDDF
:1007F00020B14020606584F83570BAE72068466112
:100800002046FFF747FD94F85C203F21914081602E
:10081000656584F835700020ACE700003F8010F07B
:10082000F0B5164887B00168002924D10121016084
:1008300013480024016841F00101016000680225AD
:1008400000F0010005904FF68070CDE9000502AA86
:1008500003260C2782E8D00069460A4800F016F803
:100860004EF2B370CDE9000502AA694682E8D000D5
:10087000054800F00BF807B0F0BD000008000020AC
:100880003838024000100240000C02402DE9F84FB9
:10089000DFF87CB100224FF001084FF0030A4FF05F
:1008A0000F090BF1040E00BF0B6808FA02F4234095
:1008B000A3426ED14D68022D01D0122D0ED1D50864
:1008C00000EB850CDCF820505607F70E09FA07F606
:1008D000B5430E69BE402E43CCF820600668550033
:1008E0000F790AFA05FC07F0030726EA0C06AF4069
:1008F000374307604E68012E05D0022E03D0112E1B
:1009000001D0122E0ED18668CF6826EA0C06AF40C1
:10091000374387604668A6430C79C4F300149440BB
:1009200034434460C6688C6826EA0C06AC40344305
:10093000C4604C68E40065D5364C256845F48045B4
:100940002560246822F0030504F480440094324CAE
:100950002E19D6F8084895072F0F09FA07F5AC436A
:100960002E4DA84201D1002524E02D4DA84201D1F1
:1009700001251FE02B4DA84201D102251AE02A4D86
:10098000A84201D1032515E0284DA84202D1042533
:1009900010E037E0264DA84201D105250AE0254D9B
:1009A000A84201D1062505E0234DA84201D1072523
:1009B00000E00825BD402543C6F80858DBF8004094
:1009C0005D464E689C43F60300D51C432C60DEF860
:1009D000004075464E689C43B60300D51C432C600E
:1009E0000B4D08352C684E689C43F60200D51C431D
:1009F0002C60074D0C352C684E689C43B60200D520
:100A00001C432C60521C102AFFF44EAFBDE8F88F37
:100A1000003C0140443802400030014000000240E8
:100A20000004024000080240000C02400010024096
:100A30000014024000180240001C02400AB181610B
:100A400070470904FBE70000014880687047000018
:100A50001000002070B5040004D094F83D0000257B
:100A600010B106E0012070BD84F83C50204600F033
:100A700075F8242084F83D002068016821F0010108
:100A8000016000F0F9F933492268B0FBF1F15160DF
:100A9000314A6368934206D94FF4967359434FF431
:100AA0007A73B1FBF3F12368491C196261689142C2
:100AB0000BD84900B0FBF1F2C2F30B02042A01D2B9
:100AC000042019E0B0FBF1F016E0A3689BB301EB42
:100AD000C10202EB0112B0FBF2F242F480421205B5
:100AE00030D04BB301EBC10202EB0111B0FBF1F0CE
:100AF00040F4804040F400402168C861D4E9070117
:100B0000084321680860D4E903100843216888601D
:100B1000D4E9050108432168C8602068016841F0F4
:100B2000010101602564202084F83D00256384F8DC
:100B30003E50002070BD00E006E001EB4102B0FB3A
:100B4000F2F2CCE70120D7E701EB4101B0FBF1F075
:100B5000D0E7000040420F00A086010000B5006809
:100B60000E4987B0884217D14FF4406000901220A0
:100B70000190012002900320039004200490694614
:100B80000748FFF783FE0748016841F480010160D0
:100B9000006800F48000059007B000BD00580040D8
:100BA0000004024040380240024881680278114443
:100BB00081607047100000200B4810B5016841F4B7
:100BC00000710160016841F480610160016841F4D5
:100BD00080710160032000F097F8002000F006F813
:100BE00000F024F8002010BD003C024070B50D4D0F
:100BF00004464FF47A712878B1FBF0F00A4909688D
:100C0000B1FBF0F000F00AFC48B9102C07D200222A
:100C10002146501E00F058F800206C6070BD012085
:100C200070BD0000100000201C0000201F4808B507
:100C3000016841F480410160006800F48040009048
:100C40001A48001F016841F080510160006800F0FF
:100C500080500090032000F057F8002211466FF0FA
:100C60000B0000F031F8002211466FF00A0000F08E
:100C70002BF8002211466FF0090000F025F8002241
:100C80001146501F00F020F800221146101F00F0FE
:100C90001BF800221146901E00F016F80022BDE855
:100CA00008401146501E00F00FB8000044380240C2
:100CB00000F01F02012191404009800000F1E02076
:100CC000C0F8001170470000F0B40E4B1B680C46D2
:100CD000C3F30223C3F10705042D00D90425191D10
:100CE000072901D2002300E0DB1E012606FA05F1E8
:100CF000491E214099409E40761E16403143F0BC6B
:100D000000F05DBD0CED00E0064900F00702086848
:100D10004FF6FF03184040EA0220034A10430860E0
:100D2000704700000CED00E00000FA05704700007D
:100D30002DE9F0470E46050065D0DFF81481D8F89C
:100D40000000F7B200F00F00B04207D288F8007040
:100D5000D8F8000000F00F00B04254D128683D4C94
:100D6000810712D5400703D5206840F4E050206089
:100D70002878000703D5206840F460402060206890
:100D8000A96820F0F000084320602878C0072DD023
:100D9000304968680839012812D0022813D0032886
:100DA00011D00968890700292DDA216821F0030193
:100DB00001432160FFF748FE814641F2883A0EE088
:100DC00009688903EFE709688901ECE7FFF73CFE52
:100DD000A0EB0901514502D90320BDE8F087206846
:100DE000696800F00C00B0EB810FEFD1D8F800106B
:100DF000404601F00F01B14207D90770006800F0CA
:100E00000F00B04201D00120E7E72878400705D560
:100E10002068E96820F4E050084320602878000743
:100E200006D52068296920F4604040EAC1002060AE
:100E300000F042F82168084AC1F30311515CC84030
:100E4000064908600020FFF7D1FE0020C5E700003A
:100E5000003C024008380240181C00081C0000201A
:100E600001490120C86470470000474201480068FA
:100E7000704700001C00002004480549006809680C
:100E8000044AC1F38221515CC84070471C00002015
:100E900008380240281C0008044805490068096811
:100EA000044AC1F34231515CC84070471C00002025
:100EB00008380240281C0008154810B5006810F0DA
:100EC0000C02144813D04110042A0FD0082A0ED166
:100ED0000F4C241F2268236802F03F025B0207D5F3
:100EE0002068C0F38810A0FB010106E0084610BD91
:100EF0002168C1F38811A1FB00010023FFF760F90D
:100F00002168C1F30141491C4900B0FBF1F010BD5B
:100F1000083802400024F400F0B51F4C16460D4678
:100F20001D4B002102220327283C0028186887B0A7
:100F300019D040F004001860186800F00400059013
:100F400010020090CDE90121CDE9037169461348F3
:100F5000FFF79CFC206845EAC60120F07840084372
:100F6000206007B0F0BD40F001001860186800F084
:100F7000010005904FF480700090CDE90121CDE98A
:100F8000037169460648FFF781FC2068354320F06D
:100F9000EC602843E4E700003038024000080240DB
:100FA00000000240054810B50068000605D5FFF7AF
:100FB000BDFE02498020891C087010BD0C3802401B
:100FC0002DE9F84F050076D02878DFF8F8B2BE4C4E
:100FD000C00749D0DBF800105846C1F38101012950
:100FE00008D00068C0F3810002280AD1201D0068E3
:100FF000400206D52068800336D568680028E2D014
:1010000032E06868B0F5803F10D0B0F5A02F2068BE
:1010100010D020F480302060206820F480202060F0
:101020006868A0B1FFF710FD06460CE0206840F4A8
:101030008030F4E740F480202060F7E7FFF704FDFC
:10104000801B642873D820688003F7D50CE0FFF775
:10105000FBFC064605E000BFFFF7F6FC801B64289A
:10106000F0D820688003F7D42878DFF86082800702
:101070004FF000093ED5DBF80010584611F00C0F78
:1010800009D00068C0F3810002280BD18D48001FF1
:101090000068400206D42068800715D5E86801285A
:1010A00009D111E0E868B8B10120C8F80000FFF7E5
:1010B000CBFC064605E002E1FFF7C6FC801B0228D8
:1010C000C0D820688007F7D52068296920F0F8008B
:1010D00040EAC10020600DE0C8F80090FFF7B4FCC2
:1010E000064604E0FFF7B0FC801B02281FD82068EA
:1010F0008007F7D42878000722D5724E74486969B2
:101100006C3671B101210160FFF79EFC074604E0D7
:10111000FFF79AFCC01B022809D830688007F7D572
:101120000EE0C0F80090FFF78FFC074605E083E073
:10113000FFF78AFCC01B02287ED830688007F7D4EE
:101140002878400768D5DFF87CA100270AF1380A23
:10115000DAF80000C0000BD4DAF8001041F080513A
:10116000CAF80010DAF80000012700F08050009063
:10117000584E3068C00510D4306840F4807030603C
:10118000FFF762FC009005E0FFF75EFC0099401A53
:10119000022851D83068C005F6D54A4EA86868368E
:1011A00001280FD00528306810D020F001003060F1
:1011B000306820F004003060A868B8B1FFF744FC44
:1011C00000900FE0306840F00100F4E740F00400C8
:1011D0003060F7E7FFF738FC0099411A41F2883098
:1011E000814264D830688007F4D50EE0FFF72CFC0C
:1011F000009007E0FFF728FC0099411A41F288307F
:10120000814254D830688007F4D42FB1DAF8001046
:1012100021F08051CAF80010A869C0B3DBF80010B3
:10122000C1F3810102294AD00228484607D0C8F8F4
:101230006000FFF709FC00E039E005463AE0474668
:10124000C8F86000FFF700FC064604E0FFF7FCFB6F
:10125000801B02282BD820688001F7D4D5E907012C
:101260000843A96A1C4A490802EB01416A6A41EA3B
:101270008211084395F82C1040EA01611148001FC3
:10128000016001203866FFF7DFFB054605E014E04A
:10129000FFF7DAFB401B022809D820688001F7D548
:1012A0000BE000BFFFF7D0FB401B022802D9032050
:1012B000BDE8F88F20688001F4D40020F8E7012011
:1012C000F6E70000083802400038024000004742BC
:1012D000800E4742007000400000FFFF70B5040020
:1012E00005D00025A56294F8510010B106E0012058
:1012F00070BD84F85050204600F030F8022084F889
:1013000051002068016821F040010160D4E9010129
:101310000843D4E903121143084361690843218B50
:1013200001F400710843E1690843216A0843A16A96
:10133000084321680860A069042101EA1040616A3D
:101340000843216848602068C16921F40061C161D7
:101350006565012084F85100002070BD00B500686B
:101360000E4987B0884217D10D480021026842F427
:1013700080420260006800F4804005904FF46040B5
:1013800000900220CDE90101032003900520049084
:1013900069460448FFF77AFA07B000BD00380040FC
:1013A000403802400004024070B515460E46040065
:1013B00003D094F8490010B107E0012070BD00206F
:1013C00084F84800204600F01AF804F1080120686B
:1013D000FEF7C0FF3146A2682068FEF7E5FFD4E9BA
:1013E00001022946236BFEF795FFA168206850F89B
:1013F000212042F0010240F82120002070BDFFF7BB
:101400000FBA4FF0E0210428086903D020F004004F
:101410000861704740F00400FAE7704710B5401EBD
:10142000B0F1807F01D3012010BD4FF0E024606156
:101430000F21601700F0C3F90020A0610720206190
:10144000002010BD10B5FFF7E8FF10BD70B5040017
:1014500004D094F83900002510B106E0012070BDD9
:1014600084F83850204600F023F8242084F839000E
:101470002068C16821F40051C160204600F038FAAC
:101480002068016921F4904101612068416921F0DF
:101490002A0141612068C16841F40051C160E563DF
:1014A000202084F8390084F83A00002070BD000044
:1014B00000B500680E4987B0884216D10D48016812
:1014C00041F4003101600068694600F40030059085
:1014D0000C20009002200190012002900320039034
:1014E000072004900448FFF7D1F907B000BD0000C1
:1014F000004400404038024000000240FEE7000087
:10150000064910B5044808600846FEF76FFF00283A
:1015100000D0FEE710BD00000030024000000020B7
:101520000A4810B508490160002180224160C0E9E5
:1015300002124022C0E9042181610162FEF77EFFB0
:10154000002800D0FEE710BD00000550200000205C
:1015500000B5164887B04FF0204101601449416042
:10156000002181601022C160C0E904128161C16163
:1015700013020162C0E90913C1620163416381631F
:101580004164042000900F20019002AB0A2083E800
:1015900007001120CDE90501002269460348FFF745
:1015A00003FF002800D0FEE707B000BDD0010020F7
:1015B000040100A02DE9F04F4E4887B000240168D7
:1015C00041F010010160016801F01001059101680E
:1015D00041F004010160016801F004010591016816
:1015E00041F080010160016801F08001059101680E
:1015F00041F001010160016801F0010105910168FC
:1016000041F002010160016801F0020105910168E9
:1016100041F0080101600068DFF8DCA000F008007C
:101620000590002280215046FFF708FADFF8CC80B1
:10163000002220214046FFF701FADFF8C4B0002263
:1016400041F202115846FFF7F9F9DFF8B8904FF46C
:10165000C057002239464846FFF7F0F90820CDE987
:101660000004694628480294FFF710F980200125FC
:101670000326CDE90005CDE9024669465046FFF74D
:1016800005F92020CDE90005CDE90246694640462E
:10169000FFF7FCF841F20200CDE90005CDE9024672
:1016A00069465846FFF7F2F800970396CDE90154D2
:1016B00069464846FFF7EAF82F0202200097CDE975
:1016C00001040394694650460494FFF7DFF8CDE91E
:1016D0000075CDE9025669465846FFF7D7F868020B
:1016E0008DE8310069465846FFF7D0F807B0BDE8ED
:1016F000F08F000030380240000002400008024035
:1017000000040240000C0240001002400B4810B5DB
:10171000094901600A49416000214FF4804281601B
:10172000C0E9031241618161C1610162FFF792F971
:10173000002800D0FEE710BD0058004060000020E7
:10174000A08601000E4810B50C4901604FF482716B
:10175000416000218160C1604FF400720161C0E905
:1017600005123822C0E90721416281620A21C16263
:10177000FFF7B4FD002800D0FEE710BD00380040A0
:10178000380100200B4810B5094901604FF416518B
:101790004160002181600C22C160C0E904128161B6
:1017A000C161FFF753FE002800D0FEE710BD000026
:1017B0000044004090010020FEE7FFF7F3BB09075B
:1017C000090E002806DA00F00F0000F1E02080F892
:1017D000141D704700F1E02080F800147047704736
:1017E000704710B5FFF7E0F9BDE81040FFF72ABEDB
:1017F00070B5284892B00025016841F08051016021
:10180000006800F0805011902348016841F4804145
:1018100001600068022400F48040119001200090D3
:1018200000040694860101900420CDE90760A820F9
:10183000CDE9090407200B906846FFF7C1FB00B112
:10184000FEE70CA90F2081E831004FF4A0500F9063
:101850004FF48050109005210CA8FFF769FA00B1F1
:10186000FEE7002231461046FFF756FBFFF7F8FA75
:10187000FFF7FCFA4FF47A71B0FBF1F0FFF7CEFD01
:101880000420FFF7BEFD00221146501EFFF71CFA90
:1018900012B070BD4038024000700040104801682E
:1018A00041F4700101600F48016841F001010160DD
:1018B0000C4A00210832116002680B4B1A4002608A
:1018C000031D0A4A1A60026822F480220260054859
:1018D0000C300160024958068039086070470000EA
:1018E00088ED00E000380240FFFFF6FE10300024D3
:1018F0002DE9F04104460068016921F44052E16895
:10190000114301612168C86849F20C629043236960
:10191000A268E5691A4363692B431A430243CA600C
:101920002168486920F44072A06910434861E16968
:101930006425B1F5004F9748974A21684FF0320867
:101940003FD0914201D081427CD1FFF7A5FA00EB54
:10195000C00101EB001061688900B0FBF1F6FFF7F0
:101960009BFA00EBC00101EB001061688900B0FB3D
:10197000F1F0B0FBF5F06FF01801484306EB800181
:1019800008EB0110B0FBF5F000F0F006FFF784FA69
:1019900000EBC00101EB001061688900B0FBF1F0C1
:1019A000B0FBF5F006EB0016FFF776FA00EBC0018E
:1019B00001EB001061688900B0FBF1F7FFF76CFAEA
:1019C000D2E0914201D081423DD1FFF765FA00EBB0
:1019D000C00101EB001061684900B0FBF1F0B0FB01
:1019E000F5F00601FFF758FA00EBC00101EB00101B
:1019F00061684900B0FBF1F7FFF74EFA00EBC00158
:101A000001EB001061684900B0FBF1F0B0FBF5F0AC
:101A10006FF01801484307EB800108EBC100B0FBF1
:101A2000F5F000F0F80006EB4006FFF735FA00EBA2
:101A3000C00101EB001061684900B0FBF1F7FFF74E
:101A40002BFA3CE055E0FFF717FA00EBC00101EB81
:101A5000001061684900B0FBF1F0B0FBF5F0060141
:101A6000FFF70AFA00EBC00101EB001061684900C2
:101A7000B0FBF1F7FFF700FA00EBC00101EB00103B
:101A800061684900B0FBF1F0B0FBF5F06FF01801B0
:101A9000484307EB800108EBC100B0FBF5F000F014
:101AA000F80006EB4006FFF7E7F900EBC00101EB99
:101AB000001061684900B0FBF1F7FFF7DDF900EBBA
:101AC000C00101EB001061684900B0FBF1F0B0FB10
:101AD000F5F06FF01801484307EB800108EBC100F7
:101AE000B0FBF5F000F00700216830448860BDE8E5
:101AF000F081FFF7C1F900EBC00101EB0010616854
:101B00008900B0FBF1F6FFF7B7F900EBC00101EB7C
:101B1000001061688900B0FBF1F0B0FBF5F06FF0E8
:101B20001801484306EB800108EB0110B0FBF5F00B
:101B300000F0F006FFF7A0F900EBC00101EB001088
:101B400061688900B0FBF1F0B0FBF5F006EB001620
:101B5000FFF792F900EBC00101EB0010616889000A
:101B6000B0FBF1F7FFF788F900EBC00101EB0010C3
:101B700061688900B0FBF1F0B0FBF5F06FF018017F
:101B8000484307EB800108EB0110B0FBF5F000F0D3
:101B90000F00A9E70014014000100140FEE7FEE736
:101BA00002E008C8121F08C1002AFAD17047704726
:101BB000002001E001C1121F002AFBD17047000084
:101BC00008B5FEF7F9FFFFF713FEFFF7F3FC0F4828
:101BD000016841F4800101600068002200F4800087
:101BE000009011463920FFF76FF83920FFF760F8B1
:101BF000FFF7C8FDFFF7ACFCFFF782FCFFF7A2FD83
:101C0000FFF78EFCFFF782FDFEE700003038024050
:101C1000000610160006101600000000000000006C
:101C20000102030406070809000000000102030482
:101C3000501C00080000002020000000A01B00082D
:101C4000701C00082000002060140000B01B000879
:101C50000000000000000000000000000000000084
:101C60000100000010000000000000000024F4004B
:040000050800018965
:00000001FF
