:020000040800F2
:10000000E00700203932000821020008230200081E
:10001000250200082702000829020008000000004D
:100020000000000000000000000000002B0200089B
:100030002D020008000000002F020008190500082A
:10004000533200085332000853320008533200087C
:10005000533200085332000853320008533200086C
:10006000533200085332000853320008533200085C
:10007000533200085332000853320008533200084C
:10008000533200085332000853320008533200083C
:10009000533200085332000853320008533200082C
:1000A000533200085332000853320008533200081C
:1000B00053320008EB0300085332000853320008A3
:1000C00053320008533200085332000853320008FC
:1000D00053320008533200085332000853320008EC
:1000E00053320008533200085332000853320008DC
:1000F00053320008533200085332000853320008CC
:1001000053320008533200085332000853320008BB
:1001100053320008533200085332000853320008AB
:10012000533200085332000853320008533200089B
:1001300000F002F800F03AF80AA090E8000C8244BF
:100140008344AAF10107DA4501D100F02FF8AFF29C
:10015000090EBAE80F0013F0010F18BFFB1A43F0A5
:1001600001031847BC360000DC360000103A24BFFB
:1001700078C878C1FAD8520724BF30C830C144BF0C
:1001800004680C607047000000230024002500264E
:10019000103A28BF78C1FBD8520728BF30C148BFEA
:1001A0000B6070471FB51FBD10B510BD03F067F899
:1001B0001146FFF7F7FF00F009F803F085F803B4E4
:1001C000FFF7F2FF03BC03F089F8000000F056F9D6
:1001D00041F2883000F02CF800F0ACF900F04FFA52
:1001E00000F0DEFA00F0D4FC4CF2503000F084F95C
:1001F0006421032000F0DDFD0DE00221064801F03E
:10020000A0FB064800F078F90221034801F097FBB3
:10021000024800F071F9F0E7000C014020A107004E
:100220007047704770477047704770477047704716
:100230001FB504460121022001F09DFD784801F020
:10024000F5FDADF808404720ADF804000020ADF8FA
:100250000A00ADF8060001A9714801F0BBFE0122B9
:1002600011466F4802F02DFA1D208DF80000002085
:100270008DF8010003208DF8020001208DF80300A5
:10028000684600F094FE0121654802F0FFF91FBDA9
:1002900064480068401C6349086008460068642898
:1002A0000FD3614800786149086000205E490870FA
:1002B0005F4800785F49086000205D49087059492F
:1002C00008607047704710B588B000F0FDF9FFF77F
:1002D000DFFF0A21584800F036FD00F014FE5748B1
:1002E0000068A0F5EA403038554908605348406836
:1002F000A0F5EA4030385349086050488068A0F5BE
:10030000EA403038504908604C48C068A0F5EA40DF
:1003100030384E49086049480069A0F5EA40303855
:100320004B49086045484069A0F5EA4030384949E2
:10033000086042488069A0F5EA40303846490860C4
:100340003E48C069A0F5EA403038444908603B485F
:10035000006AA0F5EA403038414908604148B0F9E8
:100360000000414908604148B0F9000047F23051AF
:1003700008443D4948603E48B0F9000047F230511A
:100380000844394988603B48B0F9000047F23051D1
:1003900008443549C860012008612B4800680A21DB
:1003A00090FBF1F427480068254909682D4AB2F905
:1003B0000020CDE90604CDE904211E4801681B4850
:1003C0000068274A1268254B1B68CDE90032CDE949
:1003D0000201214803681F4802681D4801681B4844
:1003E000006800F0F9FA08B010BD10B501210C4802
:1003F00002F015FC98B10121094802F021FC1E48C9
:100400000078401C1C490870FFF75CFF1A48007810
:10041000022804D1002018490870FFF754FF10BDCE
:1004200000040040040000205800002008000020C4
:10043000590000200C000020FC0000205401002086
:100440001000002014000020180000201C000020D4
:100450002000002024000020280000202C00002084
:10046000300000203C0000202C0100203E00002035
:1004700040000020420000203400002030B5284811
:100480000068284AB0FBF2F1B1F1807F01D301206E
:100490001DE021F07F40401E4FF0E02250615017D8
:1004A0000F22002807DA13071D0E1F4B00F00F0460
:1004B000241F1D5503E013071C0E1C4B1C5400BFCA
:1004C00000204FF0E022906107201061002008B169
:1004D00000BFFEE74FF0E020006920F001004FF080
:1004E000E021086130BD1248006820B11048006862
:1004F000401E0F49086070470D4908604FF0E02129
:10050000096941F001014FF0E022116100BF084983
:1005100009680029FBD1704700B5FFF7E4FF00BD73
:100520007000002040420F0018ED00E000E400E001
:100530003800002008B50121082001F00FFC02203E
:10054000ADF8000010208DF8030003208DF80200A4
:100550006946024801F046F908BD0000000C014060
:1005600008B50121084601F0ECFB01214FF40470AD
:1005700001F0F4FB0F20ADF8000000208DF803001F
:100580006946764801F02EF908BD00B591B074486F
:1005900000F09EFF73480690734807900020089073
:1005A0000420099000200A9080200B9040000C90BD
:1005B00080000D9020200E9000020F9000201090DF
:1005C00006A9674801F026F80121654801F04DF8B9
:1005D0000020019001208DF808008DF809004FF4EB
:1005E000602003900020049004208DF8140001A9DD
:1005F0005C484C3800F06BFD052301220A21594864
:100600004C3800F0FCFD052302220B2155484C38E4
:1006100000F0F5FD052303220C2152484C3800F070
:10062000EEFD052304220D214E484C3800F0E7FD75
:1006300001214C484C3800F081FD012149484C38DB
:1006400000F071FD47484C3800F08FFD00BF454871
:100650004C3800F08FFD0028F9D142484C3800F0AA
:1006600093FD00BF3F484C3800F093FD0028F9D1BE
:1006700001213C484C3800F096FD11B000BD10B58A
:10068000FFF76EFFFFF781FF10BD2DE9F041064631
:100690000C460027A66200250CE0681C54F82000D8
:1006A00044F8250054F82510384602F01FFE07468E
:1006B000681CC5B20A2DF0DB2C49384602F078FEE2
:1006C00080464046BDE8F08170B52748808800B27A
:1006D000274908800846B0F9000002F047FF0546A8
:1006E0002449FFF7D2FF044602F024FF00B222495A
:1006F00008801D48408800B2204908800846B0F9AB
:10070000000002F033FF06461D49FFF7BEFF054615
:100710001C4903F00FF8044602F00CFF00B21A491E
:1007200008801148008800B2184908800846B0F9CE
:10073000000002F01BFF06461549FFF7A6FF05461D
:10074000144902F0F7FF044602F0F4FE00B2124929
:10075000088000201149088070BD00000010014091
:10076000080002404C2401404A00002000002041C3
:1007700044000020840000203C00002046000020AF
:10078000AC0000200080BB443E0000204800002058
:10079000D40000200040034540000020420000201B
:1007A00000B587B0012144F2040001F0D7FA4FF4FC
:1007B0000070ADF8180018208DF81B0001208DF88E
:1007C0001A0006A9EE4801F00DF84FF48060ADF86C
:1007D000180004208DF81B0006A9E94801F002F872
:1007E0004FF4E13002900020ADF80C00ADF80E009F
:1007F000ADF81000ADF814000C20ADF8120002A9FD
:10080000E04802F064FA25208DF8040003208DF8FA
:1008100005008DF8060001208DF8070001A800F002
:10082000C6FB0121D74802F0DEFA07B000BD10B5C3
:1008300004462146D34802F043FB00BF4021D14883
:1008400002F0ACFB0128F9D110BD10B5044603E05D
:100850002078FFF7ECFF641C20780028F8D110BD49
:1008600070B50446002C04DA2D20FFF7E0FF60424B
:1008700004B242F2107094FBF0F03030C5B228465A
:10088000FFF7D5FF42F2107094FBF0F100FB11442A
:100890004FF47A7094FBF0F03030C5B22846FFF781
:1008A000C6FF4FF47A7094FBF0F100FB1144642012
:1008B00094FBF0F03030C5B22846FFF7B8FF642053
:1008C00094FBF0F100FB11440A2094FBF0F030306F
:1008D000C5B22846FFF7ABFF0A2094FBF0F100FBFE
:1008E00011403030C5B22846FFF7A1FF70BD70B58A
:1008F0000546A549284602F051FE064602F01AFEBA
:100900000446002C03DA2D20FFF791FF64429F4834
:1009100094FBF0F03030C6B23046FFF788FF9B48BA
:1009200094FBF0F100FB114442F2107094FBF0F0E4
:100930003030C6B23046FFF77AFF42F2107094FBB7
:10094000F0F100FB11444FF47A7094FBF0F030307A
:10095000C6B23046FFF76BFF4FF47A7094FBF0F1AC
:1009600000FB1144642094FBF0F03030C6B23046F6
:10097000FFF75DFF642094FBF0F100FB11442E2093
:10098000FFF755FF0A2094FBF0F03030C6B2304636
:10099000FFF74DFF0A2094FBF0F100FB11403030CF
:1009A000C6B23046FFF743FF70BD10B5044620467F
:1009B000FFF73DFF204610BD70B504460025C4F387
:1009C0000720FFF7F2FF2844C5B2E0B2FFF7EDFFC2
:1009D0002844C5B2284670BD2DE9F05F80460D461B
:1009E00016461F46DDE90BABDDF828900024882071
:1009F000FFF7DBFF2044C4B2AF20FFF7D6FF20444F
:100A0000C4B21C20FFF7D1FF2044C4B24046FFF718
:100A1000D3FF2044C4B22846FFF7CEFF2044C4B21F
:100A20003046FFF7C9FF2044C4B23846FFF7C4FF81
:100A30002044C4B24846FFF7BFFF2044C4B250462A
:100A4000FFF7BAFF2044C4B25846FFF7B5FF204471
:100A5000C4B20D98FFF7B0FF2044C4B20E98FFF760
:100A6000ABFF2044C4B20F98FFF7A6FF2044C4B2E6
:100A70001098FFF7A1FF2044C4B21198FFF79CFF24
:100A80002044C4B20020FFF790FF2044C4B20020ED
:100A9000FFF78BFF2044C4B20020FFF786FF2044FD
:100AA000C4B20020FFF781FF2044C4B22046FFF704
:100AB0007CFFBDE8F09F2DE9F05F80460D461646AD
:100AC0001F46DDE90BABDDF8289000248820FFF7F6
:100AD0006CFF2044C4B2AE20FFF767FF2044C4B2CD
:100AE0001220FFF762FF2044C4B24046FFF764FFC4
:100AF0002044C4B22846FFF75FFF2044C4B230460A
:100B0000FFF75AFF2044C4B23846FFF755FF204490
:100B1000C4B24846FFF750FF2044C4B25046FFF726
:100B20004BFF2044C4B25846FFF746FF2044C4B2EE
:100B30000D98FFF741FF2044C4B20E98FFF73CFF29
:100B40002044C4B20F98FFF737FF2044C4B2109876
:100B5000FFF732FF2044C4B21198FFF72DFF204465
:100B6000C4B21298FFF728FF2044C4B21398FFF7CD
:100B700023FF2044C4B22046FFF717FFBDE8F09FD3
:100B800000080140003801400000C842A086010072
:100B900008B50121042001F0E1F8B820ADF800000B
:100BA00001208DF8020010208DF8030069461948D5
:100BB00000F018FE4020ADF8000004208DF803007E
:100BC0006946144800F00EFE08BD70B504460025C5
:100BD0001CE004F0800020B180210E4800F0AFFE40
:100BE00003E080210B4800F0ACFE6006040E2021DB
:100BF000084800F0A4FE4021064800F086FE0443A9
:100C00002021044800F09DFE681CC5B2082DE0DBE1
:100C1000204670BD0008014070B505460C46102105
:100C2000D54800F08EFE2846FFF7CFFF0646204647
:100C3000FFF7CBFF1021D04800F081FE304670BD99
:100C400070B504461021CC4800F07BFE2046FFF72B
:100C5000BCFF0020FFF7B9FF05461021C64800F091
:100C60006EFE284670BD2DE9F04107460D4616463A
:100C70001021C14800F065FE3846FFF7A6FF804608
:100C8000002404E0285DFFF7A0FF601CC4B2B4425A
:100C9000F8DB1021B84800F052FE4046BDE8F08174
:100CA0002DE9F04107460D4616461021B24800F0E6
:100CB00048FE3846FFF789FF8046002405E0002003
:100CC000FFF783FF2855601CC4B2B442F7DB102144
:100CD000A94800F034FE4046BDE8F0810288120ABF
:100CE0000A7002784A708288120A8A700279CA7081
:100CF0000289120A0A71027A4A718289120A8A7179
:100D0000027BCA71028A120A0A72027C4A72828AC1
:100D1000120A8A72027DCA72028B120A0A73027E5A
:100D20004A73828B120A8A73027FCA73028C120A78
:100D30000A7490F820204A74828C120A8A7490F8FF
:100D40002420CA74704770B504460D4608218A48AD
:100D500000F0F7FD89498A48FFF7C0FF2A4621467F
:100D6000A820FFF780FF0821834800F0E8FD70BD50
:100D70001CB584A103C9CDE90001052269463020D4
:100D8000FFF771FF052269461020FFF789FF002455
:100D900006E01DF80400A52800D003E0601CC4B2E2
:100DA000052CF6DB00BF052C01D001201CBD002066
:100DB000FCE770B504460D4608216F4800F0C1FD00
:100DC000032272492A20FFF74EFF03227049302088
:100DD000FFF749FF01212120FFF71EFF01212220FB
:100DE000FFF71AFF1F212420FFF716FF29462520B1
:100DF000FFF712FF0F212620FFF70EFF012C08D16D
:100E000018213120FFF708FF0F212020FFF704FFF2
:100E100041E0022C08D118213120FFF7FDFE0E2100
:100E20002020FFF7F9FE36E0032C1AD1FF21E12044
:100E3000FFF7F2FEFF21E220FFF7EEFE0F21202058
:100E4000FFF7EAFE5020FFF7C0FE7320FFF7BDFE5C
:100E500001213C20FFF7E0FE07213D20FFF7DCFEEB
:100E600019E00E212020FFF7D7FEFF21E120FFF738
:100E7000D3FEFF21E220FFF7CFFE5020FFF7A5FEB3
:100E80007320FFF7A2FE01213C20FFF7C5FE0721DA
:100E90003D20FFF7C1FE0821374800F050FD70BD2E
:100EA0004A780B7842EA03220260CA788B7842EAD9
:100EB000032242604A790B7942EA03228260CA79AE
:100EC0008B7942EA0322C2604A7A0B7A42EA032211
:100ED0000261CA7A8B7A42EA032242614A7B0B7B27
:100EE00042EA03228261CA7B8B7B42EA0322C2610F
:100EF0004A7C0B7C42EA03220262CA7C8B7C42EA77
:100F000003224262704770B50720FFF799FE04463E
:100F100004F04000C8B16020FFF792FE0546212D85
:100F20000EDA18221B496120FFF7BAFE19491A4848
:100F3000FFF7B6FF19480078401C1849087003E015
:100F4000FF21E220FFF768FE00BF04F0200020B17F
:100F500013480078401C1249087004F0100030B1AA
:100F600004F0010018B1FF21E120FFF755FE2146F2
:100F70002720FFF751FE70BD00080140FC00002053
:100F80002C010020A5A5A5A5A50000005500002066
:100F900052000020140100205401002058000020BD
:100FA0005900002031490143314A1160704770B542
:100FB000002100230F22C47804B32D4C246804F4CC
:100FC000E064C4F5E064210AC1F10403CA40447836
:100FD00004FA03F18478144021430901254C067872
:100FE000A155047804F01F050124AC4005786D116B
:100FF000AD0005F1E025C5F8004109E0047804F0F2
:101000001F050124AC401C4D0678761145F826409A
:1010100070BD1A4A0A400243154B1B1F1A607047E5
:1010200039B1134A121D12680243114B1B1D1A607D
:1010300006E00F4A121D126882430D4B1B1D1A60F9
:101040007047042808D14FF0E021096941F00401FC
:101050004FF0E022116107E04FF0E021096921F033
:1010600004014FF0E0221161704700000000FA0512
:101070000CED00E000E400E080E100E080FFFF1FF5
:1010800010B50446FA48844208D10121401500F009
:101090007FFE0021601500F07BFE17E0F5488442DA
:1010A00008D10121001500F073FE0021201500F089
:1010B0006FFE0BE0F048844208D10121C80300F024
:1010C00067FE00214FF4004000F062FE10BD30B515
:1010D0000246002000235068E84C20400D790C683F
:1010E00044EA0524204350609068E54C2040D1E953
:1010F00002542C434D7944EA450420439060D06A61
:1011000020F470000C7C641EE4B2234340EA0350D8
:10111000D06230BD00210160017141718160C16008
:1011200001210174704721B1826842F0010282609E
:1011300003E0826822F001028260704721B1826878
:1011400042F48072826003E0826822F480728260DE
:10115000704710B50023CBB21AB144681C434460F9
:1011600002E044689C43446010BD816841F008017E
:1011700081607047014600208A6802F008020AB1C7
:10118000012000E000207047816841F00401816087
:101190007047014600208A6802F004020AB101206B
:1011A00000E00020704721B1826842F4A002826012
:1011B00003E0826822F4A0028260704701460020AA
:1011C0008A6802F480020AB1012000E00020704722
:1011D00010B50A4600210023416821F46041531EE6
:1011E00041EA4331416010BD21B1426842F40062DE
:1011F000426003E0426822F4006242607047F0B54A
:1012000004460D4600200021092D11DDE068A5F1FE
:101210000A0606EB4607072606FA07F18843A5F1FA
:101220000A0606EB460603FA06F10843E0600CE006
:10123000206905EB4507072606FA07F1884305EB09
:10124000450603FA06F108432061072A0FDA606BAE
:10125000561E06EB86071F2606FA07F18843561E20
:1012600006EB860605FA06F10843606322E00D2AC4
:101270000FDA206BD61F06EB86071F2606FA07F14A
:101280008843D61F06EB860605FA06F1084320635D
:1012900010E0E06AA2F10D0606EB86071F2606FAAB
:1012A00007F18843A2F10D0606EB860605FA06F162
:1012B0000843E062F0BD21B1826842F4801282608E
:1012C00003E0826822F48012826070470146C86C95
:1012D00080B2704766484C300068704721B1426860
:1012E00042F48062426003E0426822F4806242601D
:1012F000704721B1426842F48052426003E0426884
:1013000022F48052426070470A460021816821F42D
:10131000E04111438160704721B1826842F400428C
:10132000826003E0826822F400428260704721B14B
:10133000826842F40212826003E0826822F40212A0
:1013400082607047014600208A6802F400120AB1E8
:10135000012000E000207047F0B50446154600204B
:1013600000220026092911DDE068A1F10A0707EB38
:10137000470C072707FA0CF29043A1F10A0707EB85
:10138000470703FA07F21043E0600CE0206901EB25
:10139000410C072707FA0CF2904301EB410703FACF
:1013A00007F210432061A06BC0F30156EF1C06F159
:1013B000010CA7EB0C0707EB870C1F2707FA0CF2B1
:1013C0009043EF1C06F1010CA7EB0C0707EB870716
:1013D00001FA07F21043A063F0BD10B50A460021E0
:1013E0000023816B21F44011531E41EA03518163B4
:1013F00010BD08B5002300930090009B0B440093A0
:10140000009B1A6008BD08B50246002000900092BB
:1014100001F12800009B184400900098006880B2F9
:1014200008BD0A4600214168164B1940114341602E
:1014300070474162826270470A460021416821F08C
:101440001F0111434160704740B1094908310968E3
:1014500041F40001064A0832116007E004490831EE
:10146000096821F40001024A083211607047000047
:101470000024014000280140003C0140FFFEF0FF35
:10148000FDF7F1FFFFFD3FFF0246002013680B4010
:101490000BB1012000E000207047CA430260704792
:1014A00070B502460020002300240B125568CEB20E
:1014B00005EA060415681D4015B10CB1012000E0D5
:1014C000002070BD00220A12D34303607047000061
:1014D00001684FF6FE721140016000210160416019
:1014E0008160C1608D49884208D18C4908394968BA
:1014F00041F00F01894A083A51608AE08749143166
:10150000884208D185490839496841F0F001834A89
:10151000083A51607DE081492831884208D17F49ED
:101520000839496841F470617C4A083A516070E0BA
:101530007A493C31884208D178490839496841F4F0
:101540007041764A083A516063E0744950318842EC
:1015500008D172490839496841F470216F4A083A44
:10156000516056E06D496431884208D16B490839B1
:10157000496841F47001694A083A516049E0674995
:101580007831884208D165490839496841F070616D
:10159000624A083A51603CE06149884206D1011F25
:1015A000096841F00F01021F116032E05C491431FB
:1015B000884208D15A49091F096841F0F001584A88
:1015C000121F116025E056492831884208D154493C
:1015D000091F096841F47061514A121F116018E037
:1015E0004F493C31884208D14D49091F096841F4EF
:1015F00070414B4A121F11600BE04949503188423B
:1016000007D14749091F096841F47021444A121F54
:101610001160704710B50022026847F6F0739A43D4
:101620000C6A8B6823430C6923434C6923438C6900
:101630002343CC6923434C6A23438C6A23431A43D4
:101640000260CB6843600B6883604B68C36010BD69
:101650000021016041608160C1600161416181617F
:10166000C161016241628162704721B1026842F04A
:101670000102026004E002684FF6FE731A40026045
:1016800070471AB103680B43036002E003688B43A1
:1016900003607047416070470146486880B27047F8
:1016A00001460020002201F080531BB11C4B083B77
:1016B0001A6802E0194B083B1A6802EA01030BB1F1
:1016C000012000E00020704700F0805119B114495A
:1016D000091F086002E01149083948607047014657
:1016E0000020002201F080531BB10D4B083B1A680B
:1016F00002E00A4B083B1A6802EA01030BB1012021
:1017000000E00020704700F0805119B10449091F22
:10171000086002E00149083948607047080002404B
:101720000804024010B50446CC48844208D1012187
:10173000042000F02DFB0021042000F029FB46E0EE
:10174000C748844208D10121082000F021FB002174
:10175000082000F01DFB3AE0C248844208D1012174
:10176000102000F015FB0021102000F011FB2EE0EE
:10177000BD48844208D10121202000F009FB00214E
:10178000202000F005FB22E0B848844208D1012166
:10179000402000F0FDFA0021402000F0F9FA16E0A8
:1017A000B348844208D10121802000F0F1FA0021E1
:1017B000802000F0EDFA0AE0AE48844207D1012112
:1017C000801500F0E5FA0021A01500F0E1FA10BD47
:1017D00010B50121084600F0DBFA0021012000F0DD
:1017E000D7FA10BD2DE9F041024600250026002061
:1017F00000230024002791F803C00CF00F0591F896
:1018000003C00CF0100CBCF1000F03D091F802C023
:101810004CEA050591F800C0BCF1000F31D0146806
:1018200000202BE04FF0010C0CFA00F3B1F800C0DF
:101830000CEA03069E4220D183004FF00F0C0CFAF5
:1018400003F7BC4305FA03FC4CEA040491F803C017
:10185000BCF1280F06D14FF0010C0CFA00FCC2F8C5
:1018600014C00AE091F803C0BCF1480F05D14FF055
:10187000010C0CFA00FCC2F810C0401C0828D1D39F
:101880001460B1F800C0BCF1FF0F34DD54680020D3
:101890002EE000F1080C4FF0010808FA0CF3B1F843
:1018A00000C00CEA03069E4221D183004FF00F0CCA
:1018B0000CFA03F7BC4305FA03FC4CEA040491F864
:1018C00003C0BCF1280F05D100F1080C08FA0CF890
:1018D000C2F8148091F803C0BCF1480F07D100F1A1
:1018E000080C4FF0010808FA0CF8C2F81080401CF0
:1018F0000828CED35460BDE8F0814FF6FF71018017
:10190000022181700421C170704702460020936853
:101910000B400BB1012000E00020704701468868B1
:1019200080B2704702460020D3680B400BB1012003
:1019300000E0002070470146C86880B2704701612E
:101940007047416170470AB1016100E04161704731
:10195000C16070474FF480320A43826181618261C5
:1019600082698269704702460020434B18684FF62F
:101970008073184040EA021008433F4B18607047DC
:101980003E49C8617047F0B50A4600230024002193
:10199000002500F00046B6F1004F02D1364EF16945
:1019A00001E0354E7168C0F3034583B200F4401680
:1019B000B6F5401F08D121F070612F4E766826F0F1
:1019C00070662D4F7E6012E000F48016B6F5801F21
:1019D00006D1032606FA05F4A14341F0706106E042
:1019E000460D360103FA06F6B14341F0706122B1AB
:1019F000460D360103FA06F6314300F00046B6F113
:101A0000004F02D11C4EF16101E01B4E7160F0BD30
:101A100030B500228B071C0F0F2303FA04F2164B7C
:101A200008338C1053F824309343134C08348D1032
:101A300044F8253023468C1053F824308C07240FAB
:101A400000FA04F423430C4C08348D1044F825307C
:101A500030BD0A49DC3108607047000000080140D1
:101A6000000C01400010014000140140001801402A
:101A7000001C014000200140000001400000204205
:101A8000DF48006840F00100DD4908600846406812
:101A9000DC490840DA49486008460068DA490840ED
:101AA000D74908600846006820F48020086008468E
:101AB000406820F4FE0048604FF41F0088607047C3
:101AC000CF49096821F48031CD4A11601146096877
:101AD00021F480211160B0F5803F03D0B0F5802F54
:101AE0000ED106E0C649096841F48031C44A11604C
:101AF00007E0C349096841F4A021C14A116000E030
:101B000000BF00BF704710B501460022002300202F
:101B10004A11012A02D1BA4C236806E0022A02D1F6
:101B2000B74C236A01E0B64C636A01F01F0201243E
:101B300094401C400CB1012000E0002010BD38B5DD
:101B4000002000900024002500BF3120FFF7DBFFBC
:101B500005460098401C00900098B0F5A06F01D099
:101B6000002DF2D03120FFF7CEFF08B1012400E0B4
:101B70000024204638BD01460020A14A106820F00C
:101B8000F80040EAC10010607047A0490860704743
:101B9000024600209A4B586820F47C1042EA010368
:101BA0001843974B5860704798490866704701463C
:101BB0000020934A506820F00300084350607047AB
:101BC0008F48406800F00C007047014600208C4AA6
:101BD000506820F0F0000843506070470146002034
:101BE000874A506820F4E06008435060704701461F
:101BF0000020834A506820F4605040EAC1005060E1
:101C0000704729B17E4A527A02437D4B5A7204E0F2
:101C10007B4A527A82437A4B5A7270477B49D83159
:101C20000860704701460020754A506820F4404023
:101C30000843506070470021714A20321170704A89
:101C400082F82010012802D004280AD104E00121E2
:101C50006B4A2032117005E00521694A203211706B
:101C600000E000BF00BF70476949086070476449E1
:101C7000096A0143624A1162704765494439086044
:101C8000704730B500210022002400235C4D6D68B0
:101C900005F00C0121B1042905D0082923D105E064
:101CA0005C4D056022E05C4D05601FE0544D6D68A1
:101CB00005F47012524D6D6805F48034022505EB71
:101CC00092421CB9554D554305600BE04C4D6D6873
:101CD00005F400351DB1524D5543056002E04E4DEF
:101CE0005543056002E04B4D056000BF00BF444D09
:101CF0006D6805F0F00109094A4D6B5C0568DD402F
:101D000045603F4D6D6805F4E061090A454D6B5C27
:101D10004568DD4085603A4D6D6805F46051C90A3B
:101D2000404D6B5C4568DD40C560354D6D6805F420
:101D30004041890B3C4D6B5CC568B5FBF3F5056113
:101D400030BD29B12E4A526902432D4B5A6104E03D
:101D50002B4A526982432A4B5A61704729B1284A5B
:101D600092690243264B9A6104E0254A92698243B4
:101D7000234B9A61704729B1214AD2690243204B13
:101D8000DA6104E01E4AD26982431D4BDA61704772
:101D900029B11B4AD2680243194BDA6004E0184AA1
:101DA000D2688243164BDA60704729B1144A12692F
:101DB0000243134B1A6104E0114A12698243104B2B
:101DC0001A61704712494039086070470F49C8646A
:101DD00070470B49C87170470948406A40F08070ED
:101DE00007494862704701460020054A92680A4048
:101DF0000AB1012000E00020704701498872704755
:101E0000001002400000FFF8FFFFF6FE0000424213
:101E10008004424200127A00001BB70000093D0016
:101E2000808D5B005A0000206A00002010B5044637
:101E3000FE48844208D10121C014FFF7A9FF002108
:101E4000E014FFF7A5FFC4E0B4F1804F08D10121F1
:101E50000846FFF7AAFF00210120FFF7A6FFB8E020
:101E6000F348844208D101210220FFF79EFF0021A0
:101E70000220FFF79AFFACE0EE48844208D101212E
:101E80000420FFF792FF00210420FFF78EFFA0E05F
:101E9000E948844208D101210820FFF786FF00218C
:101EA0000820FFF782FF94E0E448844208D1012132
:101EB0001020FFF77AFF00211020FFF776FF88E05F
:101EC000DF48844208D101212020FFF76EFF002166
:101ED0002020FFF76AFF7CE0DA48844208D1012124
:101EE0004014FFF755FF00216014FFF751FF70E029
:101EF000D548844209D10121C804FFF749FF0021D8
:101F00004FF40020FFF744FF63E0D048844209D13A
:101F100001210805FFF73CFF00214FF48010FFF777
:101F200037FF56E0CA48844209D101214805FFF72E
:101F30002FFF00214FF40010FFF72AFF49E0C548AA
:101F4000844208D101214020FFF72FFF00214020CB
:101F5000FFF72BFF3DE0C048844208D101218020DB
:101F6000FFF723FF00218020FFF71FFF31E0BB4870
:101F7000844208D101218015FFF717FF0021A01529
:101F8000FFF713FF25E0B648844209D10121080478
:101F9000FFF7FEFE00214FF48030FFF7F9FE18E056
:101FA000B048844209D101214804FFF7F1FE002125
:101FB0004FF40030FFF7ECFE0BE0AB48844208D151
:101FC00001218804FFF7E4FE00214FF48020FFF791
:101FD000DFFE10BD00220288944B98420ED0994B30
:101FE00098420BD0B0F1804F08D0914B984205D069
:101FF000904B984202D0904B984204D14FF68F7389
:102000001A404B881A438D4B984207D08C4B98420C
:1020100004D04FF6FF431A40CB881A4302808B88C6
:1020200083850B880385814B98420BD0854B984262
:1020300008D08B4B984205D08A4B984202D08A4BED
:10204000984201D10B7A038601238382704770B5D1
:10205000002400220023058C4FF6FE7635400584CF
:10206000028C8388048B4FF68F752C40B51E2C4054
:102070000D882C43751E2A400D892A434D882A431A
:102080006A4DA8420BD06F4DA84208D0744DA842AB
:1020900005D0744DA84202D0734DA84213D14FF61B
:1020A000F7752A404D892A434FF6FB752A408D88E3
:1020B0002A434FF6FF652B404FF6FF552B408D8985
:1020C0002B43CD892B4383800483CD88858602846E
:1020D00070BD70B5002400220023058C4FF6EF760A
:1020E00035400584028C8388048B48F6FF752C40AC
:1020F0004FF6FF452C400D884FF6FF7606EA052582
:102100002C434FF6DF752A400D8906EA05152A4350
:102110004D8806EA05152A43444DA84202D0494D90
:10212000A8421DD14FF67F752A404D894FF6FF76A4
:1021300006EA05152A434FF6BF752A408D8806EA40
:1021400005152A434FF6FF352B404FF2FF752B4004
:102150008D8906EA85052B43CD8906EA85052B4343
:1021600083800483CD880587028470BD70B5002408
:1021700000220023058C4FF6FF6635400584028C53
:102180008388848B4FF68F752C404FF6FC752C405E
:102190000D882C434FF6FF552A400D894FF6FF76E8
:1021A00006EA05252A434D8806EA05252A431F4DE0
:1021B000A84202D0234DA8421DD14FF2FF752A40FC
:1021C0004D894FF6FF7606EA05252A434FF6FF357F
:1021D0002A408D8806EA05252A434EF6FF752B40D6
:1021E0004DF6FF752B408D8906EA05152B43CD89E9
:1021F00006EA05152B4383808483CD888587028476
:1022000070BD70B5002200230024058C4EF6FF76C9
:1022100035400584038C8488828B48F6FF752A40FC
:102220004FF6FF452A400D8820E00000002C0140B9
:102230000004004000080040000C00400010004076
:102240000014004000340140004C014000500140A7
:102250000054014000180040001C004000200040D5
:102260000040014000440140004801404FF6FF7625
:1022700006EA05252A434DF6FF752B400D8906EA2F
:1022800005352B434D8806EA05352B43FA4DA84208
:1022900002D0FA4DA84208D14BF6FF752C408D892B
:1022A0004FF6FF7606EA85152C4384808283CD881D
:1022B000A0F84050038470BD828B4FF2FF331A4068
:1022C0008283828B4FF6FF7303EA01231A438283D2
:1022D0007047F0B50C461546002200210026078CF9
:1022E0004EF6FF7C07EA0C070784828B018C4FF6C1
:1022F000FF7707EA043640F6FF473A404FF6FF778C
:1023000007EA05273A434FF6FF7707EA03373A43D0
:10231000D94FB8420ED0D94FB8420BD0B0F1804F50
:1023200008D0D74FB84205D0D64FB84202D0D64FCA
:10233000B84206D14DF6FF77394046F4805739430D
:1023400005E047F6FF57394044F48057394382830C
:102350000184F0BD828B4FF6F3731A408283828B27
:102360000A4382837047F0B50C46154600220021CF
:102370000026078C4FF6FF6C07EA0C070784828B58
:10238000018C4FF6FF7707EA04264FF60C773A40A8
:102390004FF6FF7707EA03172F433A43B64FB84289
:1023A0000ED0B64FB8420BD0B0F1804F08D0B44F2A
:1023B000B84205D0B34FB84202D0B34FB84206D1AD
:1023C0004FF6FF57394046F48077394305E04FF226
:1023D000FF57394044F48077394382830184F0BD4C
:1023E000028B4FF2FF331A400283028B4FF6FF73CA
:1023F00003EA01231A4302837047F0B50C461546E1
:10240000002200210026078C4FF6EF7C07EA0C071C
:102410000784028B018C4FF6FF7707EA041640F61B
:10242000FF473A404FF6FF7707EA03373A434FF644
:10243000FF7707EA05273A438F4FB8420ED08F4FF8
:10244000B8420BD0B0F1804F08D08D4FB84205D0C4
:102450008C4FB84202D08C4FB84206D14FF6DF778E
:10246000394046F01007394305E04FF65F773940B1
:1024700044F01007394302830184F0BD028B4FF60C
:10248000F3731A400283028B0A4302837047F0B54C
:102490000C46154600220021068C4FF6FE773E4082
:1024A0000684028B018C4FF60C7632407E1C06EAC5
:1024B00003162E433243704EB0420ED06F4EB042E0
:1024C0000BD0B0F1804F08D06D4EB04205D06D4EAC
:1024D000B04202D06C4EB04206D14FF6FD7631408C
:1024E00044F00106314305E04FF6F576314044F003
:1024F0000106314302830184F0BD70B505460C46E8
:102500005D4885420ED05D4885420BD0B5F1804FC5
:1025100008D05B48854205D05A48854202D05A48C7
:10252000854200D100E000BF208850B92389A288ED
:1025300061882846FFF7ABFFE1882846FFF79EFF3A
:1025400025E0208804280AD12389A28861882846AA
:10255000FFF753FFE1882846FFF742FF17E0208886
:1025600008280AD12389A28861882846FFF7FBFE44
:10257000E1882846FFF7EEFE09E02389A2886188FA
:102580002846FFF7A6FEE1882846FFF795FE70BDB6
:102590002DE9F04105460C4600260127608808B960
:1025A000022600E00026A088012801D1022700E0D1
:1025B00001272088A0B92389A28861882846FFF7CF
:1025C00066FFE1882846FFF759FF23893A463146DE
:1025D0002846FFF712FFE1882846FFF701FF13E0C6
:1025E0002389A28861882846FFF707FFE1882846EB
:1025F000FFF7F6FE23893A4631462846FFF747FFA4
:10260000E1882846FFF73AFFBDE8F0810A884B8849
:102610001A438B881A43CB881A430B891A434B8978
:102620001A438B891A43A0F8442070474FF6FF7174
:10263000818000210180C1804180017270470021AA
:10264000018041808180C180018141818181C1817E
:102650007047002101804180012181800021C180DB
:10266000018170470021018041808180C18001810A
:102670004181818170470000002C014000340140FD
:102680000004004000080040000C004021B1028816
:1026900042F00102028004E002884FF6FE731A4005
:1026A0000280704731B1B0F8442042F40042A0F8F3
:1026B000442005E0B0F84420C2F30E02A0F8442004
:1026C00070471AB183890B43838102E083898B436E
:1026D000838170478182704741EA0203A0F8483045
:1026E00070471AB183890B43838102E083898B434E
:1026F0008381704701894FF6F8721140018170475C
:102700000A46002101894FF68F7319401143018158
:10271000704730B504460D4629462046FFF7F0FFC6
:10272000208940F00700208130BD2DE9F0410446AA
:102730000D4616461F46602D06D13B460122314606
:102740002046FFF75AFE05E03B460122314620466F
:10275000FFF79DFE29462046FFF7D2FF208940F073
:1027600007002081BDE8F08130B50C4600210189C9
:10277000C9B24FF6FF7505EA0325154325432943E2
:10278000018130BD2DE9F04105460E4617469846B9
:10279000002443463A4631462846FFF7E5FF2C8998
:1027A0004FF6F870044044F007044FF68F70044071
:1027B00044F070042C81BDE8F081F0B504460D466C
:1027C00016461F463B46324629462046FFF7CCFFB9
:1027D000208940F480402081F0BD018582827047CD
:1027E0000A46002101884FF68F731940114301807A
:1027F0007047F0B50C4615461E4600210022002306
:102800000189028B038C4FF6F877394021434FF64C
:10281000FC473A4040F201173A434FF6DD773B4020
:102820004FF6FF7707EA06172F433B4301810283E8
:102830000384F0BD0A460021018B4FF68F731940C7
:102840001143018370470A460021018B48F6FF734C
:1028500019404FF6FF7303EA0223194301837047BF
:102860000A460021818B4FF68F73194011438183F3
:1028700070470A460021818B48F6FF7319404FF6D6
:10288000FF7303EA022319438183704721B1028851
:1028900042F08002028004E002884FF67F731A4003
:1028A0000280704721B1828842F00402828004E0F5
:1028B00082884FF6FB731A408280704721B182886C
:1028C00042F00802828004E082884FF6F7731A40D3
:1028D0008280704721B1828842F00102828004E048
:1028E00082884FF6FE731A40828070470A460021A4
:1028F000018B4FF6F77319401143018370470A4665
:102900000021018B4FF2FF7319404FF6FF7303EA6A
:1029100002231943018370470A460021818B4FF639
:10292000F77319401143818370470A460021818B58
:102930004FF2FF7319404FF6FF7303EA0223194366
:10294000818370470A460021018B4FF6FB731940C3
:102950001143018370470A460021018B4FF6FF3374
:1029600019404FF6FF7303EA0223194301837047AE
:102970000A460021818B4FF6FB7319401143818376
:1029800070470A460021818B4FF6FF3319404FF6FE
:10299000FF7303EA02231943818370470A4600212B
:1029A000018B4FF67F7319401143018370470A462C
:1029B0000021018BC1F30E014FF6FF7303EA0223DE
:1029C0001943018370470A460021818B4FF67F73BC
:1029D00019401143818370470A460021818BC1F35E
:1029E0000E014FF6FF7303EA0223194381837047F8
:1029F0000A460021018C4FF6FD73194011430184F2
:102A000070470A460021018C4FF6F77319401143B5
:102A1000018470470A460021018C4FF6DF7319408C
:102A20004FF6FF7303EA02131943018470470A4605
:102A30000021018C4FF67F7319404FF6FF7303EAB4
:102A400002131943018470470A460021018C4FF696
:102A5000FF5319404FF6FF7303EA02231943018421
:102A600070470A460021018C4FF2FF7319404FF660
:102A7000FF7303EA02231943018470470A460021C9
:102A8000018C4DF6FF7319404FF6FF7303EA0233D2
:102A900019430184704730B5002301248C40A3B250
:102AA000048C9C430484048C02FA01F5ADB22C43DF
:102AB000048430BD30B5002304248C40A3B2048CC0
:102AC0009C430484048C02FA01F5ADB22C430484C7
:102AD00030BD70B50346002000241846183001258B
:102AE0008D40ACB21D8CA5431D8409B1082909D1C4
:102AF00000EB6100056825F0700505600568154369
:102B000005600EE00D1FC5F34E052844056825F449
:102B1000E045056005684FF6FF7606EA0226354374
:102B2000056070BD21B1028842F00202028004E01B
:102B300002884FF6FD731A400280704721B1028867
:102B400042F00402028004E002884FF6FB731A4050
:102B50000280704721B1828842F08002828004E0C6
:102B600082884FF67F731A408280704702884FF642
:102B7000F7731A40028002880A43028070478288F5
:102B80004FF68F731A40828082880A438280704792
:102B900002894FF6F8731A40028102890A430281C2
:102BA000704702894FF67F731A40028102890A43F7
:102BB00002817047818470478185704781867047A4
:102BC0000187704781877047A0F8401070470288DE
:102BD0004FF6FF431A40028002880A430280704782
:102BE0000146888E70470146088F70470146888FDE
:102BF00070470146B1F8400070470146888C704725
:102C00000146088D704702460020138A0B400BB125
:102C1000012000E000207047CA430282704730B5AF
:102C20000246002000230024158A05EA0103958945
:102C300005EA010413B10CB1012000E0002030BD11
:102C4000CA4302827047000010B50446FB48844224
:102C500009D101218803FFF79BF800214FF4804040
:102C6000FFF796F832E0F648844209D10121480482
:102C7000FFF79BF800214FF40030FFF796F825E0AE
:102C8000F048844209D101218804FFF78EF8002121
:102C90004FF48020FFF789F818E0EB48844209D10F
:102CA0000121C804FFF781F800214FF40020FFF74D
:102CB0007CF80BE0E548844208D101210805FFF7C4
:102CC00074F800214FF48010FFF76FF810BD2DE964
:102CD000F04786B005460E460024A24600BFA14636
:102CE0000027B08900B100BF2F462C8A4CF6FF7038
:102CF0000440F08804432C82AC894EF6F310044063
:102D0000B08831890843718908430443AC81AC8A97
:102D10004FF6FF400440B0890443AC8201A8FEF79F
:102D2000B0FFC648874202D1DDF810A001E0DDF80F
:102D30000CA0A88900F4004040B10AEBCA0000EBE7
:102D40000A1031684900B0FBF1F807E00AEBCA004D
:102D500000EB0A1031688900B0FBF1F86420B8FB81
:102D6000F0F004012009642101FB1089A88900F416
:102D7000004040B1322000EBC900B0FBF1F000F0A0
:102D80000700044308E0322000EB09106421B0FB87
:102D9000F1F000F00F0004432C8106B0BDE8F0878D
:102DA0004FF41651016000218180C18001810C2106
:102DB000418100218181704710B502460020108AB0
:102DC0004FF2FF0318400B884C8823438C88234321
:102DD000CC8823431843108210BD0021018041801C
:102DE0008180C180704721B1828942F40052828182
:102DF00004E082894DF6FF731A4082817047F0B576
:102E00000346002400260025002040F66A17B94238
:102E100000D100BF1846C1F3421401F01F0601277C
:102E200007FA06F5012C01D10C3004E0022C01D187
:102E3000103000E014301AB107682F43076002E039
:102E40000768AF430760F0BD1AB1838A0B438382E2
:102E500002E0838A8B4383827047028A4FF6F073C5
:102E60001A400282028A0A430282704782894FF224
:102E7000FF731A40828182890A438281704721B19F
:102E8000828942F00202828104E082894FF6FD735A
:102E90001A4082817047028A4FF6DF731A4002821D
:102EA000028A0A430282704721B1028A42F48042B8
:102EB000028204E0028A4BF6FF731A4002827047D6
:102EC000C1F308028280704701468888C0F3080079
:102ED0007047818941F0010181817047028BD2B234
:102EE0000283028B42EA012202837047028B02F4C2
:102EF0007F420283028B0A430283704721B1828A98
:102F000042F02002828204E0828A4FF6DF731A4088
:102F10008282704721B1828A42F01002828204E0EC
:102F2000828A4FF6EF731A408282704721B1828AFB
:102F300042F00802828204E0828A4FF6F7731A4058
:102F40008282704721B1828942F40042828103E08B
:102F50008289C2F30E028281704721B1828A42F4D3
:102F60000062828204E0828A4FF2FF731A408282FA
:102F70007047828A4FF6FB731A408282828A0A4324
:102F80008282704721B1828A42F00202828204E08A
:102F9000828A4FF6FD731A408282704702460020F3
:102FA000B1F5007F00D100BF13880B400BB10120A9
:102FB00000E00020704701F40072B2F5007F00D1FC
:102FC00000BFCA430280704770B502460024002348
:102FD0000025002040F66A16B14200D100BFC1F3BF
:102FE000421501F01F03012606FA03F3012D02D159
:102FF0009689334006E0022D02D1168A334001E063
:10300000968A33400C12012606FA04F416883440DE
:1030100013B10CB1012000E0002070BD10B50022FA
:10302000002340F66A14A14200D100BF0A12012415
:103030009440A3B2DC43048010BD0000003801407E
:103040000044004000480040004C00400050004058
:103050000CB50020019000906C48006840F480306E
:103060006A49086000BF6948006800F400300090B9
:103070000198401C0190009818B90198B0F5A06F14
:10308000F1D16248006800F4003010B101200090D6
:1030900001E0002000900098012843D15C480068BE
:1030A00040F010005A4908600846006820F003000C
:1030B00008600846006840F0020008605348406815
:1030C000524948600846406848600846406840F4F5
:1030D000806048600846406820F47C1048600846DC
:1030E000406840F4881048600846006840F08070EE
:1030F000086000BF4548006800F000700028F9D063
:103100004248406820F00300404948600846406853
:1031100040F00200486000BF3C48406800F00C00EE
:103120000828F9D10CBD10B5FFF792FF10BD10B5FE
:103130003648006840F0010034490860084640689D
:10314000344908403149486008460068324908401F
:103150002E4908600846006820F480200860084670
:10316000406820F4FE0048604FF41F008860FFF7BD
:10317000DAFF4FF000602949086010BD10B500214A
:1031800000200022214B5B6803F00C0121B10429CF
:1031900006D0082928D107E0214B224C236027E0E4
:1031A000214B204C236023E0184B5B6803F4701024
:1031B000164B5B6803F48032022303EB904022B984
:1031C0001A4B4343174C23600DE0104B5B6803F42C
:1031D000003323B1164B4343124C236003E0124BE0
:1031E0004343104C236003E00D4B0E4C236000BFA3
:1031F00000BF064B5B68C3F303130E4CE15C094B45
:103200001B68CB40074C236010BD0000001002403B
:10321000002002400000FFF8FFFFF6FE08ED00E08E
:1032200000127A0070000020001BB70000093D006A
:10323000808D5B00740000200948804709480047E2
:10324000FEE7FEE7FEE7FEE7FEE7FEE7FEE7FEE756
:10325000FEE7FEE704480549054A064B70470000B3
:103260002F31000831010008E0010020E0070020B4
:10327000E0030020E0030020704770477047754668
:1032800000F028F8AE4605006946534620F00700D6
:10329000854618B020B5FFF7DDFFBDE820404FF0B0
:1032A00000064FF000074FF000084FF0000B21F030
:1032B0000701AC46ACE8C009ACE8C009ACE8C009FD
:1032C000ACE8C0098D4670470446AFF30080204645
:1032D000FCF775FF004870477C0100200149182069
:1032E000ABBEFEE7260002007047000090EA010F27
:1032F00048BF81F0004100F12482421A3CBF801A8D
:1033000089184FEAD0524FF07F4C1CEA410FA2EBD4
:10331000D15318BF9CEA026F00F03B804FF0004C85
:103320004CEA00204CEA012121FA03FC10EB0C0CC2
:103330001ED202F1FF325FEA1C2040EBC25038BFC0
:1033400070471CF07F0F4FEA400C18BFBCF17F4F55
:1033500038BF7047C3F12003994008BF20F0010037
:10336000BCF17F4F38BF7047A0F1C04000F0DDB91D
:103370004FEA3C00000A40EBC25028BF1CF0FF0F90
:103380004FEA400CE6D018BFBCF17F4F38BF704702
:10339000EAE79CEA026F05D010EA5C0F08BF00F074
:1033A0000040704710B500F07AF900BF64FBBE3EE4
:1033B0004FF47F0C1CEAD0121EBF1CEAD11392EA14
:1033C0000C0F93EA0C0F00F0858090EA010F48BFC4
:1033D00042F4807240F4000C41F400002CF07F4174
:1033E00020F07F4000B58142A2EB03020FF2081CDF
:1033F000ACEB504EC0F100009EF800E04FEA4E0EDC
:1034000000FB0EFC38BF49004FEA2C1C02F5FA0203
:103410000CFB0EF34FEACE1E4FEA112C4FEAC121EE
:103420000EEB635E42EB22420EFB0CFC4FEA1C5398
:1034300000FB03114FEA112C4FEA01310EFB0CFC8B
:103440004FEADC4C00FB0C11C14228BF09184CEBC1
:1034500003335DF804EB10EB410143EBC250B2F5CE
:103460007C0F38BF704729D512F0F00F1CBF00F158
:10347000C04000F0004070470081828384858687C9
:1034800088898B8C8D8E8F919293959697999A9C23
:103490009D9FA0A2A3A5A7A8AAACAEB0B2B3B5B792
:1034A000B9BCBEC0C2C5C7C9CCCED1D4D7D9DCDF68
:1034B000E2E6E9ECF0F3F7FAFE0000004FEA400C18
:1034C0000CF1807CBCF17E4F28BF7047B0F1C0404A
:1034D00000F02BB990EA010F0CEAD11348BF42F477
:1034E0008072624538BF634507D213F47F0F16D050
:1034F00080EA010000F00040704710B500F0CFF8FE
:10350000097EFC3E00F005B880EA010000F00040B2
:10351000704780EA010000F0004000F006B912F4A4
:103520007F0F04BF0248704780EA010000F0FDB839
:103530000000C07F41000B0ED3F19E0208D950F469
:1035400000034FEA032323FA02F048BF40427047CA
:1035500010B500F0A4F800BF499224800020704705
:103560006FF0004282EA20007047000010F0004136
:1035700048BF4042B0FA80F310FA03F2C3F19D0352
:103580000BD051EAC35101EB1220530638BF7047EC
:1035900000F1010008BF20F0010070474FF47F0CDC
:1035A0001CEAD0121EBF1CEAD11392EA0C0F93EA58
:1035B0000C0F00F0478090EA010F48BF42F4807280
:1035C0004FF0004C4CEA00204CEA012102EB0302D0
:1035D000A0FB0113A2F50002002918BF43F001036C
:1035E0005B0028BF4FEA330342EB22425FEA132C11
:1035F0004CEBC2502EBFBCEB436FB2F57C0F704753
:103600004FEA036CBCF1004F08BF20F00100B2F597
:103610007C0F38BF70470BD582F0FF0212F5803F58
:10362000C8BF704700F1C040D8BF00F000407047ED
:1036300000F5000C5FEA4C0C48BF7047B0F1C04089
:1036400000F073B890EA010F0CEAD11348BF42F4BE
:103650008072624538BF634504D280EA010000F001
:103660000040704710B500F01AF800BF8900013E15
:1036700000F007B800F009B85FEA410C5FEA1C6C83
:1036800008D080EA010000F050B85FEA400C5FEA21
:103690001C6CF6D14FF00040A0F5800070470EF191
:1036A000020E2EF0030E5EF8044B244204D44FEABF
:1036B0004102B2F17F4F11D84FEA4003B3F17F4F7F
:1036C0000CD80ED14FEAD07CB2F17F4F0CEB4C0CF2
:1036D0000CF1020C08BF4CEBD17C04E04FF0080C5D
:1036E00001E04FEAD17C0CEB4C0324FA03F404F024
:1036F0000704B4F1040C06D20EEB840CBDE81040B4
:103700004CF0010C6047DFE80CF0070802024FF0B4
:103710000040A0F5800010BD0846420018BFD2F15D
:10372000807288BF00F0004010BDFF2141EAD050F8
:10373000C005704790EA010F48BF81F000413FF596
:10374000DCAD421A04D882F00042A0EB0200114422
:103750004FEAD0524FF07F4C1CEA410FA2EBD153FD
:1037600018BF9CEA026F4AD04FF0004C4CEA002090
:103770004CEA012121FA03FCB0EB0C0C0FD412F03F
:10378000FE0F36D05FEA4C001DD5001240EBC25050
:1037900038BF70471CF03F0F18BF70470BE0A2F115
:1037A00001025FEA1C2040EBC25038BF70471CF09A
:1037B0007F0F18BF7047C3F12003994014BF401E0C
:1037C00020F00100704780084FEA122308BF7047BD
:1037D000B0FA80FCA2EB0C02CCF1280C60FA0CF0E1
:1037E00093EA122F04BF00EBC25070474FEAC37038
:1037F0007047130A5FEADC1008BF7047F6E79CEADF
:10380000026F04D010EA5C0F08BF0020704710B5AB
:10381000FFF745FF40DFF63E81F0004070470000B3
:103820004038000800000020840000006C010008FF
:10383000C4380008840000205C07000088010008EC
:103840000000000000000000000000000000000078
:103850000000000000000000000000000000000068
:103860000000000000000000000000000000000058
:103870000000000000000000000000000000000048
:103880000000000000000000000000000000000038
:103890000000012345012345000000000000010253
:1038A00003040102030406070809020406080000D5
:1038B00000A24A040000000000000000010203040E
:0438C00006070809E6
:0400000508000131BD
:00000001FF
